:020000040000FA
:100000000865012021030000510300005303000094
:1000100055030000570300005903000000000000D2
:100020000000000000000000000000005B03000072
:100030005D030000000000005F030000610300009A
:100040006303000063030000630300006303000018
:1000500063030000C91C0000ED1C0000FD1C000033
:100060000D1D00001D1D00002D1D00003D1D000088
:100070004D1D00005D1D00006D1D00007D1D000078
:100080008D1D00009D1D0000AD1D0000BD1D000068
:10009000CD1D0000DD1D0000ED1D0000FD1D000058
:1000A0000D1E00001D1E00002D1E00003D1E000044
:1000B0004D1E00005D1E000063030000630300008E
:1000C0006303000063030000630300006303000098
:1000D0006303000063030000630300006303000088
:1000E0006303000063030000630300006303000078
:1000F0006303000063030000630300006303000068
:100100006303000063030000630300006303000057
:100110006303000063030000630300006303000047
:100120006303000063030000630300006303000037
:100130006303000063030000630300006303000027
:100140006303000063030000630300006303000017
:100150006303000063030000630300006303000007
:1001600063030000630300006303000063030000F7
:1001700063030000630300006303000063030000E7
:1001800063030000630300006303000063030000D7
:1001900063030000630300006303000063030000C7
:1001A00063030000630300006303000063030000B7
:1001B00063030000630300006303000063030000A7
:1001C0006303000063030000630300006303000097
:1001D0006303000063030000630300006303000087
:1001E0006303000063030000630300006303000077
:1001F0006303000063030000630300006303000067
:100200006303000063030000630300006303000056
:100210006303000063030000630300006303000046
:100220006303000063030000630300006303000036
:100230006303000063030000630300006303000026
:100240006303000063030000630300006303000016
:100250006303000063030000630300006303000006
:1002600063030000630300006303000063030000F6
:1002700063030000630300006303000063030000E6
:1002800000F002F800F03CF80AA090E8000C82446C
:100290008344AAF10107DA4501D100F031F8AFF249
:1002A000090EBAE80F0013F0010F18BFFB1A43F054
:1002B000010318475C6900007C690000103A24BF04
:1002C00078C878C1FAD8520724BF30C830C144BFBB
:1002D00004680C60704700000023002400250026FD
:1002E000103A28BF78C1FBD8520728BF30C148BF99
:1002F0000B6070471FB506F089FB1FBD10B510BD20
:1003000000F0C5F91146FFF7F5FF06F023FA00F0FB
:10031000E3F903B4FFF7F2FF03BC00F0E7F90000D4
:1003200013484FF07701016012484FF077010160E8
:1003300011484FF4885101600D484FF0760101607B
:100340000C484FF0760101600C4880470C4800478C
:10035000FEE7FEE7FEE7FEE7FEE7FEE7FEE7FEE775
:10036000FEE7FEE707480849084A094B70470000C6
:10037000040805400C08054000080540D53C000075
:1003800081020000085D012008650120086101204C
:100390000861012040EA010310B59B070FD1042A30
:1003A0000DD310C808C9121F9C42F8D020BA19BA40
:1003B000884201D9012010BD4FF0FF3010BD1AB1A5
:1003C000D30703D0521C07E0002010BD10F8013BFA
:1003D00011F8014B1B1B07D110F8013B11F8014B21
:1003E0001B1B01D1921EF1D1184610BD70477047FA
:1003F0007047000000487047A85C0120704700006B
:10040000FFFFFFFFFFFFFFFFFFFFFFFFFFFFFFFFFC
:10041000FFFFFFFFFFFFFFFFFFFFFFFFFFFFFFFFEC
:1004200053EA020C00F069802DE9F04B4FF0000612
:10043000002B1FBFB3FA83F503FA05F424FA05F67F
:100440005E4012BF1643B2FA82F502FA05F4C5F116
:1004500020051EBF22FA05FC44EA0C04203556EAAA
:10046000044C4FEA144418BF641C4FF000084FF0CE
:100470000009904271EB030C39D3002919BFB1FA7E
:1004800081F701FA07F6B0FA80F700FA07F6C7F12C
:1004900020071EBF20FA07FC46EA0C062037B6FBF1
:1004A000F4FCA7EB0507103F07F01F0BCBF120066C
:1004B0000CFA0BFB2CFA06F644BFB3460026202F9D
:1004C000A4BF5E464FF0000B5BEA060C08BF4FF07E
:1004D000010B19EB0B09ABFB027C48EB0608C01BB8
:1004E00006FB02CC0BFB03CC71EB0C01C1E70B4606
:1004F000024641464846BDE8F08B13B54FF0000078
:100500004FF00001AFF30080BDE81C407047032AA4
:1005100040F2308010F0030C00F0158011F8013B20
:10052000BCF1020F624498BF11F801CB00F8013B07
:1005300038BF11F8013BA2F1040298BF00F801CBCB
:1005400038BF00F8013B11F0030300F02580083AA2
:10055000C0F0088051F8043B083A51F804CBA0E8F9
:100560000810F5E7121D5CBF51F8043B40F8043B4E
:10057000AFF30080D20724BF11F8013B11F801CB83
:1005800048BF11F8012B24BF00F8013B00F801CB54
:1005900048BF00F8012B704710B5203AC0F00B801F
:1005A000B1E81850203AA0E81850B1E81850A0E877
:1005B0001850BFF4F5AF5FEA027C24BFB1E81850D1
:1005C000A0E8185044BF18C918C0BDE810405FEA41
:1005D000827C24BF51F8043B40F8043B08BF7047BD
:1005E000D20728BF31F8023B48BF11F8012B28BFC2
:1005F00020F8023B48BF00F8012B70474FF0000283
:100600000429C0F0128010F0030C00F01B80CCF124
:10061000040CBCF1020F18BF00F8012BA8BF20F892
:10062000022BA1EB0C0100F00DB85FEAC17C24BFE6
:1006300000F8012B00F8012B48BF00F8012B704790
:100640004FF0000200B5134694469646203922BF6B
:10065000A0E80C50A0E80C50B1F12001BFF4F7AFB6
:10066000090728BFA0E80C5048BF0CC05DF804EB98
:10067000890028BF40F8042B08BF704748BF20F806
:10068000022B11F0804F18BF00F8012B7047754600
:10069000FFF7B0FEAE4605006946534620F007005E
:1006A000854618B020B5FFF75DFEBDE820404FF04D
:1006B00000064FF000074FF000084FF0000B21F04C
:1006C0000701AC46ACE8C009ACE8C009ACE8C00919
:1006D000ACE8C0098D46704710B50446AFF3008002
:1006E0002046BDE81040FFF714BE00000149182065
:1006F000ABBEFEE7260002002DE9F04705460E4698
:10070000144600270021284603F09BFE8046012165
:10071000284603F096FE8146012C07D1B8F1010F5F
:1007200002D0B9F1010F08D1012706E03146284671
:1007300003F087FE012800D10127012F0BD10020F3
:1007400001E000BF401C0549096842F21072B1FB8C
:10075000F2F18142F5D8BDE8F08700000480FF1F68
:100760001CB500231A464FF40041012001F076FF2A
:1007700000BF00200090019000BF01208DF8000014
:1007800000208DF8060002208DF8050000208DF86D
:1007900002008DF804006A464FF40041012001F088
:1007A000CFFE1CBD10B54FF40041012001F03AFF0F
:1007B00010BD10B501F0DDFF02F0CFFB02F0EFFB42
:1007C00002F094FB02F0B4FBFFF7CAFFFFF7EAFF69
:1007D00001F06BFC01F08BFC10BD000010B501F0C6
:1007E000C6FBB0B10D4801680068401C0B4A1060A0
:1007F000192911D301F082FC00BF642000F00EFE25
:1008000001F034FB01F0B3FB0028F6D101F0A4FFA6
:1008100002E000200149086010BD00000080FF1FB9
:10082000014631B101290DD0022914D0032924D168
:100830001AE0184A127802F0010282F0010282F0F6
:10084000010024E0134A1278C2F3C00282F00102D0
:1008500082F001001BE00F4A1278C2F3401282F0CE
:10086000010282F0010012E00A4A1278C2F38012FB
:1008700082F0010282F0010009E0064A521D12785E
:1008800002F0010282F0010282F0010000BF00BF0D
:10089000704700003C40054038B5044600200090F9
:1008A00000252A4800884AF2015108432849A1F846
:1008B000FE0344BB26482630007800F0070008B944
:1008C000012536E023480068C0F3C01088B12048F5
:1008D0002A30007800F0010008B9012529E01C4801
:1008E0003630007820F00100401C194981F83600AC
:1008F0001FE017483630007820F00100401C1449F2
:1009000081F8360015E012483630007820F00100FA
:100910000F4981F8360000BF0020FFF781FF034632
:100920000098401C00900098B0F5805F01D2012B28
:10093000F2D1064800884FF6FE71084040F4254089
:100940000349A1F8FE03284638BD0000FE430540D8
:10095000004005400041054038B5044600200090A5
:1009600000251F4800884AF2015108431D49A1F89B
:10097000FE0394B91B482630007800F007000528D4
:1009800001D101251FE017482A30007820F001002E
:10099000401C144981F82A0015E012482A300078DA
:1009A00020F001000F4981F82A0000BF0220FFF764
:1009B00037FF03460098401C00900098B0F5805F18
:1009C00001D2012BF2D1064800884FF6FE71084093
:1009D00040F425400349A1F8FE03284638BD000035
:1009E000FE4305400040054000283ED01F490988CD
:1009F0004AF2015211431D4A11800178491E1C4AD6
:100A0000D2F8002161F31F721A490A600179491E68
:100A1000174AD2F8002161F31B6216490A60017A75
:100A2000491E134AD2F8002161F3175211490A6096
:100A30008189491E0E4AD2F8002161F310220D4926
:100A40000A60017C491E0A4AD2F8002161F30402BF
:100A50000749C1F80021B1F8FE134FF6FE721140AC
:100A600041F42541024AA2F8FE137047FE430540B7
:100A700000400540004105400D4909884AF20152F5
:100A800011430C4AA2F8FE131146D1F8001160F38D
:100A9000C711C2F800111146B1F8FE134FF6FE72ED
:100AA000114041F42541034AA2F8FE1370470000AB
:100AB000FE4305400040054010B586B004460020C6
:100AC00005902E48006804902C48406803902B48FD
:100AD000806802902948C06801902948007800F099
:100AE0000700052801D0052C0DD1264823490860B0
:100AF000C01248608860C86000BF0598401C05901F
:100B00000598B028F9D3204800884AF201510843DB
:100B10001B492639A1F8FE03084690F8260064F325
:100B2000020081F826000846B0F8FE034FF6FE7179
:100B3000084040F4254012492639A1F8FE03002060
:100B4000059000BF0598401C05900598B028F9D382
:100B50000A490498086003984860029888600198E0
:100B6000C8600020059000BF0598401C05900598BE
:100B7000B028F9D303F04CF806B010BD0080044053
:100B800026400540EEFAFFFFFE43054085B00021F8
:100B90000491344909680391324949680291314905
:100BA000896801912F49C9680091002858D02E49C1
:100BB000097801F0070105290DD12C49294A116056
:100BC000C91251609160D16000BF0499491C049121
:100BD0000499B029F9D3264909884AF201521143F0
:100BE000234A11808178C27841EA0211027941EAF0
:100BF0000221427941EA0231827941EA0241427896
:100C000041EA0251027841EA026141EA0271164A60
:100C1000263A1162164909884FF6FE72114041F4D6
:100C20002541114A263AA2F8FE130021049100BF83
:100C30000499491C04910499B029F9D3094A0399EC
:100C4000116002995160019991600099D160002171
:100C5000049100BF0499491C04910499B029F9D367
:100C600005B070470080044026400540EEFAFFFFC3
:100C7000FE4305402DE9F04100F000FF054635B187
:100C8000681C20B126480089B5EB802F02D90020CE
:100C9000BDE8F08100F0D2FE06462148006800F56C
:100CA0008030B04203D81E484068B04207D81C4884
:100CB0000168008901EB40201A49C86001E0194829
:100CC000C66000F0CBFE80461649C868294601F090
:100CD000EBFF0746B84501D00020D9E700F0DCFE65
:100CE0000446601C48B10E48006800F58030A04200
:100CF00003D80B484068A04206D80948006800F5B0
:100D000080300849886001E006488460284600F089
:100D100053FB012801D00020BAE70120B8E700000A
:100D2000005B01202080FF1F2DE9F04104460D46A5
:100D300016460027A582A18A002005F047FE206103
:100D4000266001F087F9A0603C20A081206918B1DD
:100D5000A06808B1012000E0002007463846BDE841
:100D6000F081000010B502F047FE002005F024FEDF
:100D700000F044FB054800F0E4FE054800F01EFDCD
:100D800005F0B0F802F04AFD10BD0000005B012044
:100D9000985C012010B500BF00F15C0303EB8113E8
:100DA0001B6823F003031478234300F15C0404EB75
:100DB0008114236000BF00BF00F15C0303EB8113CB
:100DC0001B6823F00C03547843EA840400F15C03AD
:100DD00003EB81131C6000BF00BF00F15C0303EB59
:100DE00081131B6823F01003947843EA041400F184
:100DF0005C0303EB81131C6000BF00BF00F15C03C8
:100E000003EB81131B6823F02003D47843EA4414D6
:100E100000F15C0303EB81131C6000BF00BF00F115
:100E20005C0303EB81131B6823F04003147943EA4E
:100E3000841400F15C0303EB81131C6000BF00BF4E
:100E400000F15C0303EB81131B6823F080035479EA
:100E500043EAC41400F15C0303EB81131C6000BF80
:100E600000BF00F15C0303EB81131B6823F44073A4
:100E7000947943EA042400F15C0303EB81131C60C2
:100E800000BF00BF00F15C0303EB81131B6823F478
:100E90008063D47943EA842400F15C0303EB81137B
:100EA0001C6000BF00BF00F15C0303EB81131B68F3
:100EB00023F40063147A43EAC42400F15C0303EBD7
:100EC00081131C6000BF00BF00F15C0303EB8113C2
:100ED0001B6823F48053547A43EA043400F15C0322
:100EE00003EB81131C6000BF10BD0000F0B503468A
:100EF00015460022002601205C4F3870D869012772
:100F00008F4020EA0706002E7DD0D86900F001004E
:100F1000D8B1D1B1986C040C986E0A27B7EB104F7A
:100F200013D3986EB4EB104F0FD909E0501C82B266
:100F3000B2F5A04F04D900204C4F38700920F0BD05
:100F4000D86900F001000028F0D1D86900F0020053
:100F5000022820D101291ED0D3F88800040CD3F830
:100F6000A8000A27B7EB104F15D3D3F8A800B4EBAD
:100F7000104F10D9002209E0501C82B2B2F5A04FE8
:100F800004D90020394F38700920D8E7D86900F01B
:100F900002000028F0D1D86900F00400042820D114
:100FA00002291ED00022D3F8C800040CD3F8E800B0
:100FB0000A27B7EB104F14D3D3F8E800B4EB104F67
:100FC0000FD909E0501C82B2B2F5A04F04D900201D
:100FD000264F38700920B2E7D86900F004000028D5
:100FE000F0D1D86900F00800082822D1032920D0C8
:100FF0000022D3F80801040CD3F828010A27B7EB24
:10100000104F16D300E014E0D3F82801B4EB104FD2
:101010000FD909E0501C82B2B2F5A04F04D90020CC
:10102000124F387009208AE7D86900F008000028BC
:10103000F0D14DB1012D12D1D86901278F4007F0B1
:101040000F073843D8610AE0D86901278F404FF075
:101050000F0C2CEA070C00EA0C00D86100BF00BF9F
:101060000020024F387000BF69E700000880FF1FB2
:1010700070B50346002039B1012905D0022903D0FB
:10108000032901D0042026E032B1012A0AD0022A25
:1010900010D0032A1CD113E05C6901258D402C433C
:1010A0005C6117E05C6901F110050126AE40344334
:1010B0005C610FE09C6901258D402C439C6109E037
:1010C0009C6901F110050126AE4034439C6101E0AA
:1010D000042000BF00BF70BD026861F3000202601F
:1010E000704770B50346002039B1012905D00229A7
:1010F00003D0032901D0042026E032B1012A0AD00E
:10110000022A10D0032A1CD113E0DC6801258D408F
:10111000AC43DC6017E0DC6801F110050126AE404D
:10112000B443DC600FE01C6901258D40AC431C61B9
:1011300009E01C6901F110050126AE40B4431C61B1
:1011400001E0042000BF00BF70BD000070B505467F
:101150000C46164601212846FFF7BEFF05F15C004C
:1011600000EB8410006820F4805105F15C0000EB76
:101170008410016005F1400000EB8410716801608B
:1011800005F1440000EB8410B168016000BF05F177
:10119000480000EB841000686FF3090031880843B1
:1011A00005F1480101EB8411086000BF00BF7188A0
:1011B00005F1480000EB8410006861F31F4005F161
:1011C000480101EB8411086000BF00BF05F14C002D
:1011D00000EB841000686FF30900B189084305F142
:1011E0004C0101EB8411086000BF00BF05F14C0009
:1011F00000EB841000682B490840F18940EA014166
:1012000005F14C0000EB8410016000BF00BF05F148
:10121000500000EB841000686FF3130071690843FD
:1012200005F1500101EB8411086000BF00BF318B54
:1012300005F1500000EB8410006861F31F5005F1C8
:10124000500101EB8411086000BF00BF05F154009C
:1012500000EB841000686FF31300F169084305F197
:10126000540101EB8411086000BF00BF318C05F10F
:10127000540000EB8410006861F31F5005F1540125
:1012800001EB8411086000BF05F1580000EB8410E9
:101290003169016006F1240221462846FFF77AFDF4
:1012A00070BD0000FFFF00FC30B5034600240020A5
:1012B00003F1440505EB81152A600BE0651CACB217
:1012C000B4F5805F01D9092004E003F1440505EB82
:1012D00081152A6003F1640505EB81152D6895429F
:1012E000ECD130BD30B503460024002003F14005A9
:1012F00005EB81152A600BE0651CACB2B4F5805F8C
:1013000001D9092004E003F1400505EB81152A60AD
:1013100003F1600505EB81152D689542ECD130BDD8
:1013200070B503460024002000BF03F1480505EB1B
:1013300081152D6862F31F4503F1480606EB8116FF
:10134000356000BF14E0651CACB2B4F5805F01D914
:1013500009200DE000BF03F1480505EB81152D685C
:1013600062F31F4503F1480606EB8116356000BFA6
:1013700003F1680505EB81152D68B2EB154FE2D13D
:1013800070BD000010B5094B984205D1084C04EB24
:101390008103C3F8142807E0064B984204D1044C9B
:1013A00004EB8103C3F8242810BD00000030054081
:1013B000000001400034054070B50546C5B10D4838
:1013C0008068461900240FE00B4843890948C0682B
:1013D0000219084880680119074800F0EDFB00F089
:1013E00045FD054840890444AC42EDD3012070BD61
:1013F0000020FCE72080FF1F005B012006480068FA
:101400004FF47A71B0FBF1F04FF0E0214861002019
:1014100088610520086170470480FF1FF0B503460E
:1014200000224FF0E02675690F4E36684FF47A7748
:10143000B6FBF7F606FB03F44FF0E026B16910E0C7
:101440004FF0E026B06988420BD0884202D20E1AD3
:10145000324402E02E1A0E4432440146A24200D326
:1014600000E0EDE700BFF0BD0480FF1F70B58AB05B
:101470000446202102A8FFF7E3F82078C0F34000DB
:1014800008B90AB070BD2078C0F3801010B12648AA
:10149000808901E0254840890546606AA8422BD32F
:1014A000002610E004F128039A192378C3F3801072
:1014B0002B46216900F076FA206928442061606A91
:1014C000401B60622E44606AA842EBD2606A28B179
:1014D00004F128008119626AFFF719F81E200190B3
:1014E00001AA02A9FF2001F0F7FA012804D1BDF8F2
:1014F000041002A8626890472078C0F3800080B191
:101500002278C2F3801004F12802636A216900F096
:1015100049FA20692844206100206062204602F0D8
:1015200005FA00BFADE70000985C0120005B0120D8
:10153000014908607047000014040140034909682C
:1015400060F30001014A1160704700000C04014083
:10155000012801D0012200E000220349096862F35A
:101560000001014A1160704704040140014604482B
:101570000068084008B1012070470020FCE7000027
:101580001004014004480068012804D143F21020EF
:1015900001490860086070470004014070B50346C7
:1015A000002400263F20FFF7C3FF18480068C0F35F
:1015B00000451648006820F4803014490860012076
:1015C000FFF7BCFF042000F025F81148186005E083
:1015D000601C84B2B4F5805F00D909260B4808303E
:1015E0000068C0F300200028F2D01020FFF7A0FF11
:1015F000002000F00FF80020FFF7A0FF034800686C
:1016000065F3104001490860304670BD0804014090
:10161000785634120349096860F30611014A1160D3
:10162000704700000C0401400349096860F307118A
:10163000014A11607047000008040140F0B50346FC
:101640000C46002600253F20FFF772FF194800686E
:10165000C0F300471748006820F48030154908603F
:101660000120FFF76BFF0120FFF7D4FF1C6005E0AE
:10167000681C85B2B5F5805F00D909260D48083091
:101680000068C0F300200028F2D01868A04200D003
:1016900001261020FFF74CFF0020FFF7BBFF0020C2
:1016A000FFF74CFF0348006867F3104001490860EA
:1016B0003046F0BD0804014040F2231002490860A2
:1016C00043F21020086070470004014001460020EA
:1016D000A1F50542153A5AB1A2F5D242FF3A22B11C
:1016E000022A08D0032A0CD108E04FF400600AE077
:1016F0004FF4805007E04FF4005004E04FF4804076
:1017000001E0002000BF00BF70470146A1F505427F
:10171000153A4AB1A2F5D242FF3A22B1022A04D0C8
:10172000032A06D102E000BF00BF00BF4FF4807063
:1017300001E0002000BF00BF7047000010B5044862
:10174000006800F50041024800F012FA10BD0000E8
:10175000005B01202DE9F047054688461446002726
:101760002868404504D808EB04006968884202D321
:101770000020BDE8F087A88908B90020F9E72146D4
:10178000002005F023F907460FB90020F1E74FF0DC
:10179000000923463A464146284600F033F8A04265
:1017A00006D1002602E0B85D8144761CA642FAD339
:1017B0003946002005F0EEF84846DAE710B5044651
:1017C0000F4804F067FC002020606060A060E060CB
:1017D0000B48B0F81E01E081E089FFF796FFA08179
:1017E000E089FFF773FFA0604FF0704020606060F9
:1017F0004FF48062D4E9010102FB0100606010BD7A
:10180000685B01202DE9FE4304460D4617461E463F
:101810004FF000082068A84202D86068A84202D2AF
:101820000020BDE8FE83A08908B90020F9E711E097
:10183000A0892168691ACDE9007102900F480FC88C
:1018400004F058FCA089361AA0890544A0890744F1
:10185000A0898044A089B6FBF0F00028E8D156B1F9
:10186000B0B22168691ACDE90071029003480FC82F
:1018700004F040FCB0444046D3E70000685B012020
:101880002DE9FF4F85B005460E469B46AC894FF0CB
:101890000009DA46BAF1000F00D01CB9002009B0E7
:1018A000BDE8F08F2868B0425DD806EB0A00696891
:1018B000884258D22146002005F088F88146B9F1C7
:1018C000000F01D10020EAE72868361AB6FBF4F8C9
:1018D00008FB04F8B6FBF4F004FB106080B204903F
:1018E0000498201A80B2039035E0286800EB0801C4
:1018F00023464A462846FFF785FF002706E007985B
:10190000C15D0498384409F800107F1C03985045C5
:1019100001D2039800E05046B842F0D8AAEB070A7B
:101920000798384407901148CDF800800FC804F09C
:1019300086FB0E48CDE9009802940FC804F03FFCE6
:10194000A044BAF1000F00D106E0002004900498F2
:10195000201A80B20390C8E700BF4946002005F076
:1019600019F858469BE7002099E70000685B0120C2
:101970002DE9F04105460E46174635B13A46314647
:101980000648FFF7E7FE044605E03A4631460448BC
:1019900000F0C2F804462046BDE8F081985C0120C2
:1019A000005B01202DE9F04104460D4616461F4616
:1019B00034B13B46324629460548FFF761FF05E052
:1019C0003B4632462946034800F0F6F8BDE8F08170
:1019D000985C0120005B012002460123104810445E
:1019E00048B1B0F5806F0AD0B0F5804F0BD0B0F59C
:1019F000884F10D10BE009B1002008700DE009B14B
:101A00000120087009E009B10220087005E009B161
:101A10000320087001E0002300BF00BF01207047D1
:101A20000030FEBF014642F229400844407842F2AD
:101A300029420A44927840EA0220704708B50648D5
:101A4000006800F5004000F10C0104236A460248DA
:101A500000F0A5F8009808BD005B012008B5064815
:101A6000006800F50040011D04236A46024800F0AA
:101A700096F8009808BD0000005B012008B50548F5
:101A8000006800F5004104236A46024800F087F828
:101A9000009808BD005B012008B50648006800F505
:101AA000004000F1080104236A46024800F077F87C
:101AB000009808BD005B0120012070470548808820
:101AC0000449896801EB4102C2EBC11100EBC1007E
:101AD0007047000094ADFF1F0CB509A30CCBCDE9F6
:101AE000002338B1082905DB074A036813604368FF
:101AF000536004E0044A009B1360019B53600CBDDB
:101B0000FFFFFFFFFFFFFFFFDFACFF1F4FF4007081
:101B100070474FF40050704730B50346186888424C
:101B200003D888185D68A84201D3002030BD002486
:101B300003E008780444521E491C002AF9D12046CB
:101B4000F4E700B502460020106050609060FFF797
:101B5000E0FF5081FFF7DAFF108100201060506035
:101B600011894FF48063506803FB0100506000BD91
:101B700070B506460C46FFF79FFD0120FFF7E8FC15
:101B800000BF4FF48070FFF7F1FC0128F9D1204627
:101B9000FFF704FD0546FFF7F5FC284670BD30B59C
:101BA00005461446002203E00878A054491C521C44
:101BB0009A42F9D3184630BD2DE9FF4F81B0064651
:101BC0000F46DDF8108075894FF0000AB8F1000F5C
:101BD00003D1002005B0BDE8F08F3068B84270D85E
:101BE00007EB0800716888426BD22946002004F098
:101BF000EDFE8246BAF1000F01D10020EAE7FFF7BF
:101C00005BFD0120FFF7A4FC00BF4FF48070FFF7DD
:101C1000ADFC0128F9D130683F1AB7FBF5F909FB93
:101C200005F9B7FBF5F005FB10701FFA80FBA5EB7B
:101C30000B0080B2009039E0306800EB09012B46C0
:101C400052463046FFF7ABFF002406E00398005DE4
:101C50000BEB04010AF80100641C0098404501D216
:101C6000009800E04046A042F0D8A8EB0408039892
:101C700020440390316801EB0900FFF78FFC00243A
:101C800007E05AF8041032684A441019FFF7D6FCEE
:101C9000241DAC42F5D3A944B8F1000F00D106E0F1
:101CA0004FF0000BA5EB0B0080B20090C4E700BF23
:101CB0005146002004F06EFEFFF764FC049889E7AB
:101CC000FFE7002086E7000010B54FF400510648FA
:101CD00002F046FE30B101F0D9FE4FF40051024847
:101CE00002F012FE10BD00000070014010B5024865
:101CF00003F03BFD10BD0000D4ADFF1F10B502483E
:101D000003F055FD10BD0000D4ADFF1F10B5024813
:101D100003F06CFD10BD0000D4ADFF1F10B50248EC
:101D200003F0FFFD10BD0000D4ADFF1F10B5024849
:101D300003F0DAFD10BD0000D4ADFF1F10B502485E
:101D400003F0CDFC10BD0000D4ADFF1F10B502485C
:101D500003F00BFD10BD00001CB6FF1F10B50248BC
:101D600003F025FD10BD00001CB6FF1F10B5024892
:101D700003F03CFD10BD00001CB6FF1F10B502486B
:101D800003F0CFFD10BD00001CB6FF1F10B50248C8
:101D900003F0AAFD10BD00001CB6FF1F10B50248DD
:101DA00003F09DFC10BD00001CB6FF1F10B50248DB
:101DB00003F0DBFC10BD000064BEFF1F10B502483D
:101DC00003F0F5FC10BD000064BEFF1F10B5024813
:101DD00003F00CFD10BD000064BEFF1F10B50248EB
:101DE00003F09FFD10BD000064BEFF1F10B5024848
:101DF00003F07AFD10BD000064BEFF1F10B502485D
:101E000003F06DFC10BD000064BEFF1F10B502485A
:101E100003F0ABFC10BD0000ACC6FF1F10B50248BC
:101E200003F0C5FC10BD0000ACC6FF1F10B5024892
:101E300003F0DCFC10BD0000ACC6FF1F10B502486B
:101E400003F06FFD10BD0000ACC6FF1F10B50248C7
:101E500003F04AFD10BD0000ACC6FF1F10B50248DC
:101E600003F03DFC10BD0000ACC6FF1F10B504F030
:101E7000EFF910BD1CB500BF00200090019000BF1D
:101E80000A208DF8010003208DF800000F208DF846
:101E9000020000208DF8030001208DF80400684640
:101EA00004F0B8F91CBD000070B50024202916DB31
:101EB000C51700EBD5656D1105EB4505202606EB32
:101EC00045058D420ADCC51700EBD5656D1105EBA4
:101ED0004505252606EB45058D4200DA70BD054A0D
:101EE000042303FB0124226860F30802226000BF80
:101EF000F4E700005C10054070B50024202916DBD3
:101F0000C51700EBD5656D1105EB4505202606EBE1
:101F100045058D420ADCC51700EBD5656D1105EB53
:101F20004505252606EB45058D4200DA70BD054ABC
:101F3000042303FB0124226860F30802226000BF2F
:101F4000F4E700005C100540024602B109B9002028
:101F5000704705E012F8013BFF2B01D00120F7E7A5
:101F6000081EA1F1010399B2F4D100BFF0E710B54A
:101F70004FF40041002000F0D3FA012800D110BD39
:101F80000020FCE770B50E48006800F5803000685E
:101F90000C490840B0F1005F10D10948006800F515
:101FA000803045682C460649096801F5803108688B
:101FB00080F3088800BFFFF759FFA04770BD0000FD
:101FC000005B01200000FE2F10B500240821002036
:101FD00004F0FCFC0446002020606060606020602B
:101FE000204610BD70B502460B4600260021002594
:101FF00000240AB1002B01DA002070BD14462146EE
:10200000002601E00968761C9E4202DA0868002872
:10201000F8D10D68286808606068401E6060284636
:10202000EBE770B5024600260024002300250AB124
:10203000002902DA0026002070BD15462B46002438
:1020400001E01B68641C8C4202DA18680028F8D191
:102050001868F1E710B5FFF7B7FF10BD70B505467A
:102060000024002600212846FFF7DBFF04460CB9B8
:10207000002070BD6068FCE770B5064600240025AE
:1020800000213046FFF7AEFF04460CB9002070BDBA
:1020900065681DB12946002004F07CFC1CB1214676
:1020A000002004F077FC2846F1E71CB500231A460F
:1020B0004FF48061012000F0D1FA00BF00200090B1
:1020C000019000BF01208DF8000000208DF806006F
:1020D00002208DF8050000208DF802008DF8040024
:1020E0006A464FF48061012000F02AFA1CBD10B549
:1020F0004FF48061012000F095FA10BD10B54FF447
:102100008061012000F09CFA10BD0000004870477B
:102110000C5B01203EB5044605A207CA8DE8070006
:102120000A25206918B129466846226990473EBDB4
:102130005A0AFC00910F453C1DAA000010B5044648
:10214000E06908B1E069804710BDF0B595B004467C
:1021500000255A2229466D1C08A84254002229460F
:102160006D1C4254FC2229466D1C42540C22294607
:102170006D1C4254912229466D1C42540E22294660
:102180006D1C42541C2101A8FEF75AFA082202A92C
:1021900004F14400FEF7FEF818B1626CA262A16C73
:1021A000E16201220DF11A0104F15600FEF7F2F886
:1021B00018B13A205621095D015501220DF11D018A
:1021C00004F15900FEF7E6F838B1D4F85920C4F804
:1021D0003D20D4F85D10C4F841101C2104F14000EA
:1021E000FEF70CFA08A948191C2204F12401FEF795
:1021F0008EF905F11C0085B20027022605E008A82B
:10220000805D3844C7B2701C86B2222EF7DB2846A8
:10221000691C8DB208A90F54AA222846691C8DB2E8
:1022200008A90A54E8B28DF82100206918B129469E
:1022300008A82269904715B0F0BD00003EB50446DD
:1022400005A207CA8DE807000A25206918B12946AA
:102250006846226990473EBD5A0AFC0091876A355C
:10226000B3AA00000FB410B5FFF750FF04465C217D
:102270002046FEF7E5F90298A0600599616106998C
:10228000A1610799E161089921620399E1600499CC
:102290002161606908B160698047E06908B1E0695F
:1022A0008047A06808B1A068804710BC5DF814FBA7
:1022B00010B5FFF72BFF0446207800F00100C0B1F5
:1022C000A0786178884205D1206A8047A078401CB8
:1022D000A0700CE0A1786078401C814203DAA078FD
:1022E000401CA07003E0207820F001002070012045
:1022F00010BD2078C0F3C00070B12179481C207156
:10230000142091FBF0F200FB12100A2802D12046A3
:10231000FFF700FF0120EBE72078C0F3001070B159
:102320006179481C6071142091FBF0F200FB1210DF
:102330000A2802D12046FFF708FF0120D8E72078BD
:10234000C0F3400068B1E178481CE070142091FBB4
:10235000F0F200FB121010B92046FFF76FFF0120CA
:10236000C6E70020C4E770B50546FFF7CFFE044678
:1023700065700020A070207820F00100401C2070C3
:102380002046FFF7DBFE70BD2DE9F047C0B00746E1
:102390000E4690461D464FF0000AFFF7B7FE8146F5
:1023A00037B1082E04DCB8F1000F01D0642D03DD35
:1023B000002040B0BDE8F087022E06D138884FF6E5
:1023C000FF71884201D14FF0010A00245A222146B0
:1023D000641C01A8425400222146641C4254FD2280
:1023E0002146641C4254BAF1010F01D1012200E0E0
:1023F00000222046611C8CB201A90A542046611CAF
:102400008CB201A90D54081932463946FEF77FF8FF
:10241000A01984B201A908192A464146FEF777F8A7
:10242000601984B2AA222046611C8CB201A90A5408
:10243000E0B28DF80500D9F8100020B1214601A8BE
:10244000D9F8102090472846B3E700B50246FFF7B9
:102450005DFE03465920C25400F00DF800BD00B5E2
:10246000FFF754FE014600200871087820F00800AC
:102470000830087000BD00B5FFF748FE0146002097
:102480004871087820F010001030087000BD00B5C9
:10249000FFF73CFE01460020C870087820F00200DB
:1024A000801C087000BD00B5FFF730FE014600201B
:1024B0000871087820F00800087000BD00B5FFF72B
:1024C00025FE014600204871087820F010000870B1
:1024D00000BD00B5FFF71AFE01460020C87008785D
:1024E00020F00200087000BD00B502460B4600F067
:1024F000EFF8012B07D10948008802F01F010843BB
:102500000649088006E00548008802F01F0188435C
:102510000249088000F07EF8002000BDF43B054031
:1025200010B502460548102404FB02031868084051
:1025300008B1012010BD0020FCE700000038054074
:10254000F0B505460F461346002400F0C1F800BF61
:1025500057E00120A0403840002850D02C4800EB24
:10256000851000EB84022A48801C00EB851000EBEC
:1025700084065978108861F38E301080997810881D
:1025800061F30C301080D978108861F349201080F5
:102590001979108861F3861010809979108861F399
:1025A000820010805979108861F305101080187826
:1025B00020B101280BD002281AD112E0108820F493
:1025C00000401080108820F00200108011E0108878
:1025D00020F400401080108820F00200801C108041
:1025E00007E0108820F4004000F50040108000E073
:1025F00000BF00BFD979308861F308203080601CAB
:10260000C4B2102CA5D300F005F80020F0BD0000E6
:10261000003C05404FF42540014908807047000008
:10262000FC3B054010B502460448102404FB02039D
:10263000188808431880002010BD00000A380540A3
:1026400010B502460448102404FB0203188808430E
:102650001880002010BD000008380540F0B5044681
:102660000D4616461F46002300F032F8002319E0FD
:1026700001209840284098B10D48402101FB0400FA
:10268000042101FB0302108866F305001080012F6E
:1026900001D1012000E00020118860F308211180A1
:1026A000581CC3B2102BE3D3FFF7B4FF0020F0BDDA
:1026B000023C054010B502460448102404FB020306
:1026C000188808431880002010BD00000C38054011
:1026D0004AF201500149088070470000FC3B054068
:1026E0000B4A12690B4B1A43094B1A61012904D199
:1026F0001A46126882431A6004E0054A12680243CF
:10270000034B1A60034A521E014B1A6170470000C6
:10271000008004400100A5A5012905D1054A5268A1
:102720008243044B5A6004E0024A52680243014B60
:102730005A60704700800440012905D1054A92681B
:102740008243044B9A6004E0024A92680243014BC0
:102750009A6070470080044000F09CFB04E0642015
:10276000FEF75CFEFFF782FBF9E710B500F09AFB7D
:1027700010BD10B500F09EFB00F06CFB10BD00001A
:102780002DE9F04F9BB005460E4690469946224CE7
:10279000032D03DA00201BB0BDE8F08F7078B1780C
:1027A00040EA012B42F62A40005B00280BDD204660
:1027B000FFF738F90746BB4505D0204600F0FAFD83
:1027C00008B90020E7E72A46314642F22940204472
:1027D000FDF79DFE42F62A4005534FF0000AFF2008
:1027E00002A901F80A000AF1010A2078C0F380105A
:1027F00010B10A48808901E0094840890190616A66
:102800000198814205D24A464146FF2000F064F912
:10281000C1E70020BFE700002080FF1F985C012077
:10282000005B01202DE9F0479AB006460D4691461F
:102830009A46092E03DA00201AB0BDE8F087144842
:102840000078C0F3400090B1114800F0B3FDD5F816
:102850000170D5F805800E484761C0F818800068FF
:1028600020F00400001D0A4908600020E4E700246D
:10287000287801A90855641C01200855641C53469A
:102880004A46214601A800F02AFAC0B2D4E7000067
:102890002080FF1F2DE9F04786B006460D46914681
:1028A0009A46092E03DA002006B0BDE8F087D5F875
:1028B0000170D5F805800B484761C0F8188001F019
:1028C0001FF80024FA2001A90855641C00200855AF
:1028D000641C53464A46214601A800F000FAC0B2E3
:1028E000E2E700002080FF1F2DE9F04186B0074697
:1028F000884615461E460024F12001A90855641C8F
:1029000000200855641C02200855641C0620085548
:10291000641C01200855641C33462A46214601A840
:1029200000F0DDF9C0B206B0BDE8F081F0B585B0C9
:1029300004460D461646144A0021F2200DF8010007
:10294000491C42F63440805C0DF80100491C42F6F7
:102950003540805C0DF80100491C42F63640805C31
:102960000DF80100491C42F63840805A00120DF85B
:102970000100491C42F63840805C0DF80100491CFA
:10298000002005B0F0BD00002080FF1F2DE9F043BE
:1029900085B08046894615461E460C4F0024F0201F
:1029A0000DF80400641C0DEB040107F53050C26AF9
:1029B0000A60006B4860083433462A462146684660
:1029C00000F08DF9C0B205B0BDE8F0832080FF1F94
:1029D0002DE9F0479AB082460E46174698464FF0CA
:1029E00000090024D6F8014017480068A0420AD820
:1029F0001648006820F0400040301449086008463E
:102A0000C46004610EE01248006800F50040A04276
:102A100003D80F484068A04202D24FF0010901E0FC
:102A20000A48C4600025307801A948556D1C01A8EA
:102A300000F805906D1C43463A46294600F04FF9D0
:102A4000C0B21AB0BDE8F087985C01202080FF1F5B
:102A5000005B01202DE9F0479AB082460E461746EA
:102A600098464FF000090024D6F801401748006846
:102A7000A0420AD81648006820F0400040301449AF
:102A800008600846C46004610EE01248006800F562
:102A90000040A04203D80F484068A04202D24FF045
:102AA000010901E00A4884600025307801A94855F1
:102AB0006D1C01A800F805906D1C43463A46294656
:102AC00000F00DF9C0B21AB0BDE8F087985C0120A3
:102AD0002080FF1F005B0120F0B585B005460F4642
:102AE000164614216846FDF7ABFD00240DF804508E
:102AF000641C33463A462146684600F0F0F8C0B2FE
:102B000005B0F0BD2DE9F04186B006460D461746EA
:102B10009846092E03DA002006B0BDE8F0810024B3
:102B2000F32001A90855641C00200855641C0821E5
:102B3000681CFFF709FA012803D10821681CFEF779
:102B4000CBFF43463A46214601A800F0C8F8C0B280
:102B5000E2E72DE9F04304460F4615469846DDF8B6
:102B60001C90002C74D0002F72D0207855286FD183
:102B70003888032805DA0DB1012028600120BDE85E
:102B8000F083A07800283FD13888072804DA0DB1F7
:102B9000012028600120F2E7E07861790844FF28ED
:102BA00056D12079A1790844FF2851D1E0782179C4
:102BB00040EA01264E4501DD0020E0E7398806F1B4
:102BC000090080B2814204DA0DB1012028600120A1
:102BD000D5E73146E01D00F074F8F11D615C8842D4
:102BE00036D106F10800205CAA2831D106F109008F
:102BF00038800DB100202860B8F1000F02D001200C
:102C0000C8F800000120BAE7A6783988701D814213
:102C100004DA0DB1012028600120B0E73146E01C44
:102C200000F04FF8F11C615C884211D1301D205C2E
:102C3000AA280DD1701D38800DB100202860B8F190
:102C4000000F02D00020C8F80000012097E7FFE73E
:102C50000DB100202860002091E710B50346F3B1C4
:102C6000E9B118785A281AD10888042804DA0AB178
:102C700001201060012010BD5C780888A04204DAB1
:102C80000AB1012010600120F5E7601E185CAA2837
:102C900005D10C800AB1002010600120EBE70AB1D9
:102CA000002010600020E6E730B5024600200B4609
:102CB00002E014782044521C1C1EA3F10103F8D139
:102CC00030BD30B5024600200B4603E014780444C2
:102CD000E0B2521C1C1EA3F10103F7D130BD2DE957
:102CE000F04107460C4615461E4614B90020BDE8C3
:102CF000F0813188A01D814201DA0020F7E72246E9
:102D00003946E81CFDF703FC55202870FEF7D4FE79
:102D10006870AC702146E81CFFF7D3FFE11C6854D3
:102D2000AA21201D2954601D30800120DFE700000A
:102D30002DE9F04104460D4616461F464FF00008A7
:102D40002078F82856D00CDCF1281BD004DC0228AF
:102D500058D0F02875D10DE0F2281BD0F32870D19F
:102D600020E0F9283ED0FA2824D0FB282AD0FF28DA
:102D700067D12FE03B46324621462846FFF706FE44
:102D800080465FE03B46324621462846FFF7ACFDD1
:102D9000804657E03B46324621462846FFF7C6FDAF
:102DA00080464FE03B46324621462846FFF7AAFEC2
:102DB000804647E03B46324621462846FFF76AFDFB
:102DC00080463FE03B46324621462846FFF72AFD33
:102DD000804637E03B46324621462846FFF7D0FC86
:102DE00080462FE0E8B23B4632462146FFF732FEEE
:102DF000804627E03B46324621462846FFF7E8FD5D
:102E000080461FE000BF00BF00BF00BF00BFBFF390
:102E10004F8F00BF00BF00BF0C48006800F4E060A7
:102E20000B490843001D0949086000BF00BF00BFEF
:102E3000BFF34F8F00BF00BF00BF00BF00BFFDE763
:102E4000FFE700BF00BF4046BDE8F0810CED00E0A9
:102E50000000FA051CB500231A4601210846FFF7B9
:102E6000FDFB00BF00200090019000BF01208DF805
:102E7000000000208DF8060002208DF805000020DB
:102E80008DF802008DF804006A4601210846FFF71C
:102E900057FB1CBD10B5FFF7DDFF01210846FFF70A
:102EA000C1FB10BD10B5FFF7D5FF01210846FFF7A4
:102EB000C7FB10BD1CB500BF00200090019000BFF3
:102EC00000210C20FFF710FB00231A464FF40041AD
:102ED0001846FFF7C3FB00208DF800008DF80400B2
:102EE0006A464FF40041FFF72BFB1CBD1CB50023C5
:102EF0001A464FF480410220FFF7B0FB00BF0020CC
:102F00000090019000BF01208DF8000000208DF896
:102F1000060002208DF8050000208DF802008DF8D3
:102F200004006A464FF480410220FFF709FB1CBDF4
:102F300010B54FF480410220FFF782FB10BD10B5A1
:102F40004FF480410220FFF76DFB10BD10B54FF428
:102F500080410220FFF7AEFB10BD1CB500231A46CE
:102F60004FF400410220FFF779FB00BF00200090E2
:102F7000019000BF01208DF8000000208DF80600B0
:102F800002208DF8050000208DF802008DF8040065
:102F90006A464FF400410220FFF7D2FA1CBD10B57B
:102FA0004FF400410220FFF74BFB10BD00B587B086
:102FB00000BF1C216846FDF743FB00BF0121480408
:102FC000FFF7AAFB00232F2204211846FFF746FB38
:102FD00000232C2208211846FFF740FB00232D2256
:102FE00002211846FFF73AFB05208DF80E0000205D
:102FF0008DF8110004208DF80F0000208DF81000CE
:103000008DF80C008DF80D008DF80B0001208DF867
:10301000120000208DF813008DF815008DF81600B1
:103020008DF817008DF818008DF8190001208DF823
:1030300014008DF8000000208DF8010001208DF8AB
:10304000020000208DF8030001208DF80400052007
:103050008DF805006946064800F0A0F801210448F3
:1030600000F040F8FF2000F005F807B000BD0000B8
:1030700000C4014070B50546002405E0601CC4B2E0
:10308000C82C01DD002070BD01210E4800F046F87B
:103090000028F3D029460B4800F056F9002405E03B
:1030A000601CC4B2C82C01DD0020ECE700210548FB
:1030B00000F034F80028F3D0024800F041F9064649
:1030C0003046E0E700C4014010B5044621460448FC
:1030D00000F054F90121024800F004F810BD00008E
:1030E00000C4014002460420084B9A4208D0084B15
:1030F0009A4205D0074B9A4202D0074B9A4204D11C
:10310000536861F3861353600020704700C001408C
:1031100000C40140000002400004024002460020BA
:103120001A4B9A4208D01A4B9A4205D0194B9A4230
:1031300002D0194B9A4227D1072923D2DFE801F0A8
:1031400004080C1014181E005369C3F3C0101AE0D1
:103150005369C3F3401016E05369C3F3001012E043
:103160005369C3F3C0000EE05369C3F380000AE063
:103170005369C3F3400383F0010004E0536903F093
:10318000010000E000BF00BF7047000000C0014028
:1031900000C40140000002400004024010B5024695
:1031A0000420634B9A4208D0624B9A4205D0624B8E
:1031B0009A4202D0614B9A427DD100297BD00B7D8F
:1031C000012B1ED10C78936964F3CF3393618C7813
:1031D000936964F38E3393610C79936964F34D338F
:1031E00093614C78D36864F31653D360CC78D3687A
:1031F00064F31A63D3604C79D36864F31E73D360AD
:1032000017E0936923F400439361936923F48043A7
:103210009361936923F400539361D36823F4E0032B
:10322000D360D36823F0E063D360D36823F0E04336
:10323000D3608B7CCBB98C79936964F3471393612A
:10324000CC79D36864F30823D3600C7AD36864F331
:103250004923D3604C7AD36864F38A23D3608C7A91
:10326000D36864F3CB23D36013E0936923F0E003C6
:103270009361D36823F48073D360D36823F400731D
:10328000D360D36823F48063D360D36823F40063EE
:10329000D360CC7AD36864F38613D3604C7CD36854
:1032A00064F30103D3600C7C936964F30C33936182
:1032B000CC7B936900E03AE064F30B2393618C7B51
:1032C000936964F3840393610C7B936964F3410312
:1032D00093614C7B936964F3000393618C7C536826
:1032E00064F300035360CC7C536864F34103536080
:1032F0000C7D536864F3C30353604C7D536864F3DF
:10330000C71353608C7D536864F30C335360CC7DDA
:10331000536864F34D3353600C7E536864F3CF33CA
:1033200053604C7E536864F38E335360002010BDAD
:1033300000C0014000C401400000024000040240FF
:1033400001460868C0B2704702460420074B9A4203
:1033500008D0074B9A4205D0064B9A4202D0064B42
:103360009A4201D1116000207047000000C0014066
:1033700000C4014000000240000402400246042054
:10338000084B9A4208D0084B9A4205D0074B9A4204
:1033900002D0074B9A4204D1936961F3840393618D
:1033A0000020704700C0014000C4014000000240FE
:1033B0000004024038B5044642F62A40005BC01EB5
:1033C0000090606A00990844B0F5105F01D90020B0
:1033D00038BD04F12801626A501842F229412144A3
:1033E000C91C009AFDF793F8606A0099084460626E
:1033F000E06900990844E061002142F62A40015347
:103400000120E5E72DE9F04F2DED028B83B0044656
:103410008A460026B14600BF9FED410AB0EE408AC1
:1034200000254FF0FF3B042002903E48844208D024
:103430003D48844205D03D48844202D03C48844205
:1034400067D1204602F0BCFD0646002E61D0D14671
:1034500000EE109AB8EE400AF1EE000A60EE200A83
:1034600000EE106AB8EE400A80EE201AB7EE000AAD
:1034700031EE400AB0EE408ABCEEC80A10EE105A97
:10348000B5EEC08AF1EE10FA43D3FF2D41D80020EB
:10349000029000EE105AB8EE400A38EE400ADFED16
:1034A000250AB4EEE00AF1EE10FA1EDD6A1C404176
:1034B0000021A2FB097300FB093002FB01084FF455
:1034C00080610022A7FB010308FB013107FB021109
:1034D00032460023CDE90001FCF7A2FFB0F1800BDA
:1034E000BBF17F0F01D904200290029888B9BBF18B
:1034F0007F0F01D8012100E00021E06861F35D70D9
:10350000E060A0686BF30600A060A06865F30F2080
:10351000A060029803B0BDEC028BBDE8F08F000004
:103520000000000000D0014000D401400010024023
:1035300000140240ACC527372DE9F04F2DED028B6A
:1035400089B004468B460026B146B2469FED4F0A2D
:10355000B0EE408A00BF0025681E07904C4B0FCB91
:1035600003AF0FC7042002904A48844208D04A485B
:10357000844205D04948844202D0494884427FD1E0
:10358000204602F01DFD8146B9F1000F78D05E465D
:103590006069C0F3425003A931F810A000EE106A30
:1035A000F8EE400A00EE10AAB8EE400A20EE800ABB
:1035B000F0EE000A60EE200A00EE109AB8EE401A13
:1035C00081EE200AF7EE000A30EE600AB0EE408A83
:1035D000BCEEC80A10EE105AB5EEC08AF1EE10FA31
:1035E0004ED3FF2D4CD80020029000EE105AB8EEBA
:1035F000400A38EE400ADFED2B0AB4EEE00AF1EEA5
:1036000010FA27DD6A1C40410023A2FB061C00FBC8
:1036100006C002FB03021846A1FB0A7302FB0A3232
:1036200001FB00284FF400710020A7FB012308FBD9
:10363000013107FB0010CDE900204A460023DDE9F7
:103640000001FCF7EDFE8038079007987F2801D92C
:1036500004200290029820B907987F2802D80121FF
:1036600001E00DE00021E06861F35D70E060079823
:10367000A16860F30601A160A06865F30F20A06057
:10368000029809B0BDEC028BBDE8F08F000000008D
:10369000546B000000D0014000D4014000100240F3
:1036A00000140240ACC527372DE9F04F2DED028BF9
:1036B00085B004468B460026B146B2469FED510ABE
:1036C000B0EE408A00BF0025681E039004200290DF
:1036D0004D48844208D04D48844205D04C4884422D
:1036E00002D04C48844277D1204602F069FC8146E2
:1036F000B9F1000F7FD05E46E068C0F3C03A00EE3B
:10370000106AB8EE400AF2EE000A60EE200A00EEFF
:1037100010AAB8EE400AB0EE001A31EE400A60EE90
:10372000800A00EE109AB8EE401A81EE200AF7EEF9
:10373000000A30EE600AB0EE408ABCEEC80A10EE15
:10374000105AB5EEC08AF1EE10FA54D3FF2D52D8BC
:103750000020029000EE105AB8EE400A38EE400AFF
:10376000DFED2D0AB4EEE00AF1EE10FA2DDD0021B6
:10377000DAF1020261EB01004FF0010C15EB0C0CC9
:1037800041EB0103A2FB0C1E00FB0CE002FB030259
:103790000020A1FB067302FB063201FB00284FF458
:1037A00000610022A7FB010308FB013107FB0211A6
:1037B0004A460023CDE90001FCF732FE8038039031
:1037C00003987F2801D904200290029820B9039819
:1037D0007F2802D8012101E00DE00021E06861F3BB
:1037E0005D70E0600398A16860F30601A160A068C5
:1037F00065F30F20A060029805B0BDEC028BBDE818
:10380000F08F00000000000000D0014000D4014013
:103810000010024000140240ACC5273710B5002448
:1038200003E0204600F04AF8641C022CF9D310BDD6
:1038300070B50025002600243BE004EB44001E493F
:1038400051F83000012833D104EB440001EBC000F3
:103850008068401C04EB4401174A02EBC1018860F8
:1038600004EB4400114601EBC000806804EB440106
:1038700002EBC101496888421AD904EB44001146A1
:1038800001EBC000007B012812D1002004EB4401B1
:1038900042F8310004EB4400114601EBC000056919
:1038A00004EB440001EBC00046690DB13046A84767
:1038B000641C022CC1D370BDA4ADFF1F022800D32D
:1038C0007047002100EB40020C4B03EBC2029160F9
:1038D00000EB400203EBC202516000EB400203EB3D
:1038E000C202116100EB400203EBC202516100EB26
:1038F000400243F8321000BFE2E70000A4ADFF1F12
:10390000016821F00201891C0160016821F00401B5
:1039100001600021C1614162C16801610021C16192
:10392000002242F62A410A527047000070B58EB05C
:1039300004462378C3F380106269E168FEF718F843
:103940000646206820F002002060206820F0040075
:103950002060002142F2284001550025FB2009A9E2
:1039600048556D1CA069B04201D0012000E0002044
:1039700009A94855681CC5B21E2000906B4601AAD3
:10398000294609A8FFF7ABF9012804D1BDF80010BA
:1039900001A862689047FEF769FA1548E168006877
:1039A00000F58030814204D01249E06809688842FD
:1039B00001D30EB070BDA069B04216D1002509A98F
:1039C000606948512D1DA06948512D1DA0684851BE
:1039D0002D1DE06848512D1D0548006800F5004187
:1039E0002B4609AA0248FEF7E7F800BFE1E700000E
:1039F000005B0120985C012000B587B000BF00206B
:103A00000590069000BF00BF14216846FCF718FE21
:103A100000BF00208DF8140001208DF81500002053
:103A20008DF8160001208DF8170002208DF818007F
:103A30008DF8190001208DF81A0005A8FDF7A6F8E9
:103A40000120FCF729FF012004902A200390022086
:103A50000090019002900020FDF70EF86846FCF7F8
:103A6000C3FFFDF729FE0520FDF7DEFDFDF78AFD0A
:103A70000120FCF771FF00BF0220FCF7D1FE0128F6
:103A8000FAD10520FDF718F807B000BD2B48408893
:103A9000401C2A4948800846007820F00100401C5C
:103AA00008700846C068401CC8604888C11700EB11
:103AB00091718910A0EB810100293ED11F48007847
:103AC00020F00200801C1D49087008468088401CB8
:103AD0008880084680880A2190FBF1F201FB1200E1
:103AE00030B91648007820F00400001D1349087012
:103AF00012488088642190FBF1F201FB120030B97A
:103B00000E48007820F0080008300C4908700B4877
:103B100080884FF47A7190FBF1F201FB120060B9DA
:103B200000200649888008468068401C8860084656
:103B3000007820F0100010300870704794ADFF1F1F
:103B40003EB500BF002000900190029000BF01210F
:103B50000802FEF7F1FD01208DF8050000208DF828
:103B6000030002208DF8040041F28140ADF800000E
:103B700000208DF802008DF8060001208DF8070066
:103B800000208DF808008DF8090069461C4800F0F7
:103B9000FFFE05214FF4A370FEF786F905200146CC
:103BA000002804DB0A07130E164A135406E00A071E
:103BB000140E154A00F00F031B1FD45400BF05203C
:103BC000002807DB00F01F02012191400F4A430942
:103BD00042F8231000BF0520002809DB00F01F0277
:103BE000012191404209920002F1E022C2F8001145
:103BF00000BF034800F06EFE014800F093FF3EBD99
:103C00000070014000E400E018ED00E080E200E018
:103C100070B500241320012100220023294D2D78A6
:103C200005F00704062C4AD2DFE804F003070B1066
:103C30001419254D254E356041E0254D234E356044
:103C40003DE04FF40045214E356038E0204D1F4ED9
:103C5000356034E04FF400451C4E35602FE0194DBF
:103C6000DA352D68C5F3C013164D263DD5F8005141
:103C7000C5F30820134DDA352D68290F114D263D67
:103C8000D5F8005105F01F025BB9551C104EB6FB6C
:103C9000F5F5461C75434E1CB5FBF6F50B4E35602D
:103CA0000CE0012B0AD1551C074EB6FBF5F5461C5E
:103CB00075434E1CB5FBF6F5044E356000BF00BFE2
:103CC00070BD0000264005400024F4000480FF1F62
:103CD00000127A0000B50448006840F47000024900
:103CE0000860FFF795FF00BD88ED00E010B51948AA
:103CF0000078C0F3400028B11648007820F0020098
:103D00001449087013480078C0F3800028B11148A6
:103D1000007820F004000F4908700E480078C0F3C6
:103D2000C00058B10B48007820F00800094908701D
:103D3000FFF77EFDFFF70AF9FCF750FD0548007814
:103D4000C0F3001028B10348007820F010000149AA
:103D5000087010BD94ADFF1F2DE9F84304460E46D0
:103D600015464FF000080027002D7DD0FE48844204
:103D700001D106B900BF2069009960F300010091EC
:103D800020694108009861F3410000902069810892
:103D9000009861F382000090207C8DF8000020697B
:103DA0000109009861F3071000902069010A00984A
:103DB00061F3082000902069410A009861F34920CE
:103DC00000902069810A009861F38A200090607C4D
:103DD0008DF801002069010B009861F30C30009010
:103DE0002069410B009861F34D3000902069810BF0
:103DF000009861F38E3000902069C10B009861F348
:103E0000CF3000902069010C009861F310400090C1
:103E10002069410C009861F3514000902069810CA9
:103E2000009861F392400090A07C8DF80200206918
:103E3000010D009861F3175000902069010E009861
:103E400061F3186000902069410E009861F3596099
:103E500000902069810E009861F39A600090E07CE8
:103E60008DF80300206900E06BE2010F009861F318
:103E70001C7000902069410F009861F35D70009004
:103E80002069810F009861F39E7000902069C10F36
:103E9000009861F3DF70009026B900986FF30F006F
:103EA000009002E0009880B200900098216960F3D1
:103EB0000001216100984108206961F341002061FF
:103EC00000988108206961F3820020619DF800005C
:103ED000207400980109206961F30710206100989F
:103EE000010A206961F3082020610098410A2069D5
:103EF00061F3492020610098810A206961F38A20DA
:103F000020619DF8011061740098010B206961F334
:103F10000C3020610098410B206961F34D30206125
:103F20000098810B206961F38E3020610098C10BED
:103F3000206961F3CF3020610098010C206961F3A2
:103F4000104020610098410C206961F351402061CC
:103F50000098810C206961F3924020619DF8021065
:103F6000A1740098010D206961F317502061009839
:103F7000010E206961F3186020610098410E2069EC
:103F800061F3596020610098810E206961F39A60A5
:103F900020619DF80310E1740098010F206961F31E
:103FA0001C7020610098410F206961F35D702061F1
:103FB0000098810F206961F39E7020610098C10F05
:103FC000206961F3DF702061012231462046FCF751
:103FD00093FB07E038467F1CB0F5A04F02D94FF0A5
:103FE000090803E0009821698842F3D100BF16B1A7
:103FF000012E7DD1D4E0E87810B101280CD105E084
:104000006978009861F34920009006E0A97800984B
:1040100061F38A20009000E000BF00BF297800987B
:1040200061F3071000900098216960F3000121619D
:1040300000984108206961F34100206100988108DF
:10404000206961F3820020619DF8000020740098CF
:104050000109206961F3071020610098010A2069B5
:1040600061F3082020610098410A206961F349202A
:1040700020610098810A206961F38A2020619DF8FF
:10408000011061740098010B206961F30C3020610C
:104090000098410B206961F34D3020610098810B3D
:1040A000206961F38E3020610098C10B206961F3B3
:1040B000CF3020610098010C206961F3104020612D
:1040C0000098410C206961F3514020610098810CF7
:1040D000206961F3924020619DF80210A17400985C
:1040E000010D206961F3175020610098010E00E076
:1040F00025E1206961F3186020610098410E206974
:1041000061F3596020610098810E206961F39A6023
:1041100020619DF80310E1740098010F206961F39C
:104120001C7020610098410F206961F35D7020616F
:104130000098810F206961F39E7020610098C10F83
:10414000206961F3DF702061012231462046FCF7CF
:10415000D3FAA888A060012231462046FCF7CCFAA9
:10416000E978206902E000000040024061F3082085
:104170002061012231462046FCF7BEFA002707E005
:1041800038467F1CB0F5A04F02D94FF0090805E072
:10419000E8782169C1F300218842F1D100BFCFE066
:1041A000E87810B101280CD105E06978009861F336
:1041B0005960009006E0A978009861F39A60009039
:1041C00000E000BF00BF2978009861F3175000900D
:1041D0000098216960F3000121610098410820697D
:1041E00061F34100206100988108206961F3820039
:1041F00020619DF80000207400980109206961F396
:10420000071020610098010A206961F308202061ED
:104210000098410A206961F3492020610098810AD1
:10422000206961F38A2020619DF801106174009873
:10423000010B206961F30C3020610098410B20696B
:1042400061F34D3020610098810B206961F38E305D
:1042500020610098C10B206961F3CF302061009884
:10426000010C206961F3104020610098410C206925
:1042700061F3514020610098810C206961F3924004
:1042800020619DF80210A1740098010D206961F36E
:10429000175020610098010E206961F318602061B9
:1042A0000098410E206961F3596020610098810EE9
:1042B000206961F39A6020619DF80310E174009811
:1042C000010F206961F31C7020610098410F206983
:1042D00061F35D7020610098810F206961F39E7029
:1042E00020610098C10F206961F3DF702061012215
:1042F00031462046FCF700FAA888E06001223146EA
:104300002046FCF7F9F9E978206961F3186020612B
:10431000012231462046FCF7EFF9002707E0384636
:104320007F1CB0F5A04F02D94FF0090805E0E878EE
:104330002169C1F300618842F1D100BF00E000BFF4
:1043400001E04FF004084046BDE8F8832DE9F04154
:1043500004460D4600270026B5B9606920F001002B
:104360006061012229462046FCF7C6F906E0304686
:10437000761CB0F5A04F01D9092704E0606900F070
:1043800001000028F3D116E0606920F480306061FC
:10439000012229462046FCF7AFF906E03046761C9C
:1043A000B0F5A04F01D9092704E06069C0F30040CF
:1043B0000028F3D100BF3846BDE8F0812DE9F04177
:1043C00004460E4615464FF00008002716B1012E90
:1043D00032D118E0206965F30000206101223146E6
:1043E0002046FCF789F907E038467F1CB0F5A04F5E
:1043F00002D94FF0090804E0206900F00100A8424A
:10440000F2D100BF19E0206965F31040206101225C
:1044100031462046FCF770F907E038467F1CB0F5BE
:10442000A04F02D94FF0090804E02069C0F3004012
:10443000A842F2D100BF00E000BF00BF4046BDE887
:10444000F0810246002011B1012908D103E013696F
:10445000C3F3002004E01369C3F3006000E000BF71
:1044600000BF7047F8B504460E4615460027002DDC
:104470007ED02069009960F3000100912069410815
:10448000009861F34100009020698108009861F371
:1044900082000090207C8DF80000206901090098BE
:1044A00061F3071000902069010A009861F3082069
:1044B00000902069410A009861F34920009020692A
:1044C000810A009861F38A200090607C8DF80100D9
:1044D0002069010B009861F30C3000902069410BBA
:1044E000009861F34D3000902069810B009861F3D2
:1044F0008E3000902069C10B009861F3CF3000909E
:104500002069010C009861F3104000902069410C73
:10451000009861F3514000902069810C009861F38C
:1045200092400090A07C8DF802002069010D009857
:1045300061F3175000902069010E009861F3186034
:1045400000902069410E009861F359600090206945
:10455000810E009861F39A600090E07C8DF8030072
:104560002069010F009861F31C700090206900E041
:1045700077E1410F009861F35D7000902069810F31
:10458000009861F39E7000902069C10F009861F35C
:10459000DF70009016B1012E7ED1AAE02978009834
:1045A00061F3410000902979009861F3CF300090C9
:1045B0006979009861F38E300090E979009861F391
:1045C0000C300090A979009861F34D30009000986C
:1045D000216960F30001216100984108206961F3BD
:1045E0004100206100988108206961F38200206108
:1045F0009DF80000207400980109206961F30710FC
:1046000020610098010A206961F308202061009868
:10461000410A206961F3492020610098810A2069DC
:1046200061F38A2020619DF8011061740098010BEC
:10463000206961F30C3020610098410B206961F31F
:104640004D3020610098810B206961F38E3020612C
:104650000098C10B206961F3CF3020610098010CF4
:10466000206961F3104020610098410C206961F3DA
:10467000514020610098810C206961F392402061D3
:104680009DF80210A1740098010D206961F3175084
:1046900020610098010E00E0D4E0206961F3186009
:1046A00020610098410E206961F3596020610098F3
:1046B000810E206961F39A6020619DF80310E17416
:1046C0000098010F206961F31C7020610098410F70
:1046D000206961F35D7020610098810F206961F3AA
:1046E0009E7020610098C10F206961F3DF70206126
:1046F000A9E02978009861F3514000902979009849
:1047000061F3DF7000906979009861F39E7000900A
:10471000E979009861F31C700090A979009861F321
:104720005D7000900098216960F30001216100989C
:104730004108206961F341002061009881082069E7
:1047400061F3820020619DF8000020740098010947
:10475000206961F3071020610098010A206961F364
:10476000082020610098410A206961F349202061F6
:104770000098810A206961F38A2020619DF8011068
:1047800061740098010B206961F30C30206100987E
:10479000410B206961F34D3020610098810B206945
:1047A00061F38E3020610098C10B206961F3CF3036
:1047B00020610098010C206961F31040206100988D
:1047C000410C206961F3514020610098810C2069FF
:1047D00061F3924020619DF80210A1740098010DD0
:1047E000206961F3175020610098010E206961F380
:1047F000186020610098410E206961F359602061C2
:104800000098810E206961F39A6020619DF8031081
:10481000E1740098010F206961F31C702061009819
:10482000410F206961F35D7020610098810F20695C
:1048300061F39E7020610098C10F206961F3DF7001
:10484000206100E000BF00BF012231462046FBF797
:1048500053FF69880448006861F308000249086052
:1048600000E004273846F8BD400801402DE9F0413A
:1048700004460E4615464FF0000800279EB92560F5
:10488000002231462046FBF737FF07E038467F1C01
:10489000B0F5A04F02D94FF0090803E0206880B2BC
:1048A000A842F3D113E06560002231462046FBF7B1
:1048B00023FF07E038467F1CB0F5A04F02D94FF028
:1048C000090803E0606880B2A842F3D100BF404607
:1048D000BDE8F08101460420084A914205D0084A0B
:1048E000914202D0074A914207D1B1F8482022F004
:1048F00010021032A1F848200020704700700140DB
:1049000000480240004C024002460420114B9A42EB
:1049100005D0114B9A4202D0104B9A4218D1002078
:10492000B1F5807F03D0B1F5005F0ED106E0B2F89B
:10493000483023F48043A2F8483008E0B2F8483009
:1049400023F40073A2F8483001E0042000BF00BF48
:10495000704700000070014000480240004C0240D7
:1049600002460023B1F5807F03D0B1F5005F0AD184
:1049700004E0B2F84800C0F3803305E0B2F8480024
:10498000C0F3402300E000BF00BFD8B27047000072
:104990001CB5024604200023019300935E4B9A420B
:1049A00005D05E4B9A4202D05D4B9A427ED10029DF
:1049B0007CD050234232D380002393804FF6FF7384
:1049C000138000231381423ABDF8043023F04003E2
:1049D000403301930C79BDF8043064F30303019371
:1049E0008C78BDF8043064F3451301934C79BDF81D
:1049F000043064F3C7130193CB78012B00D100E09E
:104A00000023BDF8044063F3CF3401948C79BDF8E2
:104A1000043064F34D330193CC79BDF8043064F372
:104A2000082301930C7ABDF8003064F3030300936C
:104A30004C7ABDF8003064F307130093BDF80030E2
:104A40004832548863F303045480BDF800301C09D5
:104A5000538864F307135380BDF800301C0A538851
:104A600064F30B235380BDF800301C0B538864F3B0
:104A70000F335380BDF80430148863F303041480AB
:104A8000BDF804301C09138864F304131380BDF8C7
:104A900004305C09138864F345131380BDF80430B7
:104AA0009C09138864F38613138000E033E0BDF89B
:104AB0000430DC09138864F3C7131380BDF8043095
:104AC0001C0A138864F308231380BDF804305C0AC1
:104AD000138864F3492322F8483949239DF8054097
:104AE0009C54BDF804305C0B4232D38864F34D33E0
:104AF000D380BDF804309C0BD38864F38E33D3800D
:104B0000BDF80430DC0BD38864F3CF33D3800B883B
:104B100022F8423900201CBD0070014000480240CC
:104B2000004C024001460420084A914205D0084A40
:104B3000914202D0074A914206D1B1F8482022F0B2
:104B40004002A1F84820002070470000007001409A
:104B500000480240004C0240024604201B4B9A428F
:104B600008D01B4B9A4205D01A4B9A4202D01A4BDE
:104B70009A4229D10020012907D002290CD0082906
:104B800011D0B1F5807F1CD114E0D36823F48033B9
:104B900003F58033D36016E0D36823F4003303F5C4
:104BA0000033D3600FE0D36823F4002303F5002320
:104BB000D36008E0D36823F4801303F58013D36037
:104BC00001E0042000BF00BF7047000000D001409A
:104BD00000D40140001002400014024001460420AD
:104BE0000D4A914208D00D4A914205D00C4A91429B
:104BF00002D00C4A91420DD16FF00C02CA60D2076C
:104C0000CA6000220A614A614FF6FF728A60002280
:104C10008A6100207047000000D0014000D40140AC
:104C2000001002400014024078B5034604208B4D6A
:104C3000AB4208D08A4DAB4205D08A4DAB4202D080
:104C4000894DAB427DD100200F297BD2DFE801F0F6
:104C5000080D12171C2126353A2B30EAF2F7FC001A
:104C6000DD6862F38205DD60F5E0DD6862F345151D
:104C7000DD60F0E0DD6862F3C305DD60EBE0DD6878
:104C800062F3C715DD60E6E0DD6862F30005DD6014
:104C9000E1E0DD6862F34105DD60DCE0DD6862F3E0
:104CA0000415DD60D7E0DD6862F38A25DD60D2E0BF
:104CB000DD6862F39E75DD60CDE0DD6862F3861528
:104CC000DD60C8E0DD68009E65F300060096DD68E3
:104CD0006E08009D66F341050095DD68AE08009DF5
:104CE00066F382050095DD68EE08009D66F3C30556
:104CF0000095DD682E09009D66F304150095DD68BA
:104D00006E09009D66F345150095DD68AE09009DAE
:104D100066F386150095DD68EE09009D66F3C715FC
:104D200000959D892E0A009D66F308250095DD6893
:104D30006E0A009D66F349250095DD68AE0A009D68
:104D400001E089E085E066F38A2500959D89EE0AF9
:104D5000009D66F3CB250095DD682E0B009D66F364
:104D60000C3500959D896E0B009D66F34E350095C0
:104D7000DD68EE0B009D66F3CF350095DD682E0CE7
:104D8000009D66F310450095DD686E0C009D66F38E
:104D900051450095DD68AE0C009D66F39245009587
:104DA000DD68EE0C009D66F3D3450095DD682E0DA1
:104DB000009D66F314550095DD686E0D009D66F349
:104DC00057550095DD682E0E009D66F31865009519
:104DD000DD686E0E009D66F35B650095DD682E0F45
:104DE000009D66F31C750095DD686E0F009D66F3EF
:104DF0005D750095DD68AE0F009D66F39E750095AC
:104E0000DD68EE0F009D66F3DF750095009D62F38F
:104E1000C3050095009D62F3C71500956C46256893
:104E2000DD6018E0DD6862F35D75DD6013E00BE0C6
:104E300005E0FFE71D6962F300051D610BE05D6998
:104E400062F345155D6106E05D6962F349255D61C8
:104E500001E0042000BF00BF78BD000000D0014089
:104E600000D40140001002400014024002461068C5
:104E7000084008B1012070470020FCE7014648685F
:104E8000C0F3084070470246506861F30800506064
:104E90000020704770B504460D460426134884422E
:104EA00008D01348844205D01248844202D01248E8
:104EB000844218D16069C0F3401028B129462046C9
:104EC000FEF73AFB06460EE0E068C0F3006028B14A
:104ED00029462046FEF796FA064604E02946204673
:104EE000FEF7E2FB0646304670BD000000D00140F0
:104EF00000D4014000100240001402401FB50246D9
:104F0000002303930293019300930420A34B9A423E
:104F100008D0A34B9A4205D0A24B9A4202D0A24B92
:104F20009A427DD100297BD06FF00C03D360DB0760
:104F3000D3600023136153614FF6FF739360002326
:104F40009361009B23F020030093029B23F0807366
:104F500002934C78039B64F3010303938C78029BC8
:104F600064F30C330293CC78029B64F31C730293BA
:104F70000C79019B64F34D3301930C78019B64F32E
:104F8000CC2301934B7923B1012B07D0022B1DD1E8
:104F90000FE0029B23F48063029318E0029B23F44A
:104FA00000730293029B23F4806303F580630293F2
:104FB0000DE0029B23F4007303F500730293029B40
:104FC00023F4806303F58063029300E000BF00BF19
:104FD0000C7A009B64F349230093CC79029B64F321
:104FE000DF7302938C79029B64F3CF330293039BAC
:104FF000946963F301049461039B9361029BD468F9
:1050000063F30004D460029B5C08D36864F341033B
:10501000D360029B9C08D36864F38203D36000E0F2
:10502000BAE0029BDC08D36864F3C303D360029B3D
:105030001C09D36864F30413D360029B5C09D36832
:1050400064F34513D360029B9C09D36864F3861311
:10505000D360029BDC09D36864F3C713D3609DF867
:1050600009405473029B5C0AD36864F34923D360FC
:10507000029B9C0AD36864F38A23D3609DF809409D
:105080005473029B1C0BD36864F30C33D3609DF8FC
:1050900009405473029BDC0BD36864F3CF33D360B5
:1050A000029B1C0CD36864F31043D360029B5C0C1E
:1050B000D36864F35143D3609DF80A409473029B14
:1050C000DC0CD36864F3D343D360029B1C0DD3681C
:1050D00064F31453D3609DF80A409473029B1C0E32
:1050E000D36864F31863D3609DF80B40D473029BBC
:1050F0001C0FD36864F31C73D360029B5C0FD368EE
:1051000064F35D73D360029B9C0FD36864F39E735A
:10511000D360029BDC0FD36864F3DF73D360019B21
:10512000146963F300041461BDF804301382019B19
:10513000DC0A136964F3CC231361019B5C0B1369D4
:1051400064F34D331361BDF80540A2F811409DF89A
:105150000740D4749DF800301375009B5C095369B7
:1051600064F345135361BDF800309382009B5C0AE1
:10517000536964F34923536102F11403BDF80140FC
:10518000A2F81540009B5C0D536964F357535361BB
:105190009DF80340D475002004B010BD00D001403C
:1051A00000D4014000100240001402400FB410B5BA
:1051B0000B9C242202A92046FBF7EEF910BC5DF8F7
:1051C00014FB30B589B005462C46206800F07CF809
:1051D000204600F075FA2068FFF700FD01208DF8E9
:1051E000180003208DF8190000208DF81A008DF8A2
:1051F0001B008DF81C008DF81D0001208DF81E008D
:105200008DF81F0000208DF8200000BF06A920683F
:10521000FFF774FE0028F9D100BFD4E90001FFF7C1
:1052200039FE0028F9D1607C022803D1284600F01D
:1052300000FA05E0607C032802D1284600F002F95C
:10524000A07C02280DD1142204F110016846FBF75E
:10525000A3F994E80F0000F099FB284600F094F9B8
:105260000FE0A07C03280CD1142204F11001684641
:10527000FBF792F994E80F0000F088FB284600F055
:105280004DF801212068FFF767FC02212068FFF735
:1052900063FC08212068FFF75FFC4FF480712068F1
:1052A000FFF75AFCA07C20B1012200212068FFF703
:1052B000BBFC607C012802D1A07C012802D02846DA
:1052C00000F03AF909B030BD10B504460F488442E9
:1052D00004D101210806FDF71FFA16E00C488442AC
:1052E00004D101214806FDF717FA0EE0094884426F
:1052F00004D101218806FDF70FFA06E00648844232
:1053000003D10121C806FDF707FA10BD00D0014006
:1053100000D4014000100240001402402DE9F04387
:105320008DB005462F4607F11C04202010F8079089
:1053300043492068884204D101218803FDF7D0F950
:1053400003E00121C803FDF7CBF901212068FBF739
:10535000C3FE00BF30216846FBF772F900BF012091
:10536000ADF800008002ADF802003868801D0190A1
:1053700005F22C40029000208DF8240001218DF8C8
:1053800025108DF82D1000218DF82A1021796A46FC
:105390002068FBF7DBFE217901222068FBF7A6FDE0
:1053A000217903222068FBF763FE2179022220681D
:1053B000FBF75EFE01214804FDF792F9E2882179AE
:1053C0002068FBF7DFFF217903222068FBF789FEC5
:1053D0000CA92868FCF700FB012802D00DB0BDE83D
:1053E000F0839DF8300000EB800000F58D789DF88B
:1053F000300000EB4000082101EB400631464046FA
:10540000FCF77AFD9DF8300000F10801304601F00C
:105410008DF9304601F06EF9304601F079F901223C
:1054200011462868FFF700FC012204212868FFF7D5
:10543000FBFB012205212868FFF7F6FB00BFCDE743
:1054400000300540F0B58DB0054605F1140400BFED
:1054500030216846FBF7F4F800BF0CA92868FCF778
:10546000BBFA012801D00DB0F0BD32492068884256
:1054700004D101218803FDF733F903E00121C803BA
:10548000FDF72EF901212068FBF726FE00BF302131
:105490006846FBF7D5F800BF0120ADF80000C00258
:1054A000ADF8020005F12C0001902868001D029063
:1054B00001208DF8240000218DF8251001218DF8A0
:1054C0002D1000218DF82A1021796A462068FBF7FB
:1054D0003DFE217901222068FBF708FD2179022297
:1054E0002068FBF7C5FD01214804FDF7F9F8E288C3
:1054F00021792068FBF746FF9DF8300000F1200776
:105500009DF8300000EB40000B2101EB40063146D6
:105510003846FCF7F1FC9DF8300000F10B013046F5
:1055200001F004F9304601F0E5F8304601F0F0F8FA
:1055300000BF98E700300540F8B505466946286881
:10554000FCF74AFA012800D0F8BD9DF8000000EBF6
:10555000800000F58B769DF8000000EB40000621EE
:1055600001EB400421463046FCF7C6FC9DF80000E4
:10557000811D204601F0DAF8204601F0BBF82046F4
:1055800001F0C6F800BFDFE7F8B5044669462068B9
:10559000FCF722FA012800D0F8BD9DF8000000EBCE
:1055A000800000F217169DF8000000EB4000072174
:1055B00001EB400529463046FCF79EFC9DF80000B3
:1055C000C11D284601F0B2F8284601F093F828469C
:1055D00001F09EF89DF8000000EB800000F58D764C
:1055E0009DF8000000EB4000082101EB4005294632
:1055F0003046FCF781FC9DF8000000F108012846C8
:1056000001F094F8284601F075F8284601F080F87A
:10561000012211462068FFF707FB012204212068C0
:10562000FFF702FB012205212068FFF7FDFA00BF0A
:10563000B2E7F8B5044669462068FCF7CDF90128C1
:1056400000D0F8BD9DF8000000EB800000F58C76DE
:105650009DF8000000EB4000092101EB40052946C0
:105660003046FCF749FC9DF8000000F1090128468E
:1056700001F05CF8284601F03DF8284601F048F8B2
:105680009DF8000000EB800000F219169DF8000064
:1056900000EB40000A2101EB400529463046FCF7AB
:1056A0002BFC9DF8000000F10A01284601F03EF8AD
:1056B000284601F01FF8284601F02AF800BFC0E78D
:1056C00010B50446227CE189607B0023FCF7C6FF0D
:1056D000227B6189207A0023FCF7C0FF10BD70B5E2
:1056E000044604F1140504F62E04A08861880844D9
:1056F000A080A0882188A4F62E04884224DA04F62B
:105700002E042088A188401A608062882979286840
:10571000FBF706FEA688A4F62E0404F12C03F2186B
:1057200029792868FBF7DEFD297901222868FBF733
:10573000DDFB297902222868FBF79AFC0122082167
:105740002068FFF771FA0FE094F8400820F002009B
:1057500084F84008297903222868FBF789FC297915
:1057600002222868FBF784FC70BD70B505462C4604
:1057700020680221FFF77AFB012803D1206802216B
:10578000FFF7EAF920680121FFF770FB012803D138
:1057900020680121FFF7E0F920680821FFF766FB88
:1057A000012803D120680821FFF7D6F970BD70B534
:1057B000044625462868FFF761FBC6B2B5F82C18E9
:1057C00005F22C404654B5F82C08401CA5F82C08CE
:1057D000B5F82C08B0F5007F06DB95F8400820F0FE
:1057E0000100401C85F8400870BD00002DE9F04123
:1057F000064634462546202010F80580E86900F169
:10580000680720684FF48071FFF7A6F920683049D7
:10581000884205D1002211462E48FEF7CFFD1CE03C
:1058200020682D49884205D1002201212948FEF730
:10583000C5FD12E020682949884205D100221146A1
:105840002748FEF7BBFD08E020682649884204D1BE
:10585000002201212248FEF7B1FDA07C03282AD1B5
:105860002022515DE8690022FBF740FB2020405DCB
:10587000402111FB007738680901A1EB1040A4F822
:105880002C082022515DE86904F22C42FBF70CFD44
:105890002022515DE8695201FBF742FD2022515D53
:1058A000E8690122FBF722FB94F8400820F0010090
:1058B000401C84F84008A07C022806D194F84008D7
:1058C00020F00100401C84F84008BDE8F081000091
:1058D00000D001400040024000D4014000100240CE
:1058E000004402400014024070B505462C46206872
:1058F0004021FFF7BBFA012812D194F8400820F0AC
:10590000020084F840080020A4F82E082068002235
:105910000721FFF789F9206800220221FFF784F9A7
:1059200070BD70B505462C4620688021FFF79EFAB1
:1059300001282AD1B4F83208B4F82E18884210DBB6
:10594000206800220321FFF76FF994F8400820F047
:10595000020084F84008206801220721FFF764F95B
:1059600013E094F8400820F00200801C84F84008FE
:10597000B4F8323804F12C02D15C2068FFF783FAC6
:10598000B4F83208401CA4F8320870BD0FB430B52A
:105990008DB0002500BF202105A8FAF751FE00BFF9
:1059A00000BF00200390049000BF00BF0190029050
:1059B00000BF2D491098084448B1B0F5806F0DD054
:1059C000B0F5804F11D0B0F5884F1CD114E0012103
:1059D0000846FCF7B1FE254D002418E001210846D9
:1059E000FCF7AAFE214D012411E001210220FCF761
:1059F000A3FE1F4D00240AE001210220FCF79CFEBB
:105A00001B4D012403E00DB030BC5DF814FB00BF5A
:105A1000002221462846FEF729FF01208DF80F00BD
:105A200000208DF80E008DF80C002420ADF8100039
:105A300003AA21462846FEF78FF921462846FEF79D
:105A400085FC00208DF8080001208DF809008DF8F4
:105A50000B0000208DF80A0001AA21462846FEF717
:105A600001FD00BFCFE700000030FEBF0040024054
:105A70000044024070B504460D461646607C01287D
:105A800005D132462946204600F0E6F81AE0607C4F
:105A9000022805D132462946204600F0ACF811E034
:105AA000607C032805D132462946204600F00CF8D8
:105AB00008E00020A4F82E0894F8400820F0020026
:105AC00084F84008002070BD2DE9F04104460F46DF
:105AD000164604F1140516B90020BDE8F08194F8CB
