:020000040000FA
:10000000F0260020210300005103000053030000EC
:1000100055030000570300005903000000000000D2
:100020000000000000000000000000005B03000072
:100030005D030000000000005F030000610300009A
:100040006303000063030000630300006303000018
:1000500063030000A1180000C5180000D5180000B7
:10006000E5180000F518000005190000151900003A
:100070002519000035190000451900005519000028
:100080006519000075190000630300006303000098
:1000900063030000630300006303000063030000C8
:1000A00063030000630300006303000063030000B8
:1000B00063030000630300006303000063030000A8
:1000C0006303000063030000630300006303000098
:1000D0006303000063030000630300006303000088
:1000E0006303000063030000630300006303000078
:1000F0006303000063030000630300006303000068
:100100006303000063030000630300006303000057
:100110006303000063030000630300006303000047
:100120006303000063030000630300006303000037
:100130006303000063030000630300006303000027
:100140006303000063030000630300006303000017
:100150006303000063030000630300006303000007
:1001600063030000630300006303000063030000F7
:1001700063030000630300006303000063030000E7
:1001800063030000630300006303000063030000D7
:1001900063030000630300006303000063030000C7
:1001A00063030000630300006303000063030000B7
:1001B00063030000630300006303000063030000A7
:1001C0006303000063030000630300006303000097
:1001D0006303000063030000630300006303000087
:1001E0006303000063030000630300006303000077
:1001F0006303000063030000630300006303000067
:100200006303000063030000630300006303000056
:100210006303000063030000630300006303000046
:100220006303000063030000630300006303000036
:100230006303000063030000630300006303000026
:100240006303000063030000630300006303000016
:100250006303000063030000630300006303000006
:1002600063030000630300006303000063030000F6
:1002700063030000630300006303000063030000E6
:1002800000F002F800F03CF80AA090E8000C82446C
:100290008344AAF10107DA4501D100F031F8AFF249
:1002A000090EBAE80F0013F0010F18BFFB1A43F054
:1002B00001031847A0420000C0420000103A24BFCA
:1002C00078C878C1FAD8520724BF30C830C144BFBB
:1002D00004680C60704700000023002400250026FD
:1002E000103A28BF78C1FBD8520728BF30C148BF99
:1002F0000B6070471FB504F0C5F81FBD10B510BDE9
:1003000000F071F91146FFF7F5FF03F093FF00F0DD
:100310008FF903B4FFF7F2FF03BC00F097F9000078
:1003200013484FF07701016012484FF077010160E8
:1003300011484FF4885101600D484FF0760101607B
:100340000C484FF0760101600C4880470C4800478C
:10035000FEE7FEE7FEE7FEE7FEE7FEE7FEE7FEE775
:10036000FEE7FEE707480849084A094B70470000C6
:10037000040805400C0805400008054091230000D2
:1003800081020000F01E0020F0260020F022002054
:10039000F022002010B5203AC0F00B80B1E81850D0
:1003A000203AA0E81850B1E81850A0E81850BFF45F
:1003B000F5AF5FEA027C24BFB1E81850A0E81850FE
:1003C00044BF18C918C0BDE810405FEA827C24BF52
:1003D00051F8043B40F8043B08BF7047D20728BFE0
:1003E00031F8023B48BF11F8012B28BF20F8023B2F
:1003F00048BF00F8012B704770477047704770473F
:10040000FFFFFFFFFFFFFFFFFFFFFFFFFFFFFFFFFC
:10041000FFFFFFFFFFFFFFFFFFFFFFFFFFFFFFFFEC
:1004200053EA020C00F069802DE9F04B4FF0000612
:10043000002B1FBFB3FA83F503FA05F424FA05F67F
:100440005E4012BF1643B2FA82F502FA05F4C5F116
:1004500020051EBF22FA05FC44EA0C04203556EAAA
:10046000044C4FEA144418BF641C4FF000084FF0CE
:100470000009904271EB030C39D3002919BFB1FA7E
:1004800081F701FA07F6B0FA80F700FA07F6C7F12C
:1004900020071EBF20FA07FC46EA0C062037B6FBF1
:1004A000F4FCA7EB0507103F07F01F0BCBF120066C
:1004B0000CFA0BFB2CFA06F644BFB3460026202F9D
:1004C000A4BF5E464FF0000B5BEA060C08BF4FF07E
:1004D000010B19EB0B09ABFB027C48EB0608C01BB8
:1004E00006FB02CC0BFB03CC71EB0C01C1E70B4606
:1004F000024641464846BDE8F08B13B54FF0000078
:100500004FF00001AFF30080BDE81C407047032AA4
:1005100040F2308010F0030C00F0158011F8013B20
:10052000BCF1020F624498BF11F801CB00F8013B07
:1005300038BF11F8013BA2F1040298BF00F801CBCB
:1005400038BF00F8013B11F003033FF423AF083A32
:10055000C0F0088051F8043B083A51F804CBA0E8F9
:100560000810F5E7121D5CBF51F8043B40F8043B4E
:10057000AFF30080D20724BF11F8013B11F801CB83
:1005800048BF11F8012B24BF00F8013B00F801CB54
:1005900048BF00F8012B70474FF0000200B513462A
:1005A00094469646203922BFA0E80C50A0E80C5093
:1005B000B1F12001BFF4F7AF090728BFA0E80C5044
:1005C00048BF0CC05DF804EB890028BF40F8042B3D
:1005D00008BF704748BF20F8022B11F0804F18BFAA
:1005E00000F8012B7047754600F02CF8AE46050068
:1005F0006946534620F00700854618B020B5FFF73E
:10060000B1FEBDE820404FF000064FF000074FF06C
:1006100000084FF0000B21F00701AC46ACE8C00920
:10062000ACE8C009ACE8C009ACE8C0098D46704729
:1006300010B50446AFF300802046BDE81040FFF738
:1006400068BE000000487047901E00200149182035
:10065000ABBEFEE7260002002DE9F0410546E5B1FC
:100660000F4880684619002412E00E480768806829
:1006700007EB402002190B4883890948806801195B
:10068000084801F085F801F07DF9064880890444A6
:10069000AC42EAD30120BDE8F0810020FBE7000076
:1006A0004C84FF1F801E00202DE9F04705460E46B2
:1006B000144600270021284602F0EBF9804601216C
:1006C000284602F0E6F98146012C07D1B8F1010F66
:1006D00002D0B9F1010F08D1012706E031462846C2
:1006E00002F0D7F9012800D10127012F0BD10020FA
:1006F00001E000BF401C0549096842F21072B1FBDD
:10070000F2F18142F5D8BDE8F08700000080FF1FBC
:100710001CB500231A464FF40071012001F018FAAD
:1007200000BF00200090019000BF01208DF8000064
:1007300000208DF8060002208DF8050000208DF8BD
:1007400002008DF804006A464FF40071012001F0A8
:1007500071F91CBD10B54FF40071012001F0DCF9F6
:1007600010BD000000B587B0104A07CA04AB07C32C
:100770000E4A0C3207CA01AB07C301F097FA01F029
:10078000B5FA01F063FA01F083FAFFF7C1FFFFF752
:10079000E1FF074B04A807C803F0B4FC054B01A810
:1007A00007C803F0AFFC07B000BD0000D84400004C
:1007B0001C80FF1F3482FF1F014631B101290DD07B
:1007C000022914D0032924D11AE0184A127802F021
:1007D000010282F0010282F0010024E0134A127843
:1007E000C2F3C00282F0010282F001001BE00F4A56
:1007F0001278C2F3401282F0010282F0010012E08E
:100800000A4A1278C2F3801282F0010282F00100DB
:1008100009E0064A521D127802F0010282F001023C
:1008200082F0010000BF00BF704700003C4005405F
:1008300038B504460020009000251F4800884AF281
:10084000015108431D49A1F8FE0394B91B48263005
:10085000007800F00700052801D101251FE01748A6
:100860002A30007820F00100401C144981F82A0049
:1008700015E012482A30007820F001000F4981F875
:100880002A0000BF0220FFF797FF03460098401C94
:1008900000900098B0F5805F01D2012BF2D106489C
:1008A00000884FF6FE71084040F425400349A1F846
:1008B000FE03284638BD0000FE43054000400540C9
:1008C00000283ED01F4909884AF2015211431D4AAF
:1008D00011800178491E1C4AD2F8002161F31F7271
:1008E0001A490A600179491E174AD2F8002161F3BA
:1008F0001B6216490A60017A491E134AD2F8002188
:1009000061F3175211490A608189491E0E4AD2F8D3
:10091000002161F310220D490A60017C491E0A4A38
:10092000D2F8002161F304020749C1F80021B1F8AF
:10093000FE134FF6FE72114041F42541024AA2F81F
:10094000FE137047FE43054000400540004105404E
:100950000D4909884AF2015211430C4AA2F8FE13CC
:100960001146D1F8001160F3C711C2F80011114609
:10097000B1F8FE134FF6FE72114041F42541034ACF
:10098000A2F8FE1370470000FE43054000400540FA
:1009900010B586B00446002005902E4800680490EB
:1009A0002C48406803902B48806802902948C06812
:1009B00001902948007800F00700052801D0052C97
:1009C0000DD1264823490860C01248608860C8607D
:1009D00000BF0598401C05900598B028F9D3204821
:1009E00000884AF2015108431B492639A1F8FE0349
:1009F000084690F8260064F3020081F826000846B5
:100A0000B0F8FE034FF6FE71084040F4254012494D
:100A10002639A1F8FE030020059000BF0598401C70
:100A200005900598B028F9D30A49049808600398FE
:100A30004860029888600198C8600020059000BF57
:100A40000598401C05900598B028F9D301F03EFCAC
:100A500006B010BD0080044026400540EEFAFFFFBE
:100A6000FE43054085B00021049134490968039193
:100A70003249496802913149896801912F49C96811
:100A80000091002858D02E49097801F00701052966
:100A90000DD12C49294A1160C91251609160D16071
:100AA00000BF0499491C04910499B029F9D326493F
:100AB00009884AF201521143234A11808178C27891
:100AC00041EA0211027941EA0221427941EA023106
:100AD000827941EA0241427841EA0251027841EAD0
:100AE000026141EA0271164A263A116216490988E2
:100AF0004FF6FE72114041F42541114A263AA2F800
:100B0000FE130021049100BF0499491C049104992B
:100B1000B029F9D3094A03991160029951600199EA
:100B200091600099D1600021049100BF0499491C93
:100B300004910499B029F9D305B0704700800440AE
:100B400026400540EEFAFFFFFE43054038B5044657
:100B50000020009000252A4800884AF201510843ED
:100B60002849A1F8FE034CBB26482630007800F047
:100B70000700032801D1012536E023480068C0F3AF
:100B8000C01088B91F482A30007800F0010008B969
:100B9000012529E01B483230007820F00100401C7C
:100BA000184981F832001FE016483230007820F0F2
:100BB0000100401C134981F8320015E01148323021
:100BC000007820F001000F4981F8320000BF0120B9
:100BD000FFF7F2FD03460098401C00900098B0F526
:100BE000805F01D2012BF2D1054800884FF6FE71DB
:100BF000084040F425400349A1F8FE03284638BDCB
:100C0000FE430540004005400041054058B31649E9
:100C100009884AF201521143134A1180027812499D
:100C20001231097862F3C7110F4A123211704278FB
:100C30000D491231097862F386110B4A1232117094
:100C4000827809491231097862F30511064A123295
:100C50001170054909884FF6FE72114041F4254193
:100C6000024AA2F8FE137047FE43054000400540CB
:100C70002DE9F04100F02CFD054635B1681C20B18E
:100C800029488068B5EB802F02D90020BDE8F081AB
:100C900000F00EFD074624490A68896802EB4120EE
:100CA000294600F0C6FF0646B74201D00020EDE716
:100CB00000F01CFD0446601CF8B11B48006800F5FC
:100CC000004019498989042202FB0100A04214D87E
:100CD0001548006800F500401349898902FB0101AD
:100CE000114880895203C2EB40200F4A92890423A5
:100CF00003FB12000844A0420BD80B48006800F523
:100D0000004009498989042202FB010007498860E3
:100D100001E0064884602846FFF79EFC012801D0C8
:100D20000020B3E70120B1E7801E00204C84FF1FA4
:100D300010B501F01FFA00F021FB044800F0ECFCB4
:100D400003F0EEF901F0EAF910BD0000801E00206A
:100D500010B500BF00F15C0303EB81131B6823F0A7
:100D600003031478234300F15C0404EB8114236033
:100D700000BF00BF00F15C0303EB81131B6823F08D
:100D80000C03547843EA840400F15C0303EB811301
:100D90001C6000BF00BF00F15C0303EB81131B6804
:100DA00023F01003947843EA041400F15C0303EB8E
:100DB00081131C6000BF00BF00F15C0303EB8113D3
:100DC0001B6823F02003D47843EA441400F15C0349
:100DD00003EB81131C6000BF00BF00F15C0303EB59
:100DE00081131B6823F04003147943EA841400F153
:100DF0005C0303EB81131C6000BF00BF00F15C03C8
:100E000003EB81131B6823F08003547943EAC41475
:100E100000F15C0303EB81131C6000BF00BF00F115
:100E20005C0303EB81131B6823F44073947943EA5A
:100E3000042400F15C0303EB81131C6000BF00BFBE
:100E400000F15C0303EB81131B6823F48063D47906
:100E500043EA842400F15C0303EB81131C6000BFB0
:100E600000BF00F15C0303EB81131B6823F40063F4
:100E7000147A43EAC42400F15C0303EB81131C6081
:100E800000BF00BF00F15C0303EB81131B6823F478
:100E90008053547A43EA043400F15C0303EB81137A
:100EA0001C6000BF10BD0000F0B5034615460022CF
:100EB00000265F48007800286FD101205C4F387011
:100EC000DF69884027EA0006002E67D0D86900F065
:100ED0000100D8B1D1B1986C040C986E0A27B7EB19
:100EE000104F13D3986EB4EB104F0FD909E0501C7C
:100EF00082B2B2F5A04F04D900204D4F38700920BE
:100F0000F0BDD86900F001000028F0D1D86900F0E8
:100F10000200022820D101291ED0D3F88800040C39
:100F2000D3F8A8000A27B7EB104F15D3D3F8A800C1
:100F3000B4EB104F10D9002209E0501C82B2B2F578
:100F4000A04F04D900203A4F38700920D8E7D8695B
:100F500000F002000028F0D1D86900F00400042855
:100F600022D1022920D00022D3F8C800040CD3F8E3
:100F7000E8000A27B7EB104F16D3D3F8E800B4EB1C
:100F8000104F11D90BE0501C82B2B2F5A04F06D918
:100F90000020274F38700920B2E746E02AE0D869E0
:100FA00000F004000028EED1D86900F008000828FD
:100FB00020D103291ED00022D3F80801040CD3F855
:100FC00028010A27B7EB104F14D3D3F82801B4EB4C
:100FD000104F0FD909E0501C82B2B2F5A04F04D9CE
:100FE0000020134F387009208AE7D86900F0080004
:100FF0000028F0D14DB1012D12D1D86901278F40C1
:1010000007F00F073843D8610AE0D86901278F40FD
:101010004FF00F0C2CEA070C00EA0C00D86100BF5F
:1010200000BF0020024F38706AE7012068E7000027
:101030000480FF1F70B50346002039B1012905D097
:10104000022903D0032901D0042026E032B1012A6D
:101050000AD0022A10D0032A1CD113E05C690125B2
:101060008D402C435C6117E05C6901F1100501269D
:10107000AE4034435C610FE09C6901258D402C43F8
:101080009C6109E09C6901F110050126AE403443E2
:101090009C6101E0042000BF00BF70BD026861F3E5
:1010A00000020260704770B50346002039B1012983
:1010B00005D0022903D0032901D0042026E032B153
:1010C000012A0AD0022A10D0032A1CD113E0DC68BE
:1010D00001258D40AC43DC6017E0DC6801F11005B0
:1010E0000126AE40B443DC600FE01C6901258D4051
:1010F000AC431C6109E01C6901F110050126AE40FA
:10110000B4431C6101E0042000BF00BF70BD0000BB
:1011100070B505460C46164601212846FFF7BEFF6E
:1011200005F15C0000EB8410006820F4805105F1AB
:101130005C0000EB8410016005F1400000EB8410BE
:101140007168016005F1440000EB8410B168016032
:1011500000BF05F1480000EB841000686FF3090040
:101160003188084305F1480101EB8411086000BF94
:1011700000BF718805F1480000EB8410006861F33E
:101180001F4005F1480101EB8411086000BF00BF5A
:1011900005F14C0000EB841000686FF30900B18981
:1011A000084305F14C0101EB8411086000BF00BF4A
:1011B00005F14C0000EB841000682B490840F189D0
:1011C00040EA014105F14C0000EB8410016000BFD2
:1011D00000BF05F1500000EB841000686FF31300AE
:1011E0007169084305F1500101EB8411086000BFEB
:1011F00000BF318B05F1500000EB8410006861F3F3
:101200001F5005F1500101EB8411086000BF00BFC1
:1012100005F1540000EB841000686FF31300F169CE
:10122000084305F1540101EB8411086000BF00BFC1
:10123000318C05F1540000EB8410006861F31F50FD
:1012400005F1540101EB8411086000BF05F158005D
:1012500000EB84103169016006F124022146284622
:10126000FFF776FD70BD0000FFFF00FC30B50346C0
:101270000024002003F1440505EB81152A600BE0F2
:10128000651CACB2B4F5805F01D9092004E003F11C
:10129000440505EB81152A6003F1640505EB811512
:1012A0002D689542ECD130BD30B5034600240020B6
:1012B00003F1400505EB81152A600BE0651CACB21B
:1012C000B4F5805F01D9092004E003F1400505EB86
:1012D00081152A6003F1600505EB81152D689542A3
:1012E000ECD130BD70B503460024002000BF03F1EF
:1012F000480505EB81152D6862F31F4503F148068B
:1013000006EB8116356000BF14E0651CACB2B4F585
:10131000805F01D909200DE000BF03F1480505EB0E
:1013200081152D6862F31F4503F1480606EB81160F
:10133000356000BF03F1680505EB81152D68B2EB40
:10134000154FE2D170BD000010B5094B984205D190
:10135000084C04EB8103C3F8142807E0064B9842BD
:1013600004D1044C04EB8103C3F8242810BD000011
:101370000030054000000140003405400648006888
:101380004FF47A71B0FBF1F04FF0E021486100209A
:1013900088610520086170470080FF1FF0B5034693
:1013A00000224FF0E02675690F4E36684FF47A77C9
:1013B000B6FBF7F606FB03F44FF0E026B16910E048
:1013C0004FF0E026B06988420BD0884202D20E1A54
:1013D000324402E02E1A0E4432440146A24200D3A7
:1013E00000E0EDE700BFF0BD0080FF1F10B590B03A
:1013F000242107A8FFF7D0F80B4C24220B4907A89B
:10140000FEF7C8FF4FF4E130089014220BA968469C
:101410000594FEF7BFFF07A80FC802F0F1F82046B9
:1014200002F0F9F810B010BD308EFF1F1445000017
:1014300070B506460D46174C94F8400800F00100C0
:1014400028B3B4F82C0808B9002070BD2888B4F877
:101450002C1888420ADBB4F82C2804F22C413046C0
:10146000FFF755F8B4F82C08288005E02A8804F224
:101470002C413046FFF74BF80020A4F82C0894F8D4
:10148000400820F0010084F840080120DDE700203A
:10149000DBE70000308EFF1F70B504460D462A467C
:1014A0002146024802F0CEFC70BD0000308EFF1FC6
:1014B00001490860704700001404014003490968AD
:1014C00060F30001014A1160704700000C04014004
:1014D000012801D0012200E000220349096862F3DB
:1014E0000001014A116070470404014001460448AC
:1014F0000068084008B1012070470020FCE70000A8
:101500001004014004480068012804D143F210206F
:1015100001490860086070470004014070B5034647
:10152000002400263F20FFF7C3FF18480068C0F3DF
:1015300000451648006820F48030144908600120F6
:10154000FFF7BCFF042000F025F81148186005E003
:10155000601C84B2B4F5805F00D909260B480830BE
:101560000068C0F300200028F2D01020FFF7A0FF91
:10157000002000F00FF80020FFF7A0FF03480068EC
:1015800065F3104001490860304670BD0804014011
:10159000785634120349096860F30611014A116054
:1015A000704700000C0401400349096860F307110B
:1015B000014A11607047000008040140F0B503467D
:1015C0000C46002600253F20FFF772FF19480068EF
:1015D000C0F300471748006820F4803015490860C0
:1015E0000120FFF76BFF0120FFF7D4FF1C6005E02F
:1015F000681C85B2B5F5805F00D909260D48083012
:101600000068C0F300200028F2D01868A04200D083
:1016100001261020FFF74CFF0020FFF7BBFF002042
:10162000FFF74CFF0348006867F31040014908606A
:101630003046F0BD0804014040F223100249086022
:1016400043F21020086070470004014010B50448C0
:10165000006800F50041024800F076F810BD000077
:10166000801E0020024601231048104448B1B0F506
:10167000806F0AD0B0F5804F0BD0B0F5884F10D1F5
:101680000BE009B1002008700DE009B101200870DD
:1016900009E009B10220087005E009B103200870D3
:1016A00001E0002300BF00BF012070470030FEBFF3
:1016B00008B50648006800F50040011D04236A468D
:1016C000024800F058F8009808BD0000801E002075
:1016D00008B50548006800F5004104236A46024841
:1016E00000F049F8009808BD801E002008B50648A3
:1016F000006800F5004000F1080104236A46024832
:1017000000F039F8009808BD801E00204FF40070EA
:1017100070474FF40050704700B50246002010603B
:1017200050609060D060FFF7F4FF9081FFF7EEFF0C
:1017300090600020106050604FF48063D2E9010196
:1017400003FB0100506000BD70B506460C46FFF774
:1017500073FF0120FFF7BCFE00BF4FF48070FFF75E
:10176000C5FE0128F9D12046FFF7D8FE0546FFF750
:10177000C9FE284670BD30B505461446002203E078
:101780000878A054491C521C9A42F9D3184630BD1F
:101790002DE9FF4F83B006460F469B46B5894FF0B3
:1017A0000009DA46BAF1000F03D1002007B0BDE806
:1017B000F08F3068B84270D807EB0A007168884231
:1017C0006BD22946002002F03DFE8146B9F1000FA0
:1017D00001D10020EAE7FFF72FFF0120FFF778FE95
:1017E00000BF4FF48070FFF781FE0128F9D1306807
:1017F0003F1AB7FBF5F808FB05F8B7FBF5F005FB5A
:10180000107080B202900298281A80B2019039E0DC
:10181000306800EB08012B464A463046FFF7ABFF25
:10182000002406E00598015D0298204409F80010A4
:10183000641C0198504501D2019800E05046A04236
:10184000F0D8AAEB040A059820440590316801EB12
:101850000800FFF763FE002407E059F8041032681F
:1018600042441019FFF7AAFE241DAC42F5D3A84448
:10187000BAF1000F00D106E0002002900298281A69
:1018800080B20190C4E700BF4946002002F0C8FDC5
:10189000FFF738FE584689E7FFE7002086E700009B
:1018A00010B54FF40051064801F068FB30B100F06C
:1018B000B7FC4FF40051024801F034FB10BD0000AA
:1018C0000070014010B5024802F037F910BD000069
:1018D000E085FF1F10B5024802F051F910BD00006D
:1018E000E085FF1F10B5024802F068F910BD000046
:1018F000E085FF1F10B5024802F0FBF910BD0000A3
:10190000E085FF1F10B5024802F0D6F910BD0000B7
:10191000E085FF1F10B5024802F0FAF810BD000084
:10192000E085FF1F10B5024802F007F910BD000066
:10193000308EFF1F10B5024802F021F910BD0000E3
:10194000308EFF1F10B5024802F038F910BD0000BC
:10195000308EFF1F10B5024802F0CBF910BD000019
:10196000308EFF1F10B5024802F0A6F910BD00002E
:10197000308EFF1F10B5024802F0CAF810BD0000FB
:10198000308EFF1F10B502F019FC10BD70B5002499
:10199000202916DBC51700EBD5656D1105EB450554
:1019A000202606EB45058D420ADCC51700EBD56500
:1019B0006D1105EB4505252606EB45058D4200DA40
:1019C00070BD054A042303FB0124226860F308026A
:1019D000226000BFF4E700005C10054070B51348BA
:1019E000006800F500401149898950F8210010492C
:1019F0000840B0F1005F18D10C48006800F50040C5
:101A00000A498989042202FB010045682C460749DE
:101A1000096801F50041054A928951F8220080F3D6
:101A2000088800BFFFF7AEFFA04770BD801E0020F2
:101A30000000FE2FF0B505460F461346002400F0C7
:101A4000B3F800BF57E00120A0403840002850D034
:101A50002C4800EB851000EB84022A48801C00EB28
:101A6000851000EB84065978108861F38E30108061
:101A70009978108861F30C301080D978108861F360
:101A8000492010801979108861F3861010809979A7
:101A9000108861F3820010805979108861F3051075
:101AA0001080187820B101280BD002281AD112E03A
:101AB000108820F400401080108820F00200108070
:101AC00011E0108820F400401080108820F00200FF
:101AD000801C108007E0108820F4004000F50040D2
:101AE000108000E000BF00BFD979308861F3082082
:101AF0003080601CC4B2102CA5D300F005F8002083
:101B0000F0BD0000003C05404FF42540014908802D
:101B100070470000FC3B054010B502460448102405
:101B200004FB0203188808431880002010BD000041
:101B30000A38054010B502460448102404FB02038D
:101B4000188808431880002010BD000008380540A0
:101B5000F0B504460D4616461F46002300F024F853
:101B6000002319E001209840284098B10D484021F9
:101B700001FB0400042101FB0302108866F3050049
:101B80001080012F01D1012000E00020118860F3B6
:101B900008211180581CC3B2102BE3D3FFF7B4FF08
:101BA0000020F0BD023C05404AF201500149088086
:101BB00070470000FC3B05400B4A12690B4B1A436F
:101BC000094B1A61012904D11A46126882431A602E
:101BD00004E0054A12680243034B1A60034A521E8E
:101BE000014B1A6170470000008004400100A5A568
:101BF000012905D1054A52688243044B5A6004E02A
:101C0000024A52680243014B5A6070470080044008
:101C1000012905D1054A92688243044B9A6004E089
:101C2000024A92680243014B9A6070470080044068
:101C3000704730B5024600200B4602E0147820447D
:101C4000521C1C1EA3F10103F8D130BD1CB50023AA
:101C50001A464FF480710120FFF77AFF00BF002081
:101C60000090019000BF01208DF8000000208DF849
:101C7000060002208DF8050000208DF802008DF886
:101C800004006A464FF480710120FFF7D3FE1CBDAB
:101C900010B54FF480710120FFF73EFF10BD10B565
:101CA0004FF480710120FFF745FF10BD1CB50023E4
:101CB0001A4680210120FFF74BFF00BF0020009053
:101CC000019000BF01208DF8000000208DF8060073
:101CD00002208DF8050000208DF802008DF8040028
:101CE0006A4680210120FFF7A5FE1CBD10B58021AA
:101CF0000120FFF711FF10BD10B580210120FFF773
:101D000019FF10BD2DE9F04F2DED028B83B0044675
:101D10008A460026B14600BF9FED410AB0EE408AD8
:101D200000254FF0FF3B042002903E48844208D03B
:101D30003D48844205D03D48844202D03C4884421C
:101D400067D1204602F020FA0646002E61D0D14627
:101D500000EE109AB8EE400AF1EE000A60EE200A9A
:101D600000EE106AB8EE400A80EE201AB7EE000AC4
:101D700031EE400AB0EE408ABCEEC80A10EE105AAE
:101D8000B5EEC08AF1EE10FA43D3FF2D41D8002002
:101D9000029000EE105AB8EE400A38EE400ADFED2D
:101DA000250AB4EEE00AF1EE10FA1EDD6A1C40418D
:101DB0000021A2FB097300FB093002FB01084FF46C
:101DC00080610022A7FB010308FB013107FB021120
:101DD00032460023CDE90001FEF722FBB0F1800B73
:101DE000BBF17F0F01D904200290029888B9BBF1A2
:101DF0007F0F01D8012100E00021E06861F35D70F0
:101E0000E060A0686BF30600A060A06865F30F2097
:101E1000A060029803B0BDEC028BBDE8F08F00001B
:101E20000000000000D0014000D40140001002403A
:101E300000140240ACC527372DE9F04F2DED028B81
:101E400089B004468B460026B146B2469FED4F0A44
:101E5000B0EE408A00BF0025681E07904C4B0FCBA8
:101E600003AF0FC7042002904A48844208D04A4872
:101E7000844205D04948844202D0494884427FD1F7
:101E8000204602F081F98146B9F1000F78D05E4614
:101E90006069C0F3425003A931F810A000EE106A47
:101EA000F8EE400A00EE10AAB8EE400A20EE800AD2
:101EB000F0EE000A60EE200A00EE109AB8EE401A2A
:101EC00081EE200AF7EE000A30EE600AB0EE408A9A
:101ED000BCEEC80A10EE105AB5EEC08AF1EE10FA48
:101EE0004ED3FF2D4CD80020029000EE105AB8EED1
:101EF000400A38EE400ADFED2B0AB4EEE00AF1EEBC
:101F000010FA27DD6A1C40410023A2FB061C00FBDF
:101F100006C002FB03021846A1FB0A7302FB0A3249
:101F200001FB00284FF400710020A7FB012308FBF0
:101F3000013107FB0010CDE900204A460023DDE90E
:101F40000001FEF76DFA8038079007987F2801D9C5
:101F500004200290029820B907987F2802D8012116
:101F600001E00DE00021E06861F35D70E06007983A
:101F7000A16860F30601A160A06865F30F20A0606E
:101F8000029809B0BDEC028BBDE8F08F00000000A4
:101F90003845000000D0014000D40140001002404C
:101FA00000140240ACC527372DE9F04F2DED028B10
:101FB00085B004468B460026B146B2469FED510AD5
:101FC000B0EE408A00BF0025681E039004200290F6
:101FD0004D48844208D04D48844205D04C48844244
:101FE00002D04C48844277D1204602F0CDF8814699
:101FF000B9F1000F7FD05E46E068C0F3C03A00EE52
:10200000106AB8EE400AF2EE000A60EE200A00EE16
:1020100010AAB8EE400AB0EE001A31EE400A60EEA7
:10202000800A00EE109AB8EE401A81EE200AF7EE10
:10203000000A30EE600AB0EE408ABCEEC80A10EE2C
:10204000105AB5EEC08AF1EE10FA54D3FF2D52D8D3
:102050000020029000EE105AB8EE400A38EE400A16
:10206000DFED2D0AB4EEE00AF1EE10FA2DDD0021CD
:10207000DAF1020261EB01004FF0010C15EB0C0CE0
:1020800041EB0103A2FB0C1E00FB0CE002FB030270
:102090000020A1FB067302FB063201FB00284FF46F
:1020A00000610022A7FB010308FB013107FB0211BD
:1020B0004A460023CDE90001FEF7B2F980380390CB
:1020C00003987F2801D904200290029820B9039830
:1020D0007F2802D8012101E00DE00021E06861F3D2
:1020E0005D70E0600398A16860F30601A160A068DC
:1020F00065F30F20A060029805B0BDEC028BBDE82F
:10210000F08F00000000000000D0014000D401402A
:102110000010024000140240ACC5273710B500245F
:1021200003E0204600F004F8641C022CF9D310BD33
:10213000022800D37047002100EB40020C4B03EB58
:10214000C202916000EB400203EBC202516000EB5F
:10215000400203EBC202116100EB400203EBC2023A
:10216000516100EB400243F8321000BFE2E700008B
:10217000B085FF1F00B589B000BF00200690079012
:1021800000BF00BF142101A8FEF706FA00BF00201F
:102190008DF8180001208DF8190000208DF81A0024
:1021A00001208DF81B0002208DF81C008DF81D0009
:1021B00001208DF81E0006A8FEF754FC00208DF8C3
:1021C000210002208DF8220001208DF8200008A8AF
:1021D000FEF71CFD0120FEF7B9FC012005902A2026
:1021E000049002200190029003900020FEF7B0FBC3
:1021F00001A8FEF765FBFFF71FFA0520FFF7D4F9EA
:10220000FFF780F90120FEF713FB00BF0220FEF765
:10221000D3FA0128FAD10520FEF7BAFB09B000BDB8
:1022200029484088401C284948800846007820F00A
:102230000100401C08704888C11700EB917189109B
:10224000A0EB810100293ED11F48007820F0020058
:10225000801C1D49087008468088401C88800846FC
:1022600080880A2190FBF1F201FB120030B9164878
:10227000007820F00400001D13490870124880887F
:10228000642190FBF1F201FB120030B90E48007896
:1022900020F0080008300C4908700B4880884FF483
:1022A0007A7190FBF1F201FB120060B9002006493F
:1022B000888008468068401C88600846007820F0C6
:1022C0001000103008707047A485FF1F70B50024FF
:1022D0001320012100220023294D2D7805F0070449
:1022E000062C4AD2DFE804F003070B101419254D21
:1022F000254E356041E0254D234E35603DE04FF4DD
:102300000045214E356038E0204D1F4E356034E0E9
:102310004FF400451C4E35602FE0194DDA352D681D
:10232000C5F3C013164D263DD5F80051C5F308205E
:10233000134DDA352D68290F114D263DD5F8005182
:1023400005F01F025BB9551C104EB6FBF5F5461C97
:1023500075434E1CB5FBF6F50B4E35600CE0012BBA
:102360000AD1551C074EB6FBF5F5461C75434E1CAD
:10237000B5FBF6F5044E356000BF00BF70BD000030
:10238000264005400024F4000080FF1F00127A0060
:1023900000B50448006840F4700002490860FFF787
:1023A00095FF00BD88ED00E02DE9F84304460E4698
:1023B00015464FF000080027002D7DD0FE488442CE
:1023C00001D106B900BF2069009960F300010091B6
:1023D00020694108009861F341000090206981085C
:1023E000009861F382000090207C8DF80000206945
:1023F0000109009861F3071000902069010A009814
:1024000061F3082000902069410A009861F3492097
:1024100000902069810A009861F38A200090607C16
:102420008DF801002069010B009861F30C300090D9
:102430002069410B009861F34D3000902069810BB9
:10244000009861F38E3000902069C10B009861F311
:10245000CF3000902069010C009861F3104000908B
:102460002069410C009861F3514000902069810C73
:10247000009861F392400090A07C8DF802002069E2
:10248000010D009861F3175000902069010E00982B
:1024900061F3186000902069410E009861F3596063
:1024A00000902069810E009861F39A600090E07CB2
:1024B0008DF80300206900E06BE2010F009861F3E2
:1024C0001C7000902069410F009861F35D700090CE
:1024D0002069810F009861F39E7000902069C10F00
:1024E000009861F3DF70009026B900986FF30F0039
:1024F000009002E0009880B200900098216960F39B
:102500000001216100984108206961F341002061C8
:1025100000988108206961F3820020619DF8000025
:10252000207400980109206961F307102061009868
:10253000010A206961F3082020610098410A20699E
:1025400061F3492020610098810A206961F38A20A3
:1025500020619DF8011061740098010B206961F3FE
:102560000C3020610098410B206961F34D302061EF
:102570000098810B206961F38E3020610098C10BB7
:10258000206961F3CF3020610098010C206961F36C
:10259000104020610098410C206961F35140206196
:1025A0000098810C206961F3924020619DF802102F
:1025B000A1740098010D206961F317502061009803
:1025C000010E206961F3186020610098410E2069B6
:1025D00061F3596020610098810E206961F39A606F
:1025E00020619DF80310E1740098010F206961F3E8
:1025F0001C7020610098410F206961F35D702061BB
:102600000098810F206961F39E7020610098C10FCE
:10261000206961F3DF702061012231462046FEF718
:1026200043F807E038467F1CB0F5A04F02D94FF0C1
:10263000090803E0009821698842F3D100BF16B170
:10264000012E7DD1D4E0E87810B101280CD105E04D
:102650006978009861F34920009006E0A978009815
:1026600061F38A20009000E000BF00BF2978009845
:1026700061F3071000900098216960F30001216167
:1026800000984108206961F34100206100988108A9
:10269000206961F3820020619DF800002074009899
:1026A0000109206961F3071020610098010A20697F
:1026B00061F3082020610098410A206961F34920F4
:1026C00020610098810A206961F38A2020619DF8C9
:1026D000011061740098010B206961F30C302061D6
:1026E0000098410B206961F34D3020610098810B07
:1026F000206961F38E3020610098C10B206961F37D
:10270000CF3020610098010C206961F310402061F6
:102710000098410C206961F3514020610098810CC0
:10272000206961F3924020619DF80210A174009825
:10273000010D206961F3175020610098010E00E03F
:1027400025E1206961F3186020610098410E20693D
:1027500061F3596020610098810E206961F39A60ED
:1027600020619DF80310E1740098010F206961F366
:102770001C7020610098410F206961F35D70206139
:102780000098810F206961F39E7020610098C10F4D
:10279000206961F3DF702061012231462046FDF798
:1027A00083FFA888A060012231462046FDF77CFF08
:1027B000E978206902E000000040024061F308204F
:1027C0002061012231462046FDF76EFF002707E019
:1027D00038467F1CB0F5A04F02D94FF0090805E03C
:1027E000E8782169C1F300218842F1D100BFCFE030
:1027F000E87810B101280CD105E06978009861F300
:102800005960009006E0A978009861F39A60009002
:1028100000E000BF00BF2978009861F317500090D6
:102820000098216960F30001216100984108206946
:1028300061F34100206100988108206961F3820002
:1028400020619DF80000207400980109206961F35F
:10285000071020610098010A206961F308202061B7
:102860000098410A206961F3492020610098810A9B
:10287000206961F38A2020619DF80110617400983D
:10288000010B206961F30C3020610098410B206935
:1028900061F34D3020610098810B206961F38E3027
:1028A00020610098C10B206961F3CF30206100984E
:1028B000010C206961F3104020610098410C2069EF
:1028C00061F3514020610098810C206961F39240CE
:1028D00020619DF80210A1740098010D206961F338
:1028E000175020610098010E206961F31860206183
:1028F0000098410E206961F3596020610098810EB3
:10290000206961F39A6020619DF80310E1740098DA
:10291000010F206961F31C7020610098410F20694C
:1029200061F35D7020610098810F206961F39E70F2
:1029300020610098C10F206961F3DF7020610122DE
:1029400031462046FDF7B0FEA888E06001223146FE
:102950002046FDF7A9FEE978206961F3186020613F
:10296000012231462046FDF79FFE002707E038464A
:102970007F1CB0F5A04F02D94FF0090805E0E878B8
:102980002169C1F300618842F1D100BF00E000BFBE
:1029900001E04FF004084046BDE8F8832DE9F0411E
:1029A00004460D4600270026B5B9606920F00100F5
:1029B0006061012229462046FDF776FE06E030469A
:1029C000761CB0F5A04F01D9092704E0606900F03A
:1029D00001000028F3D116E0606920F480306061C6
:1029E000012229462046FDF75FFE06E03046761CB0
:1029F000B0F5A04F01D9092704E06069C0F3004099
:102A00000028F3D100BF3846BDE8F0812DE9F04140
:102A100004460E4615464FF00008002716B1012E59
:102A200032D118E0206965F30000206101223146AF
:102A30002046FDF739FE07E038467F1CB0F5A04F71
:102A400002D94FF0090804E0206900F00100A84213
:102A5000F2D100BF19E0206965F310402061012226
:102A600031462046FDF720FE07E038467F1CB0F5D2
:102A7000A04F02D94FF0090804E02069C0F30040DC
:102A8000A842F2D100BF00E000BF00BF4046BDE851
:102A9000F0810246002011B1012908D103E0136939
:102AA000C3F3002004E01369C3F3006000E000BF3B
:102AB00000BF7047F8B504460E4615460027002DA6
:102AC0007ED02069009960F30001009120694108DF
:102AD000009861F34100009020698108009861F33B
:102AE00082000090207C8DF8000020690109009888
:102AF00061F3071000902069010A009861F3082033
:102B000000902069410A009861F3492000902069F3
:102B1000810A009861F38A200090607C8DF80100A2
:102B20002069010B009861F30C3000902069410B83
:102B3000009861F34D3000902069810B009861F39B
:102B40008E3000902069C10B009861F3CF30009067
:102B50002069010C009861F3104000902069410C3D
:102B6000009861F3514000902069810C009861F356
:102B700092400090A07C8DF802002069010D009821
:102B800061F3175000902069010E009861F31860FE
:102B900000902069410E009861F35960009020690F
:102BA000810E009861F39A600090E07C8DF803003C
:102BB0002069010F009861F31C700090206900E00B
:102BC00077E1410F009861F35D7000902069810FFB
:102BD000009861F39E7000902069C10F009861F326
:102BE000DF70009016B1012E7ED1AAE029780098FE
:102BF00061F3410000902979009861F3CF30009093
:102C00006979009861F38E300090E979009861F35A
:102C10000C300090A979009861F34D300090009835
:102C2000216960F30001216100984108206961F386
:102C30004100206100988108206961F382002061D1
:102C40009DF80000207400980109206961F30710C5
:102C500020610098010A206961F308202061009832
:102C6000410A206961F3492020610098810A2069A6
:102C700061F38A2020619DF8011061740098010BB6
:102C8000206961F30C3020610098410B206961F3E9
:102C90004D3020610098810B206961F38E302061F6
:102CA0000098C10B206961F3CF3020610098010CBE
:102CB000206961F3104020610098410C206961F3A4
:102CC000514020610098810C206961F3924020619D
:102CD0009DF80210A1740098010D206961F317504E
:102CE00020610098010E00E0D4E0206961F31860D3
:102CF00020610098410E206961F3596020610098BD
:102D0000810E206961F39A6020619DF80310E174DF
:102D10000098010F206961F31C7020610098410F39
:102D2000206961F35D7020610098810F206961F373
:102D30009E7020610098C10F206961F3DF702061EF
:102D4000A9E02978009861F3514000902979009812
:102D500061F3DF7000906979009861F39E700090D4
:102D6000E979009861F31C700090A979009861F3EB
:102D70005D7000900098216960F300012161009866
:102D80004108206961F341002061009881082069B1
:102D900061F3820020619DF8000020740098010911
:102DA000206961F3071020610098010A206961F32E
:102DB000082020610098410A206961F349202061C0
:102DC0000098810A206961F38A2020619DF8011032
:102DD00061740098010B206961F30C302061009848
:102DE000410B206961F34D3020610098810B20690F
:102DF00061F38E3020610098C10B206961F3CF3000
:102E000020610098010C206961F310402061009856
:102E1000410C206961F3514020610098810C2069C8
:102E200061F3924020619DF80210A1740098010D99
:102E3000206961F3175020610098010E206961F349
:102E4000186020610098410E206961F3596020618B
:102E50000098810E206961F39A6020619DF803104B
:102E6000E1740098010F206961F31C7020610098E3
:102E7000410F206961F35D7020610098810F206926
:102E800061F39E7020610098C10F206961F3DF70CB
:102E9000206100E000BF00BF012231462046FDF75F
:102EA00003FC69880448006861F30800024908606F
:102EB00000E004273846F8BD400801402DE9F04104
:102EC00004460E4615464FF0000800279EB92560BF
:102ED000002231462046FDF7E7FB07E038467F1C1D
:102EE000B0F5A04F02D94FF0090803E0206880B286
:102EF000A842F3D113E06560002231462046FDF779
:102F0000D3FB07E038467F1CB0F5A04F02D94FF045
:102F1000090803E0606880B2A842F3D100BF4046D0
:102F2000BDE8F08102460420114B9A4205D0114BB6
:102F30009A4202D0104B9A4218D10020B1F5807FFE
:102F400003D0B1F5005F0ED106E0B2F8483023F4AB
:102F50008043A2F8483008E0B2F8483023F4007308
:102F6000A2F8483001E0042000BF00BF7047000015
:102F70000070014000480240004C0240024600231D
:102F8000B1F5807F03D0B1F5005F0AD104E0B2F85B
:102F90004800C0F3803305E0B2F84800C0F3402396
:102FA00000E000BF00BFD8B2704700000246042016
:102FB0001B4B9A4208D01B4B9A4205D01A4B9A429F
:102FC00002D01A4B9A4229D10020012907D00229A8
:102FD0000CD0082911D0B1F5807F1CD114E0D36842
:102FE00023F4803303F58033D36016E0D36823F4F1
:102FF000003303F50033D3600FE0D36823F40023DC
:1030000003F50023D36008E0D36823F4801303F5AD
:103010008013D36001E0042000BF00BF70470000B0
:1030200000D0014000D401400010024000140240D2
:10303000014604200D4A914208D00D4A914205D024
:103040000C4A914202D00C4A91420DD16FF00C0211
:10305000CA60D207CA6000220A614A614FF6FF7255
:103060008A6000228A6100207047000000D0014081
:1030700000D40140001002400014024078B503461D
:1030800004208B4DAB4208D08A4DAB4205D08A4D0F
:10309000AB4202D0894DAB427DD100200F297BD2BB
:1030A000DFE801F0080D12171C2126353A2B30EA13
:1030B000F2F7FC00DD6862F38205DD60F5E0DD68B3
:1030C00062F34515DD60F0E0DD6862F3C305DD60A5
:1030D000EBE0DD6862F3C715DD60E6E0DD6862F312
:1030E0000005DD60E1E0DD6862F34105DD60DCE004
:1030F000DD6862F30415DD60D7E0DD6862F38A25E0
:10310000DD60D2E0DD6862F39E75DD60CDE0DD68F4
:1031100062F38615DD60C8E0DD68009E65F3000699
:103120000096DD686E08009D66F341050095DD6838
:10313000AE08009D66F382050095DD68EE08009DEF
:1031400066F3C3050095DD682E09009D66F304153E
:103150000095DD686E09009D66F345150095DD68F4
:10316000AE09009D66F386150095DD68EE09009DA9
:1031700066F3C71500959D892E0A009D66F3082504
:103180000095DD686E0A009D66F349250095DD68AF
:10319000AE0A009D01E089E085E066F38A2500958E
:1031A0009D89EE0A009D66F3CB250095DD682E0B08
:1031B000009D66F30C3500959D896E0B009D66F3AE
:1031C0004E350095DD68EE0B009D66F3CF3500951A
:1031D000DD682E0C009D66F310450095DD686E0CD1
:1031E000009D66F351450095DD68AE0C009D66F3C9
:1031F00092450095DD68EE0C009D66F3D345009581
:10320000DD682E0D009D66F314550095DD686E0D8A
:10321000009D66F357550095DD682E0E009D66F300
:1032200018650095DD686E0E009D66F35B65009580
:10323000DD682E0F009D66F31C750095DD686E0F2E
:10324000009D66F35D750095DD68AE0F009D66F329
:103250009E750095DD68EE0F009D66F3DF750095A5
:10326000009D62F3C3050095009D62F3C7150095AC
:103270006C462568DD6018E0DD6862F35D75DD6031
:1032800013E00BE005E0FFE71D6962F300051D6137
:103290000BE05D6962F345155D6106E05D6962F30F
:1032A00049255D6101E0042000BF00BF78BD00003A
:1032B00000D0014000D40140001002400014024040
:1032C00002461068084008B1012070470020FCE762
:1032D00001464868C0F3084070470246506861F3F1
:1032E000080050600020704770B504460D46042663
:1032F0001348844208D01348844205D012488442BF
:1033000002D01248844218D16069C0F3401028B13D
:1033100029462046FEF790FD06460EE0E068C0F321
:10332000006028B129462046FEF7ECFC064604E082
:1033300029462046FEF738FE0646304670BD00009E
:1033400000D0014000D401400010024000140240AF
:103350001FB50246002303930293019300930420B8
:10336000A34B9A4208D0A34B9A4205D0A24B9A4253
:1033700002D0A24B9A427DD100297BD06FF00C0382
:10338000D360DB07D3600023136153614FF6FF73F3
:10339000936000239361009B23F020030093029B22
:1033A00023F0807302934C78039B64F3010303932F
:1033B0008C78029B64F30C330293CC78029B64F309
:1033C0001C7302930C79019B64F34D3301930C78C9
:1033D000019B64F3CC2301934B7923B1012B07D0DC
:1033E000022B1DD10FE0029B23F48063029318E0AF
:1033F000029B23F400730293029B23F4806303F582
:10340000806302930DE0029B23F4007303F50073C5
:103410000293029B23F4806303F58063029300E030
:1034200000BF00BF0C7A009B64F349230093CC7962
:10343000029B64F3DF7302938C79029B64F3CF33B6
:103440000293039B946963F301049461039B93616A
:10345000029BD46863F30004D460029B5C08D368C9
:1034600064F34103D360029B9C08D36864F3820336
:10347000D36000E0BAE0029BDC08D36864F3C303C6
:10348000D360029B1C09D36864F30413D360029BCE
:103490005C09D36864F34513D360029B9C09D3682D
:1034A00064F38613D360029BDC09D36864F3C7130B
:1034B000D3609DF809405473029B5C0AD36864F39F
:1034C0004923D360029B9C0AD36864F38A23D360A8
:1034D0009DF809405473029B1C0BD36864F30C33B2
:1034E000D3609DF809405473029BDC0BD36864F3EE
:1034F000CF33D360029B1C0CD36864F31043D360BA
:10350000029B5C0CD36864F35143D3609DF80A407E
:103510009473029BDC0CD36864F3D343D360029BA7
:103520001C0DD36864F31453D3609DF80A40947360
:10353000029B1C0ED36864F31863D3609DF80B40A4
:10354000D473029B1C0FD36864F31C73D360029B7B
:103550005C0FD36864F35D73D360029B9C0FD368E8
:1035600064F39E73D360029BDC0FD36864F3DF7354
:10357000D360019B146963F300041461BDF8043047
:103580001382019BDC0A136964F3CC231361019B52
:103590005C0B136964F34D331361BDF80540A2F869
:1035A00011409DF80740D4749DF800301375009BBE
:1035B0005C09536964F345135361BDF8003093828D
:1035C000009B5C0A536964F34923536102F11403BD
:1035D000BDF80140A2F81540009B5C0D536964F3EF
:1035E000575353619DF80340D475002004B010BDBB
:1035F00000D0014000D401400010024000140240FD
:103600000FB410B50B9C242202A92046FCF7C2FE81
:1036100010BC5DF814FB30B589B005462C46206817
:1036200000F07CF8204600F064FA2068FFF700FD07
:1036300001208DF8180003208DF8190000208DF866
:103640001A008DF81B008DF81C008DF81D0001205C
:103650008DF81E008DF81F0000208DF8200000BF9F
:1036600006A92068FFF774FE0028F9D100BFD4E94D
:103670000001FFF739FE0028F9D1607C022803D150
:10368000284600F0F5F905E0607C032802D12846C1
:1036900000F000F9A07C02280DD1142204F11001E1
:1036A0006846FCF777FE94E80F0000F057FB2846C9
:1036B00000F08EF90FE0A07C03280CD1142204F155
:1036C00010016846FCF766FE94E80F0000F046FB28
:1036D000284600F04DF801212068FFF767FC022121
:1036E0002068FFF763FC08212068FFF75FFC4FF4B8
:1036F00080712068FFF75AFCA07C20B101220021D4
:103700002068FFF7BBFC607C012802D1A07C012867
:1037100002D0284600F036F909B030BD10B5044695
:103720000F48844204D101210806FEF761FA16E031
:103730000C48844204D101214806FEF759FA0EE0F4
:103740000948844204D101218806FEF751FA06E0B7
:103750000648844203D10121C806FEF749FA10BD8C
:1037600000D0014000D4014000100240001402408B
:103770002DE9F0438DB005462F4607F11C042020AB
:1037800010F8079042492068884204D1012188033B
:10379000FEF712FA03E00121C803FEF70DFA01213A
:1037A0002068FDF77BFC00BF30216846FCF7F4FE83
:1037B00000BF0120ADF800008002ADF802003868BB
:1037C000801D019005F22C40029000208DF824000D
:1037D00001218DF825108DF82D1000218DF82A106B
:1037E00021796A462068FDF793FC2179012220683F
:1037F000FDF75AFB217903222068FDF71BFC217994
:1038000002222068FDF716FC01214804FEF7D4F9D6
:10381000E28821792068FDF797FD2179032220684D
:10382000FDF741FC0CA92868FDF71CFF012802D018
:103830000DB0BDE8F0839DF8300000EB800000F58E
:103840008D789DF8300000EB4000082101EB400628
:1038500031464046FEF79AF80821304600F0D6FC83
:10386000304600F0B7FC304600F0C2FC01221146A1
:103870002868FFF703FC012204212868FFF7FEFBFC
:10388000012205212868FFF7F9FB00BFD0E70000FF
:1038900000300540F0B58DB0054605F1140400BFB9
:1038A00030216846FCF778FE00BF0CA92868FDF7B8
:1038B000D9FE012801D00DB0F0BD31492068884201
:1038C00004D101218803FEF777F903E00121C80341
:1038D000FEF772F901212068FDF7E0FB00BF3021FF
:1038E0006846FCF759FE00BF0120ADF80000C00299
:1038F000ADF8020005F12C0001902868001D02902F
:1039000001208DF8240000218DF8251001218DF86B
:103910002D1000218DF82A1021796A462068FDF7C4
:10392000F7FB217901222068FDF7BEFA21790222F6
:103930002068FDF77FFB01214804FEF73DF9E2888E
:1039400021792068FDF700FD9DF8300000F1200787
:103950009DF8300000EB40000B2101EB40063146A2
:103960003846FEF713F80B21304600F04FFC304686
:1039700000F030FC304600F03BFC00BF9BE700004D
:1039800000300540F8B5054669462868FDF76AFE2F
:10399000012800D0F8BD9DF8000000EB800000F584
:1039A0008B769DF8000000EB4000062101EB4004FF
:1039B00021463046FDF7EAFF0621204600F026FCAE
:1039C000204600F007FC204600F012FC00BFE1E7B3
:1039D000F8B5044669462068FDF744FE012800D08A
:1039E000F8BD9DF8000000EB800000F217169DF86E
:1039F000000000EB4000072101EB4005294630465E
:103A0000FDF7C4FF0721284600F000FC284600F01F
:103A1000E1FB284600F0ECFB9DF8000000EB800085
:103A200000F58D769DF8000000EB4000082101EBC9
:103A3000400529463046FDF7A9FF0821284600F039
:103A4000E5FB284600F0C6FB284600F0D1FB01222A
:103A500011462068FFF712FB012204212068FFF7BE
:103A60000DFB012205212068FFF708FB00BFB7E727
:103A7000F8B5044669462068FDF7F4FD012800D03A
:103A8000F8BD9DF8000000EB800000F58C769DF8F5
:103A9000000000EB4000092101EB400529463046BB
:103AA000FDF774FF0921284600F0B0FB284600F01E
:103AB00091FB284600F09CFB9DF8000000EB800085
:103AC00000F219169DF8000000EB40000A2101EBFE
:103AD000400529463046FDF759FF0A21284600F0E7
:103AE00095FB284600F076FB284600F081FB00BFDE
:103AF000C6E710B50446227CE189607B0023FEF70F
:103B000027F8227B6189207A0023FEF721F810BD77
:103B100070B5044604F1140594F8400820F0020042
:103B200084F84008297903222868FDF783FA297967
:103B300002222868FDF77EFA70BD70B505462C4656
:103B400020680221FFF7BCFB012803D12068022175
:103B5000FFF72CFA20680121FFF7B2FB012803D1FF
:103B600020680121FFF722FA20680821FFF7A8FB4F
:103B7000012803D120680821FFF718FA70BD70B53D
:103B8000044625462868FFF7A3FBC6B2B5F82C18F3
:103B900005F22C404654B5F82C08401CA5F82C081A
:103BA000B5F82C08B0F5007F06DB95F8400820F04A
:103BB0000100401C85F8400870BD00002DE9F0416F
:103BC000064634462546202010F80580E86900F1B5
:103BD000680720684FF48071FFF7E8F920683049E2
:103BE000884205D1002211462E48FEF70FFF1CE047
:103BF00020682D49884205D1002201212948FEF77D
:103C000005FF12E020682949884205D100221146AB
:103C10002748FEF7FBFE08E020682649884204D1C9
:103C2000002201212248FEF7F1FEA07C03282AD1C0
:103C30002022515DE8690022FDF736F92020405D21
:103C4000402111FB007738680901A1EB1040A4F86E
:103C50002C082022515DE86904F22C42FDF706FB96
:103C60002022515DE8695201FDF73CFB2022515DA5
:103C7000E8690122FDF718F994F8400820F00100E6
:103C8000401C84F84008A07C022806D194F8400823
:103C900020F00100401C84F84008BDE8F0810000DD
:103CA00000D001400040024000D40140001002401A
:103CB000004402400014024070B505462C462068BE
:103CC0004021FFF7FDFA012812D194F8400820F0B6
:103CD000020084F840080020A4F82E082068002282
:103CE0000721FFF7CBF9206800220221FFF7C6F970
:103CF00070BD70B505462C4620688021FFF7E0FABC
:103D000001282AD1B4F83208B4F82E18884210DB02
:103D1000206800220321FFF7B1F994F8400820F051
:103D2000020084F84008206801220721FFF7A6F965
:103D300013E094F8400820F00200801C84F840084A
:103D4000B4F8323804F12C02D15C2068FFF7C5FAD0
:103D5000B4F83208401CA4F8320870BD0FB430B576
:103D60008DB0002500BF202105A8FCF715FC00BF81
:103D700000BF00200390049000BF00BF019002909C
:103D800000BF2D491098084448B1B0F5806F0DD0A0
:103D9000B0F5804F11D0B0F5884F1CD114E001214F
:103DA0000846FDF735FF254D002418E0012108469F
:103DB000FDF72EFF214D012411E001210220FDF726
:103DC00027FF1F4D00240AE001210220FDF720FFFC
:103DD0001B4D012403E00DB030BC5DF814FB00BFA7
:103DE000002221462846FFF769F801208DF80F00D0
:103DF00000208DF80E008DF80C002420ADF8100086
:103E000003AA21462846FEF7CFFA21462846FEF7A8
:103E1000C5FD00208DF8080001208DF809008DF8FF
:103E20000B0000208DF80A0001AA21462846FEF763
:103E300041FE00BFCFE700000030FEBF004002405F
:103E40000044024070B504460D461646607C0128C9
:103E500005D132462946204600F0CAF81AE0607CB7
:103E6000022805D132462946204600F090F811E09C
:103E7000607C032805D132462946204600F00CF824
:103E800008E00020A4F82E0894F8400820F0020072
:103E900084F84008002070BD2DE9F04104460F462B
:103EA000164604F1140516B90020BDE8F08194F817
:103EB0004008C0F3400040B3B4F83018C1F5806149
:103EC000B14201D9314603E0B4F83018C1F5806140
:103ED0000A46B4F8303804F12C0158183946FCF77A
:103EE00016FBB4F83018C1F58060B04201D93046F5
:103EF00003E0B4F83008C0F580600844A4F82E0848
:103F0000B4F82E08A4F830081FE094F8400820F018
:103F10000200801C84F84008B6F5806F01D230465C
:103F200001E04FF480600246394604F12C00FCF7B2
:103F3000EEFAB6F5806F01D2304601E04FF48060B2
:103F400080B2A4F83008A4F82E08002202212068CC
:103F5000FFF794F8B4F82E2829792868FDF7C2F9FC
:103F6000297904F12C022868FDF79EF929790122AC
:103F70002868FCF799FF297902222868FDF75AF88A
:103F8000012208212068FFF779F800208DE770B53D
:103F900004460E4615460DB9002070BD94F8400841
:103FA000C0F3400058B92A46314604F12C00FCF712
:103FB000AEFAA4F82E580020A4F8320811E094F8C4
:103FC0004008C0F3400060B1ABB2B4F82E283146CF
:103FD00004F12C0000F04AFAB4F82E082844A4F8A2
:103FE0002E08012208212068FFF748F80020D4E7B6
:103FF00010B503460020A3F8320814E0B3F83208E5
:104000000C5C1868406864F308001C68606000BFBE
:1040100018680068C0F380100028F9D0B3F832089F
:10402000401CA3F83208B3F832089042E6D30020CF
:1040300010BD000010B590B0242107A8FCF7ACFA21
:104040000E4C24220E4907A8FCF7A4F94FF4E130E6
:10405000089003208DF82D008DF82E0014220BA956
:1040600068460594FCF796F907A80FC8FFF7C8FA49
:104070002046FFF7D0FA10B010BD0000E085FF1F0A
:10408000F044000070B506460D46174C94F8400801
:1040900000F0010028B3B4F82C0808B9002070BD66
:1040A0002888B4F82C1888420ADBB4F82C2804F2CB
:1040B0002C413046FCF72BFAB4F82C08288005E098
:1040C0002A8804F22C413046FCF721FA0020A4F89B
:1040D0002C0894F8400820F0010084F840080120E2
:1040E000DDE70020DBE70000E085FF1F70B5044638
:1040F0000D462A4621460248FFF7A4FE70BD000087
:10410000E085FF1F1FB51C46009820600198606085
:104110000298A060206808B1206880471FBD000099
:1041200010B5174C4FF4AC712046FCF735FA2068F7
:1041300020F001002060206820F008002060206846
:1041400020F010002060206820F00200206020682D
:1041500020F0040020600B48006800F50040094989
:104160008989042202FB0100A0600648808900F5CD
:104170008071002000F066F9C4F8540110BD000001
:104180004C84FF1F801E002010B501460022002035
:10419000084B1B6AC3F302140123A340064C246896
:1041A000B4FBF3F28B699B075C0F0123A340B2FBC6
:1041B000F3F010BD004005400080FF1F002040F2DA
:1041C0002311034A916043F210219160704700006F
:1041D00000900440002807DB00F01F0201219140FD
:1041E000024A430942F823107047000080E200E0D1
:1041F000002809DB00F01F020121914042099200D2
:1042000002F1E022C2F800117047000010B500284A
:1042100004DB0A07130E054A135406E00A07140EBE
:10422000034A00F00F031B1FD45410BD00E400E04C
:1042300018ED00E0FCF77CFDFCF794FA4FF47A707F
:10424000FDF7ACF8FDF758FDFDF729FDFDF7F0FC93
:104250004FF47A70FDF7A2F8FCF70AFD012805D1AA
:10426000FDF7F4F9FDF7BAFB00BFFEE7FDF7B6FB7B
:1042700000BFFEE72DE9F04104460E461548005DFB
:1042800038B9144810380168204688470120BDE835
:10429000F081114850F82400B04219D90F4850F865
:1042A0002400B6FBF0F10B48001F50F8240030F852
:1042B0001120002508E000230648001F50F82400C4
:1042C0004F1920F817306D1C9542F4DB0020DEE713
:1042D0000220DCE71880FF1F504500004C4500001D
:1042E00010B504460C4951F824104A000B4951F806
:1042F0002400002100F08AF8094951F824200749D8
:10430000091F51F82400002100F080F80121034822
:10431000001D015510BD0000484500001480FF1F1E
:10432000504500002DE9F04704460F460025A946F8
:104330002348005D20B9224810380168204688478C
:104340001FB94FF0FF30BDE8F0871E4850F8240039
:10435000B7FBF0F61B4850F82400B7FBF0F100FB68
:10436000117000B1761C184850F82400451E22E058
:104370001348001F50F8240030F8150010B909F157
:10438000010901E04FF00009B14513D14FF00008D9
:1043900009E00B48001F50F8240005EB080220F844
:1043A000126008F10108B045F3D3064850F8240024
:1043B0006843C8E76D1E002DDADA4FF0FF30C2E720
:1043C0001880FF1F4C4500004845000010B501460D
:1043D0000023002207E00B4850F8210030F81200BB
:1043E00000B15B1C521C084850F821009042F2D8E2
:1043F00064205843044C54F82140B0FBF4F0C0B2A0
:1044000010BD00001480FF1F4845000030B5034672
:1044100001E003F8011B141EA2F10102F9D130BD25
:1044200070B505460C4604B970BD054850F8250026
:10443000261A31462846FFF71DFF00BFF4E70000AB
:104440001080FF1F70B504460E4631462046FFF728
:1044500069FF0546681C08B9002070BD024850F885
:1044600024002844F9E700001080FF1F70B50446BF
:10447000002004E00D5C1618A555451CA8B2984212
:10448000F8DB70BD4FF04070E1EE100A704700009D
:1044900000D0014000C201000000100021002000F7
:1044A00020030300003005400000180100340540DF
:1044B0000000170100D4014000C201000100040007
:1044C00025010200240303000030054001001D0106
:1044D0000034054001001C0135400000854000000B
:1044E000ED400000ED1300003114000099140000AD
:1044F00000D0014000C20100000010002100200097
:10450000200303000030054000001801003405407E
:104510000000170100D4014000C2010001000400A6
:1045200025010200240303000030054001001D01A5
:104530000034054001001C01200040005D008000A7
:10454000BA00000174010002000400002000000015
:1045500000800000744500000080FF1F1C00000068
:10456000BC020000904500001C80FF1FD4A6000084
:10457000D802000000127A0000000000E1420000B2
:10458000CD4300008096FF1F801600200000000031
:0400000500000321D3
:00000001FF
