:020000040801F1
:1000000058F300201D0201082502010827020108FB
:10001000290201082B0201082D020108000000003E
:100020000000000000000000000000002F02010896
:100030003102010800000000330201083502010806
:1000400037020108370201083702010837020108A8
:10005000370201083702010885120108370201083A
:100060003702010837020108370201083702010888
:10007000890E010837020108990E010837020108AC
:1000800037020108A90E01083702010837020108EA
:100090003702010837020108370201083702010858
:1000A0003702010837020108370201083702010848
:1000B000C94F01087D500108855101083702010828
:1000C0003702010837020108370201083702010828
:1000D00037020108515301086153010871530108A7
:1000E0003702010837020108370201083702010808
:1000F00037020108370201083702010837020108F8
:100100003702010837020108A5510108370201082A
:100110003153010841530108C5510108F15101084B
:10012000370201083702010837020108B90E010839
:1001300037020108370201083702010837020108B7
:1001400000000000000000000000000000000000AF
:100150003702010837020108370201083702010897
:100160003702010837020108370201083702010887
:1001700037020108370201083702010800F002F8CF
:1001800000F03CF80AA090E8000C82448344AAF1F5
:100190000107DA4501D100F031F8AFF2090EBAE8F3
:1001A0000F0013F0010F18BFFB1A43F001031847AB
:1001B000C8750000E8750000103A24BF78C878C1FF
:1001C000FAD8520724BF30C830C144BF04680C605D
:1001D000704700000023002400250026103A28BFA5
:1001E00078C1FBD8520728BF30C148BF0B607047A9
:1001F0001FB507F023F81FBD10B510BD00F098F92A
:100200001146FFF7F5FF06F06BFD00F0B6F903B4F9
:10021000FFF7F2FF03BC00F0B9F90000094880477E
:1002200009480047FEE7FEE7FEE7FEE7FEE7FEE7D8
:10023000FEE7FEE7FEE7FEE704480549054A064BF0
:1002400070470000154C01087D01010858ED0020A1
:1002500058F3002058EF002058EF002053EA020C1A
:1002600000F069802DE9F04B4FF00006002B1FBF16
:10027000B3FA83F503FA05F424FA05F65E4012BFDB
:100280001643B2FA82F502FA05F4C5F120051EBF45
:1002900022FA05FC44EA0C04203556EA044C4FEAE5
:1002A000144418BF641C4FF000084FF0000990423E
:1002B00071EB030C39D3002919BFB1FA81F701FAA8
:1002C00007F6B0FA80F700FA07F6C7F120071EBF5D
:1002D00020FA07FC46EA0C062037B6FBF4FCA7EB35
:1002E0000507103F07F01F0BCBF120060CFA0BFBA4
:1002F0002CFA06F644BFB3460026202FA4BF5E4664
:100300004FF0000B5BEA060C08BF4FF0010B19EB36
:100310000B09ABFB027C48EB0608C01B06FB02CCBA
:100320000BFB03CC71EB0C01C1E70B4602464146C7
:100330004846BDE8F08B13B54FF000004FF00001C8
:10034000AFF30080BDE81C40704740EA010310B5E0
:100350009B070FD1042A0DD310C808C9121F9C4255
:10036000F8D020BA19BA884201D9012010BD4FF047
:10037000FF3010BD1AB1D30703D0521C07E0002094
:1003800010BD10F8013B11F8014B1B1B07D110F8F1
:10039000013B11F8014B1B1B01D1921EF1D11846F4
:1003A00010BD032A40F2308010F0030C00F01580DD
:1003B00011F8013BBCF1020F624498BF11F801CB68
:1003C00000F8013B38BF11F8013BA2F1040298BFCD
:1003D00000F801CB38BF00F8013B11F0030300F037
:1003E0002580083AC0F0088051F8043B083A51F8DB
:1003F00004CBA0E80810F5E7121D5CBF51F8043BE0
:1004000040F8043BAFF30080D20724BF11F8013B52
:1004100011F801CB48BF11F8012B24BF00F8013BB4
:1004200000F801CB48BF00F8012B704710B5203A07
:10043000C0F00B80B1E81850203AA0E81850B1E89D
:100440001850A0E81850BFF4F5AF5FEA027C24BF53
:10045000B1E81850A0E8185044BF18C918C0BDE84A
:1004600010405FEA827C24BF51F8043B40F8043B13
:1004700008BF7047D20728BF31F8023B48BF11F8C8
:10048000012B28BF20F8023B48BF00F8012B704722
:100490004FF000020429C0F0128010F0030C00F0AD
:1004A0001B80CCF1040CBCF1020F18BF00F8012B2B
:1004B000A8BF20F8022BA1EB0C0100F00DB85FEAF9
:1004C000C17C24BF00F8012B00F8012B48BF00F8C5
:1004D000012B70474FF0000200B513469446964634
:1004E000203922BFA0E80C50A0E80C50B1F1200147
:1004F000BFF4F7AF090728BFA0E80C5048BF0CC0F5
:100500005DF804EB890028BF40F8042B08BF704752
:1005100048BF20F8022B11F0804F18BF00F8012BC4
:10052000704770477047704700487047F8EC0020EC
:100530007546FFF7F9FFAE4605006946534620F0C1
:100540000700854618B020B5FFF776FEBDE82040CD
:100550004FF000064FF000074FF000084FF0000B7F
:1005600021F00701AC46ACE8C009ACE8C009ACE832
:10057000C009ACE8C0098D46704710B50446AFF31A
:1005800000802046BDE81040FFF741BE0149182019
:10059000ABBEFEE7260002007047000000B58BB03E
:1005A0000121084603F0D8FC114800F0E1FC114895
:1005B000009011480190002002902D20039000200F
:1005C0000490802005904000069080000790202035
:1005D00008900002099000200A906946044800F043
:1005E000A8FC0121024800F06FFC0BB000BD000028
:1005F000080002404C24014010E8002000B587B0FC
:1006000001214FF4017003F0D7FC2F4803F096FC52
:100610000120ADF8040000208DF8070001A92B4847
:1006200001F0C6FA0220ADF8040000208DF80700A2
:1006300001A9264801F0BCFA254800F001F9002084
:10064000029001208DF80C008DF80D004FF4602011
:1006500004900020059003208DF8180002A91C4882
:1006600000F06AF8072301221121194800F08CF8E4
:10067000072302220021164800F086F807230322F0
:100680000121134800F080F80121114800F035F8ED
:10069000012000F019F901210D4800F023F80C4861
:1006A00000F0FCF800BF0A4800F03CF80028FAD13E
:1006B000074800F003F900BF054800F029F80028BA
:1006C000FAD107B000BD000000C0001000080140D2
:1006D0000024014010B50121014800F0E4F810BDEC
:1006E0000024014021B1826842F00102826003E0EF
:1006F000826822F001028260704721B1826842F470
:100700008072826003E0826822F4807282607047A7
:10071000014600208A6802F004020AB1012000E0CC
:1007200000207047014600208A6802F008020AB1E2
:10073000012000E00020704730B502460020002371
:1007400050680F4C20400D790C6844EA0524204382
:10075000506090680B4C2040D1E902542C434D79F5
:1007600044EA450420439060D06A20F470000C7C79
:10077000641EE4B2234340EA0350D06230BD00005F
:10078000FFFEF0FFFDF7F1FDF0B504460D46002039
:100790000021092D11DDE068A5F10A0606EB4607E8
:1007A000072606FA07F18843A5F10A0606EB460676
:1007B00003FA06F10843E0600CE0206905EB450709
:1007C000072606FA07F1884305EB450603FA06F10A
:1007D00008432061072A0FDA606B561E06EB860776
:1007E0001F2606FA07F18843561E06EB860605FA11
:1007F00006F10843606322E00D2A0FDA206BD61F52
:1008000006EB86071F2606FA07F18843D61F06EB7C
:10081000860605FA06F10843206310E0E06AA2F1BB
:100820000D0606EB86071F2606FA07F18843A2F19C
:100830000D0606EB860605FA06F10843E062F0BDF8
:1008400010B504461248844208D10121401503F036
:10085000C3FB0021601503F0BFFB17E00D48844285
:1008600008D10121001503F0B7FB0021201503F08A
:10087000B3FB0BE00848844208D10121C80303F010
:10088000ABFB00214FF4004003F0A6FB10BD0000BD
:100890000024014000280140003C0140816841F0F3
:1008A00008018160704721B1826842F4A002826031
:1008B00003E0826822F4A00282607047816841F000
:1008C000040181607047000030B10749096841F4B4
:1008D0000001054A116005E00349096821F400019F
:1008E000014A1160704700000824014010B5044619
:1008F000A078C0F3800018B9A07800F0010098B18A
:10090000022005F03BFE0949886B804703F0F6FAA8
:1009100000221146064802F0BCFC00BF642000F033
:10092000F1FB02F03FF8F9E710BD000038000020AD
:10093000C800002010B5044603F0EAFA03F0C8FA34
:10094000A07820F00400A07000202080A07820F083
:100950000100A07010BD38B5044602F051F8C0B2D5
:1009600000909DF8000001280CD12088401C2080B8
:100970002088142805DDA07820F00400001DA07058
:1009800006E005E000202080A07820F00400A070A0
:1009900038BD10B5FFF732FEFFF700FEFFF79AFEF5
:1009A00010BD10B500F006F80446012101F056FC18
:1009B00010BD00000149C8897047000010220020C6
:1009C00010B5074CFFF7E5FF14212046FFF782FD25
:1009D0004FF4FA6000F038F84FF4FA60606010BD30
:1009E0001022002070B5174C01F0BAFC05462078A3
:1009F00000F0010078B9B5F5FA6F0BD941F28830F3
:100A0000854207D200F04AF8E081206820F001001A
:100A1000401C206070BDA068A84210D2A068281AAF
:100A2000616888420BD3A56000F038F80646E0897B
:100A3000C00000EB46060A20B6FBF0F6E68100BFD8
:100A4000E8E700001022002001498881704700007B
:100A50001022002070B588B005460026002409E069
:100A600004EB44000C4901EB400030F815002DF870
:100A70001400641C0F2CF3D30F21684600F036F9E4
:100A80000B2101A803F04FF906460B20B6FBF0F04E
:100A900080B208B070BD000010E800202DE9F041E0
:100AA0002DED048B104F0120FFF7D4FF05460220E7
:100AB000FFF7D0FF0646B98901FB06F006F0A9FA58
:100AC00041EC190B9FED090B53EC102B06F0B8FA13
:100AD00041EC180B06F070FA0446B4FBF5F4A0B232
:100AE000BDEC048BBDE8F081102200200000000066
:100AF000000004404A8802444A80704708B501213A
:100B0000082003F059FA10208DF8030002208DF818
:100B100002002020ADF800006946024801F048F8C4
:100B200008BD0000000C014010B500222021024841
:100B300001F08FFB10BD0000000C014010B5012238
:100B40002021024801F085FB10BD0000000C01408F
:100B50000348006880F020000149086070470000E9
:100B60000C0C014010B586B00446084B0FCBCDE904
:100B70000423CDE9020106480121CDE9001002A8B5
:100B80000FC800F010F806B010BD00001073010887
:100B9000B00000200FB49DF8000000F0010080F0CC
:100BA000010004B070477FB5DDE9085418212046E4
:100BB000FFF790FC0098A0600199E1600299216123
:100BC000039961610DB1012000E00020217860F3FC
:100BD00041012170204600F03CF8A06808B1A068EF
:100BE0008047206908B1206980477FBD7CB50446F5
:100BF0000D46164635B92078C0F3400010B9E068BC
:100C0000804719E0012D17D1D4E90401CDE9000195
:100C100094E80F00FFF7BEFF012806D121463046B9
:100C200000F015F80020A08003E021463046FFF7D1
:100C300061FF204600F001F87CBD10B50446207825
:100C400020F00100401C2070E068804710BD488003
:100C5000704710B50446207820F00100207020690C
:100C6000804710BD1CB50446D4E90401CDE900015C
:100C700094E80F00FFF78EFF012800D11CBDA0886B
:100C8000618888420CDC2078C0F3400010B16069B4
:100C9000804701E0E0688047A088401CA08004E015
:100CA0002046FFF7D6FF2069804700BFE6E7000037
:100CB00010B5094803F070FC084803F08FFE08489F
:100CC000FFF750FF074802F0B3FA074800F0C0FEF4
:100CD00005F026FB10BD0000380000207400002045
:100CE000B0000020C8000020DC00002070B50246E3
:100CF000012319E0012012E032F81060451C32F89F
:100D00001550AE4209DA32F81040451C32F8155041
:100D100022F81050451C22F81540451CA8B2CD1AE7
:100D20008542E9DA5D1CABB24D1E9D42E2DA70BD30
:100D300010B50121034804F080FA0021014804F0B5
:100D40007FFA10BD0004004010B50021044804F0F3
:100D500077FA472140F22A3004F020F810BD000055
:100D60000004004010B50121014804F069FA10BDEB
:100D70000004004010B50021014804F087FA10BDBE
:100D80000004004010B50121034804F056FA002188
:100D9000014804F055FA10BD000C004010B5472181
:100DA0000C2004F057F810BD10B50121014804F0E3
:100DB00047FA10BD000C00402DE9F04104460D46F5
:100DC00016464FF0000800272582218A002006F0F1
:100DD000A7F8E060266002F0D7F9A060E06818B1DB
:100DE000A06808B1012000E0002007463846BDE8B1
:100DF000F08170B5044601F0B3FA05466069A84277
:100E000007D26069281A4EF66021884201D9002075
:100E100070BD0120FCE72DE9F04106460F4614465F
:100E200000254FF48071002006F07AF805461FB1C6
:100E300015B1FE2C00DC0CB9BDE8F0812246394624
:100E4000A81CFFF7AEFA2C802946B06802F079F9A9
:100E500000BFF1E710B54FF4A06002F09BFA00204C
:100E600006F054F800F02CF9054801F0CEFA0548D8
:100E700000F0D2FA05F028F803F03EFD10BD0000A6
:100E800000E800209CE9002010B5024804F055FD60
:100E900010BD0000283B002010B5024804F04DFDB5
:100EA00010BD0000A022002010B5024804F045FD4E
:100EB00010BD0000E42E002010B5024804F03DFDF6
:100EC00010BD00006C47002021B1026842F0010211
:100ED000026004E002684FF6FE731A400260704739
:100EE00000F0805111B10349086001E002494860F7
:100EF00070470000040402400000024000F08051EE
:100F000011B10349086001E00249486070470000E0
:100F100004040240000002400146486880B2704765
:100F20001AB103680B43036002E003688B4303605C
:100F3000704710B50022026847F6F0739A430C6AB6
:100F40008B6823430C6923434C6923438C692343F7
:100F5000CC6923434C6A23438C6A23431A430260BF
:100F6000CB6843600B6883604B68C36010BD0000B2
:100F700001684FF6FE72114001600021016041607E
:100F80008160C1604B49884208D14A4908394968A3
:100F900041F00F01474A083A51608AE0454914314F
:100FA000884208D143490839496841F0F001414A73
:100FB000083A51607DE03F492831884208D13D49D7
:100FC0000839496841F470613A4A083A516070E062
:100FD00038493C31884208D136490839496841F4DA
:100FE0007041344A083A516063E0324950318842D6
:100FF00008D130490839496841F470212D4A083A2E
:10100000516056E02B496431884208D1294908399A
:10101000496841F47001274A083A516049E025497E
:101020007831884208D123490839496841F0706114
:10103000204A083A51603CE01F49884206D1011F0E
:10104000096841F00F01021F116032E01A491431A2
:10105000884208D11849091F096841F0F001164A71
:10106000121F116025E014492831884208D1124925
:10107000091F096841F470610F4A121F116018E0DE
:101080000D493C31884208D10B49091F096841F4D8
:101090007041094A121F11600BE007495031884224
:1010A00007D10549091F096841F47021024A121F3E
:1010B0001160704708000240080402404160704718
:1010C00010B56FF0040003F091FD0A4800680A496A
:1010D000B0FBF1F0094908700846007800EB4001C8
:1010E000C1EBC0104FF6FF7101EAC000044908804F
:1010F00010BD00000400002000127A00180000203B
:101100001A0000200146114A12884A434FF0E0239A
:101110005A6100229A611A46126942F001021A616C
:1011200000BF4FF0E022106900F001021AB100F494
:101130008032002AF5D04FF0E022126922F001023D
:101140004FF0E0231A6100229A6170471A000020D4
:1011500070B58AB00446202102A8FFF7BBF92078B9
:10116000C0F3400008B90AB070BD2078C0F3801009
:1011700010B12648808901E0254880890546606ACB
:10118000A8422BD3002610E004F128039A192378F3
:10119000C3F380102B46216900F0C4FB206928446A
:1011A0002061606A401B60622E44606AA842EBD2F4
:1011B000606A28B104F128008119626AFFF7F1F82A
:1011C0001E20019001AA02A9FF2002F09FFC012825
:1011D00004D1BDF8041002A8626890472078C0F3DB
:1011E000800080B12278C2F3801004F12802636A83
:1011F000216900F097FB206928442061002060628B
:10120000204603F017FC00BFADE700009CE900207A
:1012100000E8002001460020A1F50542153A5AB128
:10122000A2F5D242FF3A22B1022A08D0032A0CD1F9
:1012300008E04FF400600AE04FF4805007E04FF4FC
:10124000005004E04FF4804001E0002000BF00BFE8
:1012500070470146A1F50542153A4AB1A2F5D242BE
:10126000FF3A22B1022A04D0032A06D102E000BFCD
:1012700000BF00BF4FF4807001E0002000BF00BF3E
:101280007047000010B5012000F034F820B30120B1
:1012900000F02AF81148007800F00100E0B1104891
:1012A000C07AC8B90D480078C0F3C000A0B90B4897
:1012B000007820F00200094908700846007820F004
:1012C000080008300870FFF733FDFFF753FD0020DA
:1012D00004490860FFF746FD10BD0000DCEB00206C
:1012E000CCEB00203000002001490860704700006E
:1012F00014040140014600200022074B1B6803EA4A
:101300000102054B14331B680B4013B10AB10120D5
:1013100000E0002070470000000401400021234944
:101320008279002A3AD00A46126803689A430B462B
:101330001A600A1D126803689A430B1D1A6002792D
:1013400011440A6803681A430A60184A083212688E
:1013500003689A43154B08331A601A1D1268036814
:101360009A43124B0C331A604279102A0ED11A1F7D
:10137000126803681A430D4B08331A601A1D12686D
:1013800003681A43094B0C331A600DE00749427990
:1013900011440A6803681A430A6005E0027911449F
:1013A0000A6803689A430A6070470000000401401D
:1013B0002DE9F04705468846144600272868404531
:1013C00004D808EB04006968884202D30020BDE815
:1013D000F087A88908B90020F9E72146002005F028
:1013E0009FFD07460FB90020F1E74FF000092346A3
:1013F0003A464146284600F033F8A04206D100267E
:1014000002E0B85D8144761CA642FAD3394600203A
:1014100005F06AFD4846DAE710B504460F4804F0C7
:10142000BFFE002020606060A060E0600B48B0F864
:101430001E01E081E089FFF70CFFA081E089FFF742
:10144000E9FEA0604FF07040206060604FF4806261
:10145000D4E9010102FB0100606010BD6CE80020CE
:101460002DE9FE4304460D4617461E464FF0000880
:101470002068A84202D86068A84202D20020BDE8D5
:10148000FE83A08908B90020F9E711E0A08921684E
:10149000691ACDE9007102900E480FC804F0B0FE41
:1014A000A089361AA0890544A0890744A0898044F0
:1014B000A089B6FBF0F00028E8D146B1B0B2CDE982
:1014C0000075029003480FC804F09AFEB0444046ED
:1014D000D5E700006CE800202DE9FF4F85B00546F8
:1014E0000E469B46AC894FF00009DA46BAF1000F70
:1014F00000D01CB9002009B0BDE8F08F2868B042C8
:101500005DD806EB0A006968884258D2214600205F
:1015100005F006FD8146B9F1000F01D10020EAE790
:101520002868361AB6FBF4F808FB04F8B6FBF4F0AA
:1015300004FB106080B204900498201A80B20390DB
:1015400035E0286800EB080123464A462846FFF7A5
:1015500087FF002706E00798C15D0498384409F822
:1015600000107F1C0398504501D2039800E05046BC
:10157000B842F0D8AAEB070A0798384407901148F8
:10158000CDF800800FC804F0E1FD0E48CDE90098C9
:1015900002940FC804F099FEA044BAF1000F00D1E4
:1015A00006E0002004900498201A80B20390C8E757
:1015B00000BF4946002005F097FC58469BE70020F5
:1015C00099E700006CE8002030B504460425B4F12A
:1015D000046F24D3681F00F077F90546042D1CD151
:1015E0003648006840F0020034499039C1F8900054
:1015F0000846C0F89440D0F8900040F040002F49D1
:101600000860681F00F060F905462C489038D0F853
:10161000900020F0020029490860284630BD284883
:10162000844221D84FF0805000F028F90546042D5F
:1016300041D122489038006940F002001F4990399A
:10164000086108464461006940F040000861C80331
:1016500000F014F9054619489038006920F002009E
:1016600016499039086126E01548844223D9B4F11F
:10167000016F20D24FF0805000F013F90546042D81
:1016800019D10E489038006D40F002000B49903996
:10169000086508464465006D40F040000865C803D1
:1016A00000F0FFF8054605489038006D20F0020074
:1016B0000249903908652846B0E7000090200240B2
:1016C000FFFF070804200B49C96801F0010109B1B7
:1016D00001200EE00749C96801F0040109B10220A8
:1016E00007E00449C96801F0100109B1032000E0D6
:1016F000042070470020024004200B49C96C01F00F
:10170000010109B101200EE00749C96C01F0040193
:1017100009B1022007E00449C96C01F0100109B1C8
:10172000032000E0042070470020024004200B4901
:10173000096801F0010109B101200EE007490968BB
:1017400001F0040109B1022007E00449096801F031
:10175000100109B1032000E0042070478C200240F2
:101760000548006940F08000034908610846006DA3
:1017700040F08000086570470020024070B50446C4
:101780000D460426B4F1046F1ED34FF4704000F0F0
:101790009BF80646042E15D12E48006840F0010043
:1017A0002C49086025804FF4704000F08DF8064603
:1017B00028489038D0F8900020F001002549903951
:1017C000C1F89000304670BD234884421DD84FF4C4
:1017D000704000F053F80646042E39D11D48903869
:1017E000006940F001001B499039086125804FF4E1
:1017F000704000F043F8064616489038006920F023
:10180000010014499039086122E0134884421FD92D
:10181000B4F1016F1CD24FF4704000F042F806465C
:10182000042E15D10B489038006D40F00100094995
:101830009039086525804FF4704000F032F8064674
:1018400004489038006D20F0010002499039086585
:101850003046B8E790200240FFFF070804480549DA
:101860004860054848600248486403484864704737
:101870002301674500200240AB89EFCD00B5024649
:101880000423FFF71FFF034603E0FFF71BFF034698
:10189000521E012B01D1002AF7D102B905231846A7
:1018A00000BD00B502460423FFF726FF034603E010
:1018B000FFF722FF0346521E012B01D1002AF7D168
:1018C00002B90523184600BD00B502460423FFF700
:1018D0002DFF034603E0FFF729FF0346521E012BAD
:1018E00001D1002AF7D102B90523184600BD000036
:1018F0002DE9F04105460E46174635B13A463146C8
:101900000648FFF755FD044605E03A4631460448CF
:1019100000F066FD04462046BDE8F0819CE9002009
:1019200000E800202DE9F04104460D4616461F460A
:1019300034B13B46324629460548FFF7CDFD05E068
:101940003B4632462946034800F085FDBDE8F0815C
:101950009CE9002000E800204A8802444A80704741
:1019600008B50121042002F027FB10208DF80300A8
:1019700002208DF80200C002ADF80000694611484F
:1019800000F016F90121082002F016FB04208DF862
:10199000030002208DF80200C001ADF80000694686
:1019A000094800F005F910208DF8030002208DF899
:1019B00002000820ADF800006946034800F0F8F87E
:1019C00008BD000000080140000C014010B51E24B5
:1019D000012208210C4800F03CFC00BF201EA4F1AD
:1019E0000101CCB2FAD14FF48071074800F024FC19
:1019F000044600220821044800F02BFC012C01D1F0
:101A0000012010BD0020FCE7000C014010B50022B1
:101A10000821054800F01DFC00224FF480510348C6
:101A200000F017FC10BD0000000C01400008014050
:101A300010B501220821044800F00BFC012211031B
:101A4000024800F006FC10BD000C014000080140F7
:101A500010B586B00446074B0FCBCDE90423CDE982
:101A600002010548009002A80FC800F017F806B060
:101A700010BD00002C730108DC0000200FB410B56D
:101A80000798804710BC5DF814FB0FB49DF8000068
:101A900000F0010080F0010004B070471FB5069C03
:101AA00018212046FEF716FD0098A0600199E1601C
:101AB0000299216103996161204600F036F8A0681F
:101AC00008B1A0688047206908B1206980471FBD20
:101AD0007CB504460D46D4E90401CDE9000194E843
:101AE0000F00FFF7CBFFB8B1D4E90401CDE9000145
:101AF00094E80F00FFF7C9FF012806D121462846C8
:101B000000F011F80020A08003E021462846FFF7EE
:101B100023FF204600F001F87CBD017821F001018F
:101B2000491C0170704748807047017821F001011D
:101B3000017070471CB50446D4E90401CDE90001E9
:101B400094E80F00FFF7A1FF012800D11CBDA08879
:101B50006188884205DCE0688047A088401CA0803E
:101B600004E02046FFF7E1FF2069804700BFEDE772
:101B700030B500228B071C0F0F2303FA04F20B4B26
:101B80008C1053F824309343084C8D1044F82530C2
:101B900023468C1053F824308C07240F00FA04F4E9
:101BA0002343024C8D1044F8253030BD080001401D
:101BB0002DE9F041024600250026002000230024E4
:101BC000002791F803C00CF00F0591F803C00CF04A
:101BD000100CBCF1000F03D091F802C04CEA0505CF
:101BE00091F800C0BCF1000F31D0146800202BE048
:101BF0004FF0010C0CFA00F3B1F800C00CEA030638
:101C00009E4220D183004FF00F0C0CFA03F7BC4327
:101C100005FA03FC4CEA040491F803C0BCF1280F58
:101C200006D14FF0010C0CFA00FCC2F814C00AE017
:101C300091F803C0BCF1480F05D14FF0010C0CFA2C
:101C400000FCC2F810C0401C0828D1D31460B1F8C1
:101C500000C0BCF1FF0F34DD546800202EE000F11D
:101C6000080C4FF0010808FA0CF3B1F800C00CEAB8
:101C700003069E4221D183004FF00F0C0CFA03F7AC
:101C8000BC4305FA03FC4CEA040491F803C0BCF120
:101C9000280F05D100F1080C08FA0CF8C2F81480DE
:101CA00091F803C0BCF1480F07D100F1080C4FF0C8
:101CB000010808FA0CF8C2F81080401C0828CED39E
:101CC0005460BDE8F0810000F0B50346B3F1004F69
:101CD00071D90025002223F00044E50904F07F04B7
:101CE000220904F00F04970004FA07F6062D15D216
:101CF000DFE805F00305080B0E11F8480FE0F74880
:101D0000001D0CE0F548083009E0F4480C3006E00E
:101D1000F248103003E0F148143000E000BF00BF8B
:101D200022B9076827F00F0707603DE0012A12D1AA
:101D3000012D0BD1042C04D9076827F0C0070760D8
:101D400032E0076827F0300707602DE0076827F0CA
:101D5000F007076028E0022A04D1076827F47067BB
:101D6000076021E0032A04D1076827F47047076061
:101D70001AE0042A04D1076827F47027076013E0EB
:101D8000052A04D1076827F4700707600CE0062ACB
:101D900004D1076827F07067076005E0072A03D1C0
:101DA000076827F070470760012902D107683743A9
:101DB00007603EE2FFE7B3F5802F6FD037DCB3F565
:101DC000007F6CD015DC102B6AD008DC012B68D0AA
:101DD000022B7BD0042B7AD0082B72D17CE0302BE5
:101DE00070D0402B6FD0C02B6ED0B3F5807FF4D174
:101DF000E4E0B3F5804F68D00CDCB3F5407F7CD0D5
:101E0000B3F5006F7AD0B3F5406F78D0B3F5805F4B
:101E1000E3D162E0B3F5C04F72D0B3F5004F57D0B5
:101E2000B3F5803F55D0B3F5003FD6D152E0B3F1C2
:101E3000005F76D01DDCB3F5000F73D00CDCB3F57A
:101E4000002F4BD0B3F5801F49D0B3F5001F6AD0E7
:101E5000B3F5800FC1D18FE1B3F1807F74D0B3F1BE
:101E6000007F72D0B3F1806F70D0B3F1805FB4D1D6
:101E700066E19B4A981A934269D014DCB3F1804F13
:101E800076D0A3F180402038002872D0B0F5787F5A
:101E900070D0944A104400289FD18BE11BE09DE054
:101EA00042E02EE012E0B0F5802F74D0B0F5402F64
:101EB00072D0B0F5A01F70D0B0F5E01F8DD17BE1DE
:101EC00005E0B4E144E056E068E0C7E000BF00BFD1
:101ED00000BF00BF00BF00BF00BF00BF00BF7F4802
:101EE0002038406898437D4A203A5060012903D148
:101EF00010464068184350609AE17FE08EE09DE014
:101F0000BCE0764820384068774A1040734A203A4F
:101F10005060012904D11046406840F00100506033
:101F200086E1FFE01AE135E16C482038406820F096
:101F300030006A4A203A5060012904D110464068B6
:101F400040F01000506073E1A8E0B7E0CEE032E16D
:101F500062482038406820F03000604A203A5060E3
:101F6000012904D11046406840F0300050605FE124
:101F7000CAE01DE11DE159482038406820F0C0004A
:101F8000564A203A5060012904D11046406840F07A
:101F9000400050604CE120E12DE13AE14F4820380B
:101FA000406820F0C0004D4A203A5060012904D119
:101FB0001046406840F0C000506039E14748203882
:101FC000406820F44070454A203A5060012904D10D
:101FD0001046406840F48070506029E13F48203846
:101FE000406820F440703D4A203A5060012904D1F5
:101FF0001046406840F40070506019E137482038BE
:10200000406820F44070354A203A5060012904D1DC
:102010001046406840F44070506009E12F48203875
:10202000406820F440602D4A203A5060012904D1D4
:102030001046406840F400605060F9E027482038BE
:10204000406820F44060254A203A5060012904D1BC
:102050001046406840F440605060E9E01F48203876
:10206000406820F4C0401D4A203A5060012904D144
:102070001046406840F480405060D9E0174820384E
:10208000406820F4C040154A203A5060012904D12C
:102090001046406840F4C0405060C9E00F48203806
:1020A000406820F0E0600D4A203A5060012904D1D8
:1020B0001046406840F080705060B9E00748203812
:1020C000406820F0E060054A203A5060012904D1C0
:1020D0001046406840F000705060A9E020000140C8
:1020E000000004402000FEFFFEFFFF7F51484068D3
:1020F00020F0E0604F4A5060012904D1104640684A
:1021000040F08060506093E04A48406820F0804092
:10211000484A5060012904D11046406840F0804090
:10212000506085E04348406820F00050414A5060CC
:10213000012904D11046406840F00050506077E01B
:102140003C48406820F080503A4A5060012904D150
:102150001046406840F08050506069E03548406863
:1021600020F40000334A5060012904D11046406831
:1021700040F4000050605BE02E48406820F480008E
:102180002C4A5060012904D11046406840F4800078
:1021900050604DE02748406820F40010254A506008
:1021A000012904D11046406840F4001050603FE01F
:1021B00000BF00BF00BF00BF1E48C069C3F31502C7
:1021C00090431C4AD061012906D11046C069C3F36F
:1021D00015021043174AD0612AE01648C06920F45E
:1021E000C010144AD061012904D11046C06940F4DE
:1021F0000020D0611CE00F48C06920F4C0100D4AD7
:10220000D061012904D11046C06940F48010D0612A
:102210000EE00848C06920F4C010064AD0610129C8
:1022200004D11046C06940F4C010D06100E000BF86
:1022300000BFF0BD000001400246002093680B4043
:102240000BB1012000E0002070474161704701613F
:1022500070470AB1016100E04161704702466420A5
:1022600001EB81239B00934200DC69E040F6787328
:102270004B43934201DC5A2062E040F614734B4317
:10228000934201DC50205BE040F6C4634B43934231
:1022900001DC462054E040F674634B43934201DC7A
:1022A0003C204DE040F656634B43934201DC322024
:1022B00046E040F624634B43934201DC28203FE094
:1022C00040F606634B43934201DC1E2038E040F6A3
:1022D000B6534B43934201DC142031E040F698534F
:1022E0004B43934201DC0F202AE040F6E4434B438A
:1022F000934201DC0A2023E040F6B2434B43934271
:1023000001DC05201CE040F64E434B43934201DCC8
:10231000042015E040F61C434B43934201DC0320AC
:102320000EE040F686334B43934201DC022007E087
:1023300040F654334B43934201DC012000E000207F
:102340007047014641F22A000844407841F22A02CF
:102350000A44927840EA022070470120704700004A
:10236000054880880449896801EB4102C2EBC1112C
:1023700000EBC100704700006022002010B5012171
:10238000880702F05AFF00214FF0804002F058FF0A
:1023900010BD10B547214FF44D7002F0D5FC10BDB3
:1023A00010B50121880702F04BFF10BD10B50021C8
:1023B0004FF0804002F06AFF10BD0000014908881C
:1023C00070470000E0F7FF1F04480188FF2902DC86
:1023D0004FF4806070474FF40060FBE7E0F7FF1FA9
:1023E00030B503461868884203D888185D68A8424B
:1023F00001D3002030BD002403E008780444521EBD
:10240000491C002AF9D12046F4E700B50246002015
:10241000106050609060D060FFF7D6FF9081FFF7AA
:10242000CDFF90604FF00060106050604FF480630B
:10243000D2E9010103FB0100506000BD30B5054643
:102440001446002203E00878A054491C521C9A420A
:10245000F9D3184630BD2DE9FF4F83B006460F462D
:102460009B46B5894FF00009DA46BAF1000F03D157
:10247000002007B0BDE8F08F3068B84265D807EBA0
:102480000A007168884260D22946002004F048FDA5
:102490008146B9F1000F01D10020EAE7FFF7DEF92C
:1024A00030683F1AB7FBF5F808FB05F8B7FBF5F005
:1024B00005FB107080B202900298281A80B2019039
:1024C00039E0306800EB08012B464A463046FFF7FA
:1024D000B5FF002406E00598015D0298204409F844
:1024E0000010641C0198504501D2019800E050464C
:1024F000A042F0D8AAEB040A059820440590316860
:1025000001EB0800FFF760F8002407E039F8041039
:10251000326842441019FFF731F9A41CAC42F5D3DC
:10252000A844BAF1000F00D106E000200290029802
:10253000281A80B20190C4E700BF4946002004F089
:10254000D3FCFFF70DF9584693E7002091E7000010
:1025500010B50C4C3C212046FDF7BCFF0A486060DA
:102560000A49A1600A49E1606068804764224FF42B
:10257000007104F12400FEF71FFC216A60F30001E2
:10258000216210BD24220020152701081D27010803
:10259000692701082DE9F843384E06F12404208A02
:1025A000618A401A80B20090FFF7DAFE07464FF0CA
:1025B000000896F8200000F0010008B9BDE8F88393
:1025C0006068B8421CD26068381A2168884217D304
:1025D000676000F00BFA98B9A06800F0D9FD80465A
:1025E000B8F1000F0CD0B8F8001008F10200F26842
:1025F0009047A06800F0DAFD4146002004F074FC2A
:10260000638AE168C8186946B2689047012832D1E8
:1026100070688047628AE16888180822BDF8001057
:1026200001F0A2FE608ABDF8001008446082002517
:102630001EE0608A401B80B20090E168481969463C
:1026400001F046FB01280CD16761E1684819324668
:10265000BDF8001000F014F8BDF80000284485B261
:1026600001E0681C85B2608AA84201DC002060821B
:10267000608AA842DDDC00BFA0E700002422002021
:102680002DE9F0410446884615462F4601221146A1
:102690001F4800F0FEFD6078217840EA01264AF2EA
:1026A0007121701A8E4222D012DC4AF25221A6EB1E
:1026B00001008E4222D006DC6FF422403044C0B1CB
:1026C000502820D119E015280FD017281BD10DE074
:1026D000332810D004DC03280AD0312813D109E0B4
:1026E000342809D08E280ED109E00DE00CE00BE073
:1026F0000AE009E008E007E006E005E004E028461B
:1027000000F074F800E000BF00BFBDE8F0810000F9
:10271000C800002010B503F045FC10BD70B5C2B074
:1027200005460C464FF48070019001A902A803F001
:102730003FFC0646B6B92088BDF80410884209DB84
:10274000BDF8042002A92846FDF72BFEBDF80400C1
:10275000208004E0228802A92846FDF722FE0120FD
:1027600042B070BD0020FBE770B504460D46294617
:10277000204603F04FFC70BD1FB50120ADF80C00E2
:1027800048208DF80F0002208DF80E0003A916488E
:10279000FFF70EFA0121084601F00EFC002101208E
:1027A000FFF7E6F90120019000208DF808000C20C9
:1027B0008DF8090001208DF80A0001A8FEF7AEFD92
:1027C00006208DF8000000208DF8010003208DF810
:1027D000020001208DF80300684600F0A3FD0121EE
:1027E0000148FFF734FD1FBD000C01402DE9F04703
:1027F0000646374600240025A046A146A2464FF4CF
:102800008071002004F08CFB04460CB9BDE8F08711
:102810005048FEF7EEFA08B9012000E00020054319
:102820004D48FEF7E6FA08B9022000E00020054313
:102830004A48FEF7DEFA08B9042000E0002005430C
:1028400045F0080500202080A3212288501C20800C
:10285000A01C8154FF212288501C2080A01C815480
:1028600000212288501C2080A01C81542288501CEA
:102870002080A01C815401212288501C2080A01C93
:1028800081542188481C2080A01C45542188481C64
:102890002080A01C00F801802188481C2080A01CFA
:1028A00000F801902188481C2080A01C00F801A09D
:1028B000294890F820102288501C2080A01C8154A8
:1028C000FEF76FF8C1B22288501C2080A01C8154F2
:1028D000204890F84C102288501C2080A01C815465
:1028E000218801441D480068826A0A60C06A486005
:1028F0002088083020802078C01E20712088C01ECB
:1029000081B2601D03F05CFF2288511C2180A11C54
:1029100088542146F86A00F014FC01221146104840
:1029200000F0B7FC4FF4C87201210E48FEF75EF9C3
:102930000D49062000F0AEFA0121074800F00CFA1C
:1029400003210A48FFF7C4F8362003F0FBFD00BF5F
:102950005CE700005C210020AC2100203021002039
:10296000C8000020B000002038000020DC0000205B
:1029700008B50121042001F01FFB10208DF8030091
:1029800002208DF802008020ADF80000694604485E
:10299000FFF70EF9002280210148FFF75AFC08BD1D
:1029A0000008014010B500F001F810BD4AF6AA2059
:1029B0000149086070470000003000400A48007874
:1029C000C0F3800070B108484068401C0649486068
:1029D00008464068072805D30846007820F0100014
:1029E0001030087070470000DCEB00200348C07A0C
:1029F000012800D170470020FCE70000CCEB00204C
:102A000010B54FF400710248FFF716FC10BD00002E
:102A1000000C014010B58AB0144C24212046FDF76B
:102A200059FD1C22124903A8FDF700FD07A807C89D
:102A30008DE8070003A80FC800F05DF900F01EF94B
:102A4000206064224FF4007104F10800FEF7B4F92D
:102A5000616860F30001616000F071F90A221146BB
:102A6000204600F0ACF90AB010BD0000AC210020F7
:102A7000E87401082DE9FC41464E06F10804208A5D
:102A8000618A401A80B2019000200090FFF768FC34
:102A900007464FF00008307900F0010008B9BDE8A2
:102AA000FC816068B84229D26068381A216888427F
:102AB00024D3676000F03DF9A0B9A06800F068FB7E
:102AC0008046B8F1000F0DD0B8F800103068C26829
:102AD00008F102009047A06800F068FB4146002022
:102AE00004F002FA6069381A4CF25031884205D37A
:102AF0000A221146304600F062F96761638AE16894
:102B0000C81831688A6801A99047012840D1628AB3
:102B1000E16888180622BDF8041001F025FC608ADF
:102B2000BDF804100844608200252DE0608A401B37
:102B300080B20190E16848196A4601A901F0A1F844
:102B400001281AD16761009801280AD1638A5A1BAB
:102B5000E36859191846FDF724FC608A401B60821F
:102B600015E0E16848193246BDF8041000F014F889
:102B7000BDF80400284485B201E0681C85B2608A73
:102B8000A84201D100206082608AA842CEDC00BF4A
:102B900000BF84E7AC21002030B50C461346857891
:102BA000A02D04D10421455C83F8205000E000BF33
:102BB00000BF30BD10B592B0282108A8FDF78AFCEF
:102BC0000C4C28220C4908A8FDF730FC4FF4964025
:102BD000099018220CA968460694FDF727FC08A85E
:102BE0000FC802F065FD204602F037FE00F05EF8E7
:102BF00012B010BD6C4700209874010870B50646ED
:102C00000D46174C94F8400C00F0010028B3B4F8BE
:102C1000300C08B9002070BD2888B4F8301C8842F8
:102C20000ADBB4F8302C04F586613046FDF7B9FBB9
:102C3000B4F8300C288005E02A8804F58661304617
:102C4000FDF7AFFB0020A4F8300C94F8400C20F006
:102C5000010084F8400C0120DDE70020DBE70000E4
:102C60006C47002070B504460D462A4621460248AE
:102C700003F068F870BD00006C4700200048704702
:102C8000ACEB002010B500224FF400410148FFF7E3
:102C9000E0FA10BD0008014010B50122D10302483E
:102CA000FFF7D7FA10BD00000008014008B5012168
:102CB000084601F081F90121042001F07DF901218C
:102CC0004806FFF701F810208DF8030002208DF868
:102CD00002008003ADF8000069460248FEF768FF75
:102CE00008BD00000008014010B50446206908B185
:102CF0002069804710BD0FB410B5FFF7BFFF044631
:102D000020212046FDF7E6FB0298606005992161CD
:102D1000069961610399A1600499E160606808B156
:102D200060688047606908B16069804710BC5DF8E1
:102D300014FB00B5FFF7A2FF0146002000BD10B54F
:102D4000FFF79CFF0446207820F00100401C207013
:102D50002046FFF7C9FF10BD70B505460E4600249A
:102D60004FF48071002004F0DBF8044604B970BD14
:102D7000002020805A212288501C2080A01C8154D1
:102D800000212288501C2080A01C8154B12122885F
:102D9000501C2080A01C81542188481C2080A01C2D
:102DA0004654AA212288501C2080A01C81542178DE
:102DB000E1702146286900F0C4F900BFD7E72DE98A
:102DC000F04105460E46174600244FF4807100205E
:102DD00004F0A6F804460CB9BDE8F081002020807C
:102DE0005A212288501C2080A01C81540021228856
:102DF000501C2080A01C8154A0212288501C2080BF
:102E0000A01C81542188481C2080A01C465400210D
:102E10002288501C2080A01C81540FB90A2100E098
:102E200039462288501C2080A01C8154AA21228867
:102E3000501C2080A01C81542178E1702146286913
:102E400000F07FF900BFC7E710B50446204600F048
:102E500097F8206B08B1206B8047A06B08B1A06B7E
:102E600080472146642000F008F810BD014608782C
:102E700000F0010080F001007047642801DD642249
:102E800000E002464A704A780A2392FBF3F24A7045
:102E90007047000070B505460C4694F82D00A84216
:102EA00000D170BD207820F00100207084F82D50F2
:102EB0002721A01DFDF7ECFA94F82D0008283DD23B
:102EC000DFE800F0352E272019120B0425222349B4
:102ED00004F10800FDF765FA37E02522204904F1E6
:102EE0000800FDF75EFA30E025221E4904F10800D3
:102EF000FDF757FA29E025221B4904F10800FDF7E8
:102F000050FA22E02522194904F10800FDF749FA98
:102F10001BE02522164904F10800FDF742FA14E0EF
:102F20002522144904F10800FDF73BFA0DE02522A3
:102F3000114904F10800FDF734FA06E025220F4993
:102F400004F10800FDF72DFA00BF00BF207820F043
:102F50000100401C207000BFA3E70000EB760108D1
:102F6000E87501080D7601083276010857760108E8
:102F70007C760108A1760108C67601081077010861
:102F8000017821F001010170704710B50446204618
:102F900000F043F8A088401CA080A088632804DDCE
:102FA0000020A080204600F001F810BD30B5034697
:102FB000002200241846FFF759FF012800D130BD38
:102FC0009A1D1078122190FBF1F501FB1501D01C20
:102FD00000EB4104507840B96078012800D100E04E
:102FE0000020197860F3410119705078401C217855
:102FF00088420DDB002050701078401C9178884288
:1030000002DB0020107006E01078401C107002E017
:103010005078401C507000BFD1E710B504462078AE
:10302000C0F34000C8B1A0786178884204DA606BD0
:1030300050B1606B804707E0A0786178884203DD7B
:10304000A06B08B1A06B8047A078401CA070A0784E
:10305000092806DD0020A07003E0A06B08B1A06B7A
:10306000804710BD10B500240821002003F058FF50
:10307000044600202060606060602060204610BD33
:1030800070B502460B4600260021002500240AB137
:10309000002B01DA002070BD14462146002601E015
:1030A0000968761C9E4202DA08680028F8D10D688B
:1030B000286808606068401E60602846EBE770B5CD
:1030C000024600260024002300250AB1002902DA66
:1030D0000026002070BD15462B46002401E01B6829
:1030E000641C8C4202DA18680028F8D11868F1E7ED
:1030F000F0B503461446002700260022002513B130
:1031000009B1002C02DA00273846F0BD1D462A46D8
:10311000002601E01268761CA64202DA1068002838
:10312000F8D11068086011606868401C6860002071
:10313000EBE70146002209B9501E70470A46506865
:10314000FBE72DE9F04107460D4600260024082143
:10315000002003F0E5FE04461CB9761E3046BDE8AB
:10316000F08100202060606065603846FFF7E1FF75
:103170008046424621463846FFF7BAFF06460EB162
:103180003046ECE73046EAE710B5FFF76BFF10BDBD
:1031900070B505460024002600212846FFF78FFF62
:1031A00004460CB9002070BD6068FCE770B50546A8
:1031B0000024002600212846FFF762FF04460CB9D0
:1031C000002070BD66681CB12146002003F08CFE13
:1031D0003046F6E74A8802444A80704708B5012124
:1031E000042000F0E9FE10208DF8030002208DF885
:1031F00002002020ADF8000069460248FEF7D8FC26
:1032000008BD00000008014010B50022202102483E
:10321000FFF71FF810BD00000008014010B50122A3
:1032200020210248FFF715F810BD000000080140FA
:103230003EB50446044A07CA8DE80700034B9DE8E3
:10324000070000F00EF83EBD20730108C800002002
:103250000FB49DF8000000F0010080F0010004B000
:1032600070471FB51C4614212046FDF733F900981E
:10327000A0600199E16002992161204600F030F8D8
:10328000A06808B1A0688047206908B1206980471C
:103290001FBDF8B504460D46164615B9E0688047CF
:1032A00015E02069009094E80F00FFF7D1FF012896
:1032B00006D12146304600F011F80020A08003E03E
:1032C00021463046FFF786FF204600F001F8F8BDA2
:1032D000017821F00101491C017070474880704756
:1032E000017821F001010170704738B5044620696A
:1032F000009094E80F00FFF7ABFF012800D138BD24
:10330000A0886188884205DCE0688047A088401C6E
:10331000A08004E02046FFF7E3FF2069804700BF5C
:10332000EDE7000070B5002100230F22C47804B33C
:10333000154C246804F4E064C4F5E064210AC1F18A
:103340000403CA40447804FA03F18478144021430A
:1033500009010E4C0678A155047804F01F050124DC
:10336000AC4005786D11AD0005F1E025C5F80041D0
:1033700009E0047804F01F050124AC40044D0678F0
:10338000761145F8264070BD0CED00E000E400E049
:1033900080E100E002490143024A116070470000E9
:1033A0000000FA050CED00E000487047ACE9002091
:1033B0003EB5044605A207CA8DE807000A25206924
:1033C00018B129466846226990473EBD5A0AFC005A
:1033D000910F453C1DAA000010B50446E06908B1F4
:1033E000E069804710BDF0B595B0044600255A222B
:1033F00029466D1C08A84254002229466D1C4254DF
:10340000FC2229466D1C42540C2229466D1C425454
:10341000912229466D1C42540E2229466D1C4254AD
:103420001C2101A8FDF756F8082202A904F1440066
:10343000FCF78BFF18B1626CA262A16CE162012201
:103440000DF11A0104F15600FCF77FFF18B13A2084
:103450005621095D015501220DF11D0104F15900AC
:10346000FCF773FF38B1D4F85920C4F83D20D4F8E4
:103470005D10C4F841101C2104F14000FDF708F86C
:1034800008A948191C2204F12401FCF78AFF05F160
:103490001C0085B20027022605E008A8805D38449C
:1034A000C7B2701C86B2222EF7DB2846691C8DB28B
:1034B00008A90F54AA222846691C8DB208A90A54EB
:1034C000E8B28DF82100206918B1294608A82269C0
:1034D000904715B0F0BD00003EB5044605A207CAEE
:1034E0008DE807000A25206918B129466846226937
:1034F00090473EBD5A0AFC0091876A35B3AA000086
:103500000FB410B5FFF750FF04465C212046FCF7CE
:10351000E1FF0298A060059961610699A161079990
:10352000E161089921620399E16004992161606970
:1035300008B160698047E06908B1E0698047A06828
:1035400008B1A068804710BC5DF814FB10B5FFF708
:103550002BFF0446207800F00100C0B1A07861780C
:10356000884205D1206A8047A078401CA0700CE0FA
:10357000A1786078401C814203DAA078401CA070DA
:1035800003E0207820F001002070012010BD207899
:10359000C0F3C00070B12179481C2071142091FB48
:1035A000F0F200FB12100A2802D12046FFF700FFBC
:1035B0000120EBE72078C0F3001070B16179481C5E
:1035C0006071142091FBF0F200FB12100A2802D166
:1035D0002046FFF708FF0120D8E72078C0F340001D
:1035E00068B1E178481CE070142091FBF0F200FB18
:1035F000121010B92046FFF76FFF0120C6E7002028
:10360000C4E770B50546FFF7CFFE0446657000209D
:10361000A070207820F00100401C20702046FFF7A9
:10362000DBFE70BD2DE9F047C0B007460E46904660
:103630001D464FF0000AFFF7B7FE814637B1082E4E
:1036400004DCB8F1000F01D0642D03DD002040B090
:10365000BDE8F087022E06D138884FF6FF71884208
:1036600001D14FF0010A00245A222146641C01A80E
:10367000425400222146641C4254FD222146641C0F
:103680004254BAF1010F01D1012200E0002220468C
:10369000611C8CB201A90A542046611C8CB201A99C
:1036A0000D54081932463946FCF77BFEA01984B246
:1036B00001A908192A464146FCF773FE601984B235
:1036C000AA222046611C8CB201A90A54E0B28DF8EE
:1036D0000500D9F8100020B1214601A8D9F8102022
:1036E00090472846B3E770B504460D46FFF75CFEE9
:1036F00006460CB1082D00D070BD2A46214606F1C1
:103700004400FCF74EFE00F018F800BFF4E700B5E7
:103710000246FFF749FE03465920C25400F00DF857
:1037200000BD00B5FFF740FE014600200871087893
:1037300020F008000830087000BD00B5FFF734FE27
:10374000014600204871087820F010001030087001
:1037500000BD00B5FFF728FE01460020C8700878BC
:1037600020F00200801C087000BD00B5FFF71CFEB1
:10377000014600200871087820F00800087000BD9C
:1037800000B5FFF711FE014600204871087820F0CF
:103790001000087000BD00B5FFF706FE01460020CE
:1037A000C870087820F00200087000BD2DE9F04FC5
:1037B0009BB005460E4690469946204C032D03DAF1
:1037C00000201BB0BDE8F08F7078B17840EA012B83
:1037D00042F22A00005B002808DD2046FEF7B1FD1A
:1037E0000746BB4502D0204600F0CFFF2A463146AF
:1037F00041F22A002044FCF7D4FD42F22A0005538E
:103800004FF0000AFF2002A901F80A000AF1010A9C
:103810002078C0F3801010B10948808901E0094880
:1038200080890190616A0198814205D24A464146E9
:10383000FF2000F06BF9C4E70020C2E7F40000208D
:103840009CE9002000E800202DE9F0479AB00646E8
:103850000D4691469A46092E03DA00201AB0BDE8BB
:10386000F08714480078C0F3400090B1114800F090
:103870008CFFD5F80170D5F805800E484761C0F877
:103880001880006820F00400001D0A49086000202C
:10389000E4E70024287801A90855641C0120085594
:1038A000641C53464A46214601A800F057FAC0B2AC
:1038B000D4E70000F40000202DE9F04786B006466A
:1038C0000D4691469A46092E03DA002006B0BDE85F
:1038D000F087D5F80170D5F805800B484761C0F82E
:1038E000188001F091F80024FA2001A90855641C01
:1038F00000200855641C53464A46214601A800F0A2
:103900002DFAC0B2E2E70000F40000202DE9F041FA
:1039100086B00746884615461E460024F12001A9B8
:103920000855641C00200855641C01200855641CBF
:1039300000200855641C0855641C33462A4621465D
:1039400001A800F00BFAC0B206B0BDE8F08100009B
:103950002DE9F04385B08046894616461F46174D2F
:103960000024F2200DF80400641C42F23400405D93
:103970000DF80400641C42F23500405D0DF80400AF
:10398000641C42F23600405D0DF80400641C42F2F3
:103990003800405B00120DF80400641C42F238004D
:1039A000405D0DF80400641C3B46324621466846E3
:1039B00000F0D4F9C0B205B0BDE8F083F4000020F7
:1039C0002DE9F04385B08046894615461E460C4FCA
:1039D0000024F0200DF80400641C0DEB040107F531
:1039E0000050C26A0A60006B4860083433462A46B9
:1039F0002146684600F0B2F9C0B205B0BDE8F083D8
:103A0000F40000202DE9F0479AB082460E46174692
:103A100098464FF000090024D6F801401748006886
:103A2000A0420AD81648006820F0400040301449EF
:103A300008600846C46004610EE01248006800F5A2
:103A40000040A04203D80F484068A04202D24FF085
:103A5000010901E00A48C4600025307801A94855F1
:103A60006D1C01A800F805906D1C43463A46294696
:103A700000F074F9C0B21AB0BDE8F0879CE90020EC
:103A8000F400002000E800202DE9F0479AB08246BB
:103A90000E46174698464FF000090024D6F801401C
:103AA00017480068A0420AD81648006820F0400075
:103AB0004030144908600846C46004610EE01248B2
:103AC000006800F50040A04203D80F484068A042BB
:103AD00002D24FF0010901E00A48846000253078E5
:103AE00001A948556D1C01A800F805906D1C4346BE
:103AF0003A46294600F032F9C0B21AB0BDE8F08764
:103B00009CE90020F400002000E80020F0B585B01A
:103B100005460F46164614216846FCF7DBFC0024D8
:103B20000DF80450641C33463A462146684600F0BE
:103B300015F9C0B205B0F0BD2DE9F04186B00546DB
:103B40000E4617469846092D03DA002006B0BDE858
:103B5000F0810024F32001A90855641C00200855B9
:103B6000641C0821701CFFF7BEFD43463A462146FF
:103B700001A800F0F3F8C0B2E8E72DE9F0430446ED
:103B80000F4615469846DDF81C90002C74D0002F87
:103B900072D0207855286FD13888032805DA0DB106
:103BA000012028600120BDE8F083A07800283FD1E3
:103BB0003888072804DA0DB1012028600120F2E7D7
:103BC000E07861790844FF2856D12079A17908442A
:103BD000FF2851D1E078217940EA01264E4501DDE8
:103BE0000020E0E7398806F1090080B2814204DA5A
:103BF0000DB1012028600120D5E73146E01D00F01D
:103C00009FF8F11D615C884236D106F10800205C06
:103C1000AA2831D106F1090038800DB100202860B2
:103C2000B8F1000F02D00120C8F800000120BAE767
:103C3000A6783988701D814204DA0DB10120286010
:103C40000120B0E73146E01C00F07AF8F11C615C1D
:103C5000884211D1301D205CAA280DD1701D3880FA
:103C60000DB100202860B8F1000F02D00020C8F884
:103C70000000012097E7FFE70DB100202860002039
:103C800091E710B50346F3B1E9B118785A281AD173
:103C90000888042804DA0AB101201060012010BD50
:103CA0005C780888A04204DA0AB101201060012083
:103CB000F5E7601E185CAA2805D10C800AB1002027
:103CC00010600120EBE70AB1002010600020E6E759
:103CD000F0B504460E46002714B13088052801DAF5
:103CE0000020F0BD2078A22802DB2078A32801DD87
:103CF0000020F6E7A5782DB1FF2D03DA3188281DC5
:103D0000814201DA0020ECE72946E01C02F058FD70
:103D10000746E81C205CB84203D1281D30800120F2
:103D2000DFE70020DDE730B5024600200B4602E069
:103D300014882044921C1C1EA3F10103F8D130BD4D
:103D400030B5024600200B4603E014780444E0B28C
:103D5000521C1C1EA3F10103F7D130BD2DE9F04127
:103D600007460C4615461E4614B90020BDE8F081F2
:103D70003188A01D814201DA0020F7E7224639464A
:103D8000E81CFCF70EFB55202870FEF7E6FA687079
:103D9000AC702146E81CFFF7D3FFE11C6854AA2150
:103DA000201D2954601D30800120DFE72DE9F041FE
:103DB00004460D4616461F464FF000082078F828A6
:103DC00056D00CDCF1281BD004DC022858D0F02897
:103DD00075D10DE0F2281BD0F32870D120E0F9282E
:103DE0003ED0FA2824D0FB282AD0FF2867D12FE024
:103DF0003B46324621462846FFF7E2FD80465FE01B
:103E00003B46324621462846FFF780FD804657E074
:103E10003B46324621462846FFF79AFD80464FE052
:103E20003B46324621462846FFF786FE804647E05D
:103E30003B46324621462846FFF73EFD80463FE09E
:103E40003B46324621462846FFF7FEFC804637E0D7
:103E50003B46324621462846FFF7A8FC80462FE025
:103E6000E8B23B4632462146FFF70EFE804627E089
:103E70003B46324621462846FFF7C4FD80461FE0F8
:103E800000BF00BF00BF00BF00BFBFF34F8F00BF28
:103E900000BF00BF0C48006800F4E0600B49084315
:103EA000001D0949086000BF00BF00BFBFF34F8F6E
:103EB00000BF00BF00BF00BF00BFFDE7FFE700BFBE
:103EC00000BF4046BDE8F0810CED00E00000FA05BF
:103ED00008B50121042000F06FF810208DF80300D0
:103EE00002208DF802004020ADF80000694602482B
:103EF000FDF75EFE08BD00000008014010B500227D
:103F000040210248FEF7A5F910BD0000000801405D
:103F100008B50121082000F04FF828208DF8030093
:103F200002208DF802000002ADF800006946024848
:103F3000FDF73EFE08BD0000000C014001460020D8
:103F4000034A5068034A10400843014A50607047D2
:103F500000100240FF3FFFEF29B1064A52690243B9
:103F6000044B5A6104E0034A52698243014B5A618F
:103F7000704700000010024029B1064AD26902438E
:103F8000044BDA6104E0034AD2698243014BDA61EF
:103F9000704700000010024029B1064A126902432E
:103FA000044B1A6104E0034A12698243014B1A610F
:103FB000704700000010024029B1064A926902438E
:103FC000044B9A6104E0034A92698243014B9A616F
:103FD000704700000010024029B1064AD26802432F
:103FE000044BDA6004E0034AD2688243014BDA6092
:103FF0007047000000100240F0B5002400220021AC
:1040000000250023524E766806F00C0222B1042AE5
:1040100012D0082A53D112E04D4E366B06F00076CE
:104020003EB14B4E766D06F4007616B1494E0660F1
:1040300001E0494E066045E0474E066042E0444ECE
:10404000766806F48035424E7668444F06EA0701EA
:1040500001F0C04636B901F47016B6F5701F01D0F4
:10406000022600E0012601F0C047C1F3834C4CEA70
:104070005767F1191DB93A4E4E43066013E0344EAE
:10408000766806F400365EB1314E766D06F4405423
:10409000240BA61C304FB7FBF6F64E43066002E039
:1040A0002D4E4E4306602A4E766806F000462EB925
:1040B0002C4F0668BE4201D93E46066002E0264EFD
:1040C000066000BF00BF224E7668C6F30212204E83
:1040D000766806F0800616B1234EB65C00E0002636
:1040E00033460668DE404660194E7668C6F3012204
:1040F000174E766806F4806616B11B4EB65C00E07B
:10410000002633464668DE408660114E7668C6F368
:10411000C1220F4E766806F4005616B1124EB65CF8
:1041200000E0002633464668DE40C660084E7668EA
:10413000C6F38132064E766806F080560EB142F024
:1041400004020A4EB35CC668B6FBF3F60661F0BD26
:1041500000100240006CDC0200127A0000003C609B
:1041600000093D0000A24A04CC750108D47501087D
:1041700008B501210820FFF71FFF10208DF803006C
:1041800002208DF802008020ADF800006946024848
:10419000FDF70EFD08BD0000000C014010B5012226
:1041A00080210248FEF755F810BD0000000C0140C8
:1041B00010B5002280210248FEF74BF810BD000028
:1041C000000C014010B5134C20212046FCF782F969
:1041D00000F0C8F920601048216848600F49206845
:1041E00081600F492068C160216848688047642267
:1041F0004FF4006104F10800FCF7DEFD606918B1BE
:10420000206908B1012100E00021606861F300002D
:10421000606010BDD0210020A1440108E5440108E0
:104220004D4501082DE9FE434E4E06F10804208A53
:10423000618A401A80B20290002001900090FEF73F
:104240008FF881460027307900F0010008B9BDE8F9
:10425000FE836068484518D26068A9EB00002168B9
:10426000884212D3C4F80490A068FEF791FF074675
:104270005FB139883068C268B81C9047A068FEF703
:1042800095FF3946002002F02FFE638AE168C818C6
:1042900031688A6802A99047012860D1608ABDF818
:1042A000081008446082002556E0608A401B80B2F6
:1042B0000290E16848196B4601AA02A901F030FE9C
:1042C000012841D10198012802D1681C85B243E040
:1042D0003168C86801F0F2FD0098E0B1E81CE168BF
:1042E000095C281DE268105C41EA0028E81DE168CD
:1042F000085C40B91FFA88F1EA1DE3689818324655
:1043000000F08EF81BE01FFA88F1EA1DE3689818A8
:1043100001F016FE13E0E81CE168085C40B9AA1C35
:10432000E368995CEA1C9818324600F079F806E0D8
:10433000AA1CE368995CEA1C981801F001FEBDF81C
:104340000800284485B201E0681C85B2608AA84252
:1043500001D10020608200BF608AA842A5DC00BFB6
:1043600075E70000D02100202DE9F04106460D46FA
:10437000174600244FF48071002002F0D1FD04465E
:104380000CB9BDE8F081FA2D45DA002020805521D6
:104390002288501C2080A01C8154FDF7DEFFC1B292
:1043A0002288501C2080A01C8154E81CC1B22288A5
:1043B000501C2080A01C815400212288501C208089
:1043C000A01C81542188481C2080A01C4754012136
:1043D0002288501C2080A01C81542288A11C5018C7
:1043E0002A463146FBF7DDFF208828442080E91C5F
:1043F000601DFFF7A5FC2288511C2180A11C885458
:10440000AA212288501C2080A01C815403490869DD
:104410002146FEF796FE00BFB3E70000D021002042
:104420002DE9F04704460D461646B046677894F8E5
:104430000290207838BB052F06D0072F0BD00A2F0B
:1044400010D00B2F1CD114E0E81E82B2E11C1048E2
:10445000FCF7E1FC15E0E81E82B2E11C0D48FCF718
:10446000DAFC0EE0E81E82B2E11C0B48FCF7D3FC3C
:1044700007E0E81E82B2E11C0848FCF7CCFC00E033
:1044800000BF00BF00E000BF00BFBDE8F087000034
:10449000B42100204822002038210020642100207F
:1044A00010B592B0282108A8FCF714F80B4C28226C
:1044B0000B4908A8FBF7BAFF4FF4E1300990182226
:1044C0000CA968460694FBF7B1FF08A80FC801F0D5
:1044D000EFF8204601F0C1F912B010BDB053002032
:1044E000A475010870B506460D46174C94F8400CAB
:1044F00000F0010028B3B4F8300C08B9002070BDFA
:104500002888B4F8301C88420ADBB4F8302C04F553
:1045100086613046FBF745FFB4F8300C288005E093
:104520002A8804F586613046FBF73BFF0020A4F89B
:10453000300C94F8400C20F0010084F8400C01206D
:10454000DDE70020DBE70000B053002070B5044633
:104550000D462A462146024801F0F4FB70BD0000DA
:10456000B053002000487047F021002008B5012119
:104570000820FFF721FD10208DF8030002208DF8A0
:1045800002004020ADF8000069460248FDF710FB2C
:1045900008BD0000000C014010B504463C21204637
:1045A000FBF798FF04482063044961630449A16351
:1045B0002046FEF749FC10BD6D450108D9450108AC
:1045C000C545010810B5012240210248FDF741FE12
:1045D00010BD0000000C014010B50022402102482F
:1045E000FDF737FE10BD0000000C014000B587B09C
:1045F00001210820FFF7E0FC01218803FFF7BCFC44
:104600004FF46040ADF8180018208DF81B00022010
:104610008DF81A0006A91848FDF7CAFA4FF4604150
:104620001548FDF714FE0020ADF804004FF4827029
:10463000ADF806000020ADF808000220ADF80A0031
:104640000120ADF80C004002ADF80E003820ADF8A6
:1046500010000020ADF812000720ADF8140001A9E9
:10466000064800F065F80121044800F047F8FF20F3
:1046700000F006F807B000BD000C01400038004013
:1046800070B50546002405E0601CC4B2C82C01DDED
:10469000002070BD02210E4800F03CF80028F3D045
:1046A00029460B4800F042F8002405E0601CC4B223
:1046B000C82C01DD0020ECE70121054800F02AF8B4
:1046C0000028F3D0024800F02EF8C0B2E1E7000065
:1046D0000038004010B50446074800884FF6C771FF
:1046E00008400549088008460088204308800121C9
:1046F000014800F003F810BD0038004021B10288E5
:1047000042F04002028004E002884FF6BF731A4074
:10471000028070470246002013890B400BB1012034
:1047200000E000207047014688897047818170470A
:1047300010B50022028802F441528B8903F4004331
:1047400023B1838843F48073838003E0838823F458
:10475000807383800B884C8823438C882343CC88C8
:1047600023430C8923434C8923438C89C4F30E04CF
:104770002343CC8923431A430280838B4FF2FF7477
:10478000234083830B8A038210BD38B5044642F26E
:104790002A00005BC01E0090606A00990844B0F5D2
:1047A000805F01D9002038BD04F12801626A5018E9
:1047B00041F22A012144C91C009AFBF7F2FD606A0C
:1047C000009908446062E06900990844E0610021B2
:1047D00042F22A0001530120E5E7000010B5064827
:1047E000807A012803D1FCF7CDFA00F08FFD00207C
:1047F0000149887210BD0000CCEB002010B50448C0
:10480000807A08B9FCF7D0FA01200149887210BDFE
:10481000CCEB002010B500F001F810BD0CB5002065
:10482000019000903148006840F001002F49086075
:1048300000BF2E48006800F0020000900198401C64
:104840000190009820B94FF6FF7101988842F0D18D
:104850002648006800F0020010B10120009001E03D
:1048600000200090009801283FD1204840681F494F
:1048700048600846406820F4605048600846406838
:1048800048600846406820F4E06048600846406898
:1048900040F4806048600846406815490840134964
:1048A0004860084640681349084310494860084674
:1048B000006840F08070086000BF0C48006800F09D
:1048C00000700028F9D00948406820F0030007492B
:1048D00048600846406840F00200486000BF034856
:1048E000406800F00C000828F9D10CBD001002400F
:1048F000FFFFC01F0000042010B5002403E0204685
:1049000000F04AF8641C022CF9D310BD70B50025E4
:10491000002600243BE004EB44001E4951F830001F
:10492000012833D104EB440001EBC0008068401C37
:1049300004EB4401174A02EBC101886004EB440018
:10494000114601EBC000806804EB440102EBC10199
:10495000496888421AD904EB4400114601EBC000B3
:10496000007B012812D1002004EB440142F8310001
:1049700004EB4400114601EBC000056904EB440060
:1049800001EBC00046690DB13046A847641C022CFB
:10499000C1D370BD70220020022800D370470021CF
:1049A00000EB40020C4B03EBC202916000EB4002B3
:1049B00003EBC202516000EB400203EBC202116143
:1049C00000EB400203EBC202516100EB400243F8EE
:1049D000321000BFE2E700007022002010B504464C
:1049E0003C212046FBF776FD0448206304496163BF
:1049F0000449A1632046FEF727FA10BD7141010862
:104A0000B14101089D410108016821F00201891CA2
:104A10000160016821F0040101600021C16141626F
:104A2000C16801610021C161002242F22A010A52DB
:104A30007047000070B58EB004462378C3F3801031
:104A40006269E168FCF754FF0646206820F0020026
:104A50002060206820F004002060002141F228003E
:104A600001550025FB2009A948556D1CA069B042DD
:104A700001D0012000E0002009A94855681CC5B2FA
:104A80001E2000906B4601AA294609A8FFF766F987
:104A9000012804D1BDF8001001A862689047FDF715
:104AA00081FF1548E168006800F58030814204D03C
:104AB0001249E0680968884201D30EB070BDA06950
:104AC000B04216D1002509A9606948512D1DA06981
:104AD00048512D1DA06848512D1DE06848512D1DDD
:104AE0000548006800F500412B4609AA0248FDF779
:104AF000B2FC00BFE1E7000000E800209CE90020D4
:104B00002B484088401C2A4948800846007820F0FD
:104B10000100401C08700846C068401CC8604888F6
:104B2000C11700EB91718910A0EB810100293ED1E2
:104B30001F48007820F00200801C1D4908700846BC
:104B40008088401C8880084680880A2190FBF1F20A
:104B500001FB120030B91648007820F00400001D57
:104B60001349087012488088642190FBF1F201FB20
:104B7000120030B90E48007820F0080008300C49C7
:104B800008700B4880884FF47A7190FBF1F201FBBA
:104B9000120060B900200649888008468068401CE1
:104BA00088600846007820F01000103008707047C8
:104BB0006022002070B50B480021016041608160D7
:104BC000C1600A24084800684FF47A61B0FBF1F034
:104BD000B0FBF4F56A1E91B2621E90B200F00AF9C1
:104BE00070BD00006022002004000020042808D1CD
:104BF0004FF0E021096941F004014FF0E02211611A
:104C000007E04FF0E021096921F004014FF0E022B4
:104C10001161704710B51948006840F470001749D9
:104C200008601748006840F0010015490860084610
:104C30004068144908401249486008460068124913
:104C400008400F4908600846006820F4802008608A
:104C5000084640680D490840094948600846006B0D
:104C60000B490840064908634FF41F008860FFF7AE
:104C7000D1FD084801498039086010BD88ED00E089
:104C8000001002400C00FFE8FFFFF6FEFFFF0017D8
:104C900000FFFEFE0000010810B524480078C0F3B4
:104CA000400080B12148007820F002001F490870C0
:104CB0001F48FEF76AF91F48FEF767F91E48FBF721
:104CC000D1FFFDF77BFE19480078C0F3800028B1C2
:104CD0001648007820F00400144908701348007842
:104CE000C0F3C00090B11148007820F008000F49CF
:104CF0000870FFF70BFE1148FEF7F7FA1048FCF7B3
:104D000019FF01F02FFD0F48FBF725FE074800783B
:104D1000C0F3001040B10548007820F010000349AE
:104D200008700848FBF7E2FD10BD0000602200207B
:104D30003800002074000020B0000020C8000020CF
:104D4000DC0000200000002030B585B005460C4690
:104D500001210846FFF710F90395ADF80440002043
:104D6000ADF81000029001A94FF0804000F090FAD9
:104D700001221146900700F080FA1C208DF80000F7
:104D800000208DF8010001208DF802008DF803004D
:104D90006846FEF7C7FA05B030BD000030B585B0F3
:104DA00005460C4601210220FFF7E6F80395ADF811
:104DB00004400020ADF81000029001A90C4800F05A
:104DC00067FA012211460A4800F057FA1D208DF8B3
:104DD000000000208DF8010005208DF80200012060
:104DE0008DF803006846FEF79DFA05B030BD00005F
:104DF0000004004030B585B005460C460121042072
:104E0000FFF7BAF80395ADF804400020ADF81000A4
:104E1000029001A90E4800F03BFA012211460C480D
:104E200000F02BFA1E208DF8000001208DF8010003
:104E300005208DF8020001208DF803006846FEF77A
:104E400071FA0121024800F0FBF905B030BD000005
:104E50000008004030B585B005460C460121082009
:104E6000FFF78AF80395ADF804400020ADF8100074
:104E7000029001A90E4800F00BFA012211460C48DD
:104E800000F0FBF932208DF8000000208DF80100C1
:104E900004208DF8020001208DF803006846FEF71B
:104EA00041FA0021024800F0CBF905B030BD000006
:104EB000000C004030B585B005460C46012110209D
:104EC000FFF75AF80295ADF800400020ADF80C004D
:104ED00001906946114800F0DBF901210F4800F00C
:104EE000A9F9012211460D4800F0C7F900210B482D
:104EF00000F094F90121094800F0A2F936208DF85C
:104F0000100000208DF8110001208DF812008DF89E
:104F1000130004A8FEF706FA05B030BD00100040EB
:104F200010B5044624B947210120FFF7C3FF04E070
:104F3000611E88B24721FFF7BDFF10BD30B585B0B7
:104F400005460C4601212020FFF716F80295ADF822
:104F500000400020ADF80C0001906946124800F0B6
:104F600097F90121104800F065F9012211460E4819
:104F700000F083F900210C4800F050F901210A48A3
:104F800000F05EF937208DF8100000208DF8110038
:104F900002208DF8120001208DF8130004A8FEF7FE
:104FA000C1F905B030BD00000014004010B5044642
:104FB00024B947210120FFF7C1FF04E0611E88B238
:104FC0004721FFF7BBFF10BD10B50121880700F096
:104FD00043F900284ED00121880700F02EF9264819
:104FE000C07A012846D124480068401C2249086044
:104FF000084600684968401A01283BD11E480068ED
:105000001D4948600846407A082817DA0846007AA1
:1050100000F0010008730846007B012802D1FFF769
:10502000DDFB01E0FFF7EAFB1348007A401012496C
:1050300008720846407A401C48721BE00E48407ACD
:10504000082807D1FFF7CAFB0B48407A401C0A49E1
:1050500048720FE00848407A08280BDD0020064916
:10506000487208604860C872FDF788F9FDF79EF93C
:1050700000F04CF910BD0000CCEB002010B5012170
:105080003A4800F0E9F800286FD00121374800F0D5
:10509000D4F83748007800F00100002865D0354882
:1050A000C07A002861D101213348FDF7C5F80446D4
:1050B0002F480078C0F3C000C0B12D480078C0F37D
:1050C000400098B994B92A48007820F00200801C6A
:1050D000274908700846007820F004000870002076
:1050E000486026490860264908703EE0204800785C
:1050F000C0F34000C8B3012C08D12048017801203A
:1051000088401F49097808431D4908701B480068FA
:10511000401C1A49086008460068082825D318482A
:105120000078134908750846017DB0F81621B0F8DB
:105130001601401C0E4BA3F8160103F11500815413
:105140001538007820F008001946087008460078E5
:1051500020F0020008700846007820F00400001DCE
:105160000870FBF7E5FDFBF705FE10BD00040040ED
:10517000DCEB0020CCEB0020000C014030000020D4
:105180003400002010B50121054800F065F828B171
:10519000FFF7B6FC0121024800F04FF810BD0000F7
:1051A0000008004010B50121054800F055F828B16D
:1051B0000121034800F041F800F0B0F810BD0000F4
:1051C000000C004010B50121074800F045F850B12F
:1051D0000121054800F031F80021034800F030F8C3
:1051E00002484169884710BD0010004074EA002061
:1051F00010B50121074800F02FF850B101210548F2
:1052000000F01BF80021034800F01AF80248416939
:10521000884710BD0014004008EA002021B1028830
:1052200042F08002028004E002884FF67F731A4049
:1052300002807047CA4302827047CA4302827047A5
:1052400021B1028842F00102028004E002884FF698
:10525000FE731A400280704730B5024600200023DA
:105260000024158A05EA0103958905EA010413B1B2
:105270000CB1012000E0002030BD1AB183890B433E
:10528000838102E083898B43838170474162704749
:1052900000220288164B98420ED0B0F1804F0BD0FE
:1052A000144B984208D0144B984205D0134B9842A7
:1052B00002D0134B984205D14FF68F731A408B885A
:1052C00013439AB20F4B984207D00F4B984204D029
:1052D0004FF6FF431A408B891A4302808B68C362E2
:1052E0000B8803858B7B0386012383827047000034
:1052F000002C014000080040000C00400034014038
:1053000000040040001000400014004010B580214F
:105310000148FCF79AFF10BD0008014003480068EF
:1053200080F0800001490860704700000C080140CF
:1053300010B5024800F0CDF910BD00006C47002008
:1053400010B5024800F0C5F910BD0000B0530020B0
:1053500010B5024800F0BDF910BD0000A0220020E9
:1053600010B5024800F0B5F910BD0000E42E002091
:1053700010B5024800F0ADF910BD0000283B002038
:1053800001F40072B2F5007F00D100BFCA43028071
:10539000704710B50022002340F66A14A14200D1E4
:1053A00000BF0A1201249440A3B2DC43048010BD64
:1053B00021B1828942F40052828104E082894DF653
:1053C000FF731A40828170471AB1838A0B4383822C
:1053D00002E0838A8B438382704702460020B1F546
:1053E000007F00D100BF13880B400BB1012000E00B
:1053F0000020704770B502460024002300250020DD
:1054000040F66A16B14200D100BFC1F3421501F067
:105410001F03012606FA03F3012D02D196893340BA
:1054200006E0022D02D1168A334001E0968A33400D
:105430000C12012606FA04F41688344013B10CB19C
:10544000012000E0002070BDF0B5034600240026D6
:105450000025002040F66A17B94200D100BF184667
:10546000C1F3421401F01F06012707FA06F5012CCB
:1054700001D10C3004E0022C01D1103000E01430D6
:105480001AB107682F43076002E00768AF4307605F
:10549000F0BD00002DE9F04F89B005468946002493
:1054A00000200790834682460026B9F80C0000B120
:1054B00000BF2E462C8A4CF6FF700440B9F8060057
:1054C00004432C82AC894EF6F3100440B9F8040072
:1054D000B9F808100843B9F80A1008430443AC812E
:1054E000AC8A4FF6FF400440B9F80C000443AC828C
:1054F00002A8FEF781FD2848864208D02748864248
:1055000005D02748864202D02648864202D1059817
:10551000079001E0049807904FF47A710798A0FB78
:1055200001700146102200233846FAF797FECDE9B4
:105530000001D9F800703A460023FAF78FFE0446BE
:105540004FF47A70B4FBF0FBB4FBF0F100FB1140B8
:105550004FEA001A4FF47A70BAFBF0F100FB11A089
:10556000B0F5FA7F04D24FF47A70BAFBF0FA0CE08F
:105570004FF47A70BAFBF0F000F1010ABAF1100FA3
:1055800003D34FF0000A0BF1010B4AEA0B102881FC
:1055900009B0BDE8F08F0000003801400060014014
:1055A000006401400068014001468888C0F308009B
:1055B0007047000010B504463348844209D10121E8
:1055C0008803FEF709FD00214FF48040FEF704FD3B
:1055D00059E02E48844209D101214804FEF7DCFC41
:1055E00000214FF40030FEF7D7FC4CE028488442FD
:1055F00009D101218804FEF7CFFC00214FF480205F
:10560000FEF7CAFC3FE02348844209D10121C804C7
:10561000FEF7C2FC00214FF40020FEF7BDFC32E093
:105620001D48844209D101210805FEF7B5FC00217F
:105630004FF48010FEF7B0FC25E01848844209D1F1
:1056400001210806FEF7C8FC00214FF08070FEF72C
:10565000C3FC18E01248844209D101214806FEF734
:10566000BBFC00214FF00070FEF7B6FC0BE00D48CC
:10567000844208D101218806FEF7AEFC00214FF0DC
:105680008060FEF7A9FC10BD0038014000440040D6
:1056900000480040004C00400050004000600140C5
:1056A0000064014000680140C1F308028280704735
:1056B0000FB410B50C9C282202A92046FAF7B6FEBA
:1056C00010BC5DF814FB10B504462068FFF772FFAC
:1056D00010BDF8B50446002526684FF458713046D1
:1056E000FFF788FE20B14FF458713046FFF751FEA6
:1056F00040F225513046FFF77DFE08B33046FFF7F4
:1057000053FFC0B2009040F225513046FFF741FEF2
:105710000098C1B2B4F8302C04F586608154B4F816
:10572000300C401CA4F8300CB4F8300CB0F5806F8D
:1057300006DB94F8400C20F00100401C84F8400C7B
:1057400040F224413046FFF755FEC0B33088009048
:10575000B088009040F224413046FFF71AFE607A8C
:1057600003281CD104F11C0500216868FBF7ACFB81
:105770006868FBF7D1FBC0F50060A4F8300C4FF46B
:1057800000616868FBF79AFC01216868FBF79CFBE5
:1057900094F8400C20F00100401C84F8400C607A22
:1057A000022806D194F8400C20F00100401C84F837
:1057B000400C94F8400C20F0020084F8400C40F2B9
:1057C00027713046FFF716FE60B3B4F8340CB4F816
:1057D000321C884212DB002240F227712068FFF75A
:1057E00033FE94F8400C20F0020084F8400C0122B3
:1057F00040F226613046FFF727FE13E094F8400C94
:1058000020F00200801C84F8400CB4F8342C04F121
:105810003000815C3046FFF747FFB4F8340C401C81
:10582000A4F8340C40F226613046FFF7E3FD98B14E
:1058300094F8400C20F0020084F8400C0020A4F8FA
:10584000320C40F226613046FFF7A3FD002240F201
:1058500026613046FFF7F8FDF8BD7FB505462C46BA
:105860002846FFF730FF206800F07AF82068FFF73D
:10587000A1FE0020ADF80400ADF80600ADF8080068
:10588000ADF80C0068680090607A28B1207A18B1F1
:105890000C20ADF80A000EE0607A18B10420ADF8D3
:1058A0000A0008E0207A18B10820ADF80A0002E0EA
:1058B0000020ADF80A0069462068FFF7EBFD607A2A
:1058C00002280CD1012240F225512068FFF7BCFDCF
:1058D000012240F224412068FFF7B6FD10E0607A13
:1058E00003280DD1284600F08DF8012240212068C0
:1058F000FFF76AFD012240F224412068FFF7A4FD72
:10590000207A02280AD0207A032807D1284600F0FE
:10591000B7F8012280212068FFF756FD0121206899
:10592000FFF746FD40212068FFF72AFD206800F0C0
:10593000E9F8204600F0E8F97FBD70B5044600257F
:1059400004F1100594F8400C20F0020084F8400C9B
:10595000A868FBF7C5FAA868FBF7D0FA70BD00008D
:1059600010B504461F48844204D101218803FEF784
:1059700023FB36E01C48844204D101214804FEF791
:10598000FBFA2EE01948844204D101218804FEF775
:10599000F3FA26E01648844204D10121C804FEF738
:1059A000EBFA1EE01348844204D101210805FEF7FA
:1059B000E3FA16E01048844204D101210806FEF7FC
:1059C000FBFA0EE00D48844204D101214806FEF79F
:1059D000F3FA06E00A48844203D101218806FEF763
:1059E000EBFA10BD00380140004400400048004080
:1059F000004C004000500040006001400064014045
:105A00000068014070B58CB00446264606F11C05BE
:105A10002C2101A8FAF75EFD18492868884204D1B4
:105A200001210846FEF798FA03E001210220FEF763
:105A300093FA6868FBF79CFA3068001D019004F542
:105A400086600290002003904FF4006004900020D4
:105A500009900590802006900020079008904FF450
:105A600040500A9000200B9001A96868FBF761FA8A
:105A700001216868FBF728FA0CB070BD00000240F5
:105A800070B58CB005462E4606F110041C492068FE
:105A9000884204D101210846FEF75EFA03E00121A5
:105AA0000220FEF759FA6068FBF762FA3068001DC1
:105AB000019005F1300002901020039080010490C5
:105AC0000020099005908020069000200790089003
:105AD0004FF480500A9000200B9001A96068FBF7FA
