:020000040001F9
:10000000886B012029030100590301005B030100F3
:100010005D0301005F0301006103010000000000B7
:100020000000000000000000000000006303010069
:10003000650301000000000067030100690301007F
:100040005D3401007D3401009D340100BD340100A8
:10005000D53401000535010029350100393501008D
:100060004935010059350100693501007935010034
:100070008935010099350100A9350100B935010024
:10008000C9350100D9350100E9350100F935010014
:100090000936010019360100293601003936010000
:1000A00049360100593601006936010079360100F0
:1000B00089360100993601006B0301006B030100D2
:1000C0006B0301006B0301006B0301006B03010074
:1000D0006B0301006B0301006B0301006B03010064
:1000E0006B0301006B0301006B0301006B03010054
:1000F0006B0301006B0301006B0301006B03010044
:100100006B0301006B0301006B0301006B03010033
:100110006B0301006B0301006B0301006B03010023
:100120006B0301006B0301006B0301006B03010013
:100130006B0301006B0301006B0301006B03010003
:100140006B0301006B0301006B0301006B030100F3
:100150006B0301006B0301006B0301006B030100E3
:100160006B0301006B0301006B0301006B030100D3
:100170006B0301006B0301006B0301006B030100C3
:100180006B0301006B0301006B0301006B030100B3
:100190006B0301006B0301006B0301006B030100A3
:1001A0006B0301006B0301006B0301006B03010093
:1001B0006B0301006B0301006B0301006B03010083
:1001C0006B0301006B0301006B0301006B03010073
:1001D0006B0301006B0301006B0301006B03010063
:1001E0006B0301006B0301006B0301006B03010053
:1001F0006B0301006B0301006B0301006B03010043
:100200006B0301006B0301006B0301006B03010032
:100210006B0301006B0301006B0301006B03010022
:100220006B0301006B0301006B0301006B03010012
:100230006B0301006B0301006B0301006B03010002
:100240006B0301006B0301006B0301006B030100F2
:100250006B0301006B0301006B0301006B030100E2
:100260006B0301006B0301006B0301006B030100D2
:100270006B0301006B0301006B0301006B030100C2
:1002800000F002F800F041F80AA090E8000C824467
:100290008344AAF10107DA4501D100F036F8AFF244
:1002A000090EBAE80F0013F0010F18BFFB1A43F054
:1002B00001031847CCFF0000ECFF0000103A24BFF8
:1002C00078C878C1FAD8520724BF30C830C144BFBB
:1002D00004680C60704700000023002400250026FD
:1002E000103A28BF78C1FBD8520728BF30C148BF99
:1002F0000B607047642900F0DF80002070471FB555
:100300000EF09DFE1FBD10B510BD00F075FB11462F
:10031000FFF7F5FF0CF0D2FE00F093FB03B4FFF7FC
:10032000F2FF03BC00F096FB13484FF07701016029
:1003300012484FF07701016011484FF48851016075
:100340000D484FF0760101600C484FF076010160D6
:100350000C4880470C480047FEE7FEE7FEE7FEE753
:10036000FEE7FEE7FEE7FEE7FEE7FEE7074808498F
:10037000084A094B70470000040805400C08054076
:1003800000080540C9840100810201008863012042
:10039000886B0120886701208867012053EA020CDE
:1003A00000F069802DE9F04B4FF00006002B1FBFD5
:1003B000B3FA83F503FA05F424FA05F65E4012BF9A
:1003C0001643B2FA82F502FA05F4C5F120051EBF04
:1003D00022FA05FC44EA0C04203556EA044C4FEAA4
:1003E000144418BF641C4FF000084FF000099042FD
:1003F00071EB030C39D3002919BFB1FA81F701FA67
:1004000007F6B0FA80F700FA07F6C7F120071EBF1B
:1004100020FA07FC46EA0C062037B6FBF4FCA7EBF3
:100420000507103F07F01F0BCBF120060CFA0BFB62
:100430002CFA06F644BFB3460026202FA4BF5E4622
:100440004FF0000B5BEA060C08BF4FF0010B19EBF5
:100450000B09ABFB027C48EB0608C01B06FB02CC79
:100460000BFB03CC71EB0C01C1E70B460246414686
:100470004846BDE8F08B13B54FF000004FF0000187
:10048000AFF30080BDE81C40704700000FB41CB5FE
:10049000084B06AA7B4469460090059800F08FFA45
:1004A00004460020694600F09DFA20461CBC5DF819
:1004B00014FB00004D0500002DE9F0410646002424
:1004C00010687529314616A510D0AFF300800028BA
:1004D00002DA404213A507E031688A0701D512A568
:1004E00002E0490704D511A5012401E0AFF3008023
:1004F00000210A2206F1240709E0B0FBF2FCB0FB60
:10050000F2F302FB1C00303078541846491C0028D6
:10051000F3D123462A463046BDE8F04100F0F1B958
:10052000000000002D0000002B0000002000000053
:100530002DE9F05F894604464FF0000ADFF874B1F8
:10054000FB44C0F820A02046E1688847002874D00A
:10055000252806D0D4E901219047206A401C20625A
:10056000F1E700265F462046E168884720280546D7
:1005700007DB312D05D2781910F8200C08B106439D
:10058000F1E7B00701D526F00406C4F81CA0002747
:10059000C4F818A02A2D09D028460CF02DF838B33D
:1005A00004EB8708303DC8F8185019E059F8041BCF
:1005B000204604EB87029161E1688847012F0546D8
:1005C00018D1E069002820DA26F020061DE0D8F8CE
:1005D000180000EB800005EB40003038C8F8180028
:1005E0002046E168884705460CF006F80028EED161
:1005F000012F0AD02E2D08D12046E16888477F1CA4
:100600000546022F46F02006C4DBA069002803DA65
:10061000404246F00106A061F00701D026F0100626
:100620006C2D0BD0682D09D04C2D39D06A2D35D0CA
:10063000742D35D07A2D33D016E038E0E1682F469E
:1006400020468847B842054609D16C2F26D04FF482
:100650008060E168064320468847054604E06C2F29
:100660001AD04FF4807006430DB3A5F1410019284C
:1006700002D8203546F400664A46294620462660C0
:100680004E46FFF737FE80B101280BD0F61D26F04D
:10069000070000F1080956E74020E4E78020D8E78A
:1006A0000020D6E706F104094DE7284652E7206A04
:1006B000BDE8F09F3AFC000040EA010310B59B073B
:1006C0000FD1042A0DD310C808C9121F9C42F8D0BC
:1006D00020BA19BA884201D9012010BD4FF0FF306D
:1006E00010BD1AB1D30703D0521C07E0002010BD83
:1006F00010F8013B11F8014B1B1B07D110F8013B0F
:1007000011F8014B1B1B01D1921EF1D1184610BDEF
:1007100010B5431C02E010F8011B71B18107FAD13A
:100720004FF0013202C88C1A8C4314EAC211F9D07E
:10073000C01A0A0603D0C01E10BDC01A10BD0A049C
:1007400001D0801E10BD0902FCD0401E10BD032A3E
:1007500040F2308010F0030C00F0158011F8013BDE
:10076000BCF1020F624498BF11F801CB00F8013BC5
:1007700038BF11F8013BA2F1040298BF00F801CB89
:1007800038BF00F8013B11F0030300F02580083A60
:10079000C0F0088051F8043B083A51F804CBA0E8B7
:1007A0000810F5E7121D5CBF51F8043B40F8043B0C
:1007B000AFF30080D20724BF11F8013B11F801CB41
:1007C00048BF11F8012B24BF00F8013B00F801CB12
:1007D00048BF00F8012B704710B5203AC0F00B80DD
:1007E000B1E81850203AA0E81850B1E81850A0E835
:1007F0001850BFF4F5AF5FEA027C24BFB1E818508F
:10080000A0E8185044BF18C918C0BDE810405FEAFE
:10081000827C24BF51F8043B40F8043B08BF70477A
:10082000D20728BF31F8023B48BF11F8012B28BF7F
:1008300020F8023B48BF00F8012B704702F0FF038D
:1008400043EA032242EA024200F002B84FF00002FB
:100850000429C0F0128010F0030C00F01B80CCF1D2
:10086000040CBCF1020F18BF00F8012BA8BF20F840
:10087000022BA1EB0C0100F00DB85FEAC17C24BF94
:1008800000F8012B00F8012B48BF00F8012B70473E
:100890004FF0000200B5134694469646203922BF19
:1008A000A0E80C50A0E80C50B1F12001BFF4F7AF64
:1008B000090728BFA0E80C5048BF0CC05DF804EB46
:1008C000890028BF40F8042B08BF704748BF20F8B4
:1008D000022B11F0804F18BF00F8012B70477047B2
:1008E00070477047004870472463012010B5FFF738
:1008F000F9FF006810BD10B50446FFF7F3FF046070
:1009000010BD2DE9F0470D4699469246044600F188
:1009100024080168880604D5E06921F010012160EF
:1009200000E00120A84201DD471B00E00027A1698B
:100930007A1902EB0900081AA0612078C00602D4D7
:100940002046AFF30080002608E0D4E901211AF820
:1009500006009047206A401C761C20624E45F4DB5E
:100960002078C0060AD52046AFF3008006E0D4E91F
:10097000012130209047206A401C2062381EA7F1D8
:100980000107F4DC07E0D4E9012118F805009047DD
:10099000206A401C2062281EA5F10105F3DC2046D8
:1009A000AFF300802078000602D50220BDE8F08772
:1009B0000120FBE701694A1C02610878704700B515
:1009C0008FB0CDE901310021059105497944CDE988
:1009D000031011466846FFF7ABFD0FB000BD0000E5
:1009E000E5FFFFFF0A6802F8010B0A60704700008C
:1009F00000487047246301207546FFF7F9FFAE46B3
:100A000005006946534620F00700854618B020B51A
:100A1000FFF7ACFCBDE820404FF000064FF00007A8
:100A20004FF000084FF0000B21F00701AC46ACE896
:100A3000C009ACE8C009ACE8C009ACE8C0098D4603
:100A4000704710B50446AFF300802046BDE8104063
:100A5000FFF764BC01491820ABBEFEE72600020088
:100A6000704700002DE9F04102460B460420002AA1
:100A70004CD0002B4AD01F79012F47DC244FBA42BB
:100A80001AD11F68C7F310011F7957B997891FFA48
:100A900081FC47EA0C079781D78947EA1147D7813C
:100AA0001CE0178A1FFA81FC47EA0C071782578A55
:100AB00047EA1147578211E01F88C7F308011F79E1
:100AC00037B997891FFA81FC47EA0C07978105E03F
:100AD000178A1FFA81FC47EA0C07178200240025B9
:100AE00002F120060FE001F001074FB12F4605F19A
:100AF000010C0CF0FF05D3F8088018F80770375583
:100B00004908671CFCB20029EDD10020BDE8F08146
:100B10000000044030B5024604209AB10A4DAA42B2
:100B200002D1C1F3100101E0C1F308018BB20C0C3A
:100B3000958A1D439582044DAA4202D1D58A254348
:100B4000D582002030BD0000000004400246042091
:100B500022B1538861F30A235380002070470000BC
:100B60002DE9F04104460D46042004F1500C3CB33D
:100B700032B32BB3DFF84C80444502D1C5F31001EA
:100B800001E0C5F308010026002715E001F0010887
:100B9000B8F1000F0BD03CF8168022F8178007F14F
:100BA000010808F0FF07A3F1010808F0FF03490856
:100BB00006F1010808F0FF0609B1002BE6D100207C
:100BC000BDE8F0810000044010B502460420FAB1EF
:100BD000F1B1002313700C78538864F3051353802C
:100BE0004C78538864F3C71353808C78538864F32C
:100BF00086135380CC78538864F3010353800C79B7
:100C0000938864F382039380002382F847300020A6
:100C100010BD00002DE9F84F04460E4615469846D3
:100C20004FF0040A4FF000090027BB460020009057
:100C3000002C47D0002E45D0002D43D023488442BD
:100C400009D1112D02D34FF011090BE0E7893F04C0
:100C5000A089074306E0092D02D34FF0090901E0FE
:100C60001A48878901202070194800680A21B0FBC2
:100C7000F1F04FF47A71B0FBF1F000FB08FB0020BB
:100C800000904FF0090A19E01248006898B1B9F1D4
:100C9000000F05D04A463146204600F01DF805E019
:100CA0002B46324639462046FFF75AFF00200949B5
:100CB0000860824605E00098401C00900098584566
:100CC000E2D300BF5046BDE8F88F000000000440AA
:100CD0000480FF1FC008804230B5034603F1500472
:100CE000002005E034F8105021F81050451CE8B2FF
:100CF0009042F7DB30BD000000B589B020A000684D
:100D0000019000BF00200790089000BF00BF049032
:100D10000590069000BF00BF0290039000BF00F056
:100D2000EFFB0121084605F0EFF900208DF81C00CB
:100D30008DF81D008DF81E008DF81F0007A91148C1
:100D4000FFF742FF01210F48FFF700FF02208DF857
:100D5000080002AAC021002005F0CAF80A48049041
:100D600000208DF8140001A8069004A90548FFF79B
:100D700079FE05490348FFF7CDFE09B000BD00002C
:100D80000500000000000440C000010010B504464A
:100D9000A078C0F3800018B9A07800F00100D0B1AD
:100DA00002200AF061FB0C49886B80470022114643
:100DB0000A4804F00AFD05F027FF00BF642001F097
:100DC000DDF805F021FF00221146044804F0FDFC87
:100DD00002F0AAFCF2E710BD2481FF1FB481FF1FBF
:100DE00010B5044605F018FF05F0EEFEA07820F0DF
:100DF0000400A07000202080A07820F00100A070E6
:100E000010BD38B5044603F0A2FEC0B200909DF8B4
:100E1000000001280CD12088401C20802088142844
:100E200005DDA07820F00400001DA07006E005E0BC
:100E300000202080A07820F00400A07038BD0000C1
:100E40002DE9F04705460E461446002700212846A6
:100E500007F03FFF80460121284607F03AFF814610
:100E6000012C07D1B8F1010F02D0B9F1010F08D15F
:100E7000012706E03146284607F02BFF012800D164
:100E80000127012F0BD1002001E000BF401C0549C4
:100E9000096842F21072B1FBF2F18142F5D8BDE867
:100EA000F08700000480FF1F10B5FFF725FF10BD7D
:100EB00010B50C4800780F2190FBF1F201FB1200F5
:100EC00000EB4000084901EB4004052303222146C2
:100ED0000648FFF79FFE03480078401C0149087050
:100EE00010BD00000380FF1F505E01200000044081
:100EF00010B500F005F80446012101F092FB10BD89
:100F00000149C88970470000BCAFFF1F10B5074CEE
:100F1000FFF7CAFF14212046FFF7BAFC4FF4FA602E
:100F200000F046F847F23050606010BDBCAFFF1FC4
:100F300070B51E4C01F080FC05466420B5FBF0F155
:100F400000FB115008B9FFF7B3FF207800F0010053
:100F500090B9B5F5FA6F0ED941F2883085420AD2C0
:100F600000F050F8E081FFF7C3FF2074206820F004
:100F70000100401C206070BDA068A84213D2A06888
:100F8000281A616888420ED3A56000F03BF8064637
:100F9000E089C00000EB46060A20B6FBF0F6E681C9
:100FA000FFF7A6FF207400BFE5E70000BCAFFF1FFE
:100FB0000149888170470000BCAFFF1F70B588B041
:100FC00005460026002409E004EB44000C4901EB2F
:100FD000400030F815002DF81400641C0F2CF3D3DA
:100FE0000F21684600F03EF90B2101A805F009FD2C
:100FF00006460B20B6FBF0F080B208B070BD0000D2
:10100000505E01202DE9F0412DED048B104F0020A2
:10101000FFF7D4FF05460120FFF7D0FF0646B98948
:1010200001FB06F00DF0C3FC41EC190B9FED090B21
:1010300053EC102B0DF0D2FC41EC180B0DF08AFC98
:101040000446B4FBF5F4A0B2BDEC048BBDE8F0811E
:10105000BCAFFF1F00000000000004404A880244AB
:101060004A8070471CB500231A464FF40041012006
:1010700004F0CCFF00BF00200090019000BF0120D1
:101080008DF8000000208DF8060002208DF8050084
:1010900000208DF802008DF804006A464FF40041EC
:1010A000012004F025FF1CBD10B54FF400410120C4
:1010B00004F090FF10BD10B54FF40041012004F082
:1010C00097FF10BD10B54FF40041012004F0CAFF96
:1010D00010BD000010B586B00446084B0FCBCDE91B
:1010E0000423CDE9020106480121CDE9001002A840
:1010F0000FC800F010F806B010BD0000E4F00100C9
:101100009C81FF1F0FB49DF8000000F0010080F0EB
:10111000010004B070477FB5DDE90854182120466E
:10112000FFF7B6FB0098A0600199E1600299216188
:10113000039961610DB1012000E00020217860F386
:1011400041012170204600F03CF8A06808B1A06879
:101150008047206908B1206980477FBD7CB504467F
:101160000D46164635B92078C0F3400010B9E06846
:10117000804719E0012D17D1D4E90401CDE9000120
:1011800094E80F00FFF7BEFF012806D12146304644
:1011900000F015F80020A08003E021463046FFF75C
:1011A0005DFF204600F001F87CBD10B504462078B4
:1011B00020F00100401C2070E068804710BD48808E
:1011C000704710B50446207820F001002070206997
:1011D000804710BD1CB50446D4E90401CDE90001E7
:1011E00094E80F00FFF78EFF012800D11CBDA088F6
:1011F000618888420CDC2078C0F3400010B160693F
:10120000804701E0E0688047A088401CA08004E09F
:101210002046FFF7D6FF2069804700BFE6E70000C1
:1012200010B504F081FF0B4805F088FF0A4806F06E
:10123000C7FE0A48FFF74EFF094804F08BFA0AF090
:1012400073F804F034F90BF035FF044604F08AFB20
:1012500010BD00002481FF1F6081FF1F9C81FF1FC4
:10126000B481FF1F70B50246012319E0012012E08E
:1012700032F81060451C32F81550AE4209DA32F8E7
:101280001040451C32F8155022F81050451C22F829
:101290001540451CA8B2CD1A8542E9DA5D1CABB2F7
:1012A0004D1E9D42E2DA70BD014631B101290DD0DB
:1012B000022914D0032924D11AE0184A127802F026
:1012C000010282F0010282F0010024E0134A127848
:1012D000C2F3C00282F0010282F001001BE00F4A5B
:1012E0001278C2F3401282F0010282F0010012E093
:1012F0000A4A1278C2F3801282F0010282F00100E1
:1013000009E0064A521D127802F0010282F0010241
:1013100082F0010000BF00BF704700003C40054064
:1013200038B504460020009000252A4800884AF27B
:10133000015108432849A1F8FE0344BB2648263042
:10134000007800F0070008B9012536E0234800685E
:10135000C0F3C01088B120482A30007800F00100A6
:1013600008B9012529E01C483630007820F001003A
:10137000401C194981F836001FE0174836300078C4
:1013800020F00100401C144981F8360015E0124895
:101390003630007820F001000F4981F8360000BF98
:1013A0000020FFF781FF03460098401C0090009842
:1013B000B0F5805F01D2012BF2D1064800884FF6CC
:1013C000FE71084040F425400349A1F8FE03284679
:1013D00038BD0000FE430540004005400041054087
:1013E00038B504460020009000251F4800884AF2C6
:1013F000015108431D49A1F8FE0394B91B4826304A
:10140000007800F00700052801D101251FE01748EA
:101410002A30007820F00100401C144981F82A008D
:1014200015E012482A30007820F001000F4981F8B9
:101430002A0000BF0220FFF737FF03460098401C38
:1014400000900098B0F5805F01D2012BF2D10648E0
:1014500000884FF6FE71084040F425400349A1F88A
:10146000FE03284638BD0000FE430540004005400D
:1014700000283ED01F4909884AF2015211431D4AF3
:1014800011800178491E1C4AD2F8002161F31F72B5
:101490001A490A600179491E174AD2F8002161F3FE
:1014A0001B6216490A60017A491E134AD2F80021CC
:1014B00061F3175211490A608189491E0E4AD2F818
:1014C000002161F310220D490A60017C491E0A4A7D
:1014D000D2F8002161F304020749C1F80021B1F8F4
:1014E000FE134FF6FE72114041F42541024AA2F864
:1014F000FE137047FE430540004005400041054093
:101500000B4909884AF2025211430A4AA2F8FE1313
:101510001146098A60F303011182054909884FF6D3
:10152000FD72114041F42541024AA2F8FE137047B2
:10153000FE430540004005400D4909884AF201522A
:1015400011430C4AA2F8FE131146D1F8001160F3C2
:10155000C711C2F800111146B1F8FE134FF6FE7222
:10156000114041F42541034AA2F8FE1370470000E0
:10157000FE4305400040054010B586B004460020FB
:1015800005902E48006804902C48406803902B4832
:10159000806802902948C06801902948007800F0CE
:1015A0000700052801D0052C0DD1264823490860E5
:1015B000C01248608860C86000BF0598401C059054
:1015C0000598B028F9D3204800884AF20151084311
:1015D0001B492639A1F8FE03084690F8260064F35B
:1015E000020081F826000846B0F8FE034FF6FE71AF
:1015F000084040F4254012492639A1F8FE03002096
:10160000059000BF0598401C05900598B028F9D3B7
:101610000A49049808600398486002988860019815
:10162000C8600020059000BF0598401C05900598F3
:10163000B028F9D306F0E6FE06B010BD00800440E5
:1016400026400540EEFAFFFFFE43054085B000212D
:10165000049134490968039132494968029131493A
:10166000896801912F49C9680091002858D02E49F6
:10167000097801F0070105290DD12C49294A11608B
:10168000C91251609160D16000BF0499491C049156
:101690000499B029F9D3264909884AF20152114325
:1016A000234A11808178C27841EA0211027941EA25
:1016B0000221427941EA0231827941EA02414278CB
:1016C00041EA0251027841EA026141EA0271164A96
:1016D000263A1162164909884FF6FE72114041F40C
:1016E0002541114A263AA2F8FE130021049100BFB9
:1016F0000499491C04910499B029F9D3094A039922
:10170000116002995160019991600099D1600021A6
:10171000049100BF0499491C04910499B029F9D39C
:1017200005B070470080044026400540EEFAFFFFF8
:10173000FE43054010B50821034807F0B5FE00211F
:10174000014807F025FF10BD0058014010B548F2D0
:10175000E44008F043F910BD10B50121014807F03D
:1017600017FF10BD0058014010B50021014808F0D6
:1017700009F810BD0058014010B50821034807F0D2
:1017800093FE0021014807F003FF10BD0054014003
:1017900010B540F22A2008F0E7F810BD10B501217D
:1017A000014807F0F5FE10BD005401402DE9F0415D
:1017B00004460D4616460027A582A18A00200CF09B
:1017C000BFFD2061266003F0A0FDA0601420A08171
:1017D000206918B1A06808B1012000E00020074688
:1017E0003846BDE8F0812DE9F04106460F46144623
:1017F0000025F82100200CF0A3FD05461FB115B10E
:10180000E62C00DC0CB9BDE8F0812246394605F132
:101810001200FEF79CFF2C822946B06803F052FDAF
:1018200000BFF0E710B501F09DFF06F05BFC002063
:101830000CF07CFD00F092FB114801F0F0FB114828
:1018400000F096FD01F0D6FA06F0A2FC09F0B6F918
:1018500001F0C0FA044609F037FA01F0B5FA04467F
:1018600009F02AFA01F0A0FA044609F01DFA01F085
:1018700095FAC4B2204609F00FFA06F02FFB10BD0E
:10188000405E01203860012073B586B00546BDF882
:101890001C60002400222146641C01A84254A0229E
:1018A0002146641C425403222146641C42542146B2
:1018B000641C4554204407990160241D214601A859
:1018C00000F0EAFF08B070BD70B586B005460E4660
:1018D000002400222146641C01A84254052221460E
:1018E000641C425402222146641C42545A2221465E
:1018F000641C425406222146641C42543022214674
:10190000641C42540EB1012200E000222046611CFA
:10191000CCB201A90A542046611CCCB201A90D54D5
:10192000AA222046611CCCB201A90A54214601A872
:1019300000F0B2FF06B070BD10B500BF00F15C034F
:1019400003EB81131B6823F003031478234300F196
:101950005C0404EB8114236000BF00BF00F15C0352
:1019600003EB81131B6823F00C03547843EA8404CF
:1019700000F15C0303EB81131C6000BF00BF00F1AA
:101980005C0303EB81131B6823F01003947843EA94
:10199000041400F15C0303EB81131C6000BF00BF63
:1019A00000F15C0303EB81131B6823F02003D47860
:1019B00043EA441400F15C0303EB81131C6000BF95
:1019C00000BF00F15C0303EB81131B6823F04003AD
:1019D000147943EA841400F15C0303EB81131C6067
:1019E00000BF00BF00F15C0303EB81131B6823F011
:1019F0008003547943EAC41400F15C0303EB8113C0
:101A00001C6000BF00BF00F15C0303EB81131B6887
:101A100023F44073947943EA042400F15C0303EB5C
:101A200081131C6000BF00BF00F15C0303EB811356
:101A30001B6823F48063D47943EA842400F15C03B7
:101A400003EB81131C6000BF00BF00F15C0303EBDC
:101A500081131B6823F40063147A43EAC42400F161
:101A60005C0303EB81131C6000BF00BF00F15C034B
:101A700003EB81131B6823F48053547A43EA043444
:101A800000F15C0303EB81131C6000BF10BD00007C
:101A9000F0B5034615460022002601205C4F387041
:101AA000D86901278F4020EA0706002E7DD0D8692B
:101AB00000F00100D8B1D1B1986C040C986E0A27DF
:101AC000B7EB104F13D3986EB4EB104F0FD909E05A
:101AD000501C82B2B2F5A04F04D900204C4F387090
:101AE0000920F0BDD86900F001000028F0D1D869C4
:101AF00000F00200022820D101291ED0D3F888006E
:101B0000040CD3F8A8000A27B7EB104F15D3D3F86D
:101B1000A800B4EB104F10D9002209E0501C82B28B
:101B2000B2F5A04F04D90020394F38700920D8E70A
:101B3000D86900F002000028F0D1D86900F0040054
:101B4000042820D102291ED00022D3F8C800040C9A
:101B5000D3F8E8000A27B7EB104F14D3D3F8E80006
:101B6000B4EB104F0FD909E0501C82B2B2F5A04F70
:101B700004D90020264F38700920B2E7D86900F058
:101B800004000028F0D1D86900F00800082822D10C
:101B9000032920D00022D3F80801040CD3F828012F
:101BA0000A27B7EB104F16D300E014E0D3F8280152
:101BB000B4EB104F0FD909E0501C82B2B2F5A04F20
:101BC00004D90020124F387009208AE7D86900F044
:101BD00008000028F0D14DB1012D12D1D86901279C
:101BE0008F4007F00F073843D8610AE0D869012712
:101BF0008F404FF00F0C2CEA070C00EA0C00D86164
:101C000000BF00BF0020024F387000BF69E700002E
:101C10000880FF1F70B50346002039B1012905D0A7
:101C2000022903D0032901D0042026E032B1012A81
:101C30000AD0022A10D0032A1CD113E05C690125C6
:101C40008D402C435C6117E05C6901F110050126B1
:101C5000AE4034435C610FE09C6901258D402C430C
:101C60009C6109E09C6901F110050126AE403443F6
:101C70009C6101E0042000BF00BF70BD026861F3F9
:101C800000020260704770B50346002039B1012997
:101C900005D0022903D0032901D0042026E032B167
:101CA000012A0AD0022A10D0032A1CD113E0DC68D2
:101CB00001258D40AC43DC6017E0DC6801F11005C4
:101CC0000126AE40B443DC600FE01C6901258D4065
:101CD000AC431C6109E01C6901F110050126AE400E
:101CE000B4431C6101E0042000BF00BF70BD0000D0
:101CF00070B505460C46164601212846FFF7BEFF83
:101D000005F15C0000EB8410006820F4805105F1BF
:101D10005C0000EB8410016005F1400000EB8410D2
:101D20007168016005F1440000EB8410B168016046
:101D300000BF05F1480000EB841000686FF3090054
:101D40003188084305F1480101EB8411086000BFA8
:101D500000BF718805F1480000EB8410006861F352
:101D60001F4005F1480101EB8411086000BF00BF6E
:101D700005F14C0000EB841000686FF30900B18995
:101D8000084305F14C0101EB8411086000BF00BF5E
:101D900005F14C0000EB841000682B490840F189E4
:101DA00040EA014105F14C0000EB8410016000BFE6
:101DB00000BF05F1500000EB841000686FF31300C2
:101DC0007169084305F1500101EB8411086000BFFF
:101DD00000BF318B05F1500000EB8410006861F307
:101DE0001F5005F1500101EB8411086000BF00BFD6
:101DF00005F1540000EB841000686FF31300F169E3
:101E0000084305F1540101EB8411086000BF00BFD5
:101E1000318C05F1540000EB8410006861F31F5011
:101E200005F1540101EB8411086000BF05F1580071
:101E300000EB84103169016006F124022146284636
:101E4000FFF77AFD70BD0000FFFF00FC30B50346D0
:101E50000024002003F1440505EB81152A600BE006
:101E6000651CACB2B4F5805F01D9092004E003F130
:101E7000440505EB81152A6003F1640505EB811526
:101E80002D689542ECD130BD30B5034600240020CA
:101E900003F1400505EB81152A600BE0651CACB22F
:101EA000B4F5805F01D9092004E003F1400505EB9A
:101EB00081152A6003F1600505EB81152D689542B7
:101EC000ECD130BD70B503460024002000BF03F103
:101ED000480505EB81152D6862F31F4503F148069F
:101EE00006EB8116356000BF14E0651CACB2B4F59A
:101EF000805F01D909200DE000BF03F1480505EB23
:101F000081152D6862F31F4503F1480606EB811623
:101F1000356000BF03F1680505EB81152D68B2EB54
:101F2000154FE2D170BD000010B5094B984205D1A4
:101F3000084C04EB8103C3F8142807E0064B9842D1
:101F400004D1044C04EB8103C3F8242810BD000025
:101F5000003005400000014000340540064800689C
:101F60004FF47A71B0FBF1F04FF0E02148610020AE
:101F700088610520086170470480FF1FF0B50346A3
:101F800000224FF0E02675690F4E36684FF47A77DD
:101F9000B6FBF7F606FB03F44FF0E026B16910E05C
:101FA0004FF0E026B06988420BD0884202D20E1A68
:101FB000324402E02E1A0E4432440146A24200D3BB
:101FC00000E0EDE700BFF0BD0480FF1F70B58AB0F0
:101FD0000446202102A8FEF75BFC2078C0F34000F5
:101FE00008B90AB070BD2078C0F3801010B126483F
:101FF000808901E0254880890546606AA8422BD384
:10200000002610E004F128039A192378C3F3801006
:102010002B46216900F09EFA206928442061606AFD
:10202000401B60622E44606AA842EBD2606A28B10D
:1020300004F128008119626AFEF789FB1E200190D5
:1020400001AA02A9FF2004F05FFB012804D1BDF81A
:10205000041002A8626890472078C0F3800080B125
:102060002278C2F3801004F12802636A216900F02B
:1020700071FA20692844206100206062204605F042
:10208000CBFF00BFADE7000038600120405E0120BB
:1020900001490860704700001404014003490968C1
:1020A00060F30001014A1160704700000C04014018
:1020B000012801D0012200E000220349096862F3EF
:1020C0000001014A116070470404014001460448C0
:1020D0000068084008B1012070470020FCE70000BC
:1020E0001004014004480068012804D143F2102084
:1020F00001490860086070470004014070B503465C
:10210000002400263F20FFF7C3FF18480068C0F3F3
:1021100000451648006820F480301449086001200A
:10212000FFF7BCFF042000F025F81148186005E017
:10213000601C84B2B4F5805F00D909260B480830D2
:102140000068C0F300200028F2D01020FFF7A0FFA5
:10215000002000F00FF80020FFF7A0FF0348006800
:1021600065F3104001490860304670BD0804014025
:10217000785634120349096860F30611014A116068
:10218000704700000C0401400349096860F307111F
:10219000014A11607047000008040140F0B5034691
:1021A0000C46002600253F20FFF772FF1948006803
:1021B000C0F300471748006820F4803015490860D4
:1021C0000120FFF76BFF0120FFF7D4FF1C6005E043
:1021D000681C85B2B5F5805F00D909260D48083026
:1021E0000068C0F300200028F2D01868A04200D098
:1021F00001261020FFF74CFF0020FFF7BBFF002057
:10220000FFF74CFF0348006867F31040014908607E
:102210003046F0BD0804014040F223100249086036
:1022200043F21020086070470004014010B50246D8
:1022300010780A4B042414FB00315378086863F3C8
:10224000C71008609378086863F305100860D378B6
:10225000086863F301000860002010BD10100540FD
:1022600001460448806D01228A401043014A90656E
:1022700000207047001005400146064A526D0123B8
:102280008B401A400AB9012200E0002282F00100CE
:10229000704700000010054001460020A1F50542EE
:1022A000153A5AB1A2F5D242FF3A22B1022A08D019
:1022B000032A0CD108E04FF400600AE04FF480508C
:1022C00007E04FF4005004E04FF4804001E00020AC
:1022D00000BF00BF70470146A1F50542153A4AB15B
:1022E000A2F5D242FF3A22B1022A04D0032A06D133
:1022F00002E000BF00BF00BF4FF4807001E000208B
:1023000000BF00BF70472DE9F047054688461446D8
:1023100000272868404504D808EB04006968884213
:1023200002D30020BDE8F087A88908B90020F9E7AA
:10233000214600200CF004F807460FB90020F1E711
:102340004FF0000923463A464146284600F034F84B
:10235000A04206D1002602E0B85D8144761CA64268
:10236000FAD3394600200BF0CFFF4846DAE70000E9
:1023700010B504460F4808F0EDFE002020606060B4
:10238000A060E0600B48B0F81E01E081E089FFF733
:10239000A2FFA081E089FFF77FFFA0604FF07040AF
:1023A000206060604FF48062D4E9010102FB01000B
:1023B000606010BD085F01202DE9FE4304460D4614
:1023C00017461E464FF000082068A84202D86068F1
:1023D000A84202D20020BDE8FE83A08908B90020EF
:1023E000F9E711E0A0892168691ACDE9007102902E
:1023F0000E480FC808F0DEFEA089361AA0890544F1
:10240000A0890744A0898044A089B6FBF0F0002889
:10241000E8D146B1B0B2CDE90075029003480FC8CB
:1024200008F0C8FEB0444046D5E70000085F012030
:102430002DE9FF4F85B005460E469B46AC894FF00F
:102440000009DA46BAF1000F00D01CB9002009B02B
:10245000BDE8F08F2868B0425DD806EB0A006968D5
:10246000884258D2214600200BF06AFF8146B9F11C
:10247000000F01D10020EAE72868361AB6FBF4F80D
:1024800008FB04F8B6FBF4F004FB106080B2049083
:102490000498201A80B2039035E0286800EB080108
:1024A00023464A462846FFF787FF002706E007989D
:1024B000C15D0498384409F800107F1C039850450A
:1024C00001D2039800E05046B842F0D8AAEB070AC0
:1024D0000798384407901148CDF800800FC808F0DD
:1024E0000EFE0E48CDE9009802940FC808F0C7FE12
:1024F000A044BAF1000F00D106E000200490049837
:10250000201A80B20390C8E700BF494600200BF0B4
:10251000FBFE58469BE7002099E70000085F01207A
:102520002DE9F04105460E46174635B13A4631468B
:102530000648FFF7E8FE044605E03A4631460448FF
:1025400000F058FD04462046BDE8F08138600120C7
:10255000405E01202DE9F04104460D4616461F4617
:1025600034B13B46324629460548FFF761FF05E096
:102570003B4632462946034800F076FDBDE8F0812F
:1025800038600120405E01201CB500231A464FF43C
:102590000041012003F03AFD00BF002000900190AF
:1025A00000BF8DF800008DF804006A464FF400412A
:1025B000012003F09DFC00231A464FF480410120C6
:1025C00003F024FD01208DF8000000208DF80600A6
:1025D00002208DF8050000208DF802008DF804001F
:1025E0006A464FF48041012003F082FC1CBD10B507
:1025F0004FF40041012003F06BFC0446012C00D194
:1026000010BD0020FCE710B54FF48041012003F01D
:10261000E1FC10BD10B54FF48041012003F0E8FC4F
:1026200010BD0246642001EB81239B00934200DC35
:1026300069E040F678734B43934201DC5A2062E034
:1026400040F614734B43934201DC50205BE040F6AC
:10265000C4634B43934201DC462054E040F674636C
:102660004B43934201DC3C204DE040F656634B4324
:10267000934201DC322046E040F624634B43934210
:1026800001DC28203FE040F606634B43934201DC27
:102690001E2038E040F6B6534B43934201DC142031
:1026A00031E040F698534B43934201DC0F202AE07F
:1026B00040F6E4434B43934201DC0A2023E040F61A
:1026C000B2434B43934201DC05201CE040F64E43ED
:1026D0004B43934201DC042015E040F61C434B437E
:1026E000934201DC03200EE040F686334B439342D5
:1026F00001DC022007E040F654334B43934201DCF7
:10270000012000E0002070470246012310481044D9
:1027100048B1B0F5806F0AD0B0F5804F0BD0B0F55E
:10272000884F10D10BE009B1002008700DE009B10D
:102730000120087009E009B10220087005E009B124
:102740000320087001E0002300BF00BF0120704794
:102750000030FEBF0020704710B5002402F0BEFA22
:10276000806908B9022000E00020044309F056F80F
:10277000806908B9042000E00020044304F04AFC0A
:10278000806908B9102000E000200443204610BDF5
:1027900070B5002400F0BAF805462879C0F340006F
:1027A00008B9102000E000200443204670BD70B539
:1027B00000240AF07FFC0546287908B9012000E0D2
:1027C00000200443204670BD0020704710B502462B
:1027D000002002E013781844521C0B1EA1F10101E5
:1027E000F8D110BD014642F229400844407842F237
:1027F00029420A44927840EA02207047012070473B
:1028000070B506460C4604B970BDA078617840EA00
:102810000125A5F57E40083828B90822211D30463B
:1028200001F03DF905E00822211D304601F086FF48
:1028300000BF00BF00BFE7E70548808804498968FA
:1028400001EB4102C2EBC11100EBC1007047000077
:10285000C4B0FF1F10B50821034806F025FE002173
:10286000014806F095FE10BD0050014010B548F239
:10287000886007F03FF810BD10B50121014806F04F
:1028800087FE10BD0050014010B50021014806F040
:1028900079FF10BD00500140F8B505460E460821ED
:1028A000FE2005F080FA044654B1207800F00100C3
:1028B00030B12B460822211D0120009601F00DFFAA
:1028C000F8BD000000487047CC6201200FB410B57D
:1028D000FFF7F8FF044620212046FDF7D9FF0298B4
:1028E000606005992161069961610399A16004996D
:1028F000E160606808B16068804710BC5DF814FB57
:1029000000B5FFF7DFFF0146002000BD004870471B
:1029100034B0FF1F10B58AB0FFF7F8FF0446282136
:102920002046FDF7B5FF1C22134903A8FDF754FF0D
:1029300007A807C88DE8070003A80FC8FFF7C6FF60
:10294000FFF7C0FF206064224FF4007104F108001B
:1029500004F03BFC616860F300016160282104F130
:10296000080004F036FD4FF47A720121204600F091
:1029700003F90AB010BD0000F8F201002DE9FC4196
:10298000FFF7C4FF064606F10804A08AE18A401A50
:1029900080B2019000200090FFF74EFF07464FF0F5
:1029A0000008307900F0010008B9BDE8FC816068DA
:1029B000B84216D26068381A2168884211D367601D
:1029C000FFF79EFF68B9204604F005FD8046B8F188
:1029D000000F06D0B8F810103068C26808F1120075
:1029E0009047E38A2169C81831688A6801A990472D
:1029F000012838D1E08ABDF804100844E08200259F
:102A00002DE0E08A401B80B20190216948196A4696
:102A100001A903F061FF01281AD1A76100980128DC
:102A20000AD1E38A5A1B236959191846FDF78FFE0C
:102A3000E08A401BE08215E0216948193246BDF862
:102A4000041000F017F8BDF80400284485B201E036
:102A5000681C85B2E08AA84201D10020E082E08AA9
:102A6000A842CEDC00BF00BF9FE7000000487047CF
:102A70003CB0FF1F2DE9F04104460F46164635468F
:102A80006078BE280CD1686820F00200801C686065
:102A9000A278637842EA0321286904F068FC00E028
:102AA00000BF00BFBDE8F08110B590B0242107A899
:102AB000FDF7EEFE0B4C24220B4907A8FDF78CFE18
:102AC0004FF4E130089014220BA968460594FDF7F5
:102AD00083FE07A80FC807F0F3FA204607F0FBFAB9
:102AE00010B010BD04B1FF1F68F2010070B50646BA
:102AF0000D461A4C94F8400800F0010058B3B4F8A1
:102B00002C0838B994F8400820F0010084F84008F7
:102B1000002070BD2888B4F82C1888420ADBB4F86D
:102B20002C2804F22C413046FDF711FEB4F82C0895
:102B3000288005E02A8804F22C413046FDF707FE84
:102B40000020A4F82C0894F8400820F0010084F834
:102B500040080120DDE70020DBE7000004B1FF1F93
:102B600070B504460D462A462146024807F00CFF80
:102B700070BD000004B1FF1F2DE9F04106460F466D
:102B800090460024F82100200BF0DAFB04460CB933
:102B9000BDE8F081F8212046FDF77AFE0020208272
:102BA000AA21228A501C208204F112008154BE21E5
:102BB000228A501C208204F1120081540021228AB2
:102BC000501C208204F1120081540221401C04F0A8
:102BD000D9FA85B2290A228A501C208204F11200F7
:102BE0008154228A501C208204F112008554E42171
:102BF000228A501C208204F1120081541B21228A57
:102C0000501C208204F1120081541121228A501C90
:102C1000208204F112008154EE21228A501C20826D
:102C200004F112008154217DE07C41EA0020206003
:102C30006760C4F80C802146306904F00EFB00BFC9
:102C4000A6E72DE9F05F8046894617461D46DDE977
:102C50000AAB0024642D01DDBDE8F09FF8210020BF
:102C60000BF06EFB044604B9F6E7F8212046FDF7A9
:102C70000FFE00202082AA21228A501C208204F10B
:102C800012008154C021228A501C208204F11200BB
:102C90008154218A481C208204F1120000F801901E
:102CA00087B1228A014650182A463946FDF74FFD62
:102CB000A91C04F1130004F065FA86B2208A2844A6
:102CC000208205E0022104F1130004F05BFA86B2D1
:102CD000310A228A501C208204F112008154228A77
:102CE000501C208204F112008654E421228A501CD8
:102CF000208204F1120081541B21228A501C208260
:102D000004F1120081541121228A501C208204F106
:102D100012008154EE21228A501C208204F11200FC
:102D20008154217DE07C41EA00202060C4F804A0A9
:102D3000C4F80CB02146D8F8100004F08EFA00BF99
:102D40008AE7000030B58FB00446342102A8FDF7B1
:102D50009FFD0020042306220AA1009002A8FDF78F
:102D600095FB02A8FDF7D4FC85B24FF47A700121DF
:102D70002B4602AACDE9001006212046FFF761FF8D
:102D80000FB030BD5625642E25642E25640000004A
:102D90000148007B704700006080FF1F0148808869
:102DA000704700006080FF1F014880787047000076
:102DB0006080FF1F004870476680FF1F0148408900
:102DC000704700006080FF1F014840787047000096
:102DD0006080FF1F01480078704700006080FF1F7F
:102DE000004870476F80FF1F0148407B704700001C
:102DF0006080FF1F00B589B01648006800F50040EC
:102E0000144A92898118202301AA124800F01FF960
:102E10001C2101A8FFF7DAFC0899884213D001A809
:102E200000F05CF81C2101A8FFF7D0FC08900948CD
:102E3000006800F50040074A92898118202301AA02
:102E4000044800F011F91C2201A90348FDF7C4FC55
:102E500009B000BD405E01206080FF1F10B5044630
:102E6000FF2C05D010480078A04201D0002010BDF2
:102E7000FF2905D00C484078A04201D00020F6E799
:102E8000FF2A05D008488078A04201D00020EEE754
:102E90004FF6FF70834205D003488088A04201D0DE
:102EA0000020E4E70120E2E76080FF1F10B51C214D
:102EB0000848FFF78BFC0749C8610748006800F520
:102EC0000040054A928981182023024A024800F0F6
:102ED000CBF810BD6080FF1F405E012010B5044696
:102EE00004B910BD20212046FDF7D2FCFF20A070C0
:102EF0003020207001206070FF20A0704FF6FF701E
:102F0000A080C020A071A821E171062121722A2190
:102F1000617240F6A170608101202073022060730D
:102F20000F20A073FF20E073FF2121746174A1744E
:102F3000E17421756175A17500BFD2E7022801DA3D
:102F400001490873704700006080FF1F01498880B5
:102F5000704700006080FF1F0149887070470000C3
:102F60006080FF1F28B1042903DB024A0368C2F80E
:102F7000063070476080FF1F01494881704700009C
:102F80006080FF1F01494870704700006080FF1F8C
:102F900001490870704700006080FF1F002801DDB4
:102FA000102801DBFF2801D1014988737047000018
:102FB0006080FF1F0CB509A30CCBCDE9002338B10D
:102FC000082905DB074A036813604368536004E07F
:102FD000044A009B1360019B53600CBDFFFFFFFF81
:102FE000FFFFFFFF6F80FF1F4FF4007070474FF42B
:102FF0000050704730B503461868884203D88818D7
:103000005D68A84201D3002030BD002403E00878A9
:103010000444521E491C002AF9D12046F4E700B5A9
:1030200002460020106050609060D060FFF7DFFF24
:103030009081FFF7D9FF90600020106050604FF43E
:103040008063D2E9010103FB0100506000BD30B58F
:1030500005461446002203E00878A054491C521C7F
:103060009A42F9D3184630BD2DE9FF4F83B006468A
:103070000F469B46B5894FF00009DA46BAF1000FBA
:1030800003D1002007B0BDE8F08F3068B84270D897
:1030900007EB0A00716888426BD2294600200BF0CA
:1030A0004FF98146B9F1000F01D10020EAE7FFF79F
:1030B000B3F80120FEF7FCFF00BF4FF48070FFF76C
:1030C00005F80128F9D130683F1AB7FBF5F808FB7D
:1030D00005F8B7FBF5F005FB107080B2029002987E
:1030E000281A80B2019039E0306800EB08012B46C5
:1030F0004A463046FFF7ABFF002406E00598015D25
:103100000298204409F80010641C0198504501D22F
:10311000019800E05046A042F0D8AAEB040A0598B6
:1031200020440590316801EB0800FEF7E7FF00241A
:1031300007E059F80410326842441019FFF72EF8DE
:10314000241DAC42F5D3A844BAF1000F00D106E02B
:10315000002002900298281A80B20190C4E700BFB4
:10316000494600200BF0D0F8FEF7BCFF584689E72F
:10317000FFE7002086E710B50421052002F02AFFB2
:1031800004F07FF94FF40051022002F023FF0421E4
:10319000052002F02DFF0421052002F01BFF10BDC9
:1031A00010B50421052002F015FF04F06AF94FF470
:1031B0000051022002F01CFF0421052002F018FF3C
:1031C0000421052002F006FF10BD70B5054600245D
:1031D00004F04AF9002613E00421052002F0FAFE6B
:1031E0000421052002F004FF6006040E4FF4005194
:1031F000022002F06DFE08B1601CC4B2701CC6B2A1
:10320000082EE9DB15B9FFF7CBFF01E0FFF7B3FFAD
:10321000204670BD70B50546002419E005FA04F09B
:1032200000F0800028B14FF40051022002F0E0FECF
:1032300004E04FF40051022002F0CCFE04210520EE
:1032400002F0D6FE0421052002F0C4FE601CC4B2C8
:10325000082CE3DB70BD10B54FF40051022002F0E2
:10326000C7FE0421052002F0C3FE4FF400510220E6
:1032700002F0B0FE0421052002F0ACFE10BD10B536
:103280004FF40051022002F0A5FE0421052002F0B7
:10329000AFFE4FF40051022002F0AAFE10BD10B59F
:1032A00000244FF40051022002F0A2FE04F0DCF8EA
:1032B0000421052002F09CFE4FF40051022002F090
:1032C00007FE04460421052002F084FE04F0D9F82C
:1032D000204610BD00487047D0AFFF1F10B5FFF764
:1032E000F9FF044640212046FDF7D2FA0948606004
:1032F0000949A1600949E1606068804764224FF490
:10330000007104F12400FEF751FA216A60F3000114
:10331000216210BDF9330100013401004D34010078
:103320002DE9F843FFF7D6FF064606F12404A08AEC
:10333000E18A401A80B20090FFF77EFA07464FF00C
:10334000000896F8200000F0010008B9BDE8F883F5
:103350006068B84218D26068381A2168884213D36E
:10336000676001F0D7FB78B9A06801F0D2FF804612
:10337000B8F1000F08D0B8F8101008F11200F26888
:103380009047A06801F0D3FFE38A2169C818694615
:10339000B2689047012828D1E08ABDF8001008449F
:1033A000E08200251EE0E08A401B80B20090216987
:1033B0004819694603F0D2FA01280CD1A7612069A7
:1033C0004119BDF80020002000F069FABDF80000A6
:1033D000284485B201E0681C85B2E08AA84201DC7D
:1033E0000020E082E08AA842DDDC00BFAEE70000FA
:1033F00000487047F4AFFF1F10B507F0AFFD10BDD8
:1034000070B5C2B005460C464FF48070019001A91A
:1034100002A807F0A9FD0646B6B92088BDF8041039
:10342000884209DBBDF8042002A92846FDF78FF980
:10343000BDF80400208004E0228802A92846FDF798
:1034400086F9012042B070BD0020FBE770B504464C
:103450000D462946204607F0BBFD70BD10B508217A
:10346000054806F0BDF8012805D10821024806F0FC
:103470001BF801F05FFA10BD0050014010B50821A3
:10348000054806F0ADF8012805D10821024806F0EC
:103490000BF806F0E4FA10BD0054014010B5082105
:1034A000054806F09DF8012805D10821024805F0DD
:1034B000FBFF01F0CBF910BD0058014010B50B2007
:1034C000FEF7DAFE012804D10B20FEF7C9FE01F059
:1034D00093F910BD10B54FF40051084805F088FE6F
:1034E00050B14FF40051054805F056FE034805F071
:1034F0007BFF03484169884710BD00000048024037
:103500004860012010B54FF40051064805F070FEE8
:1035100030B104F0B5FE4FF40051024805F03CFE16
:1035200010BD00000070014010B5024807F0A7F878
:1035300010BD000004B1FF1F10B5024807F0C1F82C
:1035400010BD000004B1FF1F10B5024807F0D8F805
:1035500010BD000004B1FF1F10B5024807F06BF961
:1035600010BD000004B1FF1F10B5024807F046F976
:1035700010BD000004B1FF1F10B5024807F039F874
:1035800010BD000004B1FF1F10B5024807F077F826
:1035900010BD00004CB9FF1F10B5024807F091F8AC
:1035A00010BD00004CB9FF1F10B5024807F0A8F885
:1035B00010BD00004CB9FF1F10B5024807F03BF9E1
:1035C00010BD00004CB9FF1F10B5024807F016F9F6
:1035D00010BD00004CB9FF1F10B5024807F009F8F4
:1035E00010BD00004CB9FF1F10B5024807F047F8A6
:1035F00010BD000094C1FF1F10B5024807F061F82C
:1036000010BD000094C1FF1F10B5024807F078F804
:1036100010BD000094C1FF1F10B5024807F00BF960
:1036200010BD000094C1FF1F10B5024807F0E6F876
:1036300010BD000094C1FF1F10B5024806F0D9FF6D
:1036400010BD000094C1FF1F10B5024807F017F825
:1036500010BD0000DCC9FF1F10B5024807F031F8AB
:1036600010BD0000DCC9FF1F10B5024807F048F884
:1036700010BD0000DCC9FF1F10B5024807F0DBF8E1
:1036800010BD0000DCC9FF1F10B5024807F0B6F8F6
:1036900010BD0000DCC9FF1F10B5024806F0A9FFED
:1036A00010BD0000DCC9FF1F0EB500BF0020019057
:1036B000029000BF00BF009000BF0B208DF80000FB
:1036C00001208DF8010000208DF803006846FEF708
:1036D000ADFD00208DF8040001208DF806008DF866
:1036E000080001AAC102002002F002FC03210B2005
:1036F00001F0E8F9032008F06BFA0021032008F03C
:10370000A3FA032008F07FFA0EBD1CB500BF00200D
:103710000090019000BF01208DF800006A4601036F
:10372000002002F0E5FB1CBD10B507F0F1FD10BD57
:103730001CB500BF00200090019000BF0A208DF84A
:10374000010003208DF800000F208DF802000020FA
:103750008DF8030001208DF80400684607F0BAFDDB
:103760001CBD000000200BE0074A042303FB0021DE
:103770000A686FF3080202F2FF120A60421C90B25C
:103780007F28F1DD704700005C1005402DE9FC4703
:103790000446FFF79FFD804607F072FF8146002533
:1037A0000CB1E06810B90020BDE8FC87F8210020CA
:1037B0000AF0C6FD05460DB90020F5E7F8212846B8
:1037C000FDF766F82078B8B9E068407806062E6004
:1037D000208AE62801DA208A00E0E62028822A8A68
:1037E00005F11200E168FCF7B2FF2946D8F82C0079
:1037F00001F068FD01274AE0606810B1207A0228D4
:1038000001DC002743E0E620288205F11000811C3E
:10381000CDE90010238A217AE268606802F003FA99
:1038200090B30026E068007855280AD1218AE06824
:1038300003F0F4F80646217A606803F0EFF80644D6
:1038400014E0E068407846EA0066207AC01E6168AD
:10385000085C46EA0046207A801E6168085C46EAF9
:103860000026207A401E6168085C06432E6060696D
:103870006860A069E8602946D9F8100003F015FDDA
:10388000012101EBE07701E0FFE7002700BF00BF67
:103890001FB9294600200AF037FD384684E72DE994
:1038A000F84306460D4614466878297840EA012711
:1038B0004AF2AE21781A8F425DD013DC4AF2A3217E
:1038C000A7EB01008F4231D007DCA7F52040A0F51F
:1038D0002870A8B1012872D11DE0012833D00A2830
:1038E000F9D13DE0F7285FD004DC012844D051280D
:1038F0007CD14CE0F92863D0B0F5897F76D16AE0BD
:1039000007F010FF80462B460822414630460094BF
:1039100000F014FB6BE007F005FF80462B46082201
:1039200041463046009400F059F960E007F0FAFE95
:1039300080462B46082241463046009400F09DFC0C
:1039400004F050FA53E007F0EDFE80462B460822C3
:1039500041463046009400F016FD04F043FA46E07C
:1039600007F0E0FE80462B46082241463046009490
:1039700000F018FA3BE03AE007F0D4FE80462B4610
:10398000082241463046009400F066FB2FE007F025
:10399000C9FE80462B46082241463046009400F07E
:1039A00001FA05F013FF22E007F0BCFE80462B462B
:1039B000082241463046009400F0ACFD17E015E0C7
:1039C00007F0B0FE80462B46082241463046009460
:1039D00000F0F0FD0BE007F0A5FE80462B46082224
:1039E00041463046009400F0A0F800E000BF00BF60
:1039F000BDE8F8832DE9F84F80460C4615460CB912
:103A0000BDE8F88FA678022E00DAF9E794F8049062
:103A10006779B9F1060F25D1012F11D1207A10282D
:103A20000ED1062E0CDD607A40F080006072A5F1A8
:103A3000080081B201230622A01D03F087FA10E0DE
:103A4000012F0ED1207AAF280BD1607A40F0800090
:103A50006072A5F1080081B201230622A01D03F0C7
:103A600075FA19E0B8F1010F15D14FF0000A294697
:103A7000204602F0D3FF824607F054FE0821009052
:103A800002F0CCFF824407F0C9FE83465146DBF8C2
:103A9000080003F06CFC00BF00BF00BFB0E7F0B54A
:103AA00095B005460E4617460024A2222146641C06
:103AB00008A84254C0222146641C425400222146D8
:103AC000641C4254FF222146641C42542146641C5B
:103AD00042542146641C42542146641C42542046F0
:103AE000611CCCB208A90A54E01EC0B28DF82200B5
:103AF000E01E81B20DF1230007F0B4FD2146621CE7
:103B0000D4B208AA50548DF8045002968DF80C7067
:103B100008A80490ADF81440012006906420079096
:103B200001A8FFF733FE15B0F0BD2DE9F04F87B0C7
:103B300082468B461D46DDF8408007F0F3FD814646
:103B400015B1B8F1220F03DA002007B0BDE8F08FFD
:103B500008242246641CA85C07F0B2F92819016801
:103B6000049141680591806806900C3404A807F020
:103B7000B3F92819016802918088ADF80C00A41DE2
:103B800002A807F0C9F92246641CA85C07F0B0F946
:103B90002146621CD4B2685C07F0B0F9285D019040
:103BA000601CC4B2601C285C295D40EA0127A01C8F
:103BB000C4B22146621CD4B2685C07F067F90821E0
:103BC000484604F0C5F8064636B1FEF735FEB0614A
:103BD0009DF80400B074B7820120B6E72DE9F04FDC
:103BE0009BB00746884691461D46DDF890B015B15A
:103BF000BBF10B0F03DA00201BB0BDE8F08F0326EA
:103C00003146761C685C06903146761C685C0590EF
:103C10003146761C685C0490701C285CA95D40EA03
:103C200001200190B61C3146761C685C0390314639
:103C3000761C685C02904FF0000A012106A800F093
:103C400073FF012805D19DF81800FFF7A1F94FF087
:103C5000010A012105A800F067FF012805D19DF8A0
:103C60001400FFF78FF94FF0010A012104A800F0BA
:103C70005BFF012805D19DF81000FFF76DF94FF0AB
:103C8000010A022101A800F04FFF012805D1BDF86B
:103C90000400FFF75BF94FF0010A012103A800F0CF
:103CA00043FF012805D19DF80C0007F0F5F84FF00F
:103CB000010A012102A800F037FF012805D19DF873
:103CC000080007F003F94FF0010ABAF1010F09D11A
:103CD000FFF72AFDFFF7EAF8FFF726FD07F0AEF839
:103CE000FFF722FD0024A3222146641C0EA84254A3
:103CF0006A782146641C425400222146641C4254C6
:103D0000FFF768F801462246641C0EA88154FFF7AD
:103D10005BF801462246641C0EA88154FFF744F864
:103D200001462246641C0EA88154FFF737F80212A0
:103D30002146641C0EA84254FFF730F8C2B2204658
:103D4000611CCCB20EA90A5406F0E6FF2146621CA3
:103D5000D4B20EAA505406F0EBFF2146621CD4B236
:103D60000EAA5054E01EC0B28DF83A00E01E81B297
:103D7000D01C07F077FC2146621CD4B20EAA505426
:103D80008DF81C70CDF820808DF824900EA80A9034
:103D9000ADF82C4001200C9064200D9007A8FFF78F
:103DA000F5FC29E72DE9F04F95B007468846914686
:103DB000DDF878B00024A3222146641C08A84254F0
:103DC000FF222146641C425400222146641C4254B6
:103DD0002146641C425402222146641C4254FEF7D0
:103DE000BBFC01462246641C08A88154FEF7D0FCA7
:103DF00001462246641C08A88154FEF7D8FC2146DF
:103E0000621CD4B208AA5054FEF7DEFC2146621CA4
:103E1000D4B208AA505406F079FF2146621CD4B2ED
:103E200008AA5054FDF76CF802122046611CCCB26F
:103E300008A90A54FDF764F8C2B22046611CCCB24E
:103E400008A90A5406F09EFF08A9214402680A60E6
:103E50004068486004F10800C4B2FEF77BFC2146CC
:103E6000621CD4B208AA505406F068FF824621466C
:103E7000601CC4B208A800F801A0002633E0F0B22C
:103E800006F062FF05466A782046611CCCB208A99C
:103E90000A54AA782046611CCCB208A90A54EA78D0
:103EA0002046611CCCB208A90A5408A801196A6806
:103EB0000A60A868486004F10800C4B208A80119A3
:103EC000A87C0870601CC4B2A88A02122046611C3B
:103ED000CCB208A90A542A7D2046611CCCB208A99C
:103EE0000A54701C86B2BAF10A0F01DA504600E09B
:103EF0000A20B042C3DCE01EC0B28DF82200E01EF2
:103F000081B20DF1230007F0ADFB2146621CD4B253
:103F100008AA50548DF80470CDF808808DF80C90E4
:103F200008A80490ADF81440012006906420079082
:103F300001A8FFF72BFC15B0BDE8F08F2DE9F04F7D
:103F400097B00746884691461D4615B12098092826
:103F500003DA002017B0BDE8F08F03263146761C47
:103F600015F801A03146761C15F801B03146761CD3
:103F7000685C0290701C285CA95D40EA01200190F9
:103F8000B61C59465046DDE90132FEF767FF0024B2
:103F9000A3222146641C0AA842546A782146641C64
:103FA000425400222146641C4254FEF713FF01468E
:103FB0002246641C0AA88154FEF706FF01462246E9
:103FC000641C0AA88154FEF7EFFE01462246641CD9
:103FD0000AA88154FEF7E2FE02122146641C0AA8D8
:103FE0004254FEF7DBFEC2B22046611CCCB20AA9E5
:103FF0000A54FEF7F9FE2146621CD4B20AAA5054B4
:1040000006F0C0FE0AA9214402680A6040684860C0
:1040100004F10800C4B2E01EC0B28DF82A00E01E10
:1040200081B20DF12B0007F01DFB2146621CD4B2BA
:104030000AAA50548DF80C70CDF810808DF81490A9
:104040000AA80690ADF81C40012008906420099051
:1040500003A8FFF79BFB7DE72DE9F04F9DB00746D6
:10406000884691461E4616B12698192803DA002084
:104070001DB0BDE8F08F032529466D1C16F801A080
:1040800029466D1C16F801B029466D1C705C08901D
:10409000681C305C715D40EA01200490AD1C5946FB
:1040A0005046049B089AFEF7D9FE701900680290EA
:1040B0002D1D681C305C715D40EA01200390AD1C31
:1040C0002846691CCDB2305C07902846691CCDB2E9
:1040D000305C06907019016800914068019005F10C
:1040E0000800C5B200200590042102A800F01CFDC4
:1040F000012805D1042102A8FEF734FF0120059014
:10410000022103A800F010FD012805D1BDF80C0024
:10411000FEF732FF01200590012107A800F004FD01
:10412000012805D19DF81C00FEF708FF012005902D
:10413000012106A800F0F8FC012805D19DF818001F
:10414000FEF72CFF012005900821684600F0ECFCEA
:10415000012805D108216846FEF72CFF01200590B3
:104160000598012805D1FFF7DFFAFEF79FFEFFF75C
:10417000DBFA0024A3222146641C10A84254727862
:104180002146641C425400222146641C4254FEF71E
:1041900021FE01462246641C10A88154FEF714FE3D
:1041A00001462246641C10A88154FEF7FDFD01461D
:1041B0002246641C10A88154FEF7F0FD021221462D
:1041C000641C10A84254FEF7E9FDC2B22046611CEF
:1041D000CCB210A90A54FEF7EDFD10A921440068E5
:1041E0000860201DC4B2FEF7E9FD02122046611CE2
:1041F000CCB210A90A54FEF7E1FDC2B22146601C00
:10420000C4B210A84254FEF7C3FD2146621CD4B2CA
:1042100010AA505406F0BAFD2146621CD4B210AA6E
:10422000505406F0AFFD10A9214402680A604068AE
:10423000486004F10800C4B2E01EC0B28DF842002C
:10424000E01E81B20DF1430007F00CFA2146621C1A
:10425000D4B210AA50548DF82470CDF828808DF86F
:104260002C9010A80C90ADF8344001200E906420E2
:104270000F9009A8FFF78AFAFAE62DE9F04F97B0F8
:104280000746884691461D4615B12098092803DA4D
:10429000002017B0BDE8F08F03263146761C15F8D4
:1042A00001A03146761C15F801B03146761C685CD9
:1042B0000290701C285CA95D40EA01200190B61CA8
:1042C00059465046DDE90132FEF7C8FD002003F0F3
:1042D000B5FFFFF729FA03F095FFFFF725FA002451
:1042E000A3222146641C0AA842546A782146641C11
:1042F000425400222146641C4254FEF76BFD0146E5
:104300002246641C0AA88154FEF75EFD014622463F
:10431000641C0AA88154FEF747FD01462246641C2E
:104320000AA88154FEF73AFD02122146641C0AA82D
:104330004254FEF733FDC2B22046611CCCB20AA93A
:104340000A54E01EC0B28DF82A00E01E81B20DF1C1
:104350002B0007F087F901462046621CD4B20AAA56
:1043600011548DF80C70CDF810808DF814900AA8B7
:104370000690ADF81C40012008906420099003A825
:10438000FFF704FA85E72DE9F04F9BB08046894698
:1043900092461D460020009001900290039015B1B6
:1043A0002498152803DA00201BB0BDE8F08F0326FF
:1043B0003146761C15F801B03146761C685C0690D3
:1043C0003146761C685C0590701C285CA95D40EA4B
:1043D00001200490B61C5846DDE904320699FEF728
:1043E0003DFD3146761C6F5C0FB10A2F01DD0020C8
:1043F000DAE73046711CCEB2285C8DF800003046FA
:10440000711CCEB2285C8DF801003046711CCEB212
:10441000285C8DF80200A8190168CDF803104068E7
:10442000CDF8070006F10800C6B2781EC1B2684692
:1044300003F016FFFFF778F903F0E4FEFFF774F9D5
:104440000024A3222146641C0EA842546A78214607
:10445000641C425400222146641C4254FEF7BAFCFC
:1044600001462246641C0EA88154FEF7ADFC0146AD
:104470002246641C0EA88154FEF796FC0146224693
:10448000641C0EA88154FEF789FC02122146641CAC
:104490000EA84254FEF782FCC2B22046611CCCB288
:1044A0000EA90A542046611CCCB20EA90F549DF8E7
:1044B00002202046611CCCB20EA90A540EA820444A
:1044C000DDF803100160DDF80710416004F1080019
:1044D000C4B2E01EC0B28DF83A00E01E81B20DF108
:1044E0003B0007F0BFF82146621CD4B20EAA50541C
:1044F0008DF81C80CDF820908DF824A00EA80A908D
:10450000ADF82C4001200C9064200D9007A8FFF717
:104510003DF949E72DE9FF5F81461C46DDF838B0DB
:1045200007F000F9804614B1BBF1090F03DA00204F
:1045300004B0BDE8F09F032529466D1C605C039024
:1045400029466D1C605C029029466D1C605C0190E0
:10455000681C205C615D40EA01200090AD1C0821D0
:10456000404603F0F5FB064616B3307820F0010014
:10457000401C3070FEF760F9B061681C205CB074BC
:10458000B9F1010F14D16078070698F8050047EAE1
:10459000004798F8060047EA002798F80700074305
:1045A00007F03CF982463946DAF8080002F0DFFEEF
:1045B0000120BDE72DE9F05F83461C460A9F07F006
:1045C000B1F882460CB1092F02DA0020BDE8F09F55
:1045D000082529466D1C14F8018029466D1C14F825
:1045E000019009350821504603F0B2FB064666B13A
:1045F000FEF722F9B061605DB074681CC5B2681C3A
:10460000205C615D40EA0120B0820120DEE72DE9F7
:10461000F04196B007460D4616463146284603F04F
:1046200097FB8046B8F1000F03D1002016B0BDE81B
:10463000F0810024A2222146641C09A84254A5222C
:104640002146641C425400222146641C425498F8BE
:1046500001202146641C4254FF222146641C42541E
:104660002146641C42542146641C42542046611C6D
:10467000CCB209A90A5406F05BFB2146621CD4B2F5
:1046800009AA505406F072FB089009A89DF8201062
:104690000155601CC4B2E01EC0B28DF82600E01EB9
:1046A00081B20DF1270006F0DDFF2146621CD4B275
:1046B00009AA50548DF8047002958DF80C6009A871
:1046C0000490ADF814404FF0FF30069041F288306E
:1046D000079001A8FFF75AF8A8E72DE9F041A4B028
:1046E00005460E4617461C46DDF8A88014B1B8F101
:1046F000640F03DD002024B0BDE8F0816E20079038
:1047000007AB08AA4146204602F0A3F9012813D1BD
:104710008DF8005001968DF8087008A80390BDF838
:104720001C00ADF810000A2005904FF4FA700690B6
:104730006846FFF72BF8DEE70020DCE7F0B595B020
:1047400005460E4617460024A2222146641C08A8EE
:104750004254A7222146641C425400222146641C74
:104760004254FF222146641C42542146641C425498
:104770002146641C42542146641C42542046611C5C
:10478000CCB208A90A54E01EC0B28DF82200E01E87
:1047900081B20DF1230006F065FF2146621CD4B200
:1047A00008AA50548DF8045002968DF80C7008A891
:1047B0000490ADF81440012006906420079001A8F1
:1047C000FEF7E4FF15B0F0BD0A480078C0F38000A2
:1047D00070B108484068401C064948600846406877
:1047E000072805D30846007820F010001030087024
:1047F00000207047B061012010B51148007800F02A
:104800000100E0B10F48C07AC8B90D480078C0F384
:10481000C000A0B90A48007820F0020008490870DA
:104820000846007820F0080008300870FCF782FF86
:10483000FCF79AFF002004490860FCF78DFF10BDCB
:10484000B0610120A06101202080FF1F10B5354814
:10485000007800F00100002863D03348C07A0028B7
:104860005FD130480078C0F3C000D0B12D48007847
:10487000C0F34000A8B902F078FA90B12948007856
:1048800020F00200801C274908700846007820F0BC
:10489000040008700020486024490860244908701A
:1048A0003FE020480078C0F34000D0B302F051FA56
:1048B00040B11E480178012088401D49097808430D
:1048C0001B49087019480068401C184908600846D0
:1048D0000068082825D3164800781249087508464C
:1048E000017DB0F81621B0F81601401C0D4BA3F85D
:1048F000160103F1150081541538007820F00800E6
:10490000194608700846007820F002000870084632
:10491000007820F00400001D0870FCF70BFFFCF786
:1049200023FF10BDB0610120A06101202080FF1F86
:104930002480FF1F10B52648C07A012846D124489C
:104940000068401C22490860084600684968401A0F
:1049500001283BD11E4800681D4948600846407A3E
:10496000082817DA0846007A00F0010008730846A4
:10497000007B012802D102F0C3FF01E002F0D0FF6A
:104980001348007A4010124908720846407A401CC9
:1049900048721BE00E48407A082807D102F0B0FFA9
:1049A0000B48407A401C0A4948720FE00848407A98
:1049B00008280BDD00200649487208604860C8726C
:1049C000FDF748FFFDF760FF05F042F810BD00005D
:1049D000A061012070B50024202916DBC51700EB6B
:1049E000D5656D1105EB4505202606EB45058D4285
:1049F0000ADCC51700EBD5656D1105EB45052526CD
:104A000006EB45058D4200DA70BD054A042303FB21
:104A10000124226860F30802226000BFF4E700006E
:104A20005C10054070B50024202916DBC51700EB8B
:104A3000D5656D1105EB4505202606EB45058D4234
:104A40000ADCC51700EBD5656D1105EB450525267C
:104A500006EB45058D4200DA70BD054A042303FBD1
:104A60000124226860F30802226000BFF4E700001E
:104A70005C10054070B50024202916DBC51700EB3B
:104A8000D5656D1105EB4505202606EB45058D42E4
:104A90000ADCC51700EBD5656D1105EB450525262C
:104AA00006EB45058D4200DA70BD054A042303FB81
:104AB0000124226860F30802226000BFF4E70000CE
:104AC0005C10054070B50024202916DBC51700EBEB
:104AD000D5656D1105EB4505202606EB45058D4294
:104AE0000ADCC51700EBD5656D1105EB45052526DC
:104AF00006EB45058D4200DA70BD054A042303FB31
:104B00000124226860F30802226000BFF4E700007D
:104B10005C1005400348C07A012800D1704700208E
:104B2000FCE70000A0610120024602B109B90020A3
:104B3000704705E012F8013BFF2B01D00120F7E799
:104B4000081EA1F1010399B2F4D100BFF0E710B53E
:104B50004FF40041002001F0BBF9012800D110BD45
:104B60000020FCE70048704710B0FF1F10B58AB066
:104B7000FFF7F8FF044624212046FBF789FE1C229C
:104B8000114903A8FBF728FE07A807C88DE807000E
:104B900003A80FC800F05DF900F020F9206064223E
:104BA0004FF4007104F10800FCF700FE616860F347
:104BB0000001616000F071F90A221146204600F000
:104BC000B0F90AB010BD00004CF201002DE9FC4123
:104BD000FFF7C8FF064606F10804A08AE18A401ADA
:104BE00080B2019000200090FDF726FE07464FF0AE
:104BF0000008307900F0010008B9BDE8FC81606868
:104C0000B84227D26068381A2168884222D3676088
:104C100000F03DF9F0B9A06800F07BFB8046B8F1E8
:104C2000000F09D0B8F810103068C26808F11200FF
:104C30009047A06800F07BFBA069381A4CF2503115
:104C4000B0FBF1F201FB120020B90A2211463046F6
:104C500000F067F9E38A2169C81831688A6801A9F8
:104C60009047012838D1E08ABDF804100844E0825A
:104C700000252DE0E08A401B80B20190216948198F
:104C80006A4601A901F001FE01281AD1A761009826
:104C900001280AD1E38A5A1B236959191846FBF7E0
:104CA00056FDE08A401BE08215E021694819324632
:104CB000BDF8041000F016F8BDF80400284485B2D1
:104CC00001E0681C85B2E08AA84201D10020E082A0
:104CD000E08AA842CEDC00BF00BF8EE700487047E4
:104CE00018B0FF1F2DE9F0410446884615462F46AF
:104CF000A078A02804D10426A05D06F0C1F800E049
:104D000000BF00BFBDE8F08110B590B0242107A816
:104D1000FBF7BEFD0C4C24220C4907A8FBF75CFDF9
:104D20004FF49640089014220BA968460594FBF7AF
:104D300053FD07A80FC805F0C3F9204605F0CBF9CD
:104D400000F05EF810B010BD94C1FF1F04F2010026
:104D500070B506460D461A4C94F8400800F0010064
:104D600058B3B4F82C0838B994F8400820F0010082
:104D700084F84008002070BD2888B4F82C188842B8
:104D80000ADBB4F82C2804F22C413046FBF7DFFC98
:104D9000B4F82C08288005E02A8804F22C4130461B
:104DA000FBF7D5FC0020A4F82C0894F8400820F06C
:104DB000010084F840080120DDE70020DBE7000067
:104DC00094C1FF1F70B504460D462A46214602488D
:104DD00005F0DAFD70BD000094C1FF1F0048704768
:104DE0008061012010B54FF48041012001F0F2F8FC
:104DF00010BD10B54FF48041012001F0F9F810BD4D
:104E00001CB500231A464FF48041012001F0FEF842
:104E100000BF00200090019000BF01208DF800002D
:104E200000208DF8060002208DF8050000208DF886
:104E300002008DF804006A464FF48041012001F021
:104E400057F81CBD10B50446206908B12069804799
:104E500010BD0FB410B5FFF7C1FF04462021204656
:104E6000FBF716FD02986060059921610699616162
:104E70000399A1600499E160606808B160688047A7
:104E8000606908B16069804710BC5DF814FB00B52B
:104E9000FFF7A4FF0146002000BD10B5FFF79EFFFD
:104EA0000446207820F00100401C20702046FFF7C7
:104EB000C9FF10BD70B505460E460024F82100203C
:104EC00009F03EFA044604B970BD002020825A2140
:104ED000228A501C208204F1120081540021228A6F
:104EE000501C208204F112008154B121228A501CEE
:104EF000208204F112008154218A481C208204F18E
:104F000012004654AA21228A501C208204F1120069
:104F10008154217CE1742146286900F0D3F900BF57
:104F2000D2E72DE9F04105460E4617460024F82148
:104F3000002009F005FA04460CB9BDE8F081002014
:104F400020825A21228A501C208204F112008154AE
:104F50000021228A501C208204F112008154A021D9
:104F6000228A501C208204F112008154218A481C9C
:104F7000208204F1120046540021228A501C208213
:104F800004F1120081540FB90A2100E03946228A47
:104F9000501C208204F112008154AA21228A501C44
:104FA000208204F112008154217CE1742146286999
:104FB00000F088F900BFC0E710B50446204600F0B5
:104FC00097F8206B08B1206B8047A06B08B1A06BED
:104FD00080472146642000F008F810BD014608789B
:104FE00000F0010080F001007047642801DD6422B8
:104FF00000E002464A704A780A2392FBF3F24A70B4
:105000007047000070B505460C4694F82D00A84284
:1050100000D170BD207820F00100207084F82D5060
:105020002721A01DFBF712FC94F82D0008283DD283
:10503000DFE800F0352E272019120B042522234922
:1050400004F10800FBF783FB37E02522204904F137
:105050000800FBF77CFB30E025221E4904F1080024
:10506000FBF775FB29E025221B4904F10800FBF73B
:105070006EFB22E02522194904F10800FBF767FBCB
:105080001BE02522164904F10800FBF760FB14E041
:105090002522144904F10800FBF759FB0DE02522F5
:1050A000114904F10800FBF752FB06E025220F49E5
:1050B00004F10800FBF74BFB00BF00BF207820F095
:1050C0000100401C207000BFA3E70000C3F40100F2
:1050D000C0F30100E5F301000AF401002FF4010020
:1050E00054F4010079F401009EF40100E8F4010099
:1050F000017821F001010170704710B50446204687
:1051000000F043F8A088401CA080A088632804DD3C
:105110000020A080204600F001F810BD30B5034605
:10512000002200241846FFF759FF012800D130BDA6
:105130009A1D1078122190FBF1F501FB1501D01C8E
:1051400000EB4104507840B96078012800D100E0BC
:105150000020197860F3410119705078401C2178C3
:1051600088420DDB002050701078401C91788842F6
:1051700002DB0020107006E01078401C107002E086
:105180005078401C507000BFD1E710B5044620781D
:10519000C0F34000C8B1A0786178884204DA606B3F
:1051A00050B1606B804707E0A0786178884203DDEA
:1051B000A06B08B1A06B8047A078401CA070A078BD
:1051C000092806DD0020A07003E0A06B08B1A06BE9
:1051D000804710BD002100B97047014600224A6097
:1051E0000A6000BFF8E710B500240821002009F08C
:1051F000A7F80446002020606060606020602046C0
:1052000010BD70B502460B46002600210025002483
:105210000AB1002B01DA002070BD14462146002699
:1052200001E00968761C9E4202DA08680028F8D17D
:105230000D68286808606068401E60602846EBE7DB
:1052400070B5024600260024002300250AB100297B
:1052500002DA0026002070BD15462B46002401E02E
:105260001B68641C8C4202DA18680028F8D11868A0
:10527000F1E7F0B50346144600270026002200257A
:1052800013B109B1002C02DA00273846F0BD1D46E3
:105290002A46002601E01268761CA64202DA10684F
:1052A0000028F8D11068086011606868401C6860C8
:1052B0000020EBE70146002209B9501E70470A465C
:1052C0005068FBE72DE9F04107460D460026002413
:1052D0000821002009F034F804461CB9761E304637
:1052E000BDE8F08100202060606065603846FFF70F
:1052F000E1FF8046424621463846FFF7BAFF0646A0
:105300000EB13046ECE73046EAE710B5FFF76BFF29
:1053100010BD70B505460024002600212846FFF781
:105320008FFF04460CB9002070BD6068FCE770B5C3
:1053300006460024002500213046FFF762FF0446A0
:105340000CB9002070BD65681DB12946002008F029
:10535000DBFF1CB12146002008F0D6FF2846F1E70C
:1053600010B54FF48071002000F034FE10BD10B570
:105370004FF48071002000F03BFE10BD1CB500BF53
:1053800000200090019000BF01208DF80000002057
:105390008DF8060002208DF8050000208DF802002F
:1053A0008DF804006A464FF4807100F0A1FD1CBD29
:1053B00010B54FF48071012000F00CFE10BD1CB53B
:1053C00000231A464FF48071012000F01FFE00BF39
:1053D00000200090019000BF01208DF80000002007
:1053E0008DF8060002208DF8050000208DF80200DF
:1053F0008DF804006A464FF48071012000F078FDBA
:105400001CBD10B5FFF7DBFFFFF7D2FF00F04BF933
:10541000FEF78AF93220FCF7B1FDFEF785F932205C
:10542000FCF7ACFDFEF780F980216B2000F0E4F87A
:10543000FEF77AF93220FCF7A1FDFEF775F932206C
:10544000FCF79CFDFEF770F900216B2000F0D4F80A
:10545000032000F08FF8002000F084F8322000F0E4
:10546000AEF80021382000F0C7F800216A2000F0D3
:10547000C3F80021232000F0BFF88021372000F07E
:10548000BBF8752000F017F80446682C0BD10121F9
:105490006B2000F0B1F800216C2000F0ADF8322054
:1054A00000F08DF801E0012010BD0020FCE710B5F0
:1054B000FFF7A7FF10BD70B50446FDF7CCFED02066
:1054C000FDF7A8FEFDF7EBFE2046FDF7A3FEFDF776
:1054D000E6FEFDF7C0FED120FDF79CFEFDF7DFFEE6
:1054E0000020FDF772FE0546FDF7C9FE284670BD97
:1054F0002DE9F04106460F4614461D46FDF7ABFE6A
:10550000002141EA4601C8B2FDF784FEFDF7C7FE5F
:1055100020B1FDF7B4FE0120BDE8F0813846FDF76B
:1055200079FEFDF7BCFEFDF796FE012101EB460179
:10553000C8B2FDF76FFEFDF7B2FE0DE0012C04D1FD
:105540000020FDF742FE287003E00120FDF73DFE3C
:105550002870601EC4B26D1C002CEFD1FDF78FFEC9
:105560000020D9E710B50446E006010E1C2000F02B
:1055700043F810BD10B50446E006010E1B2000F0F4
:105580003BF810BD70B504460025BC2C01DB01259D
:1055900010E0622C01DB02250CE02A2C01DB032544
:1055A00008E0142C01DB042504E00A2C01DB0525AE
:1055B00000E0062529461A2000F01EF870BD70B5DF
:1055C0000446B4F57A7F01DD4FF47A74042C00DAD6
:1055D00004244FF47A7090FBF4F0401EC5B22946C3
:1055E000192000F009F80546264604EBD671C1F3F0
:1055F0004F00FFF7C7FF70BD70B505460C46FDF7BD
:105600002AFED020FDF706FEFDF749FE18B1FDF792
:1056100036FE012070BD2846FDF7FCFDFDF73FFE7C
:1056200018B1FDF72CFE0120F4E72046FDF7F2FD4E
:10563000FDF735FE18B1FDF722FE0120EAE7FDF780
:105640001EFE0020E6E72DE9F04105460E4617460E
:105650009846FDF700FE002141EA4501C8B2FDF77A
:10566000D9FDFDF71CFE20B1FDF709FE0120BDE8C4
:10567000F0813046FDF7CEFDFDF711FE00240CE071
:1056800018F80400FDF7C6FDFDF709FE18B1FDF797
:10569000F6FD0120EBE7601CC4B2BC42F0DBFDF775
:1056A000EEFD0020E3E71CB500BF00200090019054
:1056B00000BF01208DF800008DF802008DF8040075
:1056C0006A460421052000F013FC6A464FF400519D
:1056D000022000F00DFC4FF40051022000F088FC85
:1056E0000421052000F084FC1CBD4A8802444A8045
:1056F00070471CB500231A464FF48061012000F06A
:1057000085FC00BF00200090019000BF01208DF8B3
:10571000000000208DF8060002208DF80500002012
:105720008DF802008DF804006A464FF48061012074
:1057300000F0DEFB1CBD10B54FF48061012000F0CD
:1057400049FC10BD10B54FF48061012000F050FC01
:1057500010BD00003EB50446044A07CA8DE80700A4
:10576000034B9DE8070000F00EF83EBDF4F0010089
:10577000B481FF1F0FB49DF8000000F0010080F01D
:10578000010004B070471FB51C4614212046FBF7EA
:105790007FF80098A0600199E1600299216120469C
:1057A00000F03AF8A06808B1A0688047206908B105
:1057B000206980471FBD70B504460D4620698047AB
:1057C00015B1204600F028F870BDF8B504460D4626
:1057D000164615B9E068804715E02069009094E806
:1057E0000F00FFF7C7FF012806D12146304600F021
:1057F00011F80020A08003E021463046FFF775FF36
:10580000204600F001F8F8BD017821F00101491CA3
:105810000170704748807047017821F001010170E4
:10582000704738B504462069009094E80F00FFF7F0
:10583000A1FF012800D138BDA0886188884205DC1D
:10584000E0688047A088401CA08004E02046FFF765
:10585000E3FF2069804700BFEDE7000070B52DED44
:10586000068B82B004460D4616460021684607F0B6
:1058700039FE002868D1FCB1BDF9000000EE100A25
:10588000B8EEC00A10EE101A084609F067FB41ECAA
:105890001A0B9FED2F0B53EC102B08F003FF41EC7C
:1058A000190B9FED2D0B53EC102B09F097F841ECE1
:1058B000180B08F01DFE2060FDB1BDF9020000EEDE
:1058C000100AB8EEC00A10EE101A084609F046FB9E
:1058D00041EC1A0B9FED1E0B53EC102B08F0E2FE6F
:1058E00041EC190B9FED1C0B53EC102B09F076F8D3
:1058F00041EC180B08F0FCFD2860FEB1BDF9040076
:1059000000EE100AB8EEC00A10EE101A084609F0B0
:1059100025FB41EC1A0B9FED0E0B53EC102B08F0FE
:10592000C1FE41EC190B9FED0C0B53EC102B09F051
:1059300055F841EC180B08F0DBFD30600CB905B9E7
:1059400016B101200649087102B0BDEC068B70BD8E
:10595000000000000000D04005A3923A019D2340C2
:10596000FC62012070B50646002500200849087138
:10597000002409E007F02CFDC5B205B906E032208D
:10598000FCF7FCFA601CC4B2032CF3DB00BF70BD53
:10599000FC62012010B50446FCF74EFF4FF47A710B
:1059A000B0FBF1F201FB120068B904F11002111F03
:1059B000081F07F001FC0449087004F12002111FC0
:1059C000081FFFF74BFF10BD5D80FF1F00487047A9
:1059D000AC5E01203EB5044605A207CA8DE807006B
:1059E0000A25206918B129466846226990473EBDBC
:1059F0005A0AFC00910F453C1DAA000010B5044650
:105A0000E06908B1E069804710BDF0B595B0044683
:105A100000255A2229466D1C08A842540022294616
:105A20006D1C4254FC2229466D1C42540C2229460E
:105A30006D1C4254912229466D1C42540E22294667
:105A40006D1C42541C2101A8FAF722FF082202A96A
:105A500004F14400FAF730FE18B1626CA262A16C46
:105A6000E16201220DF11A0104F15600FAF724FE59
:105A700018B13A205621095D015501220DF11D0191
:105A800004F15900FAF718FE38B1D4F85920C4F8D7
:105A90003D20D4F85D10C4F841101C2104F14000F1
:105AA000FAF7D4FE08A948191C2204F12401FAF7D8
:105AB0004EFE05F11C0085B20027022605E008A86D
:105AC000805D3844C7B2701C86B2222EF7DB2846B0
:105AD000691C8DB208A90F54AA222846691C8DB2F0
