:020000040001F9
:10000000A870012029030100590301005B030100CE
:100010005D0301005F0301006103010000000000B7
:100020000000000000000000000000006303010069
:10003000650301000000000067030100690301007F
:100040002936010049360100693601008936010070
:10005000A1360100D1360100F53601000537010057
:1000600015370100253701003537010045370100FC
:1000700055370100653701007537010085370100EC
:1000800095370100A5370100B5370100C5370100DC
:10009000D5370100E5370100F537010005380100CB
:1000A00015380100253801003538010045380100B8
:1000B00055380100653801006B0301006B03010036
:1000C0006B0301006B0301006B0301006B03010074
:1000D0006B0301006B0301006B0301006B03010064
:1000E0006B0301006B0301006B0301006B03010054
:1000F0006B0301006B0301006B0301006B03010044
:100100006B0301006B0301006B0301006B03010033
:100110006B0301006B0301006B0301006B03010023
:100120006B0301006B0301006B0301006B03010013
:100130006B0301006B0301006B0301006B03010003
:100140006B0301006B0301006B0301006B030100F3
:100150006B0301006B0301006B0301006B030100E3
:100160006B0301006B0301006B0301006B030100D3
:100170006B0301006B0301006B0301006B030100C3
:100180006B0301006B0301006B0301006B030100B3
:100190006B0301006B0301006B0301006B030100A3
:1001A0006B0301006B0301006B0301006B03010093
:1001B0006B0301006B0301006B0301006B03010083
:1001C0006B0301006B0301006B0301006B03010073
:1001D0006B0301006B0301006B0301006B03010063
:1001E0006B0301006B0301006B0301006B03010053
:1001F0006B0301006B0301006B0301006B03010043
:100200006B0301006B0301006B0301006B03010032
:100210006B0301006B0301006B0301006B03010022
:100220006B0301006B0301006B0301006B03010012
:100230006B0301006B0301006B0301006B03010002
:100240006B0301006B0301006B0301006B030100F2
:100250006B0301006B0301006B0301006B030100E2
:100260006B0301006B0301006B0301006B030100D2
:100270006B0301006B0301006B0301006B030100C2
:1002800000F002F800F041F80AA090E8000C824467
:100290008344AAF10107DA4501D100F036F8AFF244
:1002A000090EBAE80F0013F0010F18BFFB1A43F054
:1002B000010318472424010044240100103A24BFFC
:1002C00078C878C1FAD8520724BF30C830C144BFBB
:1002D00004680C60704700000023002400250026FD
:1002E000103A28BF78C1FBD8520728BF30C148BF99
:1002F0000B607047642900F0DF80002070471FB555
:1003000011F0C9F81FBD10B510BD00F075FB114606
:10031000FFF7F5FF0FF0FEF800F093FB03B4FFF7D3
:10032000F2FF03BC00F096FB13484FF07701016029
:1003300012484FF07701016011484FF48851016075
:100340000D484FF0760101600C484FF076010160D6
:100350000C4880470C480047FEE7FEE7FEE7FEE753
:10036000FEE7FEE7FEE7FEE7FEE7FEE7074808498F
:10037000084A094B70470000040805400C08054076
:1003800000080540E9A8010081020100A8680120D9
:10039000A8700120A86C0120A86C012053EA020C6F
:1003A00000F069802DE9F04B4FF00006002B1FBFD5
:1003B000B3FA83F503FA05F424FA05F65E4012BF9A
:1003C0001643B2FA82F502FA05F4C5F120051EBF04
:1003D00022FA05FC44EA0C04203556EA044C4FEAA4
:1003E000144418BF641C4FF000084FF000099042FD
:1003F00071EB030C39D3002919BFB1FA81F701FA67
:1004000007F6B0FA80F700FA07F6C7F120071EBF1B
:1004100020FA07FC46EA0C062037B6FBF4FCA7EBF3
:100420000507103F07F01F0BCBF120060CFA0BFB62
:100430002CFA06F644BFB3460026202FA4BF5E4622
:100440004FF0000B5BEA060C08BF4FF0010B19EBF5
:100450000B09ABFB027C48EB0608C01B06FB02CC79
:100460000BFB03CC71EB0C01C1E70B460246414686
:100470004846BDE8F08B13B54FF000004FF0000187
:10048000AFF30080BDE81C40704700000FB41CB5FE
:10049000084B06AA7B4469460090059800F08FFA45
:1004A00004460020694600F09DFA20461CBC5DF819
:1004B00014FB00004D0500002DE9F0410646002424
:1004C00010687529314616A510D0AFF300800028BA
:1004D00002DA404213A507E031688A0701D512A568
:1004E00002E0490704D511A5012401E0AFF3008023
:1004F00000210A2206F1240709E0B0FBF2FCB0FB60
:10050000F2F302FB1C00303078541846491C0028D6
:10051000F3D123462A463046BDE8F04100F0F1B958
:10052000000000002D0000002B0000002000000053
:100530002DE9F05F894604464FF0000ADFF874B1F8
:10054000FB44C0F820A02046E1688847002874D00A
:10055000252806D0D4E901219047206A401C20625A
:10056000F1E700265F462046E168884720280546D7
:1005700007DB312D05D2781910F8200C08B106439D
:10058000F1E7B00701D526F00406C4F81CA0002747
:10059000C4F818A02A2D09D028460EF059FA38B30D
:1005A00004EB8708303DC8F8185019E059F8041BCF
:1005B000204604EB87029161E1688847012F0546D8
:1005C00018D1E069002820DA26F020061DE0D8F8CE
:1005D000180000EB800005EB40003038C8F8180028
:1005E0002046E168884705460EF032FA0028EED131
:1005F000012F0AD02E2D08D12046E16888477F1CA4
:100600000546022F46F02006C4DBA069002803DA65
:10061000404246F00106A061F00701D026F0100626
:100620006C2D0BD0682D09D04C2D39D06A2D35D0CA
:10063000742D35D07A2D33D016E038E0E1682F469E
:1006400020468847B842054609D16C2F26D04FF482
:100650008060E168064320468847054604E06C2F29
:100660001AD04FF4807006430DB3A5F1410019284C
:1006700002D8203546F400664A46294620462660C0
:100680004E46FFF737FE80B101280BD0F61D26F04D
:10069000070000F1080956E74020E4E78020D8E78A
:1006A0000020D6E706F104094DE7284652E7206A04
:1006B000BDE8F09F9220010040EA010310B59B07BE
:1006C0000FD1042A0DD310C808C9121F9C42F8D0BC
:1006D00020BA19BA884201D9012010BD4FF0FF306D
:1006E00010BD1AB1D30703D0521C07E0002010BD83
:1006F00010F8013B11F8014B1B1B07D110F8013B0F
:1007000011F8014B1B1B01D1921EF1D1184610BDEF
:1007100010B5431C02E010F8011B71B18107FAD13A
:100720004FF0013202C88C1A8C4314EAC211F9D07E
:10073000C01A0A0603D0C01E10BDC01A10BD0A049C
:1007400001D0801E10BD0902FCD0401E10BD032A3E
:1007500040F2308010F0030C00F0158011F8013BDE
:10076000BCF1020F624498BF11F801CB00F8013BC5
:1007700038BF11F8013BA2F1040298BF00F801CB89
:1007800038BF00F8013B11F0030300F02580083A60
:10079000C0F0088051F8043B083A51F804CBA0E8B7
:1007A0000810F5E7121D5CBF51F8043B40F8043B0C
:1007B000AFF30080D20724BF11F8013B11F801CB41
:1007C00048BF11F8012B24BF00F8013B00F801CB12
:1007D00048BF00F8012B704710B5203AC0F00B80DD
:1007E000B1E81850203AA0E81850B1E81850A0E835
:1007F0001850BFF4F5AF5FEA027C24BFB1E818508F
:10080000A0E8185044BF18C918C0BDE810405FEAFE
:10081000827C24BF51F8043B40F8043B08BF70477A
:10082000D20728BF31F8023B48BF11F8012B28BF7F
:1008300020F8023B48BF00F8012B704702F0FF038D
:1008400043EA032242EA024200F002B84FF00002FB
:100850000429C0F0128010F0030C00F01B80CCF1D2
:10086000040CBCF1020F18BF00F8012BA8BF20F840
:10087000022BA1EB0C0100F00DB85FEAC17C24BF94
:1008800000F8012B00F8012B48BF00F8012B70473E
:100890004FF0000200B5134694469646203922BF19
:1008A000A0E80C50A0E80C50B1F12001BFF4F7AF64
:1008B000090728BFA0E80C5048BF0CC05DF804EB46
:1008C000890028BF40F8042B08BF704748BF20F8B4
:1008D000022B11F0804F18BF00F8012B70477047B2
:1008E00070477047004870474468012010B5FFF713
:1008F000F9FF006810BD10B50446FFF7F3FF046070
:1009000010BD2DE9F0470D4699469246044600F188
:1009100024080168880604D5E06921F010012160EF
:1009200000E00120A84201DD471B00E00027A1698B
:100930007A1902EB0900081AA0612078C00602D4D7
:100940002046AFF30080002608E0D4E901211AF820
:1009500006009047206A401C761C20624E45F4DB5E
:100960002078C0060AD52046AFF3008006E0D4E91F
:10097000012130209047206A401C2062381EA7F1D8
:100980000107F4DC07E0D4E9012118F805009047DD
:10099000206A401C2062281EA5F10105F3DC2046D8
:1009A000AFF300802078000602D50220BDE8F08772
:1009B0000120FBE701694A1C02610878704700B515
:1009C0008FB0CDE901310021059105497944CDE988
:1009D000031011466846FFF7ABFD0FB000BD0000E5
:1009E000E5FFFFFF0A6802F8010B0A60704700008C
:1009F00000487047446801207546FFF7F9FFAE468E
:100A000005006946534620F00700854618B020B51A
:100A1000FFF7ACFCBDE820404FF000064FF00007A8
:100A20004FF000084FF0000B21F00701AC46ACE896
:100A3000C009ACE8C009ACE8C009ACE8C0098D4603
:100A4000704710B50446AFF300802046BDE8104063
:100A5000FFF764BC01491820ABBEFEE72600020088
:100A6000704700002DE9F04102460B460420002AA1
:100A70004CD0002B4AD01F79012F47DC244FBA42BB
:100A80001AD11F68C7F310011F7957B997891FFA48
:100A900081FC47EA0C079781D78947EA1147D7813C
:100AA0001CE0178A1FFA81FC47EA0C071782578A55
:100AB00047EA1147578211E01F88C7F308011F79E1
:100AC00037B997891FFA81FC47EA0C07978105E03F
:100AD000178A1FFA81FC47EA0C07178200240025B9
:100AE00002F120060FE001F001074FB12F4605F19A
:100AF000010C0CF0FF05D3F8088018F80770375583
:100B00004908671CFCB20029EDD10020BDE8F08146
:100B10000000044030B5024604209AB10A4DAA42B2
:100B200002D1C1F3100101E0C1F308018BB20C0C3A
:100B3000958A1D439582044DAA4202D1D58A254348
:100B4000D582002030BD0000000004400246042091
:100B500022B1538861F30A235380002070470000BC
:100B60002DE9F04104460D46042004F1500C3CB33D
:100B700032B32BB3DFF84C80444502D1C5F31001EA
:100B800001E0C5F308010026002715E001F0010887
:100B9000B8F1000F0BD03CF8168022F8178007F14F
:100BA000010808F0FF07A3F1010808F0FF03490856
:100BB00006F1010808F0FF0609B1002BE6D100207C
:100BC000BDE8F0810000044010B502460420FAB1EF
:100BD000F1B1002313700C78538864F3051353802C
:100BE0004C78538864F3C71353808C78538864F32C
:100BF00086135380CC78538864F3010353800C79B7
:100C0000938864F382039380002382F847300020A6
:100C100010BD00002DE9F84F04460E4615469846D3
:100C20004FF0040A4FF000090027BB460020009057
:100C3000002C47D0002E45D0002D43D023488442BD
:100C400009D1112D02D34FF011090BE0E7893F04C0
:100C5000A089074306E0092D02D34FF0090901E0FE
:100C60001A48878901202070194800680A21B0FBC2
:100C7000F1F04FF47A71B0FBF1F000FB08FB0020BB
:100C800000904FF0090A19E01248006898B1B9F1D4
:100C9000000F05D04A463146204600F01DF805E019
:100CA0002B46324639462046FFF75AFF00200949B5
:100CB0000860824605E00098401C00900098584566
:100CC000E2D300BF5046BDE8F88F000000000440AA
:100CD0003080FF1FC008804230B5034603F1500446
:100CE000002005E034F8105021F81050451CE8B2FF
:100CF0009042F7DB30BD000000B589B020A000684D
:100D0000019000BF00200790089000BF00BF049032
:100D10000590069000BF00BF0290039000BF00F056
:100D2000F3FB0121084607F0E3FB00208DF81C00CF
:100D30008DF81D008DF81E008DF81F0007A91148C1
:100D4000FFF742FF01210F48FFF700FF02208DF857
:100D5000080002AAC021002007F0BEFA0A48049049
:100D600000208DF8140001A8069004A90548FFF79B
:100D700079FE05490348FFF7CDFE09B000BD00002C
:100D80000500000000000440C000010010B504464A
:100D9000A078C0F3800018B9A07800F00100D0B1AD
:100DA00002200CF085FD0C49886B8047002211461B
:100DB0000A4806F0FEFE08F01BF900BF642001F0AF
:100DC000E1F808F015F900221146044806F0F1FE9A
:100DD00002F090FDF2E710BD5081FF1FE081FF1F80
:100DE00010B5044608F00CF908F0E2F8A07820F0FD
:100DF0000400A07000202080A07820F00100A070E6
:100E000010BD38B5044605F0F0FDC0B200909DF865
:100E1000000001280CD12088401C20802088142844
:100E200005DDA07820F00400001DA07006E005E0BC
:100E300000202080A07820F00400A07038BD0000C1
:100E40002DE9F04705460E461446002700212846A6
:100E50000AF049F98046012128460AF044F9814602
:100E6000012C07D1B8F1010F02D0B9F1010F08D15F
:100E7000012706E0314628460AF035F9012800D15D
:100E80000127012F0BD1002001E000BF401C0549C4
:100E9000096842F21072B1FBF2F18142F5D8BDE867
:100EA000F08700003080FF1F10B50446002010BD01
:100EB00010B5FFF721FF10BD10B50C4800780F21C9
:100EC00090FBF1F201FB120000EB4000084901EB3E
:100ED00040040523032221460648FFF79BFE0348F2
:100EE0000078401C0149087010BD00002C80FF1FD5
:100EF000706301200000044010B500F005F80446BE
:100F0000012101F092FB10BD0149C8897047000022
:100F1000F0B4FF1F10B5074CFFF7CAFF142120469D
:100F2000FFF7B6FC4FF4FA6000F046F847F2305095
:100F3000606010BDF0B4FF1F70B51E4C01F080FC66
:100F400005466420B5FBF0F100FB115008B9FFF72E
:100F5000B3FF207800F0010090B9B5F5FA6F0ED913
:100F600041F2883085420AD200F050F8E081FFF764
:100F7000C3FF2074206820F00100401C206070BD79
:100F8000A068A84213D2A068281A616888420ED3CC
:100F9000A56000F03BF80646E089C00000EB46067D
:100FA0000A20B6FBF0F6E681FFF7A6FF207400BF2B
:100FB000E5E70000F0B4FF1F014988817047000099
:100FC000F0B4FF1F70B588B005460026002409E084
:100FD00004EB44000C4901EB400030F815002DF8FB
:100FE0001400641C0F2CF3D30F21684600F03EF967
:100FF0000B2101A807F0F9FE06460B20B6FBF0F026
:1010000080B208B070BD0000706301202DE9F0418E
:101010002DED048B104F0020FFF7D4FF0546012073
:10102000FFF7D0FF0646B98901FB06F00FF0EBFE93
:1010300041EC190B9FED090B53EC102B0FF0FAFE4E
:1010400041EC180B0FF0B2FE0446B4FBF5F4A0B26D
:10105000BDEC048BBDE8F081F0B4FF1F0000000080
:10106000000004404A8802444A8070471CB50023AF
:101070001A464FF40041012007F0BCF900BF0020E0
:101080000090019000BF01208DF8000000208DF835
:10109000060002208DF8050000208DF802008DF872
:1010A00004006A464FF40041012007F015F91CBD09
:1010B00010B54FF40041012007F080F910BD10B5C4
:1010C0004FF40041012007F087F910BD10B54FF42F
:1010D0000041012007F0BAF910BD000010B586B03C
:1010E0000446084B0FCBCDE90423CDE902010648A5
:1010F0000121CDE9001002A80FC800F010F806B0D9
:1011000010BD00003C150200C881FF1F0FB49DF800
:10111000000000F0010080F0010004B070477FB5CE
:10112000DDE9085418212046FFF7B2FB0098A060C3
:101130000199E16002992161039961610DB101207A
:1011400000E00020217860F341012170204600F08A
:101150003CF8A06808B1A0688047206908B1206900
:1011600080477FBD7CB504460D46164635B92078CC
:10117000C0F3400010B9E068804719E0012D17D195
:10118000D4E90401CDE9000194E80F00FFF7BEFFA8
:10119000012806D12146304600F015F80020A08035
:1011A00003E021463046FFF75DFF204600F001F8DE
:1011B0007CBD10B50446207820F00100401C207052
:1011C000E068804710BD4880704710B5044620781D
:1011D00020F0010020702069804710BD1CB5044636
:1011E000D4E90401CDE9000194E80F00FFF78EFF78
:1011F000012800D11CBDA088618888420CDC2078C1
:10120000C0F3400010B16069804701E0E0688047AA
:10121000A088401CA08004E02046FFF7D6FF20698C
:10122000804700BFE6E7000010B507F071F90B48F2
:1012300008F080F90A4809F0D3F80A48FFF74EFF92
:10124000094806F07BFC0CF093FA06F024FB0EF044
:101250005DF9044606F07AFD10BD00005081FF1FC5
:101260008C81FF1FC881FF1FE081FF1F70B5024600
:10127000012319E0012012E032F81060451C32F819
:101280001550AE4209DA32F81040451C32F81550BC
:1012900022F81050451C22F81540451CA8B2CD1A62
:1012A0008542E9DA5D1CABB24D1E9D42E2DA70BDAB
:1012B000014631B101290DD0022914D0032924D1CE
:1012C0001AE0184A127802F0010282F0010282F05C
:1012D000010024E0134A1278C2F3C00282F0010236
:1012E00082F001001BE00F4A1278C2F3401282F034
:1012F000010282F0010012E00A4A1278C2F3801261
:1013000082F0010282F0010009E0064A521D1278C3
:1013100002F0010282F0010282F0010000BF00BF72
:10132000704700003C40054038B50446002000905E
:1013300000252A4800884AF2015108432849A1F8AB
:10134000FE0344BB26482630007800F0070008B9A9
:10135000012536E023480068C0F3C01088B120485A
:101360002A30007800F0010008B9012529E01C4866
:101370003630007820F00100401C194981F8360011
:101380001FE017483630007820F00100401C144957
:1013900081F8360015E012483630007820F0010060
:1013A0000F4981F8360000BF0020FFF781FF034698
:1013B0000098401C00900098B0F5805F01D2012B8E
:1013C000F2D1064800884FF6FE71084040F42540EF
:1013D0000349A1F8FE03284638BD0000FE4305403E
:1013E000004005400041054038B50446002000900B
:1013F00000251F4800884AF2015108431D49A1F801
:10140000FE0394B91B482630007800F00700052839
:1014100001D101251FE017482A30007820F0010093
:10142000401C144981F82A0015E012482A3000783F
:1014300020F001000F4981F82A0000BF0220FFF7C9
:1014400037FF03460098401C00900098B0F5805F7D
:1014500001D2012BF2D1064800884FF6FE710840F8
:1014600040F425400349A1F8FE03284638BD00009A
:10147000FE4305400040054000283ED01F49098832
:101480004AF2015211431D4A11800178491E1C4A3B
:10149000D2F8002161F31F721A490A600179491ECE
:1014A000174AD2F8002161F31B6216490A60017ADB
:1014B000491E134AD2F8002161F3175211490A60FC
:1014C0008189491E0E4AD2F8002161F310220D498C
:1014D0000A60017C491E0A4AD2F8002161F3040225
:1014E0000749C1F80021B1F8FE134FF6FE72114012
:1014F00041F42541024AA2F8FE137047FE4305401D
:1015000000400540004105400B4909884AF202525B
:1015100011430A4AA2F8FE131146098A60F3030137
:101520001182054909884FF6FD72114041F42541A9
:10153000024AA2F8FE137047FE43054000400540F2
:101540000D4909884AF2015211430C4AA2F8FE13D0
:101550001146D1F8001160F3C711C2F8001111460D
:10156000B1F8FE134FF6FE72114041F42541034AD3
:10157000A2F8FE1370470000FE43054000400540FE
:1015800010B586B00446002005902E4800680490EF
:101590002C48406803902B48806802902948C06816
:1015A00001902948007800F00700052801D0052C9B
:1015B0000DD1264823490860C01248608860C86081
:1015C00000BF0598401C05900598B028F9D3204825
:1015D00000884AF2015108431B492639A1F8FE034D
:1015E000084690F8260064F3020081F826000846B9
:1015F000B0F8FE034FF6FE71084040F42540124952
:101600002639A1F8FE030020059000BF0598401C74
:1016100005900598B028F9D30A4904980860039802
:101620004860029888600198C8600020059000BF5B
:101630000598401C05900598B028F9D309F0F2F8F8
:1016400006B010BD0080044026400540EEFAFFFFC2
:10165000FE43054085B00021049134490968039197
:101660003249496802913149896801912F49C96815
:101670000091002858D02E49097801F0070105296A
:101680000DD12C49294A1160C91251609160D16075
:1016900000BF0499491C04910499B029F9D3264943
:1016A00009884AF201521143234A11808178C27895
:1016B00041EA0211027941EA0221427941EA02310A
:1016C000827941EA0241427841EA0251027841EAD4
:1016D000026141EA0271164A263A116216490988E6
:1016E0004FF6FE72114041F42541114A263AA2F804
:1016F000FE130021049100BF0499491C0491049930
:10170000B029F9D3094A03991160029951600199EE
:1017100091600099D1600021049100BF0499491C97
:1017200004910499B029F9D305B0704700800440B2
:1017300026400540EEFAFFFFFE43054010B50821A4
:1017400003480AF0BBF8002101480AF02BF910BD4C
:101750000058014010B548F2E4400AF049FB10BDC2
:1017600010B5012101480AF01DF910BD00580140D3
:1017700010B5002101480AF00FFA10BD00580140D1
:1017800010B5082103480AF099F8002101480AF031
:1017900009F910BD0054014010B540F22A200AF0AA
:1017A000EDFA10BD10B5012101480AF0FBF810BD9B
:1017B000005401402DE9F04104460D46164600272D
:1017C000A582A18A00200EF0E7FF2061266005F0C7
:1017D00090FFA0601420A081206918B1A06808B112
:1017E000012000E0002007463846BDE8F0812DE9E1
:1017F000F04106460F4614460025F82100200EF061
:10180000CBFF05461FB115B1E62C00DC0CB9BDE8D5
:10181000F0812246394605F11200FEF798FF2C822E
:101820002946B06805F042FF00BFF0E710B502F0AE
:101830007FF808F067FE00200EF0A4FF00F092FB96
:10184000114801F0F0FB114800F096FD01F0D6FAC6
:1018500008F0AEFE0BF0BCFB01F0C0FA04460BF042
:101860003DFC01F0B5FA04460BF030FC01F0A0FAA3
:1018700004460BF023FC01F095FAC4B220460BF0AD
:1018800015FC08F03AFD10BD606301205865012089
:1018900073B586B00546BDF81C60002400222146C1
:1018A000641C01A84254A0222146641C4254032215
:1018B0002146641C42542146641C45542044079927
:1018C0000160241D214601A800F0EAFF08B070BDA8
:1018D00070B586B005460E46002400222146641CE1
:1018E00001A8425405222146641C4254022221468A
:1018F000641C42545A222146641C4254062221464A
:10190000641C425430222146641C42540EB1012210
:1019100000E000222046611CCCB201A90A542046F6
:10192000611CCCB201A90D54AA222046611CCCB284
:1019300001A90A54214601A800F0B2FF06B070BD0B
:1019400010B500BF00F15C0303EB81131B6823F0AB
:1019500003031478234300F15C0404EB8114236037
:1019600000BF00BF00F15C0303EB81131B6823F091
:101970000C03547843EA840400F15C0303EB811305
:101980001C6000BF00BF00F15C0303EB81131B6808
:1019900023F01003947843EA041400F15C0303EB92
:1019A00081131C6000BF00BF00F15C0303EB8113D7
:1019B0001B6823F02003D47843EA441400F15C034D
:1019C00003EB81131C6000BF00BF00F15C0303EB5D
:1019D00081131B6823F04003147943EA841400F157
:1019E0005C0303EB81131C6000BF00BF00F15C03CC
:1019F00003EB81131B6823F08003547943EAC4147A
:101A000000F15C0303EB81131C6000BF00BF00F119
:101A10005C0303EB81131B6823F44073947943EA5E
:101A2000042400F15C0303EB81131C6000BF00BFC2
:101A300000F15C0303EB81131B6823F48063D4790A
:101A400043EA842400F15C0303EB81131C6000BFB4
:101A500000BF00F15C0303EB81131B6823F40063F8
:101A6000147A43EAC42400F15C0303EB81131C6085
:101A700000BF00BF00F15C0303EB81131B6823F47C
:101A80008053547A43EA043400F15C0303EB81137E
:101A90001C6000BF10BD0000F0B5034615460022D3
:101AA000002601205C4F3870D86901278F4020EA5A
:101AB0000706002E7DD0D86900F00100D8B1D1B161
:101AC000986C040C986E0A27B7EB104F13D3986EDE
:101AD000B4EB104F0FD909E0501C82B2B2F5A04F01
:101AE00004D900204C4F38700920F0BDD86900F0AF
:101AF00001000028F0D1D86900F00200022820D1AE
:101B000001291ED0D3F88800040CD3F8A8000A27B6
:101B1000B7EB104F15D3D3F8A800B4EB104F10D982
:101B2000002209E0501C82B2B2F5A04F04D9002077
:101B3000394F38700920D8E7D86900F00200002832
:101B4000F0D1D86900F00400042820D102291ED069
:101B50000022D3F8C800040CD3F8E8000A27B7EB3A
:101B6000104F14D3D3F8E800B4EB104F0FD909E0AD
:101B7000501C82B2B2F5A04F04D90020264F387015
:101B80000920B2E7D86900F004000028F0D1D86934
:101B900000F00800082822D1032920D00022D3F821
:101BA0000801040CD3F828010A27B7EB104F16D30D
:101BB00000E014E0D3F82801B4EB104F0FD909E08E
:101BC000501C82B2B2F5A04F04D90020124F3870D9
:101BD00009208AE7D86900F008000028F0D14DB14B
:101BE000012D12D1D86901278F4007F00F07384324
:101BF000D8610AE0D86901278F404FF00F0C2CEA1A
:101C0000070C00EA0C00D86100BF00BF0020024FA3
:101C1000387000BF69E700003480FF1F70B50346CD
:101C2000002039B1012905D0022903D0032901D0B0
:101C3000042026E032B1012A0AD0022A10D0032A59
:101C40001CD113E05C6901258D402C435C6117E0D9
:101C50005C6901F110050126AE4034435C610FE080
:101C60009C6901258D402C439C6109E09C6901F130
:101C700010050126AE4034439C6101E0042000BF02
:101C800000BF70BD026861F300020260704770B56A
:101C90000346002039B1012905D0022903D00329C8
:101CA00001D0042026E032B1012A0AD0022A10D045
:101CB000032A1CD113E0DC6801258D40AC43DC60B5
:101CC00017E0DC6801F110050126AE40B443DC608A
:101CD0000FE01C6901258D40AC431C6109E01C69C3
:101CE00001F110050126AE40B4431C6101E004205F
:101CF00000BF00BF70BD000070B505460C4616461B
:101D000001212846FFF7BEFF05F15C0000EB8410BF
:101D1000006820F4805105F15C0000EB8410016044
:101D200005F1400000EB84107168016005F144008A
:101D300000EB8410B168016000BF05F1480000EBC2
:101D4000841000686FF309003188084305F14801E9
:101D500001EB8411086000BF00BF718805F14800E5
:101D600000EB8410006861F31F4005F1480101EBAE
:101D70008411086000BF00BF05F14C0000EB841027
:101D800000686FF30900B189084305F14C0101EBCC
:101D90008411086000BF00BF05F14C0000EB841007
:101DA00000682B490840F18940EA014105F14C00E7
:101DB00000EB8410016000BF00BF05F1500000EB94
:101DC000841000686FF313007169084305F1500136
:101DD00001EB8411086000BF00BF318B05F150009A
:101DE00000EB8410006861F31F5005F1500101EB16
:101DF0008411086000BF00BF05F1540000EB84109F
:101E000000686FF31300F169084305F1540101EB19
:101E10008411086000BF00BF318C05F1540000EB55
:101E20008410006861F31F5005F1540101EB841127
:101E3000086000BF05F1580000EB841031690160B3
:101E400006F1240221462846FFF77AFD70BD000006
:101E5000FFFF00FC30B503460024002003F14405D9
:101E600005EB81152A600BE0651CACB2B4F5805F10
:101E700001D9092004E003F1440505EB81152A602E
:101E800003F1640505EB81152D689542ECD130BD59
:101E900030B503460024002003F1400505EB811511
:101EA0002A600BE0651CACB2B4F5805F01D9092053
:101EB00004E003F1400505EB81152A6003F160059C
:101EC00005EB81152D689542ECD130BD70B5034608
:101ED0000024002000BF03F1480505EB81152D68A3
:101EE00062F31F4503F1480606EB8116356000BF1B
:101EF00014E0651CACB2B4F5805F01D909200DE097
:101F000000BF03F1480505EB81152D6862F31F45FD
:101F100003F1480606EB8116356000BF03F1680542
:101F200005EB81152D68B2EB154FE2D170BD0000B5
:101F300010B5094B984205D1084C04EB8103C3F856
:101F4000142807E0064B984204D1044C04EB8103AB
:101F5000C3F8242810BD00000030054000000140F7
:101F600000340540064800684FF47A71B0FBF1F088
:101F70004FF0E0214861002088610520086170472A
:101F80003080FF1FF0B5034600224FF0E026756950
:101F90000F4E36684FF47A77B6FBF7F606FB03F47C
:101FA0004FF0E026B16910E04FF0E026B0698842BA
:101FB0000BD0884202D20E1A324402E02E1A0E448E
:101FC00032440146A24200D300E0EDE700BFF0BD7D
:101FD0003080FF1F70B58AB00446202102A8FEF7AA
:101FE00057FC2078C0F3400008B90AB070BD2078D3
:101FF000C0F3801010B12648808901E0254880890F
:102000000546606AA8422BD3002610E004F128039D
:102010009A192378C3F380102B46216900F09EFAA9
:10202000206928442061606A401B60622E44606A17
:10203000A842EBD2606A28B104F128008119626AD3
:10204000FEF785FB1E20019001AA02A9FF2006F0E1
:102050004FFD012804D1BDF8041002A86268904722
:102060002078C0F3800080B12278C2F3801004F1A0
:102070002802636A216900F071FA2069284420610E
:1020800000206062204608F0D7F900BFADE70000ED
:102090005865012060630120014908607047000015
:1020A000140401400349096860F30001014A11600A
:1020B000704700000C040140012801D0012200E01B
:1020C00000220349096862F30001014A1160704768
:1020D00004040140014604480068084008B101209A
:1020E00070470020FCE7000010040140044800682D
:1020F000012804D143F210200149086008607047AC
:102100000004014070B50346002400263F20FFF77D
:10211000C3FF18480068C0F300451648006820F463
:102120008030144908600120FFF7BCFF042000F054
:1021300025F81148186005E0601C84B2B4F5805F92
:1021400000D909260B4808300068C0F30020002899
:10215000F2D01020FFF7A0FF002000F00FF80020C1
:10216000FFF7A0FF0348006865F3104001490860CD
:10217000304670BD0804014078563412034909689E
:1021800060F30611014A1160704700000C04014021
:102190000349096860F30711014A116070470000A4
:1021A00008040140F0B503460C46002600253F20F8
:1021B000FFF772FF19480068C0F30047174800682E
:1021C00020F48030154908600120FFF76BFF0120E3
:1021D000FFF7D4FF1C6005E0681C85B2B5F5805F91
:1021E00000D909260D4808300068C0F300200028F7
:1021F000F2D01868A04200D001261020FFF74CFF53
:102200000020FFF7BBFF0020FFF74CFF03480068EA
:1022100067F31040014908603046F0BD08040140F2
:1022200040F223100249086043F210200860704712
:102230000004014010B5024610780A4B042414FB38
:1022400000315378086863F3C71008609378086812
:1022500063F305100860D378086863F30100086031
:10226000002010BD1010054001460448806D012279
:102270008A401043014A90650020704700100540D5
:102280000146064A526D01238B401A400AB90122C9
:1022900000E0002282F001007047000000100540BD
:1022A00001460020A1F50542153A5AB1A2F5D242E5
:1022B000FF3A22B1022A08D0032A0CD108E04FF4D9
:1022C00000600AE04FF4805007E04FF4005004E053
:1022D0004FF4804001E0002000BF00BF704701467E
:1022E000A1F50542153A4AB1A2F5D242FF3A22B110
:1022F000022A04D0032A06D102E000BF00BF00BFBB
:102300004FF4807001E0002000BF00BF70472DE94E
:10231000F04705468846144600272868404504D8FB
:1023200008EB04006968884202D30020BDE8F0870A
:10233000A88908B90020F9E7214600200EF02CFA00
:1023400007460FB90020F1E74FF0000923463A464F
:102350004146284600F034F8A04206D1002602E0AB
:10236000B85D8144761CA642FAD3394600200EF0AF
:10237000F7F94846DAE7000010B504460F480BF0BD
:102380000DF9002020606060A060E0600B48B0F8AC
:102390001E01E081E089FFF7A2FFA081E089FFF73D
:1023A0007FFFA0604FF07040206060604FF480625B
:1023B000D4E9010102FB0100606010BD2864012026
:1023C0002DE9FE4304460D4617461E464FF0000811
:1023D0002068A84202D86068A84202D20020BDE866
:1023E000FE83A08908B90020F9E711E0A0892168DF
:1023F000691ACDE9007102900E480FC80BF0FEF883
:10240000A089361AA0890544A0890744A089804480
:10241000A089B6FBF0F00028E8D146B1B0B2CDE912
:102420000075029003480FC80BF0E8F8B04440462E
:10243000D5E70000286401202DE9FF4F85B005464F
:102440000E469B46AC894FF00009DA46BAF1000F00
:1024500000D01CB9002009B0BDE8F08F2868B04258
:102460005DD806EB0A006968884258D221460020F0
:102470000EF092F98146B9F1000F01D10020EAE790
:102480002868361AB6FBF4F808FB04F8B6FBF4F03B
:1024900004FB106080B204900498201A80B203906C
:1024A00035E0286800EB080123464A462846FFF736
:1024B00087FF002706E00798C15D0498384409F8B3
:1024C00000107F1C0398504501D2039800E050464D
:1024D000B842F0D8AAEB070A079838440790114889
:1024E000CDF800800FC80BF02EF80E48CDE900980B
:1024F00002940FC80BF0E7F8A044BAF1000F00D126
:1025000006E0002004900498201A80B20390C8E7E7
:1025100000BF494600200EF023F958469BE70020F3
:1025200099E70000286401202DE9F04105460E4698
:10253000174635B13A4631460648FFF7E8FE0446ED
:1025400005E03A463146044800F058FD044620466E
:10255000BDE8F08158650120606301202DE9F0415C
:1025600004460D4616461F4634B13B4632462946C0
:102570000548FFF761FF05E03B4632462946034820
:1025800000F076FDBDE8F081586501206063012010
:102590001CB500231A464FF40041012005F02AFF24
:1025A00000BF00200090019000BF8DF800008DF862
:1025B00004006A464FF40041012005F08DFE00231F
:1025C0001A464FF48041012005F014FF01208DF8D8
:1025D000000000208DF8060002208DF80500002084
:1025E0008DF802008DF804006A464FF48041012006
:1025F00005F072FE1CBD10B54FF40041012005F03E
:102600005BFE0446012C00D110BD0020FCE710B594
:102610004FF48041012005F0D1FE10BD10B54FF4FC
:102620008041012005F0D8FE10BD0246642001EB78
:1026300081239B00934200DC69E040F678734B43B2
:10264000934201DC5A2062E040F614734B439342FC
:1026500001DC50205BE040F6C4634B43934201DC55
:10266000462054E040F674634B43934201DC3C2027
:102670004DE040F656634B43934201DC322046E086
:1026800040F624634B43934201DC28203FE040F6B0
:1026900006634B43934201DC1E2038E040F6B653FC
:1026A0004B43934201DC142031E040F698534B43F6
:1026B000934201DC0F202AE040F6E4434B4393426F
:1026C00001DC0A2023E040F6B2434B43934201DC95
:1026D00005201CE040F64E434B43934201DC0420AE
:1026E00015E040F61C434B43934201DC03200EE00F
:1026F00040F686334B43934201DC022007E040F66C
:1027000054334B43934201DC012000E0002070472A
:10271000024601231048104448B1B0F5806F0AD03A
:10272000B0F5804F0BD0B0F5884F10D10BE009B158
:10273000002008700DE009B10120087009E009B11E
:102740000220087005E009B10320087001E00023B1
:1027500000BF00BF012070470030FEBF002070475F
:1027600010B5002404F008FA806908B9022000E0DE
:10277000002004430BF07CFA806908B9042000E0D3
:102780000020044306F042FE806908B9102000E0F2
:1027900000200443204610BD70B5002400F0BAF8B4
:1027A00005462879C0F3400008B9102000E0002059
:1027B0000443204670BD70B500240CF0A7FE05460A
:1027C000287908B9012000E000200443204670BDAC
:1027D0000020704710B50246002002E0137818442C
:1027E000521C0B1EA1F10101F8D110BD014642F2AD
:1027F00029400844407842F229420A44927840EA4B
:10280000022070470120704770B506460C4604B997
:1028100070BDA078617840EA0125A5F57E400838B2
:1028200028B90822211D304601F0B3FA05E008223C
:10283000211D304603F0D0FE00BF00BF00BFE7E718
:10284000054880880449896801EB4102C2EBC11147
:1028500000EBC1007047000000B6FF1F10B5082153
:10286000034809F02BF80021014809F09BF810BD3E
:102870000050014010B548F2886009F045FA10BDDB
:1028800010B50121014809F08DF810BD005001403C
:1028900010B50021014809F07FF910BD005001403A
:1028A000F8B505460E460821FE2007F078FC0446E0
:1028B00054B1207800F0010030B12B460822211DD0
:1028C0000120009603F057FEF8BD00000048704755
:1028D000EC6701200FB410B5FFF7F8FF0446202184
:1028E0002046FDF7D5FF02986060059921610699A1
:1028F00061610399A1600499E160606808B1606852
:10290000804710BC5DF814FB00B5FFF7DFFF014600
:10291000002000BD0048704770B5FF1F10B58AB099
:10292000FFF7F8FF044628212046FDF7B1FF1C22DF
:10293000134903A8FDF750FF07A807C88DE8070053
:1029400003A80FC8FFF7C6FFFFF7C0FF206064228F
:102950004FF4007104F1080006F033FE616860F383
:1029600000016160282104F1080006F02EFF4FF4F9
:102970007A720121204600F003F90AB010BD000070
:10298000501702002DE9FC41FFF7C4FF064606F18F
:102990000804A08AE18A401A80B2019000200090C9
:1029A000FFF74EFF07464FF00008307900F00100B6
:1029B00008B9BDE8FC816068B84216D26068381A70
:1029C0002168884211D36760FFF79EFF68B92046EF
:1029D00006F0FDFE8046B8F1000F06D0B8F81010E2
:1029E0003068C26808F112009047E38A2169C8186C
:1029F00031688A6801A99047012838D1E08ABDF87A
:102A000004100844E08200252DE0E08A401B80B2DB
:102A10000190216948196A4601A906F051F9012877
:102A20001AD1A761009801280AD1E38A5A1B2369A9
:102A300059191846FDF78BFEE08A401BE08215E02D
:102A4000216948193246BDF8041000F017F8BDF8A6
:102A50000400284485B201E0681C85B2E08AA842DF
:102A600001D10020E082E08AA842CEDC00BF00BF96
:102A70009FE700000048704778B5FF1F2DE9F0413F
:102A800004460F46164635466078BE280CD1686865
:102A900020F00200801C6860A278637842EA03217B
:102AA000286906F060FE00E000BF00BFBDE8F081CD
:102AB00010B590B0242107A8FDF7EAFE0B4C2422A4
:102AC0000B4907A8FDF788FE4FF4E1300890142267
:102AD0000BA968460594FDF77FFE07A80FC809F00B
:102AE000F9FC204609F001FD10B010BD40B6FF1FF3
:102AF000C016020070B506460D461A4C94F8400800
:102B000000F0010058B3B4F82C0838B994F8400824
:102B100020F0010084F84008002070BD2888B4F837
:102B20002C1888420ADBB4F82C2804F22C413046D9
:102B3000FDF70DFEB4F82C08288005E02A8804F281
:102B40002C413046FDF703FE0020A4F82C0894F831
:102B5000400820F0010084F840080120DDE7002053
:102B6000DBE7000040B6FF1F70B504460D462A465D
:102B7000214602480AF012F970BD000040B6FF1F5E
:102B80002DE9F04106460F4690460024F82100202A
:102B90000DF002FE04460CB9BDE8F081F821204694
:102BA000FDF776FE00202082AA21228A501C208276
:102BB00004F112008154BE21228A501C208204F1AB
:102BC000120081540021228A501C208204F112003C
:102BD00081540221401C06F0D1FC85B2290A228AC8
:102BE000501C208204F112008154228A501C208241
:102BF00004F112008554E421228A501C208204F141
:102C0000120081541B21228A501C208204F11200E0
:102C100081541121228A501C208204F11200815417
:102C2000EE21228A501C208204F112008154217D61
:102C3000E07C41EA002020606760C4F80C802146F7
:102C4000306906F006FD00BFA6E72DE9F05F80467B
:102C5000894617461D46DDE90AAB0024642D01DDD7
:102C6000BDE8F09FF82100200DF096FD044604B960
:102C7000F6E7F8212046FDF70BFE00202082AA216E
:102C8000228A501C208204F112008154C021228A21
:102C9000501C208204F112008154218A481C208299
:102CA00004F1120000F8019087B1228A0146501801
:102CB0002A463946FDF74BFDA91C04F1130006F026
:102CC0005DFC86B2208A2844208205E0022104F1BE
:102CD000130006F053FC86B2310A228A501C20826F
:102CE00004F112008154228A501C208204F1120047
:102CF0008654E421228A501C208204F1120081545F
:102D00001B21228A501C208204F1120081541121BF
:102D1000228A501C208204F112008154EE21228A62
:102D2000501C208204F112008154217DE07C41EA94
:102D300000202060C4F804A0C4F80CB02146D8F8E4
:102D4000100006F086FC00BF8AE7000030B58FB0A7
:102D50000446342102A8FDF79BFD0020042306222F
:102D60000AA1009002A8FDF791FB02A8FDF7D0FC94
:102D700085B24FF47A7001212B4602AACDE90010EA
:102D800006212046FFF761FF0FB030BD5625642EA7
:102D900025642E25640000000148007B7047000078
:102DA0008C80FF1F01488088704700008C80FF1FC7
:102DB00001488078704700008C80FF1F00487047F2
:102DC0009280FF1F01484089704700008C80FF1FE0
:102DD00001484078704700008C80FF1F0148007850
:102DE000704700008C80FF1F004870479B80FF1FCA
:102DF0000148407B704700008C80FF1F00B589B000
:102E00001648006800F50040144A92898118202372
:102E100001AA124800F01FF91C2101A8FFF7DAFCF3
:102E20000899884213D001A800F05CF81C2101A881
:102E3000FFF7D0FC08900948006800F50040074AF9
:102E400092898118202301AA044800F011F91C225C
:102E500001A90348FDF7C0FC09B000BD6063012073
:102E60008C80FF1F10B50446FF2C05D01048007859
:102E7000A04201D0002010BDFF2905D00C484078A9
:102E8000A04201D00020F6E7FF2A05D0084880784C
:102E9000A04201D00020EEE74FF6FF70834205D03C
:102EA00003488088A04201D00020E4E70120E2E747
:102EB0008C80FF1F10B51C210848FFF78BFC0749C9
:102EC000C8610748006800F50040054A92898118EA
:102ED0002023024A024800F0CBF810BD8C80FF1F6F
:102EE0006063012010B5044604B910BD20212046BE
:102EF000FDF7CEFCFF20A070302020700120607014
:102F0000FF20A0704FF6FF70A080C020A071A82104
:102F1000E171062121722A21617240F6A17060815F
:102F200001202073022060730F20A073FF20E07344
:102F3000FF2121746174A174E17421756175A1751B
:102F400000BFD2E7022801DA014908737047000088
:102F50008C80FF1F01498880704700008C80FF1F14
:102F600001498870704700008C80FF1F28B1042938
:102F700003DB024A0368C2F8063070478C80FF1FEB
:102F800001494881704700008C80FF1F014948704B
:102F9000704700008C80FF1F0149087070470000D7
:102FA0008C80FF1F002801DD102801DBFF2801D1E4
:102FB00001498873704700008C80FF1F0CB509A37E
:102FC0000CCBCDE9002338B1082905DB074A03689B
:102FD00013604368536004E0044A009B1360019B44
:102FE00053600CBDFFFFFFFFFFFFFFFF9B80FF1F34
:102FF0004FF4007070474FF40050704730B50346EF
:103000001868884203D888185D68A84201D3002058
:1030100030BD002403E008780444521E491C002AF5
:10302000F9D12046F4E700B5024600201060506058
:103030009060D060FFF7DFFF9081FFF7D9FF9060CD
:103040000020106050604FF48063D2E9010103FB5F
:103050000100506000BD30B505461446002203E073
:103060000878A054491C521C9A42F9D3184630BD26
:103070002DE9FF4F83B006460F469B46B5894FF0BA
:103080000009DA46BAF1000F03D1002007B0BDE80D
:10309000F08F3068B84270D807EB0A007168884238
:1030A0006BD2294600200DF077FB8146B9F1000F65
:1030B00001D10020EAE7FFF7B3F80120FEF7FCFF9B
:1030C00000BF4FF48070FFF705F80128F9D1306890
:1030D0003F1AB7FBF5F808FB05F8B7FBF5F005FB61
:1030E000107080B202900298281A80B2019039E0E4
:1030F000306800EB08012B464A463046FFF7ABFF2D
:10310000002406E00598015D0298204409F80010AB
:10311000641C0198504501D2019800E05046A0423D
:10312000F0D8AAEB040A059820440590316801EB19
:103130000800FEF7E7FF002407E059F804103268A2
:1031400042441019FFF72EF8241DAC42F5D3A844D1
:10315000BAF1000F00D106E0002002900298281A70
:1031600080B20190C4E700BF494600200DF0F8FA94
:10317000FEF7BCFF584689E7FFE7002086E710B559
:103180000421052005F01AF906F077FB4FF40051F1
:10319000022005F013F90421052005F01DF9042192
:1031A000052005F00BF910BD10B50421052005F030
:1031B00005F906F062FB4FF40051022005F00CF90E
:1031C0000421052005F008F90421052005F0F6F892
:1031D00010BD70B50546002406F042FB002613E042
:1031E0000421052005F0EAF80421052005F0F4F893
:1031F0006006040E4FF40051022005F05DF808B19E
:10320000601CC4B2701CC6B2082EE9DB15B9FFF70A
:10321000CBFF01E0FFF7B3FF204670BD70B5054658
:10322000002419E005FA04F000F0800028B14FF402
:103230000051022005F0D0F804E04FF400510220C4
:1032400005F0BCF80421052005F0C6F8042105208E
:1032500005F0B4F8601CC4B2082CE3DB70BD10B5F7
:103260004FF40051022005F0B7F80421052005F0C5
:10327000B3F84FF40051022005F0A0F80421052016
:1032800005F09CF810BD10B54FF40051022005F078
:1032900095F80421052005F09FF84FF40051022015
:1032A00005F09AF810BD10B500244FF4005102202B
:1032B00005F092F806F0D4FA0421052005F08CF808
:1032C0004FF40051022004F0F7FF044604210520CA
:1032D00005F074F806F0D1FA204610BD004870479A
:1032E00004B5FF1F10B5FFF7F9FF04464021204643
:1032F000FDF7CEFA094860600949A1600949E1601B
:103300006068804764224FF4007104F12400FEF7E6
:1033100051FA216A60F30001216210BD01340100FD
:1033200009340100553401002DE9F843FFF7D6FFB9
:10333000064606F12404A08AE18A401A80B2009071
:10334000FFF77EFA07464FF0000896F8200000F0DD
:10335000010008B9BDE8F8836068B84218D2606817
:10336000381A2168884213D3676003F021FB78B9CB
:10337000A06804F0C2F98046B8F1000F08D0B8F890
:10338000101008F11200F2689047A06804F0C3F929
:10339000E38A2169C8186946B2689047012828D194
:1033A000E08ABDF800100844E08200251EE0E08AB3
:1033B000401B80B2009021694819694605F0C2FCA3
:1033C00001280CD1A76120694119BDF80020002017
:1033D00000F04CFBBDF80000284485B201E0681CF9
:1033E00085B2E08AA84201DC0020E082E08AA8429F
:1033F000DDDC00BFAEE700000048704728B5FF1FC6
:1034000010B509F0CFFF10BD70B5C2B005460C462F
:103410004FF48070019001A902A809F0C9FF064687
:10342000B6B92088BDF80410884209DBBDF8042035
:1034300002A92846FDF78BF9BDF80400208004E0BE
:10344000228802A92846FDF782F9012042B070BD0A
:103450000020FBE770B504460D462946204609F0DA
:10346000DBFF70BD2DE9F04FBDB006464FF0000AFE
:10347000D346D04600203C9000240027C6E04FF001
:103480000009BDE0C9EBC91166480C180025AFE082
:1034900005EB8501E01D10F8211007EB870206F10E
:1034A0000F00805C81427CD105EB8501E01D00EBC3
:1034B0008100417807EB870206F10F001044407845
:1034C00081426ED105EB8501E01D00EB8100407962
:1034D000010405EB8502E01D00EB8200807941EAE2
:1034E000002005EB8502E11D01EB8201C97908434B
:1034F0003C9007EB870106F10F0008448078010437
:1035000007EB870206F10F001044C07841EA002063
:1035100007EB870206F10F011144097940EA01081F
:103520003C9800EB080A05EB8501E01D00EB8100EB
:103530008078010405EB8502E01D00EB8200C07875
:1035400041EA002005EB8502E11D01EB82010979CA
:1035500040EA010B4FEA1A4105EB8502E01D00EB42
:10356000820041714FEA1A2105EB8502E01D00EB54
:103570008200817105EB8502E01D00EB820080F87E
:1035800007A00BEB0800010C05EB8502E01D00EB2A
:10359000820081700BEB0800010A05EB8502E01D3B
:1035A00000E023E000EB8200C1700BEB0800C1B229
:1035B00005EB8502E01D00EB820001716F2204F132
:1035C00010016846FDF7C3F87F2221461CA8FDF7CD
:1035D000BEF81CA80FC801F0F5FC4820307202208C
:1035E0007072FF20B072F072FF213173681CC5B297
:1035F000A078A8423FF74CAF09F1010000F0FF09A5
:10360000B9F1050FFFF63EAF781CC7B2707BB84228
:103610003FF735AF24200AF045F900F0D5FD3DB065
:10362000BDE8F08F0386FF1F10B50821054808F09C
:10363000E1F9012805D10821024808F03FF903F01B
:10364000C7F810BD0050014010B50821054808F02A
:10365000D1F9012805D10821024808F02FF908F016
:1036600008FC10BD0054014010B50821054808F0C1
:10367000C1F9012805D10821024808F01FF903F01B
:1036800033F810BD0058014010B50B20FEF7F8FDCF
:10369000012804D10B20FEF7E7FD02F0FBFF10BD6F
:1036A00010B54FF40051084807F0ACFF50B14FF48B
:1036B0000051054807F07AFF034808F09FF80348D7
:1036C0004169884710BD000000480240686501203C
:1036D00010B54FF40051064807F094FF30B106F0E2
:1036E000DFFF4FF40051024807F060FF10BD0000FB
:1036F0000070014010B5024809F0CBF910BD000080
:1037000040B6FF1F10B5024809F0E5F910BD0000F2
:1037100040B6FF1F10B5024809F0FCF910BD0000CB
:1037200040B6FF1F10B5024809F08FFA10BD000027
:1037300040B6FF1F10B5024809F06AFA10BD00003C
:1037400040B6FF1F10B5024809F05DF910BD00003A
:1037500040B6FF1F10B5024809F09BF910BD0000EC
:1037600088BEFF1F10B5024809F0B5F910BD000072
:1037700088BEFF1F10B5024809F0CCF910BD00004B
:1037800088BEFF1F10B5024809F05FFA10BD0000A7
:1037900088BEFF1F10B5024809F03AFA10BD0000BC
:1037A00088BEFF1F10B5024809F02DF910BD0000BA
:1037B00088BEFF1F10B5024809F06BF910BD00006C
:1037C000D0C6FF1F10B5024809F085F910BD0000F2
:1037D000D0C6FF1F10B5024809F09CF910BD0000CB
:1037E000D0C6FF1F10B5024809F02FFA10BD000027
:1037F000D0C6FF1F10B5024809F00AFA10BD00003C
:10380000D0C6FF1F10B5024809F0FDF810BD00003A
:10381000D0C6FF1F10B5024809F03BF910BD0000EB
:1038200018CFFF1F10B5024809F055F910BD000070
:1038300018CFFF1F10B5024809F06CF910BD000049
:1038400018CFFF1F10B5024809F0FFF910BD0000A6
:1038500018CFFF1F10B5024809F0DAF910BD0000BB
:1038600018CFFF1F10B5024809F0CDF810BD0000B9
:1038700018CFFF1F0EB500BF00200190029000BFBF
:1038800000BF009000BF0B208DF8000001208DF8D4
:10389000010000208DF803006846FEF7CBFC0020F5
:1038A0008DF8040001208DF806008DF8080001AAAB
:1038B000C102002004F010FD03210B2003F050F89A
:1038C00003200AF0AFFB002103200AF0E7FB0320EE
:1038D0000AF0C3FB0EBD1CB500BF00200090019094
:1038E00000BF01208DF800006A460103002004F0AB
:1038F000F3FC1CBD10B509F02FFF10BD1CB500BFB7
:1039000000200090019000BF0A208DF801000320E4
:103910008DF800000F208DF8020000208DF80300C4
:1039200001208DF80400684609F0F8FE1CBD000077
:1039300000200BE0074A042303FB00210A686FF311
:10394000080202F2FF120A60421C90B27F28F1DDE9
:10395000704700005C1005402DE9FC470446FFF766
:10396000BDFC80460AF0B0F8814600250CB1E06845
:1039700010B90020BDE8FC87F82100200CF00CFFF6
:1039800005460DB90020F5E7F8212846FCF780FF31
:103990002078B8B9E068407806062E60208AE628CC
:1039A00001DA208A00E0E62028822A8A05F1120046
:1039B000E168FCF7CCFE2946D8F82C0003F076FE2F
:1039C00001274AE0606810B1207A022801DC002754
:1039D00043E0E620288205F11000811CCDE90010AB
:1039E000238A217AE268606804F011FB90B3002614
:1039F000E068007855280AD1218AE06805F002FACB
:103A00000646217A606805F0FDF9064414E0E06896
:103A1000407846EA0066207AC01E6168085C46EA83
:103A20000046207A801E6168085C46EA0026207AFB
:103A3000401E6168085C06432E6060696860A0698A
:103A4000E8602946D9F8100005F02BFE012101EBB2
:103A5000E07701E0FFE7002700BF00BF1FB929465C
:103A600000200CF07DFE384684E700002DE9F84385
:103A700006460D46144626B901221146984804F020
:103A800098F822462946974809F088F968782978F5
:103A900040EA01274AF2AE21781A8F4272D029DC1F
:103AA0004AF27421A7EB01008F424AD015DC4AF29A
:103AB0006721A7EB01008F4240D009DCA7F5224027
:103AC000A0F1510078B3012836D0152875D134E023
:103AD000012834D00A28F9D132E02F2853D004DC51
:103AE0002C2839D02D28F1D141E0302858D0392860
:103AF000ECD163E0FA2878D00CDCF72876D004DC2F
:103B0000012867D05128E1D174E0F8286FD0F92856
:103B1000DCD193E0B0F5857F6AD005DCFC2868D065
:103B2000FD28D3D1ABE006E0A0F20B1000286ED048
:103B30000728CBD1C4E0CFE0CEE0CDE0CCE0CBE0B5
:103B4000CAE00AF013F880462B4608224146304668
:103B5000009400F0A0FABFE00AF008F880462B4677
:103B6000082241463046009400F04EFCB4E009F0D3
:103B7000FDFF80462B46082241463046009400F067
:103B8000A7F9A9E025E009F0F1FF80462B460822BD
:103B900041463046009400F0D5FD06F01FFB9BE047
:103BA00009F0E4FF80462B46082241463046009447
:103BB00000F04CFE06F012FB8EE08CE009F0D6FF20
:103BC00080462B46082241463046009400F050FBC8
:103BD00082E081E009F0CAFF80462B460822414678
:103BE0003046009400F09EFC76E032E010E01AE0EF
:103BF00050E039E009F0BAFF80462B4608224146E2
:103C00003046009400F034FB07F0EAFF64E04CE03B
:103C100009F0ACFF80462B4608224146304600940E
:103C200000F0DCFE58E009F0A1FF80462B46082298
:103C300041463046009402F045FA4DE009F096FF07
:103C400080462B46082241463046009400F030FF63
:103C500042E009F08BFF80462B4608224146304661
:103C6000009402F0F9F837E009F080FF80462B4617
:103C7000082241463046009401F03EFA2CE009F05B
:103C800075FF80462B46082241463046009400F0DE
:103C90003DFF21E009F06AFF80462B46082241469D
:103CA0003046009401F0A6FE16E009F05FFF804662
:103CB0002B46082241463046009401F027FC0BE0D9
:103CC00009F054FF80462B460822414630460094B6
:103CD00000F0A5F800E000BF00BFBDE8F8830000D9
:103CE000E081FF1F88BEFF1F2DE9F84F80460C467C
:103CF00015460CB9BDE8F88FA678022E00DAF9E770
:103D000094F804906779B9F1060F25D1012F11D1EC
:103D1000207A10280ED1062E0CDD607A40F080004B
:103D20006072A5F1080081B201230622A01D05F0F2
:103D300009FB10E0012F0ED1207AAF280BD1607A59
:103D400040F080006072A5F1080081B201230622D4
:103D5000A01D05F0F7FA19E0B8F1010F15D14FF0E9
:103D6000000A2946204605F04DF8824609F0FEFE7D
:103D70000821009005F046F8824409F079FF834657
:103D80005146DBF8080005F0EEFC00BF00BF00BFA5
:103D9000B0E7F0B595B005460E4617460024A222BE
:103DA0002146641C08A84254C0222146641C425487
:103DB00000222146641C4254FF222146641C4254C6
:103DC0002146641C42542146641C42542146641C12
:103DD00042542046611CCCB208A90A54E01EC0B26D
:103DE0008DF82200E01E81B20DF1230009F05EFE85
:103DF0002146621CD4B208AA50548DF80450029691
:103E00008DF80C7008A80490ADF8144001200690BD
:103E10006420079001A8FFF79FFD15B0F0BD2DE9C4
:103E2000F04F87B082468B461D46DDF8408009F092
:103E30009DFE814615B1B8F1220F03DA002007B0CC
:103E4000BDE8F08F08242246641CA85C09F05CFAE7
:103E500028190168049141680591806806900C3426
:103E600004A809F05DFA2819016802918088ADF86C
:103E70000C00A41D02A809F073FA2246641CA85C79
:103E800009F05AFA2146621CD4B2685C09F05AFA69
:103E9000285D0190601CC4B2601C285C295D40EA6A
:103EA0000127A01CC4B22146621CD4B2685C09F090
:103EB00009FA0821484606F047F9064636B1FEF7EA
:103EC000BFFCB0619DF80400F074B7820120B6E732
:103ED0002DE9F04F9BB00746884691461D46DDF818
:103EE00090B015B1BBF10B0F03DA00201BB0BDE899
:103EF000F08F03263146761C685C06903146761CAE
:103F0000685C05903146761C685C0490701C285CE7
:103F1000A95D40EA01200190B61C3146761C685C20
:103F200003903146761C685C02904FF0000A012134
:103F300006A802F047FD012805D19DF81800FFF7FB
:103F40002BF84FF0010A012105A802F03BFD0128E2
:103F500005D19DF81400FFF719F84FF0010A01216F
:103F600004A802F02FFD012805D19DF81000FEF7EE
:103F7000F7FF4FF0010A022101A802F023FD0128FA
:103F800005D1BDF80400FEF7E5FF4FF0010A01215D
:103F900003A802F017FD012805D19DF80C0009F0D7
:103FA00097F94FF0010A012102A802F00BFD012848
:103FB00005D19DF8080009F0ADF94FF0010ABAF1FA
:103FC000010F09D1FFF796FCFEF774FFFFF792FC93
:103FD00009F050F9FFF78EFC0024A3222146641C4F
:103FE0000EA842546A782146641C4254002221469D
:103FF000641C4254FEF7F2FE01462246641C0EA8E1
:104000008154FEF7E5FE01462246641C0EA8815449
:10401000FEF7CEFE01462246641C0EA88154FEF730
:10402000C1FE02122146641C0EA84254FEF7BAFEDD
:10403000C2B22046611CCCB20EA90A5409F076F82F
:104040002146621CD4B20EAA505409F081F82146D0
:10405000621CD4B20EAA5054E01EC0B28DF83A00D1
:10406000E01E81B2D01C09F021FD0EA90855601C8C
:10407000C4B28DF81C70CDF820808DF824900EA865
:104080000A90ADF82C4001200C9064200D9007A8F8
:10409000FFF762FC2AE72DE9F04794B08046894695
:1040A00092461D461C9F4C2101A8FCF7F1FB4C21B8
:1040B00001A8FCF7EDFB0DB10B2F03DA002014B0C3
:1040C000BDE8F08703263146761C685C8DF8110048
:1040D0003146761C685C8DF81200002432E03046D0
:1040E000711CCEB2295C04EB84020DF113008154E3
:1040F0003046711CCEB2295C04EB84020DF1130032
:10410000104441703046711CCEB2295C04EB84022D
:104110000DF11300104481703046711CCEB2295C41
:1041200004EB84020DF113001044C1703046711C81
:10413000CEB2295C04EB84020DF11300104401712E
:10414000601CC4B29DF81100A042C8DC002432E01B
:104150003046711CCEB2295C04EB84020DF13100B3
:1041600081543046711CCEB2295C04EB84020DF1FF
:104170003100104441703046711CCEB2295C04EB12
:1041800084020DF13100104481703046711CCEB2B2
:10419000295C04EB84020DF131001044C1703046FB
:1041A000711CCEB2295C04EB84020DF13100104485
:1041B0000171601CC4B29DF81200A042C8DC01A8C5
:1041C000FFF750F900BF7AE710B594B00024A3229E
:1041D0002146641C07A8425461222146641C4254B3
:1041E00000222146641C4254FEF7F8FD0146224697
:1041F000641C07A88154FEF7EBFD01462246641CAF
:1042000007A88154FEF7D4FD01462246641C07A886
:104210008154FEF7C7FD02122146641C07A84254D0
:10422000FEF7C0FDC2B22046611CCCB207A90A54F9
:1042300001222046611CCCB207A90A54E01EC0B27C
:104240008DF81E00E01E81B20DF11F0009F02EFC5A
:1042500007A90855601CC4B200208DF8000007A80B
:104260000390ADF810406846FFF776FB14B010BD20
:104270002DE9F04F95B0074688469146DDF878B0B5
:104280000024A3222146641C08A84254FF22214690
:10429000641C425400222146641C42542146641C82
:1042A000425402222146641C4254FEF759FA014648
:1042B0002246641C08A88154FEF76EFA0146224685
:1042C000641C08A88154FEF776FA2146621CD4B219
:1042D00008AA5054FEF77CFA2146621CD4B208AA00
:1042E000505408F01DFF2146621CD4B208AA505455
:1042F000FCF70AFE02122046611CCCB208A90A543F
:10430000FCF702FEC2B22046611CCCB208A90A54D6
:1043100008F04CFF08A9214402680A604068486020
:1043200004F10800C4B2FEF719FA2146621CD4B2A7
:1043300008AA505408F012FF82462146601CC4B2FD
:1043400008A800F801A0002633E0F0B208F00CFF46
:1043500005466A782046611CCCB208A90A54AA789E
:104360002046611CCCB208A90A54EA782046611C98
:10437000CCB208A90A5408A801196A680A60A8689A
:10438000486004F10800C4B208A80119E87C08706C
:10439000601CC4B2A88A02122046611CCCB208A9D3
:1043A0000A542A7D2046611CCCB208A90A54701C0C
:1043B00086B2BAF10A0F01DA504600E00A20B04294
:1043C000C3DCE01EC0B28DF82200E01E81B20DF108
:1043D000230009F06BFB2146621CD4B208AA50549A
:1043E0008DF80470CDF808808DF80C9008A8049022
:1043F000ADF81440012006906420079001A8FFF753
:10440000ABFA15B0BDE8F08F2DE9F04F97B0074635
:10441000884691461D4615B12098092803DA0020E8
:1044200017B0BDE8F08F03263146761C15F801A0C1
:104430003146761C15F801B03146761C685C029056
:10444000701C285CA95D40EA01200190B61C594609
:104450005046DDE90132FEF705FD0024A322214686
:10446000641C0AA842546A782146641C4254002203
:104470002146641C4254FEF7B1FC01462246641CEE
:104480000AA88154FEF7A4FC01462246641C0AA82F
:104490008154FEF78DFC01462246641C0AA8815413
:1044A000FEF780FC02122146641C0AA84254FEF763
:1044B00079FCC2B22046611CCCB20AA90A54FEF7AC
:1044C00097FC2146621CD4B20AAA505408F06EFE32
:1044D0000AA9214402680A604068486004F10800A3
:1044E000C4B2E01EC0B28DF82A00E01E81B20DF108
:1044F0002B0009F0DBFA2146621CD4B20AAA505400
:104500008DF80C70CDF810808DF814900AA80690E4
:10451000ADF81C40012008906420099003A8FFF723
:104520001BFA7DE72DE9F04F9DB00746884691467E
:104530001E4616B12698192803DA00201DB0BDE8E2
:10454000F08F032529466D1C16F801A029466D1C25
:1045500016F801B029466D1C705C0890681C305C30
:10456000715D40EA01200490AD1C59465046049B01
:10457000089AFEF777FC7019006802902D1D681CE0
:10458000305C715D40EA01200390AD1C2846691C37
:10459000CDB2305C07902846691CCDB2305C0690E5
:1045A0007019016800914068019005F10800C5B2DA
:1045B00000200590042102A802F004FA012805D188
:1045C000042102A8FEF7D2FC01200590022103A8D5
:1045D00002F0F8F9012805D1BDF80C00FEF7D0FC77
:1045E00001200590012107A802F0ECF9012805D16E
:1045F0009DF81C00FEF7A6FC01200590012106A8ED
:1046000002F0E0F9012805D19DF81800FEF7CAFC78
:10461000012005900821684602F0D4F9012805D14F
:1046200008216846FEF7CAFC01200590059801287C
:1046300005D1FFF75FF9FEF73DFCFFF75BF90024BA
:10464000A3222146641C10A8425472782146641C9F
:10465000425400222146641C4254FEF7BFFB01462F
:104660002246641C10A88154FEF7B2FB0146224684
:10467000641C10A88154FEF79BFB01462246641C73
:1046800010A88154FEF78EFB02122146641C10A86C
:104690004254FEF787FBC2B22046611CCCB210A97F
:1046A0000A54FEF78BFB10A9214400680860201D06
:1046B000C4B2FEF787FB02122046611CCCB210A9DF
:1046C0000A54FEF77FFBC2B22146601CC4B210A898
:1046D0004254FEF761FB2146621CD4B210AA50542A
:1046E00008F068FD2146621CD4B210AA505408F0AC
:1046F0005DFD10A9214402680A604068486004F129
:104700000800C4B2E01EC0B28DF84200E01E81B2C3
:104710000DF1430009F0CAF910A90855601CC4B294
:104720008DF82470CDF828808DF82C9010A80C906E
:10473000ADF8344001200E9064200F9009A8FFF7D7
:104740000BF9FBE62DE9F04F97B0074688469146F6
:104750001D4615B12098092803DA002017B0BDE8DE
:10476000F08F03263146761C15F801A03146761CE1
:1047700015F801B03146761C685C0290701C285C0C
:10478000A95D40EA01200190B61C59465046DDE97A
:104790000132FEF767FB002005F060FFFFF7AAF883
:1047A00005F040FFFFF7A6F80024A3222146641C71
:1047B0000AA842546A782146641C425400222146C9
:1047C000641C4254FEF70AFB01462246641C0AA8F8
:1047D0008154FEF7FDFA01462246641C0AA8815462
:1047E000FEF7E6FA01462246641C0AA88154FEF749
:1047F000D9FA02122146641C0AA84254FEF7D2FAE2
:10480000C2B22046611CCCB20AA90A54E01EC0B252
:104810008DF82A00E01E81B20DF12B0009F046F957
:104820000AA90855601CC4B28DF80C70CDF8108030
:104830008DF814900AA80690ADF81C40012008904D
:104840006420099003A8FFF787F887E72DE9F04F68
:104850009BB08046894692461D46002000900190FC
:104860000290039015B12498152803DA00201BB09C
:10487000BDE8F08F03263146761C15F801B03146AD
:10488000761C685C06903146761C685C0590701C4E
:10489000285CA95D40EA01200490B61C5846DDE979
:1048A00004320699FEF7DEFA3146761C6F5C0FB1D2
:1048B0000A2F01DD0020DAE73046711CCEB2285CF9
:1048C0008DF800003046711CCEB2285C8DF80100D6
:1048D0003046711CCEB2285C8DF802008DF80B704A
:1048E000A8190168CDF803104068CDF8070006F15B
:1048F0000800C6B2781EC1B2684605F0C1FEFEF7D8
:10490000F9FF05F08FFEFEF7F5FF0024A3222146F4
:10491000641C0EA842546A782146641C425400224A
:104920002146641C4254FEF759FA01462246641C93
:104930000EA88154FEF74CFA01462246641C0EA8CC
:104940008154FEF735FA01462246641C0EA88154B4
:10495000FEF728FA02122146641C0EA84254FEF704
:1049600021FAC2B22046611CCCB20EA90A542046DC
:10497000611CCCB20EA90F549DF802202046611C88
:10498000CCB20EA90A540EA82044DDF80310016031
:10499000DDF80710416004F10800C4B2E01EC0B2A7
:1049A0008DF83A00E01E81B20DF13B0009F07EF86F
:1049B0000EA90855601CC4B28DF81C80CDF820905B
:1049C0008DF824A00EA80A90ADF82C4001200C9080
:1049D00064200D9007A8FEF7BFFF48E72DE9F04FD0
:1049E00087B081461C46DDF840B009F0BFF880462C
:1049F00014B1BBF1090F03DA002007B0BDE8F08F56
:104A000003263146761C605C06903146761C605C5D
:104A100005903146761C605C0490701C205CA15DA2
:104A200040EA01200390B61C0821404605F08CFBAB
:104A30000546002D38D066208DF8040068788DF882
:104A40000500022201A9194808F0A8F96878FE2893
:104A500003D0042008F026FF02E0392008F022FFEE
:104A6000287820F00100401C2870FDF7E9FEA861BD
:104A7000701C205CE874B9F1010F14D1607807064E
:104A800098F8050047EA004798F8060047EA00272B
:104A900098F80700074309F0EBF882463946DAF840
:104AA000080004F060FE00BF0120A6E788BEFF1FDB
:104AB0002DE9F05F83461C460A9F09F057F88246AD
:104AC0000CB1092F02DA0020BDE8F09F0825294625
:104AD0006D1C14F8018029466D1C14F801900935ED
:104AE0000821504605F030FB064666B1FDF7A8FEEA
:104AF000B061605DF074681CC5B2681C205C615DCB
:104B000040EA0120B0820120DEE700002DE9F04FED
:104B1000A1B098460024002609F028F80A90B8F1C0
:104B2000000F02D02A98092803DA002021B0BDE83E
:104B3000F08F032739467F1C18F801002090394672
:104B40007F1C18F801001F9039467F1C18F80100DF
:104B50001E90781C18F8000018F8071040EA012091
:104B60000990BF1C39467F1C18F801A039467F1CEC
:104B700018F801B03846791CCFB218F800001D9023
:104B800008EB07000188ADF8701080788DF872008E
:104B9000F81CC7B208EB07000188ADF86C108078EC
:104BA0008DF86E00F81CC7B208210A9805F0CCFAFF
:104BB0008146B9F1000F1BD0FDF742FEC9F818007D
:104BC00000240AE099F80110C4EBC412F448805C98
:104BD000814200D105E0601CC4B208F0BFFAA042D7
:104BE000F0DC00BF08F0BAFAA04203DC00209DE729
:104BF00000209BE7002619E0C4EBC411E8480844F4
:104C0000C01D06EB860110F8210050450CD1C4EB05
:104C1000C411E3480844C01D06EB860100EB810087
:104C20004078584500D108E0701CC6B2C4EBC411EE
:104C3000DB4808448078B042DEDC00BFC4EBC4111E
:104C4000D74808448078B04201DC00206EE7C4EB0E
:104C5000C412D34911441D98C8709DF86C10C4EB60
:104C6000C412CF481044C01D06EB860200EB820040
:104C7000C1729DF86D10C4EBC412C9481044C01D28
:104C800006EB860200EB820001739DF86E10C4EB08
:104C9000C412C3481044C01D06EB860200EB82001C
:104CA00041739DF87010C4EBC412BD481044C01D80
:104CB00006EB860200EB820041719DF87110C4EB97
:104CC000C412B7481044C01D06EB860200EB8200F8
:104CD00081719DF87210C4EBC412B1481044C01D1C
:104CE00006EB860200EB8200C1719DF87000002186
:104CF00041EA00409DF8711040EA01209DF87210D1
:104D00000843A84908609DF86C00002141EA004072
:104D10009DF86D1040EA01209DF86E100843A249ED
:104D20000860084600689F490968401A9F49086062
:104D30009C480068A0B9FDF783FD9D490968401AA9
:104D4000B0F5FA6F0CD3FDF77BFD9949086000219F
:104D5000C4EBC412924810444171232008F0A2FD14
:104D600008F0EAF988B393480068904909688842D6
:104D70002CD0FDF765FD90490968401AFA281CD32C
:104D800088480068C8B169208DF8000099F80100D2
:104D90008DF80100C4EBC4118148405C8DF802001D
:104DA00003226946854807F0F9FF292008F07AFDBB
:104DB000FDF746FD8049086000BF7C4800687D49DA
:104DC0000860FDF73DFD7E49086011E07948006804
:104DD00070B1FDF735FD7A490968401AB0F5FA6FF0
:104DE00006D93B2008F05EFDFDF72AFD74490860F6
:104DF0000025A22229466D1C0BA84254AB2229464D
:104E00006D1C4254002229466D1C4254FDF7E6FFFA
:104E100001462A466D1C0BA88154FDF7D9FF0146B7
:104E20002A466D1C0BA88154FDF7C2FF01462A4695
:104E30006D1C0BA88154FDF7B5FF021229466D1CAD
:104E40000BA84254FDF7AEFFC2B22846691CCDB292
:104E50000BA90A54C4EBC41151480844C01D06EB09
:104E6000860110F821202846691CCDB20BA90A54EE
:104E7000C4EBC4114A480844C01D06EB860100EB90
:104E8000810042782846691CCDB20BA90A54C4EBB4
:104E9000C41143480844C2782846691CCDB20BA906
:104EA0000A54C4EBC4113E480844C01D06EB8601F9
:104EB00000EB810042792846691CCDB20BA90A5447
:104EC000C4EBC41136480844C01D06EB860100EB54
:104ED000810082792846691CCDB20BA90A54C4EB23
:104EE000C4112F480844C01D06EB860100EB810069
:104EF000C2792846691CCDB20BA90A54C4EBC4116F
:104F000027480844C01D06EB860100EB8100C27AE9
:104F10002846691CCDB20BA90A54C4EBC411204821
:104F20000844C01D06EB860100EB8100027B284689
:104F3000691CCDB20BA90A54C4EBC411184808442B
:104F4000C01D06EB860100EB8100427B2846691CF0
:104F5000CDB20BA90A54E81EC0B28DF82E00E81E8F
:104F600081B20DF12F0008F0A1FD0BA94855681C76
:104F7000C5B201208DF8080008F0F8FD0390082064
:104F80008DF810000BA80590ADF81850012007907F
:104F90006420089002A8FEF7DFFC0120C6E50000AF
:104FA0000386FF1F0480FF1F0880FF1F0C80FF1F68
:104FB0001880FF1F1080FF1F1480FF1F88BEFF1F77
:104FC0001C80FF1F0FB470B594B008F0CFFD0646EB
:104FD0000821304605F0B8F8054625B9002014B080
:104FE00070BC5DF814FB287800F0010000287CD02C
:104FF0000024A2222146641C07A84254AA2221466A
:10500000641C425400222146641C4254FDF7E6FE13
:1050100001462246641C07A88154FDF7D9FE0146CB
:105020002246641C07A88154FDF7C2FE01462246B1
:10503000641C07A88154FDF7B5FE02122146641CCA
:1050400007A84254FDF7AEFEC2B22046611CCCB2A6
:1050500007A90A549DF867202046611CCCB207A915
:105060000A5418A8027A2046611CCCB207A90A5437
:105070009DF863202046611CCCB207A90A5418A8E9
:10508000027B2046611CCCB207A90A5418A8427BB7
:105090002046611CCCB207A90A5418A8827B20467E
:1050A000611CCCB207A90A54E01EC0B28DF81E00E4
:1050B000E01E81B20DF11F0008F0F8FC07A90855A9
:1050C000601CC4B201208DF8000008F04FFD019073
:1050D00008208DF8080007A80390ADF810400120C3
:1050E000059064200690684600E003E0FEF734FC7B
:1050F000012074E7002072E72DE9F04F89B01E46C9
:10510000DDF848B00024002708F030FD029016B109
:10511000BBF1090F03DA002009B0BDE8F08F0325C9
:1051200029466D1C705C089029466D1C705C0790C8
:1051300029466D1C705C0690681C305C715D40EA0D
:1051400001200190AD1C29466D1C16F801902946DE
:105150006D1C16F801A02846691CCDB2305C059084
:1051600070190188ADF8101080788DF81200E81CD5
:10517000C5B270190188ADF80C1080788DF80E005A
:10518000E81CC5B20821029804F0DEFF8046B8F1A1
:10519000000F1BD0FDF754FBC8F8180000240AE0EC
:1051A00098F80110C4EBC4124748805C814200D1DA
:1051B00005E0601CC4B207F0D1FFA042F0DC00BFE4
:1051C00007F0CCFFA04203DC0020A5E70020A3E706
:1051D00098F8000000F0010060B3002719E0C4EB6C
:1051E000C41139480844C01D07EB870110F821009D
:1051F00048450CD1C4EBC41133480844C01D07EB2B
:10520000870100EB81004078504500D108E0781C10
:10521000C7B2C4EBC4112C4808448078B842DEDC25
:1052200000BFC4EBC411284808448078B84203DCAE
:10523000002071E700206FE7C4EBC4112248084446
:10524000C01D07EB870100EB81008178C4EBC4121D
:105250001D481044C01D07EB870200EB820041711E
:10526000C4EBC41118480844C01D07EB870100EBCC
:1052700081008178C4EBC41213481044C01D07EBB1
:10528000870200EB82008171C4EBC4110E48084410
:10529000C01D07EB870100EB81008178C4EBC412CD
:1052A00009481044C01D07EB870200EB8200C17162
:1052B0000121C4EBC412044810444171242008F0B9
:1052C000F1FA012028E700000386FF1F2DE9F043D3
:1052D00095B008F04BFC814600250026A846082121
:1052E000484604F031FF0746F7B17878FE2802D12E
:1052F00015B0BDE8F083B87C00B9F9E7002509E0F6
:105300007978C5EBC5128048805C814200D105E008
:10531000681CC5B207F022FFA842F1DC00BF07F00D
:105320001DFFA84201DCE3E7E2E7387800F0010066
:1053300090B3002628E0C5EBC51173480844C01D92
:1053400006EB860100EB810040790104C5EBC51234
:105350006D481044C01D06EB860200EB8200807988
:1053600041EA0020C5EBC51267491144C91D06EB8F
:10537000860201EB8201C97940EA0108B8F1000F09
:1053800000D108E0701CC6B2C5EBC5115E480844E8
:105390008078B042CFDC01E0FFE7A9E7C5EBC5119B
:1053A000594808448078B04200DCA1E7C5EBC5113C
:1053B00055480844407900B19AE70024A2222146CA
:1053C000641C01A84254AA222146641C42540022B3
:1053D0002146641C4254FDF701FD01462246641C2F
:1053E00001A88154FDF7F4FC01462246641C01A883
:1053F0008154FDF7DDFC01462246641C01A881545E
:10540000FDF7D0FC02122146641C01A84254FDF7AE
:10541000C9FCC2B22046611CCCB201A90A54C5EB3A
:10542000C51139480844C01D06EB860110F821203B
:105430002046611CCCB201A90A54C5EBC511324803
:105440000844C01D06EB860100EB8100427820462F
:10545000611CCCB201A90A5401222046611CCCB2C5
:1054600001A90A54C5EBC51127480844C01D06EB25
:10547000860100EB810082782046611CCCB201A934
:105480000A54C5EBC51120480844C01D06EB86012F
:1054900000EB8100C2782046611CCCB201A90A54FD
:1054A000C5EBC51118480844C01D06EB860100EB8A
:1054B000810002792046611CCCB201A90A54E01E89
:1054C000C0B28DF80600E01E81B20DF1070008F0B1
:1054D000EDFA01A90855601CC4B201208DF838000E
:1054E00008F044FB0F9008208DF8400001A81190AF
:1054F000ADF8484001201390642014900EA8FEF7E8
:105500002BFA00BFF4E600000386FF1F2DE9F04FE1
:10551000C9B01F46DDF848B10024002508F026FB7D
:10552000079017B1BBF1090F03DA002049B0BDE8BD
:10553000F08F4FF00308414608F1010817F801A069
:10554000414608F10108785C48900821079804F06A
:10555000FBFD814699F8000000F0010008B9002029
:10556000E4E7B9F1000F1BD0FDF76AF9C9F818009C
:1055700000240AE099F80110C4EBC412FE48805CD4
:10558000814200D105E0601CC4B207F0E7FDA042F3
:10559000F0DC00BF07F0E2FDA04203DC0020C5E71D
:1055A0000020C3E74046411C01F0FF08395CC4EB12
:1055B000C412F148104481700821079804F0C4FD1A
:1055C0008146B9F1000F7DD099F8010050457AD19C
:1055D0000025D5E04046411C01F0FF08395CC4EBD2
:1055E000C412E5481044C01D05EB850200F82210E6
:1055F0004046411C01F0FF08395CC4EBC412DE4890
:105600001044C01D05EB850200EB8200417040464E
:10561000411C01F0FF08395CC4EBC412D6481044A9
:10562000C01D05EB850200EB820081704046411CE5
:1056300001F0FF08395CC4EBC412CF481044C01D10
:1056400005EB850200EB8200C1704046411C01F071
:10565000FF08395CC4EBC412C7481044C01D05EBF9
:10566000850200EB820001714046411C01F0FF08F9
:10567000395CC4EBC412C0481044C01D05EB850260
:1056800000EB820041714046411C01F0FF08395C8B
:10569000C4EBC412B8481044C01D05EB850200EBF2
:1056A000820081714046411C01F0FF08395CC4EB67
:1056B000C412B1481044C01D05EB850200EB820006
:1056C000C17101E065E066E04046411C01F0FF0861
:1056D000395CC4EBC412A8481044C01D05EB850218
:1056E00000EB820081734046411C01F0FF08395CE9
:1056F000C4EBC412A0481044C01D05EB850200EBAA
:105700008200C1734046411C01F0FF08395CC4EBC4
:10571000C41299481044C01D05EB850200EB8200BD
:1057200001744046411C01F0FF08395CC4EBC4120F
:1057300091481044C01D05EB850200EB82004174C6
:105740004046411C01F0FF08395CC4EBC4128A4892
:105750001044C01D05EB850200EB820081744046B9
:10576000411C01F0FF08395CC4EBC41282481044AC
:10577000C01D05EB850200EB8200C174681CC5B238
:10578000C4EBC4117C4808448078A8423FF722AF9C
:1057900001E00020CAE60026A2223146761C08A8B5
:1057A0004254B9223146761C425400223146761CBE
:1057B0004254C4EBC4117048425C3146761C08A8C0
:1057C0004254C4EBC4116C48084442783146761CFC
:1057D00008A84254C4EBC411674808448278314693
:1057E000761C08A842540025D5E0C4EBC4116248D9
:1057F0000844C01D05EB850110F821203046711CBE
:10580000CEB208A90A54C4EBC4115B480844C01DB9
:1058100005EB850100EB810042783046711CCEB269
:1058200008A90A54C4EBC41153480844C01D05EB31
:10583000850100EB810082783046711CCEB208A948
:105840000A54C4EBC4114C480844C01D05EB850143
:1058500000EB8100C2783046711CCEB208A90A5410
:10586000C4EBC41144480844C01D05EB850100EB9E
:10587000810002793046711CCEB208A90A54C4EBEB
:10588000C4113D480844C01D05EB850100EB8100B3
:1058900042793046711CCEB208A90A54C4EBC41137
:1058A00035480844C01D05EB850100EB8100827975
:1058B0003046711CCEB208A90A54C4EBC4112E485C
:1058C0000844C01D05EB850100EB8100C27930461C
:1058D000711CCEB208A90A54C4EBC411264808446E
:1058E000C01D05EB850100EB8100827B3046711CF9
:1058F000CEB208A90A54C4EBC4111F480844C01D05
:1059000005EB850100EB8100C27B3046711CCEB2F5
:1059100008A90A54C4EBC41117480844C01D05EB7C
:10592000850100EB8100027C3046711CCEB208A9D3
:105930000A54C4EBC41110480844C01D05EB85018E
:1059400000EB8100427C3046711CCEB208A90A549B
:10595000C4EBC41108480844C01D05EB850100EBE9
:105960008100827C3046711CCEB208A90A54C4EB77
:10597000C4110148084401E00386FF1FC01D05EB68
:10598000850100EB8100C27C3146701CC6B208A8BC
:105990004254681CC5B2C4EBC41115480844807851
:1059A000A8423FF722AFF01EC0B28DF82200F01ED1
:1059B00081B20DF1230008F079F808A98855701C10
:1059C000C6B201208DF8000008F0D0F80190082040
:1059D0008DF8080008A80390ADF81060012005902C
:1059E000642006906846FDF7B7FF01209EE50000A1
:1059F0000386FF1F2DE9F04FCBB01F46DDF850B1F5
:105A0000002400250020099008F0B0F8089017B194
:105A1000BBF1090F03DA00204BB0BDE8F08F4FF067
:105A20000308414608F1010817F801A0414608F1B2
:105A30000108785C4A900821089804F085FB8146AB
:105A4000B9F1000F1BD0FCF7FBFEC9F818000024C9
:105A50000AE099F80110C4EBC412FE48805C814250
:105A600000D105E0601CC4B207F078FBA042F0DC76
:105A700000BF07F073FBA04203DC0020CCE700204E
:105A8000CAE74046411C01F0FF08395CC4EBC41270
:105A9000F0481044817099F8010050457ED10025EE
:105AA000A7E04046411C01F0FF08395CC4EBC4127A
:105AB000E8481044C01D05EB850200F8221040465E
:105AC000411C01F0FF08395CC4EBC412E1481044EA
:105AD000C01D05EB850200EB820041704046411C71
