:020000040001F9
:10000000886B01202103010051030100530301000B
:1000100055030100570301005903010000000000CF
:100020000000000000000000000000005B03010071
:100030005D030100000000005F0301006103010097
:100040009D2F0100BD2F0100DD2F0100FD2F0100BC
:1000500015300100453001006930010079300100A0
:100060008930010099300100A9300100B930010048
:10007000C9300100D9300100E9300100F930010038
:100080000931010019310100293101003931010024
:100090004931010059310100693101007931010014
:1000A0008931010099310100A9310100B931010004
:1000B000C9310100D931010063030100630301006C
:1000C0006303010063030100630301006303010094
:1000D0006303010063030100630301006303010084
:1000E0006303010063030100630301006303010074
:1000F0006303010063030100630301006303010064
:100100006303010063030100630301006303010053
:100110006303010063030100630301006303010043
:100120006303010063030100630301006303010033
:100130006303010063030100630301006303010023
:100140006303010063030100630301006303010013
:100150006303010063030100630301006303010003
:1001600063030100630301006303010063030100F3
:1001700063030100630301006303010063030100E3
:1001800063030100630301006303010063030100D3
:1001900063030100630301006303010063030100C3
:1001A00063030100630301006303010063030100B3
:1001B00063030100630301006303010063030100A3
:1001C0006303010063030100630301006303010093
:1001D0006303010063030100630301006303010083
:1001E0006303010063030100630301006303010073
:1001F0006303010063030100630301006303010063
:100200006303010063030100630301006303010052
:100210006303010063030100630301006303010042
:100220006303010063030100630301006303010032
:100230006303010063030100630301006303010022
:100240006303010063030100630301006303010012
:100250006303010063030100630301006303010002
:1002600063030100630301006303010063030100F2
:1002700063030100630301006303010063030100E2
:1002800000F002F800F03CF80AA090E8000C82446C
:100290008344AAF10107DA4501D100F031F8AFF249
:1002A000090EBAE80F0013F0010F18BFFB1A43F054
:1002B000010318472CFA00004CFA0000103A24BF42
:1002C00078C878C1FAD8520724BF30C830C144BFBB
:1002D00004680C60704700000023002400250026FD
:1002E000103A28BF78C1FBD8520728BF30C148BF99
:1002F0000B6070471FB50EF0D8FB1FBD10B510BDC9
:1003000000F0CAF91146FFF7F5FF0CF01BFC00F0F6
:10031000E8F903B4FFF7F2FF03BC00F0EBF90000CB
:1003200013484FF07701016012484FF077010160E8
:1003300011484FF4885101600D484FF0760101607B
:100340000C484FF0760101600C4880470C4800478C
:10035000FEE7FEE7FEE7FEE7FEE7FEE7FEE7FEE775
:10036000FEE7FEE707480849084A094B70470000C6
:10037000040805400C08054000080540797F01008D
:100380008102010088630120886B012088670120B9
:100390008867012053EA020C00F069802DE9F04BD8
:1003A0004FF00006002B1FBFB3FA83F503FA05F4E4
:1003B00024FA05F65E4012BF1643B2FA82F502FA3D
:1003C00005F4C5F120051EBF22FA05FC44EA0C0421
:1003D000203556EA044C4FEA144418BF641C4FF011
:1003E00000084FF00009904271EB030C39D300294B
:1003F00019BFB1FA81F701FA07F6B0FA80F700FAEF
:1004000007F6C7F120071EBF20FA07FC46EA0C06D4
:100410002037B6FBF4FCA7EB0507103F07F01F0BD6
:10042000CBF120060CFA0BFB2CFA06F644BFB346C0
:100430000026202FA4BF5E464FF0000B5BEA060C9F
:1004400008BF4FF0010B19EB0B09ABFB027C48EB2B
:100450000608C01B06FB02CC0BFB03CC71EB0C01A6
:10046000C1E70B46024641464846BDE8F08B13B54E
:100470004FF000004FF00001AFF30080BDE81C40DA
:10048000704740EA010310B59B070FD1042A0DD332
:1004900010C808C9121F9C42F8D020BA19BA884265
:1004A00001D9012010BD4FF0FF3010BD1AB1D307A4
:1004B00003D0521C07E0002010BD10F8013B11F8DA
:1004C000014B1B1B07D110F8013B11F8014B1B1B03
:1004D00001D1921EF1D1184610BD032A40F230809E
:1004E00010F0030C00F0158011F8013BBCF1020F75
:1004F000624498BF11F801CB00F8013B38BF11F8F6
:10050000013BA2F1040298BF00F801CB38BF00F80C
:10051000013B11F0030300F02580083AC0F0088089
:1005200051F8043B083A51F804CBA0E80810F5E76D
:10053000121D5CBF51F8043B40F8043BAFF3008050
:10054000D20724BF11F8013B11F801CB48BF11F8C5
:10055000012B24BF00F8013B00F801CB48BF00F895
:10056000012B704710B5203AC0F00B80B1E818504D
:10057000203AA0E81850B1E81850A0E81850BFF48D
:10058000F5AF5FEA027C24BFB1E81850A0E818502C
:1005900044BF18C918C0BDE810405FEA827C24BF80
:1005A00051F8043B40F8043B08BF7047D20728BF0E
:1005B00031F8023B48BF11F8012B28BF20F8023B5D
:1005C00048BF00F8012B704702F0FF0343EA032203
:1005D00042EA024200F002B84FF000020429C0F0E3
:1005E000128010F0030C00F01B80CCF1040CBCF165
:1005F000020F18BF00F8012BA8BF20F8022BA1EBB7
:100600000C0100F00DB85FEAC17C24BF00F8012B9B
:1006100000F8012B48BF00F8012B70474FF0000293
:1006200000B5134694469646203922BFA0E80C50E8
:10063000A0E80C50B1F12001BFF4F7AF090728BFC3
:10064000A0E80C5048BF0CC05DF804EB890028BF3F
:1006500040F8042B08BF704748BF20F8022B11F068
:10066000804F18BF00F8012B7047704770477047E4
:10067000004870472463012010B5FFF7F9FF0068B8
:1006800010BD10B50446FFF7F3FF046010BD000075
:1006900000487047246301207546FFF7F9FFAE4616
:1006A00005006946534620F00700854618B020B57E
:1006B000FFF758FEBDE820404FF000064FF000075E
:1006C0004FF000084FF0000B21F00701AC46ACE8FA
:1006D000C009ACE8C009ACE8C009ACE8C0098D4667
:1006E000704710B50446AFF300802046BDE81040C7
:1006F000FFF70FBE01491820ABBEFEE7260002003F
:10070000704700002DE9F04102460B460420002A04
:100710004CD0002B4AD01F79012F47DC244FBA421E
:100720001AD11F68C7F310011F7957B997891FFAAB
:1007300081FC47EA0C079781D78947EA1147D7819F
:100740001CE0178A1FFA81FC47EA0C071782578AB8
:1007500047EA1147578211E01F88C7F308011F7944
:1007600037B997891FFA81FC47EA0C07978105E0A2
:10077000178A1FFA81FC47EA0C071782002400251C
:1007800002F120060FE001F001074FB12F4605F1FD
:10079000010C0CF0FF05D3F8088018F807703755E6
:1007A0004908671CFCB20029EDD10020BDE8F081AA
:1007B0000000044030B5024604209AB10A4DAA4216
:1007C00002D1C1F3100101E0C1F308018BB20C0C9E
:1007D000958A1D439582044DAA4202D1D58A2543AC
:1007E000D582002030BD00000000044002460420F5
:1007F00022B1538861F30A23538000207047000020
:100800002DE9F04104460D46042004F1500C3CB3A0
:1008100032B32BB3DFF84C80444502D1C5F310014D
:1008200001E0C5F308010026002715E001F00108EA
:10083000B8F1000F0BD03CF8168022F8178007F1B2
:10084000010808F0FF07A3F1010808F0FF034908B9
:1008500006F1010808F0FF0609B1002BE6D10020DF
:10086000BDE8F0810000044010B502460420FAB152
:10087000F1B1002313700C78538864F3051353808F
:100880004C78538864F3C71353808C78538864F38F
:1008900086135380CC78538864F3010353800C791A
:1008A000938864F382039380002382F8473000200A
:1008B00010BD00002DE9F84F04460E461546984637
:1008C0004FF0040A4FF000090027BB4600200090BB
:1008D000002C47D0002E45D0002D43D02348844221
:1008E00009D1112D02D34FF011090BE0E7893F0424
:1008F000A089074306E0092D02D34FF0090901E062
:100900001A48878901202070194800680A21B0FB25
:10091000F1F04FF47A71B0FBF1F000FB08FB00201E
:1009200000904FF0090A19E01248006898B1B9F137
:10093000000F05D04A463146204600F01DF805E07C
:100940002B46324639462046FFF75AFF0020094918
:100950000860824605E00098401C009000985845C9
:10096000E2D300BF5046BDE8F88F0000000004400D
:100970000480FF1FC008804230B5034603F15004D5
:10098000002005E034F8105021F81050451CE8B262
:100990009042F7DB30BD000000B589B020A00068B0
:1009A000019000BF00200790089000BF00BF049096
:1009B0000590069000BF00BF0290039000BF00F0BA
:1009C000E7FB0121084605F041F900208DF81C00E5
:1009D0008DF81D008DF81E008DF81F0007A9114825
:1009E000FFF742FF01210F48FFF700FF02208DF8BB
:1009F000080002AAC021002005F01CF80A48049053
:100A000000208DF8140001A8069004A90548FFF7FE
:100A100079FE05490348FFF7CDFE09B000BD00008F
:100A20000500000000000440C000010010B50446AD
:100A3000A078C0F3800018B9A07800F00100B8B128
:100A40000C49886B8047002211460B4804F05FFC7C
:100A500005F07CFE00BF642001F0D8F805F076FEBA
:100A600000221146044804F052FC02F0FDFBF2E7BC
:100A700010BD00002481FF1FB481FF1F10B5044684
:100A800005F06CFE05F042FEA07820F00400A07096
:100A900000202080A07820F00100A07010BD38B5A3
:100AA000044603F0F6FDC0B200909DF80000012856
:100AB00006D12088401C20802088142806DC05E010
:100AC00000202080A07820F00400A07038BD000035
:100AD0002DE9F04705460E4614460027002128461A
:100AE00007F04BFE80460121284607F046FE81466E
:100AF000012C07D1B8F1010F02D0B9F1010F08D1D3
:100B0000012706E03146284607F037FE012800D1CC
:100B10000127012F0BD1002001E000BF401C054937
:100B2000096842F21072B1FBF2F18142F5D8BDE8DA
:100B3000F08700000480FF1F10B5FFF72DFF10BDE8
:100B400010B50C4800780F2190FBF1F201FB120068
:100B500000EB4000084901EB400405230322214635
:100B60000648FFF7A7FE03480078401C01490870BB
:100B700010BD00000380FF1F505E012000000440F4
:100B800010B500F005F80446012101F092FB10BDFC
:100B90000149C88970470000BCAFFF1F10B5074C62
:100BA000FFF7CAFF14212046FFF738FD4FF4FA6023
:100BB00000F046F847F23050606010BDBCAFFF1F38
:100BC00070B51E4C01F07EFC05466420B5FBF0F1CB
:100BD00000FB115008B9FFF7B3FF207800F00100C7
:100BE00090B9B5F5FA6F0ED941F2883085420AD234
:100BF00000F050F8E081FFF7C3FF2074206820F078
:100C00000100401C206070BDA068A84213D2A068FB
:100C1000281A616888420ED3A56000F03BF80646AA
:100C2000E089C00000EB46060A20B6FBF0F6E6813C
:100C3000FFF7A6FF207400BFE5E70000BCAFFF1F71
:100C40000149888170470000BCAFFF1F70B588B0B4
:100C500005460026002409E004EB44000C4901EBA2
:100C6000400030F815002DF81400641C0F2CF3D34D
:100C70000F21684600F03EF90B2101A805F063FC46
:100C800006460B20B6FBF0F080B208B070BD000045
:100C9000505E01202DE9F0412DED048B104F002016
:100CA000FFF7D4FF05460120FFF7D0FF0646B989BC
:100CB00001FB06F00DF0B1FB41EC190B9FED090BA8
:100CC00053EC102B0DF0C0FB41EC180B0DF078FB32
:100CD0000446B4FBF5F4A0B2BDEC048BBDE8F08192
:100CE000BCAFFF1F00000000000004404A8802441F
:100CF0004A8070471CB500231A464FF4004101207A
:100D000004F026FF00BF00200090019000BF0120EA
:100D10008DF8000000208DF8060002208DF80500F7
:100D200000208DF802008DF804006A464FF400415F
:100D3000012004F07FFE1CBD10B54FF400410120DE
:100D400004F0EAFE10BD10B54FF40041012004F09C
:100D5000F1FE10BD10B54FF40041012004F024FF56
:100D600010BD000010B586B00446084B0FCBCDE98E
:100D70000423CDE9020106480121CDE9001002A8B3
:100D80000FC800F010F806B010BD000050EB0100D5
:100D90009C81FF1F0FB49DF8000000F0010080F05F
:100DA000010004B070477FB5DDE9085418212046E2
:100DB000FFF734FC0098A0600199E160029921617D
:100DC000039961610DB1012000E00020217860F3FA
:100DD00041012170204600F03CF8A06808B1A068ED
:100DE0008047206908B1206980477FBD7CB50446F3
:100DF0000D46164635B92078C0F3400010B9E068BA
:100E0000804719E0012D17D1D4E90401CDE9000193
:100E100094E80F00FFF7BEFF012806D121463046B7
:100E200000F015F80020A08003E021463046FFF7CF
:100E30005DFF204600F001F87CBD10B50446207827
:100E400020F00100401C2070E068804710BD488001
:100E5000704710B50446207820F00100207020690A
:100E6000804710BD1CB50446D4E90401CDE900015A
:100E700094E80F00FFF78EFF012800D11CBDA08869
:100E8000618888420CDC2078C0F3400010B16069B2
:100E9000804701E0E0688047A088401CA08004E013
:100EA0002046FFF7D6FF2069804700BFE6E7000035
:100EB00010B504F0DBFE0B4805F098FE0A4806F07A
:100EC000D7FD0A48FFF74EFF094804F0E5F909F09D
:100ED0007FFF04F08EF80BF031FE044604F0E4FAD4
:100EE00010BD00002481FF1F6081FF1F9C81FF1F38
:100EF000B481FF1F70B50246012319E0012012E002
:100F000032F81060451C32F81550AE4209DA32F85A
:100F10001040451C32F8155022F81050451C22F89C
:100F20001540451CA8B2CD1A8542E9DA5D1CABB26A
:100F30004D1E9D42E2DA70BD014631B101290DD04E
:100F4000022914D0032924D11AE0184A127802F099
:100F5000010282F0010282F0010024E0134A1278BB
:100F6000C2F3C00282F0010282F001001BE00F4ACE
:100F70001278C2F3401282F0010282F0010012E006
:100F80000A4A1278C2F3801282F0010282F0010054
:100F900009E0064A521D127802F0010282F00102B5
:100FA00082F0010000BF00BF704700003C400540D8
:100FB00038B504460020009000252A4800884AF2EF
:100FC000015108432849A1F8FE0344BB26482630B6
:100FD000007800F0070008B9012536E023480068D2
:100FE000C0F3C01088B120482A30007800F001001A
:100FF00008B9012529E01C483630007820F00100AE
:10100000401C194981F836001FE017483630007837
:1010100020F00100401C144981F8360015E0124808
:101020003630007820F001000F4981F8360000BF0B
:101030000020FFF781FF03460098401C00900098B5
:10104000B0F5805F01D2012BF2D1064800884FF63F
:10105000FE71084040F425400349A1F8FE032846EC
:1010600038BD0000FE4305400040054000410540FA
:1010700038B504460020009000251F4800884AF239
:10108000015108431D49A1F8FE0394B91B482630BD
:10109000007800F00700052801D101251FE017485E
:1010A0002A30007820F00100401C144981F82A0001
:1010B00015E012482A30007820F001000F4981F82D
:1010C0002A0000BF0220FFF737FF03460098401CAC
:1010D00000900098B0F5805F01D2012BF2D1064854
:1010E00000884FF6FE71084040F425400349A1F8FE
:1010F000FE03284638BD0000FE4305400040054081
:1011000000283ED01F4909884AF2015211431D4A66
:1011100011800178491E1C4AD2F8002161F31F7228
:101120001A490A600179491E174AD2F8002161F371
:101130001B6216490A60017A491E134AD2F800213F
:1011400061F3175211490A608189491E0E4AD2F88B
:10115000002161F310220D490A60017C491E0A4AF0
:10116000D2F8002161F304020749C1F80021B1F867
:10117000FE134FF6FE72114041F42541024AA2F8D7
:10118000FE137047FE430540004005400041054006
:101190000B4909884AF2025211430A4AA2F8FE1387
:1011A0001146098A60F303011182054909884FF647
:1011B000FD72114041F42541024AA2F8FE13704726
:1011C000FE430540004005400D4909884AF201529E
:1011D00011430C4AA2F8FE131146D1F8001160F336
:1011E000C711C2F800111146B1F8FE134FF6FE7296
:1011F000114041F42541034AA2F8FE137047000054
:10120000FE4305400040054010B586B0044600206E
:1012100005902E48006804902C48406803902B48A5
:10122000806802902948C06801902948007800F041
:101230000700052801D0052C0DD126482349086058
:10124000C01248608860C86000BF0598401C0590C7
:101250000598B028F9D3204800884AF20151084384
:101260001B492639A1F8FE03084690F8260064F3CE
:10127000020081F826000846B0F8FE034FF6FE7122
:10128000084040F4254012492639A1F8FE03002009
:10129000059000BF0598401C05900598B028F9D32B
:1012A0000A49049808600398486002988860019889
:1012B000C8600020059000BF0598401C0590059867
:1012C000B028F9D306F0F6FD06B010BD008004404A
:1012D00026400540EEFAFFFFFE43054085B00021A1
:1012E00004913449096803913249496802913149AE
:1012F000896801912F49C9680091002858D02E496A
:10130000097801F0070105290DD12C49294A1160FE
:10131000C91251609160D16000BF0499491C0491C9
:101320000499B029F9D3264909884AF20152114398
:10133000234A11808178C27841EA0211027941EA98
:101340000221427941EA0231827941EA024142783E
:1013500041EA0251027841EA026141EA0271164A09
:10136000263A1162164909884FF6FE72114041F47F
:101370002541114A263AA2F8FE130021049100BF2C
:101380000499491C04910499B029F9D3094A039995
:10139000116002995160019991600099D16000211A
:1013A000049100BF0499491C04910499B029F9D310
:1013B00005B070470080044026400540EEFAFFFF6C
:1013C000FE43054010B50821034807F0C1FD002188
:1013D000014807F031FE10BD0058014010B548F239
:1013E000E44008F04FF810BD10B50121014807F0A6
:1013F00023FE10BD0058014010B50021014807F040
:1014000015FF10BD0058014010B50821034807F032
:101410009FFD0021014807F00FFE10BD0054014060
:1014200010B540F22A2007F0F3FF10BD10B50121DE
:10143000014807F001FE10BD005401402DE9F041C4
:1014400004460D4616460027A582A18A00200CF00E
:10145000ADFC2061266003F0FAFCA0601420A0819E
:10146000206918B1A06808B1012000E000200746FB
:101470003846BDE8F0812DE9F04106460F46144696
:101480000025F82100200CF091FC05461FB115B194
:10149000E62C00DC0CB9BDE8F0812246394605F1A6
:1014A0001200FFF71AF82C822946B06803F0ACFC52
:1014B00000BFF0E710B501F0F5FE06F06BFB002071
:1014C0000CF06AFC00F092FB114801F048FB114857
:1014D00000F096FD01F02EFA06F0B2FB09F0C2F81A
:1014E00001F018FA044609F043F901F00DFA044638
:1014F00009F036F901F0F8F9044609F029F901F08C
:10150000EDF9C4B2204609F01BF906F03FFA10BD10
:10151000405E01203860012073B586B00546BDF8F5
:101520001C60002400222146641C01A84254A02211
:101530002146641C425403222146641C4254214625
:10154000641C4554204407990160241D214601A8CC
:1015500000F0E8FF08B070BD70B586B005460E46D5
:10156000002400222146641C01A842540522214681
:10157000641C425402222146641C42545A222146D1
:10158000641C425406222146641C425430222146E7
:10159000641C42540EB1012200E000222046611C6E
:1015A000CCB201A90A542046611CCCB201A90D5449
:1015B000AA222046611CCCB201A90A54214601A8E6
:1015C00000F0B0FF06B070BD10B500BF00F15C03C5
:1015D00003EB81131B6823F003031478234300F10A
:1015E0005C0404EB8114236000BF00BF00F15C03C6
:1015F00003EB81131B6823F00C03547843EA840443
:1016000000F15C0303EB81131C6000BF00BF00F11D
:101610005C0303EB81131B6823F01003947843EA07
:10162000041400F15C0303EB81131C6000BF00BFD6
:1016300000F15C0303EB81131B6823F02003D478D3
:1016400043EA441400F15C0303EB81131C6000BF08
:1016500000BF00F15C0303EB81131B6823F0400320
:10166000147943EA841400F15C0303EB81131C60DA
:1016700000BF00BF00F15C0303EB81131B6823F084
:101680008003547943EAC41400F15C0303EB811333
:101690001C6000BF00BF00F15C0303EB81131B68FB
:1016A00023F44073947943EA042400F15C0303EBD0
:1016B00081131C6000BF00BF00F15C0303EB8113CA
:1016C0001B6823F48063D47943EA842400F15C032B
:1016D00003EB81131C6000BF00BF00F15C0303EB50
:1016E00081131B6823F40063147A43EAC42400F1D5
:1016F0005C0303EB81131C6000BF00BF00F15C03BF
:1017000003EB81131B6823F48053547A43EA0434B7
:1017100000F15C0303EB81131C6000BF10BD0000EF
:10172000F0B5034615460022002601205C4F3870B4
:10173000D86901278F4020EA0706002E7DD0D8699E
:1017400000F00100D8B1D1B1986C040C986E0A2752
:10175000B7EB104F13D3986EB4EB104F0FD909E0CD
:10176000501C82B2B2F5A04F04D900204C4F387003
:101770000920F0BDD86900F001000028F0D1D86937
:1017800000F00200022820D101291ED0D3F88800E1
:10179000040CD3F8A8000A27B7EB104F15D3D3F8E1
:1017A000A800B4EB104F10D9002209E0501C82B2FF
:1017B000B2F5A04F04D90020394F38700920D8E77E
:1017C000D86900F002000028F0D1D86900F00400C8
:1017D000042820D102291ED00022D3F8C800040C0E
:1017E000D3F8E8000A27B7EB104F14D3D3F8E8007A
:1017F000B4EB104F0FD909E0501C82B2B2F5A04FE4
:1018000004D90020264F38700920B2E7D86900F0CB
:1018100004000028F0D1D86900F00800082822D17F
:10182000032920D00022D3F80801040CD3F82801A2
:101830000A27B7EB104F16D300E014E0D3F82801C5
:10184000B4EB104F0FD909E0501C82B2B2F5A04F93
:1018500004D90020124F387009208AE7D86900F0B7
:1018600008000028F0D14DB1012D12D1D86901270F
:101870008F4007F00F073843D8610AE0D869012785
:101880008F404FF00F0C2CEA070C00EA0C00D861D7
:1018900000BF00BF0020024F387000BF69E70000A2
:1018A0000880FF1F70B50346002039B1012905D01B
:1018B000022903D0032901D0042026E032B1012AF5
:1018C0000AD0022A10D0032A1CD113E05C6901253A
:1018D0008D402C435C6117E05C6901F11005012625
:1018E000AE4034435C610FE09C6901258D402C4380
:1018F0009C6109E09C6901F110050126AE4034436A
:101900009C6101E0042000BF00BF70BD026861F36C
:1019100000020260704770B50346002039B101290A
:1019200005D0022903D0032901D0042026E032B1DA
:10193000012A0AD0022A10D0032A1CD113E0DC6845
:1019400001258D40AC43DC6017E0DC6801F1100537
:101950000126AE40B443DC600FE01C6901258D40D8
:10196000AC431C6109E01C6901F110050126AE4081
:10197000B4431C6101E0042000BF00BF70BD000043
:1019800070B505460C46164601212846FFF7BEFFF6
:1019900005F15C0000EB8410006820F4805105F133
:1019A0005C0000EB8410016005F1400000EB841046
:1019B0007168016005F1440000EB8410B1680160BA
:1019C00000BF05F1480000EB841000686FF30900C8
:1019D0003188084305F1480101EB8411086000BF1C
:1019E00000BF718805F1480000EB8410006861F3C6
:1019F0001F4005F1480101EB8411086000BF00BFE2
:101A000005F14C0000EB841000686FF30900B18908
:101A1000084305F14C0101EB8411086000BF00BFD1
:101A200005F14C0000EB841000682B490840F18957
:101A300040EA014105F14C0000EB8410016000BF59
:101A400000BF05F1500000EB841000686FF3130035
:101A50007169084305F1500101EB8411086000BF72
:101A600000BF318B05F1500000EB8410006861F37A
:101A70001F5005F1500101EB8411086000BF00BF49
:101A800005F1540000EB841000686FF31300F16956
:101A9000084305F1540101EB8411086000BF00BF49
:101AA000318C05F1540000EB8410006861F31F5085
:101AB00005F1540101EB8411086000BF05F15800E5
:101AC00000EB84103169016006F1240221462846AA
:101AD000FFF77AFD70BD0000FFFF00FC30B5034644
:101AE0000024002003F1440505EB81152A600BE07A
:101AF000651CACB2B4F5805F01D9092004E003F1A4
:101B0000440505EB81152A6003F1640505EB811599
:101B10002D689542ECD130BD30B50346002400203D
:101B200003F1400505EB81152A600BE0651CACB2A2
:101B3000B4F5805F01D9092004E003F1400505EB0D
:101B400081152A6003F1600505EB81152D6895422A
:101B5000ECD130BD70B503460024002000BF03F176
:101B6000480505EB81152D6862F31F4503F1480612
:101B700006EB8116356000BF14E0651CACB2B4F50D
:101B8000805F01D909200DE000BF03F1480505EB96
:101B900081152D6862F31F4503F1480606EB811697
:101BA000356000BF03F1680505EB81152D68B2EBC8
:101BB000154FE2D170BD000010B5094B984205D118
:101BC000084C04EB8103C3F8142807E0064B984245
:101BD00004D1044C04EB8103C3F8242810BD000099
:101BE0000030054000000140003405400648006810
:101BF0004FF47A71B0FBF1F04FF0E0214861002022
:101C000088610520086170470480FF1FF0B5034616
:101C100000224FF0E02675690F4E36684FF47A7750
:101C2000B6FBF7F606FB03F44FF0E026B16910E0CF
:101C30004FF0E026B06988420BD0884202D20E1ADB
:101C4000324402E02E1A0E4432440146A24200D32E
:101C500000E0EDE700BFF0BD0480FF1F70B58AB063
:101C60000446202102A8FEF7D9FC2078C0F34000EA
:101C700008B90AB070BD2078C0F3801010B12648B2
:101C8000808901E0254880890546606AA8422BD3F7
:101C9000002610E004F128039A192378C3F380107A
:101CA0002B46216900F09EFA206928442061606A71
:101CB000401B60622E44606AA842EBD2606A28B181
:101CC00004F128008119626AFEF707FC1E200190CA
:101CD00001AA02A9FF2004F0B9FA012804D1BDF835
:101CE000041002A8626890472078C0F3800080B199
:101CF0002278C2F3801004F12802636A216900F09F
:101D000071FA20692844206100206062204605F0B5
:101D1000DBFE00BFADE7000038600120405E01201F
:101D20000149086070470000140401400349096834
:101D300060F30001014A1160704700000C0401408B
:101D4000012801D0012200E000220349096862F362
:101D50000001014A11607047040401400146044833
:101D60000068084008B1012070470020FCE700002F
:101D70001004014004480068012804D143F21020F7
:101D800001490860086070470004014070B50346CF
:101D9000002400263F20FFF7C3FF18480068C0F367
:101DA00000451648006820F480301449086001207E
:101DB000FFF7BCFF042000F025F81148186005E08B
:101DC000601C84B2B4F5805F00D909260B48083046
:101DD0000068C0F300200028F2D01020FFF7A0FF19
:101DE000002000F00FF80020FFF7A0FF0348006874
:101DF00065F3104001490860304670BD0804014099
:101E0000785634120349096860F30611014A1160DB
:101E1000704700000C0401400349096860F3071192
:101E2000014A11607047000008040140F0B5034604
:101E30000C46002600253F20FFF772FF1948006876
:101E4000C0F300471748006820F480301549086047
:101E50000120FFF76BFF0120FFF7D4FF1C6005E0B6
:101E6000681C85B2B5F5805F00D909260D48083099
:101E70000068C0F300200028F2D01868A04200D00B
:101E800001261020FFF74CFF0020FFF7BBFF0020CA
:101E9000FFF74CFF0348006867F3104001490860F2
:101EA0003046F0BD0804014040F2231002490860AA
:101EB00043F21020086070470004014010B502464C
:101EC00010780A4B042414FB00315378086863F33C
:101ED000C71008609378086863F305100860D3782A
:101EE000086863F301000860002010BD1010054071
:101EF00001460448806D01228A401043014A9065E2
:101F000000207047001005400146064A526D01232B
:101F10008B401A400AB9012200E0002282F0010041
:101F2000704700000010054001460020A1F5054261
:101F3000153A5AB1A2F5D242FF3A22B1022A08D08C
:101F4000032A0CD108E04FF400600AE04FF48050FF
:101F500007E04FF4005004E04FF4804001E000201F
:101F600000BF00BF70470146A1F50542153A4AB1CE
:101F7000A2F5D242FF3A22B1022A04D0032A06D1A6
:101F800002E000BF00BF00BF4FF4807001E00020FE
:101F900000BF00BF70472DE9F0470546884614464C
:101FA00000272868404504D808EB04006968884287
:101FB00002D30020BDE8F087A88908B90020F9E71E
:101FC000214600200BF0F2FE07460FB90020F1E792
:101FD0004FF0000923463A464146284600F034F8BF
:101FE000A04206D1002602E0B85D8144761CA642DC
:101FF000FAD3394600200BF0BDFE4846DAE7000070
:1020000010B504460F4808F0F9FD0020206060601C
:10201000A060E0600B48B0F81E01E081E089FFF7A6
:10202000A2FFA081E089FFF77FFFA0604FF0704022
:10203000206060604FF48062D4E9010102FB01007E
:10204000606010BD085F01202DE9FE4304460D4687
:1020500017461E464FF000082068A84202D8606864
:10206000A84202D20020BDE8FE83A08908B9002062
:10207000F9E711E0A0892168691ACDE900710290A1
:102080000E480FC808F0EAFDA089361AA089054459
:10209000A0890744A0898044A089B6FBF0F00028FD
:1020A000E8D146B1B0B2CDE90075029003480FC83F
:1020B00008F0D4FDB0444046D5E70000085F012099
:1020C0002DE9FF4F85B005460E469B46AC894FF083
:1020D0000009DA46BAF1000F00D01CB9002009B09F
:1020E000BDE8F08F2868B0425DD806EB0A00696849
:1020F000884258D2214600200BF058FE8146B9F1A3
:10210000000F01D10020EAE72868361AB6FBF4F880
:1021100008FB04F8B6FBF4F004FB106080B20490F6
:102120000498201A80B2039035E0286800EB08017B
:1021300023464A462846FFF787FF002706E0079810
:10214000C15D0498384409F800107F1C039850457D
:1021500001D2039800E05046B842F0D8AAEB070A33
:102160000798384407901148CDF800800FC808F050
:102170001AFD0E48CDE9009802940FC808F0D3FD6F
:10218000A044BAF1000F00D106E0002004900498AA
:10219000201A80B20390C8E700BF494600200BF028
:1021A000E9FD58469BE7002099E70000085F012001
:1021B0002DE9F04105460E46174635B13A463146FF
:1021C0000648FFF7E8FE044605E03A463146044873
:1021D00000F0B0FC04462046BDE8F08138600120E4
:1021E000405E01202DE9F04104460D4616461F468B
:1021F00034B13B46324629460548FFF761FF05E00A
:102200003B4632462946034800F0CEFCBDE8F0814B
:1022100038600120405E01201CB500231A464FF4AF
:102220000041012003F094FC00BF002000900190C9
:1022300000BF8DF800008DF804006A464FF400419D
:10224000012003F0F7FB00231A464FF480410120E0
:1022500003F07EFC01208DF8000000208DF80600C0
:1022600002208DF8050000208DF802008DF8040092
:102270006A464FF48041012003F0DCFB1CBD10B521
:102280004FF40041012003F0C5FB0446012C00D1AE
:1022900010BD0020FCE710B54FF48041012003F091
:1022A0003BFC10BD10B54FF48041012003F042FC0F
:1022B00010BD0246642001EB81239B00934200DCA9
:1022C00069E040F678734B43934201DC5A2062E0A8
:1022D00040F614734B43934201DC50205BE040F620
:1022E000C4634B43934201DC462054E040F67463E0
:1022F0004B43934201DC3C204DE040F656634B4398
:10230000934201DC322046E040F624634B43934283
:1023100001DC28203FE040F606634B43934201DC9A
:102320001E2038E040F6B6534B43934201DC1420A4
:1023300031E040F698534B43934201DC0F202AE0F2
:1023400040F6E4434B43934201DC0A2023E040F68D
:10235000B2434B43934201DC05201CE040F64E4360
:102360004B43934201DC042015E040F61C434B43F1
:10237000934201DC03200EE040F686334B43934248
:1023800001DC022007E040F654334B43934201DC6A
:10239000012000E00020704702460123104810444D
:1023A00048B1B0F5806F0AD0B0F5804F0BD0B0F5D2
:1023B000884F10D10BE009B1002008700DE009B181
:1023C0000120087009E009B10220087005E009B198
:1023D0000320087001E0002300BF00BF0120704708
:1023E0000030FEBF0020704710B5002402F018FA3C
:1023F000806908B9022000E00020044308F058FF7B
:10240000806908B9042000E00020044304F05AFB6E
:10241000806908B9102000E000200443204610BD68
:1024200070B5002400F0B8F805460AF087FB0646B0
:102430002879C0F3400008B9102000E000200443D0
:10244000307908B9042000E000200443204670BD24
:10245000002070470020704710B50246002002E0BF
:1024600013781844521C0B1EA1F10101F8D110BDC4
:10247000014642F229400844407842F229420A4487
:10248000927840EA022070470120704770B50646F6
:102490000C4604B970BDA078617840EA0125A5F525
:1024A0007E40083828B90822211D304601F097F8EF
:1024B00005E00822211D304601F0E1FE00BF00BF0B
:1024C00000BFE7E7054880880449896801EB4102BD
:1024D000C2EBC11100EBC10070470000C4B0FF1F88
:1024E00010B50821034806F033FD0021014806F02D
:1024F000A3FD10BD0050014010B548F2886006F001
:102500004DFF10BD10B50121014806F095FD10BD2D
:102510000050014010B50021014806F087FE10BDB3
:1025200000500140F8B505460E460821FE2005F092
:1025300092F9044654B1207800F0010030B12B46E6
:102540000822211D0120009601F068FEF8BD000060
:1025500000487047CC6201200FB410B5FFF7F8FFB8
:10256000044620212046FEF759F80298606005993C
:102570002161069961610399A1600499E160606835
:1025800008B16068804710BC5DF814FB00B5FFF728
:10259000DFFF0146002000BD0048704734B0FF1F38
:1025A00010B58AB0FFF7F8FF044628212046FEF751
:1025B00035F81C22134903A8FDF7D4FF07A807C864
:1025C0008DE8070003A80FC8FFF7C6FFFFF7C0FF9D
:1025D000206064224FF4007104F1080004F04DFB08
:1025E000616860F300016160282104F1080004F0D3
:1025F00048FC4FF47A720121204600F003F90AB03A
:1026000010BD000064ED01002DE9FC41FFF7C4FF9F
:10261000064606F10804A08AE18A401A80B20190B9
:1026200000200090FFF74EFF07464FF0000830797A
:1026300000F0010008B9BDE8FC816068B84216D21C
:102640006068381A2168884211D36760FFF79EFFDF
:1026500068B9204604F017FC8046B8F1000F06D098
:10266000B8F810103068C26808F112009047E38A89
:102670002169C81831688A6801A99047012838D1B2
:10268000E08ABDF804100844E08200252DE0E08ACD
:10269000401B80B20190216948196A4601A903F0E4
:1026A000BDFE01281AD1A761009801280AD1E38A4A
:1026B0005A1B236959191846FDF70FFFE08A401B82
:1026C000E08215E0216948193246BDF8041000F097
:1026D00017F8BDF80400284485B201E0681C85B2F3
:1026E000E08AA84201D10020E082E08AA842CEDC44
:1026F00000BF00BF9FE70000004870473CB0FF1FCD
:102700002DE9F04104460F46164635466078BE284E
:102710000CD1686820F00200801C6860A2786378A1
:1027200042EA0321286904F07AFB00E000BF00BF01
:10273000BDE8F08110B590B0242107A8FDF76EFF29
:102740000B4C24220B4907A8FDF70CFF4FF4E13096
:10275000089014220BA968460594FDF703FF07A80B
:102760000FC807F001FA204607F009FA10B010BDB3
:1027700004B1FF1FD4EC010070B506460D461A4C9B
:1027800094F8400800F0010058B3B4F82C0838B9A8
:1027900094F8400820F0010084F84008002070BD43
:1027A0002888B4F82C1888420ADBB4F82C2804F2E4
:1027B0002C413046FDF791FEB4F82C08288005E046
:1027C0002A8804F22C413046FDF787FE0020A4F849
:1027D0002C0894F8400820F0010084F840080120FB
:1027E000DDE70020DBE7000004B1FF1F70B5044601
:1027F0000D462A462146024807F01AFE70BD000029
:1028000004B1FF1F2DE9F04106460F469046002413
:10281000F82100200BF0CAFA04460CB9BDE8F0819B
:10282000F8212046FDF7FAFE00202082AA21228A04
:10283000501C208204F112008154BE21228A501CB7
:10284000208204F1120081540021228A501C20822F
:1028500004F1120081540221401C04F0EBF985B20E
:10286000290A228A501C208204F112008154228AF3
:10287000501C208204F112008554E421228A501C4D
:10288000208204F1120081541B21228A501C2082D4
:1028900004F1120081541121228A501C208204F17B
:1028A00012008154EE21228A501C208204F1120071
:1028B0008154217DE07C41EA002020606760C4F8FB
:1028C0000C802146306904F020FA00BFA6E7000022
:1028D0000148007B704700006080FF1F014880882E
:1028E000704700006080FF1F01488078704700003B
:1028F0006080FF1F004870476680FF1F01484089C5
:10290000704700006080FF1F01484078704700005A
:102910006080FF1F01480078704700006080FF1F43
:10292000004870476F80FF1F0148407B70470000E0
:102930006080FF1F00B589B01648006800F50040B0
:10294000144A92898118202301AA124800F01FF925
:102950001C2101A8FFF780FD0899884213D001A827
:1029600000F05CF81C2101A8FFF776FD08900948EB
:10297000006800F50040074A92898118202301AAC7
:10298000044800F011F91C2201A90348FDF7EAFDF3
:1029900009B000BD405E01206080FF1F10B50446F5
:1029A000FF2C05D010480078A04201D0002010BDB7
:1029B000FF2905D00C484078A04201D00020F6E75E
:1029C000FF2A05D008488078A04201D00020EEE719
:1029D0004FF6FF70834205D003488088A04201D0A3
:1029E0000020E4E70120E2E76080FF1F10B51C2112
:1029F0000848FFF731FD0749C8610748006800F53E
:102A00000040054A928981182023024A024800F0BA
:102A1000CBF810BD6080FF1F405E012010B504465A
:102A200004B910BD20212046FDF7F8FDFF20A0705D
:102A30003020207001206070FF20A0704FF6FF70E2
:102A4000A080C020A071A821E171062121722A2155
:102A5000617240F6A17060810120207302206073D2
:102A60000F20A073FF20E073FF2121746174A17413
:102A7000E17421756175A17500BFD2E7022801DA02
:102A800001490873704700006080FF1F014988807A
:102A9000704700006080FF1F014988707047000088
:102AA0006080FF1F28B1042903DB024A0368C2F8D3
:102AB000063070476080FF1F014948817047000061
:102AC0006080FF1F01494870704700006080FF1F51
:102AD00001490870704700006080FF1F002801DD79
:102AE000102801DBFF2801D10149887370470000DD
:102AF0006080FF1F0CB509A30CCBCDE9002338B1D2
:102B0000082905DB074A036813604368536004E043
:102B1000044A009B1360019B53600CBDFFFFFFFF45
:102B2000FFFFFFFF6F80FF1F4FF4007070474FF4EF
:102B30000050704730B503461868884203D888189B
:102B40005D68A84201D3002030BD002403E008786E
:102B50000444521E491C002AF9D12046F4E700B56E
:102B600002460020106050609060D060FFF7DFFFE9
:102B70009081FFF7D9FF90600020106050604FF403
:102B80008063D2E9010103FB0100506000BD30B554
:102B900005461446002203E00878A054491C521C44
:102BA0009A42F9D3184630BD2DE9FF4F83B006464F
:102BB0000F469B46B5894FF00009DA46BAF1000F7F
:102BC00003D1002007B0BDE8F08F3068B84270D85C
:102BD00007EB0A00716888426BD2294600200BF08F
:102BE000E5F88146B9F1000F01D10020EAE7FFF7CF
:102BF0005BF90120FFF7A4F800BF4FF48070FFF7E6
:102C0000ADF80128F9D130683F1AB7FBF5F808FB99
:102C100005F8B7FBF5F005FB107080B20290029842
:102C2000281A80B2019039E0306800EB08012B4689
:102C30004A463046FFF7ABFF002406E00598015DE9
:102C40000298204409F80010641C0198504501D2F4
:102C5000019800E05046A042F0D8AAEB040A05987B
:102C600020440590316801EB0800FFF78FF800243D
:102C700007E059F80410326842441019FFF7D6F8FB
:102C8000241DAC42F5D3A844BAF1000F00D106E0F0
:102C9000002002900298281A80B20190C4E700BF79
:102CA000494600200BF066F8FFF764F8584689E7BC
:102CB000FFE7002086E710B50421052002F02CFF75
:102CC00004F037F94FF40051022002F025FF0421EF
:102CD000052002F02FFF0421052002F01DFF10BD8A
:102CE00010B50421052002F017FF04F022F94FF47B
:102CF0000051022002F01EFF0421052002F01AFFFD
:102D00000421052002F008FF10BD70B5054600241F
:102D100004F002F9002613E00421052002F0FCFE75
:102D20000421052002F006FF6006040E4FF4005156
:102D3000022002F06FFE08B1601CC4B2701CC6B263
:102D4000082EE9DB15B9FFF7CBFF01E0FFF7B3FF72
:102D5000204670BD70B50546002419E005FA04F060
:102D600000F0800028B14FF40051022002F0E2FE92
:102D700004E04FF40051022002F0CEFE04210520B1
:102D800002F0D8FE0421052002F0C6FE601CC4B289
:102D9000082CE3DB70BD10B54FF40051022002F0A7
:102DA000C9FE0421052002F0C5FE4FF400510220A7
:102DB00002F0B2FE0421052002F0AEFE10BD10B5F7
:102DC0004FF40051022002F0A7FE0421052002F07A
:102DD000B1FE4FF40051022002F0ACFE10BD10B560
:102DE00000244FF40051022002F0A4FE04F094F8F5
:102DF0000421052002F09EFE4FF40051022002F053
:102E000009FE04460421052002F086FE04F091F834
:102E1000204610BD00487047D0AFFF1F10B5FFF728
:102E2000F9FF044640212046FDF7F8FB09486060A1
:102E30000949A1600949E1606068804764224FF454
:102E4000007104F12400FEF7F9FA216A60F3000131
:102E5000216210BD392F0100412F01008D2F01008B
:102E60002DE9F843FFF7D6FF064606F12404A08AB1
:102E7000E18A401A80B20090FFF724FB07464FF02A
:102E8000000896F8200000F0010008B9BDE8F883BA
:102E90006068B84218D26068381A2168884213D333
:102EA000676001F0D9FB78B9A06801F0D4FF8046D3
:102EB000B8F1000F08D0B8F8101008F11200F2684D
:102EC0009047A06801F0D5FFE38A2169C8186946D8
:102ED000B2689047012828D1E08ABDF80010084464
:102EE000E08200251EE0E08A401B80B2009021694C
:102EF0004819694603F0D4FA01280CD1A76120696A
:102F00004119BDF80020002000F069FABDF800006A
:102F1000284485B201E0681C85B2E08AA84201DC41
:102F20000020E082E08AA842DDDC00BFAEE70000BE
:102F300000487047F4AFFF1F10B507F063FD10BDE8
:102F400070B5C2B005460C464FF48070019001A9DF
:102F500002A807F05DFD0646B6B92088BDF804104A
:102F6000884209DBBDF8042002A92846FDF7B5FA1E
:102F7000BDF80400208004E0228802A92846FDF75D
:102F8000ACFA012042B070BD0020FBE770B50446EA
:102F90000D462946204607F06FFD70BD10B508218B
:102FA000054806F071F8012805D10821024805F00E
:102FB000CFFF01F061FA10BD0050014010B50821AB
:102FC000054806F061F8012805D10821024805F0FE
:102FD000BFFF06F098FA10BD0054014010B508215B
:102FE000054806F051F8012805D10821024805F0EE
:102FF000AFFF01F0CDF910BD0058014010B50B2016
:10300000FEF782FF012804D10B20FEF771FF01F0CB
:1030100095F910BD10B54FF40051084805F03CFE7D
:1030200050B14FF40051054805F00AFE034805F081
:103030002FFF03484169884710BD00000048024047
:103040004860012010B54FF40051064805F024FEF9
:1030500030B104F06DFE4FF40051024805F0F0FD70
:1030600010BD00000070014010B5024807F05BF889
:1030700010BD000004B1FF1F10B5024807F075F83D
:1030800010BD000004B1FF1F10B5024807F08CF816
:1030900010BD000004B1FF1F10B5024807F01FF972
:1030A00010BD000004B1FF1F10B5024807F0FAF888
:1030B00010BD000004B1FF1F10B5024806F0EDFF7F
:1030C00010BD000004B1FF1F10B5024807F02BF837
:1030D00010BD00004CB9FF1F10B5024807F045F8BD
:1030E00010BD00004CB9FF1F10B5024807F05CF896
:1030F00010BD00004CB9FF1F10B5024807F0EFF8F3
:1031000010BD00004CB9FF1F10B5024807F0CAF807
:1031100010BD00004CB9FF1F10B5024806F0BDFFFE
:1031200010BD00004CB9FF1F10B5024806F0FBFFB0
:1031300010BD000094C1FF1F10B5024807F015F83C
:1031400010BD000094C1FF1F10B5024807F02CF815
:1031500010BD000094C1FF1F10B5024807F0BFF872
:1031600010BD000094C1FF1F10B5024807F09AF887
:1031700010BD000094C1FF1F10B5024806F08DFF7E
:1031800010BD000094C1FF1F10B5024806F0CBFF30
:1031900010BD0000DCC9FF1F10B5024806F0E5FFB6
:1031A00010BD0000DCC9FF1F10B5024806F0FCFF8F
:1031B00010BD0000DCC9FF1F10B5024807F08FF8F2
:1031C00010BD0000DCC9FF1F10B5024807F06AF807
:1031D00010BD0000DCC9FF1F10B5024806F05DFFFE
:1031E00010BD0000DCC9FF1F0EB500BF002001901C
:1031F000029000BF00BF009000BF0B208DF80000C0
:1032000001208DF8010000208DF803006846FEF7CC
:1032100055FE00208DF8040001208DF806008DF881
:10322000080001AAC102002002F004FC03210B20C7
:1032300001F0EAF9032008F015FA0021032008F054
:103240004DFA032008F029FA0EBD1CB500BF00207E
:103250000090019000BF01208DF800006A46010334
:10326000002002F0E7FB1CBD10B507F0A5FD10BD66
:103270001CB500BF00200090019000BF0A208DF80F
:10328000010003208DF800000F208DF802000020BF
:103290008DF8030001208DF80400684607F06EFDEC
:1032A0001CBD000000200BE0074A042303FB0021A3
:1032B0000A686FF3080202F2FF120A60421C90B221
:1032C0007F28F1DD704700005C1005402DE9FC47C8
:1032D0000446FFF79FFD804607F01CFF814600254E
:1032E0000CB1E06810B90020BDE8FC87F82100208F
:1032F0000AF05CFD05460DB90020F5E7F8212846E7
:10330000FDF78CF92078B8B9E068407806062E60A1
:10331000208AE62801DA208A00E0E62028822A8A2C
:1033200005F11200E168FDF7D8F82946D8F82C001D
:1033300001F06AFD01274AE0606810B1207A022896
:1033400001DC002743E0E620288205F11000811C03
:10335000CDE90010238A217AE268606802F005FA5C
:1033600090B30026E068007855280AD1218AE068E9
:1033700003F0F6F80646217A606803F0F1F8064497
:1033800014E0E068407846EA0066207AC01E616872
:10339000085C46EA0046207A801E6168085C46EABE
:1033A0000026207A401E6168085C06432E60606932
:1033B0006860A069E8602946D9F8100003F0CDFCE8
:1033C000012101EBE07701E0FFE7002700BF00BF2C
:1033D0001FB9294600200AF0CDFC384684E72DE9C4
:1033E000F84306460D4614466878297840EA0127D6
:1033F0004AF2AE21781A8F425DD013DC4AF2A32143
:10340000A7EB01008F4231D007DCA7F52040A0F5E3
:103410002870A8B1012872D11DE0012833D00A28F4
:10342000F9D13DE0F7285FD004DC012844D05128D1
:103430007CD14CE0F92863D0B0F5897F76D16AE081
:1034400007F0BAFE80462B460822414630460094DB
:1034500000F015FB6BE007F0AFFE80462B4608221C
:1034600041463046009400F059F960E007F0A4FEB0
:1034700080462B46082241463046009400F09EFCD0
:1034800004F008FA53E007F097FE80462B46082226
:1034900041463046009400F017FD04F0FBF946E089
:1034A00007F08AFE80462B460822414630460094AB
:1034B00000F018FA3BE03AE007F07EFE80462B462B
:1034C000082241463046009400F067FB2FE007F0E9
:1034D00073FE80462B46082241463046009400F099
:1034E00001FA05F0C7FE22E007F066FE80462B4693
:1034F000082241463046009400F0ADFD17E015E08B
:1035000007F05AFE80462B4608224146304600947A
:1035100000F0F1FD0BE007F04FFE80462B4608223D
:1035200041463046009400F0A0F800E000BF00BF24
:10353000BDE8F8832DE9F84F80460C4615460CB9D6
:10354000BDE8F88FA678022E00DAF9E794F8049027
:103550006779B9F1060F25D1012F11D1207A1028F2
:103560000ED1062E0CDD607A40F080006072A5F16D
:10357000080081B201230622A01D03F03FFA10E0EB
:10358000012F0ED1207AAF280BD1607A40F0800055
:103590006072A5F1080081B201230622A01D03F08C
:1035A0002DFA19E0B8F1010F15D14FF0000A2946A4
:1035B000204602F0D5FF824607F0FEFD082100906C
:1035C00002F0CEFF824407F073FE83465146DBF8DB
:1035D000080003F024FC00BF00BF00BFB0E7F0B557
:1035E00095B005460E4617460024A2222146641CCB
:1035F00008A84254C0222146641C4254002221469D
:10360000641C4254FF222146641C42542146641C1F
:1036100042542146641C42542146641C42542046B4
:10362000611CCCB208A90A54E01EC0B28DF8220079
:10363000E01E81B20DF1230007F05EFD2146621C01
:10364000D4B208AA50548DF8045002968DF80C702C
:1036500008A80490ADF8144001200690642007905B
:1036600001A8FFF733FE15B0F0BD2DE9F04F87B08C
:1036700082468B461D46DDF8408007F09DFD814661
:1036800015B1B8F1220F03DA002007B0BDE8F08FC2
:1036900008242246641CA85C07F066F92819016812
:1036A000049141680591806806900C3404A807F0E5
:1036B00067F92819016802918088ADF80C00A41DF3
:1036C00002A807F07DF92246641CA85C07F064F9A3
:1036D0002146621CD4B2685C07F064F9285D019051
:1036E000601CC4B2601C285C295D40EA0127A01C54
:1036F000C4B22146621CD4B2685C07F01BF90821F1
:10370000484604F07DF8064636B1FEF7DBFEB061B0
:103710009DF80400B074B7820120B6E72DE9F04FA0
:103720009BB00746884691461D46DDF890B015B11E
:10373000BBF10B0F03DA00201BB0BDE8F08F0326AE
:103740003146761C685C06903146761C685C0590B4
:103750003146761C685C0490701C285CA95D40EAC8
:1037600001200190B61C3146761C685C03903146FE
:10377000761C685C02904FF0000A012106A800F058
:1037800075FF012805D19DF81800FFF7A1F94FF04A
:10379000010A012105A800F069FF012805D19DF863
:1037A0001400FFF78FF94FF0010A012104A800F07F
:1037B0005DFF012805D19DF81000FFF76DF94FF06E
:1037C000010A022101A800F051FF012805D1BDF82E
:1037D0000400FFF75BF94FF0010A012103A800F094
:1037E00045FF012805D19DF80C0007F0A9F84FF01E
:1037F000010A012102A800F039FF012805D19DF836
:10380000080007F0B7F84FF0010ABAF1010F09D12B
:10381000FFF72AFDFFF7EAF8FFF726FD07F062F849
:10382000FFF722FD0024A3222146641C0EA8425467
:103830006A782146641C425400222146641C42548A
:10384000FFF768F801462246641C0EA88154FFF772
:103850005BF801462246641C0EA88154FFF744F829
:1038600001462246641C0EA88154FFF737F8021265
:103870002146641C0EA84254FFF730F8C2B220461D
:10388000611CCCB20EA90A5406F09AFF2146621CB4
:10389000D4B20EAA505406F09FFF2146621CD4B247
:1038A0000EAA5054E01EC0B28DF83A00E01E81B25C
:1038B000D01C07F021FC2146621CD4B20EAA505441
:1038C0008DF81C70CDF820808DF824900EA80A90F9
:1038D000ADF82C4001200C9064200D9007A8FFF754
:1038E000F5FC29E72DE9F04F95B00746884691464B
:1038F000DDF878B00024A3222146641C08A84254B5
:10390000FF222146641C425400222146641C42547A
:1039100001222146641C425402222146641C425466
:10392000FEF762FD01462246641C08A88154FEF79A
:1039300077FD01462246641C08A88154FEF788FDE5
:103940002146621CD4B208AA5054FEF783FD2146DA
:10395000621CD4B208AA505406F02CFF2146621C07
:10396000D4B208AA5054FDF713F902122046611C84
:10397000CCB208A90A54FDF70BF9C2B22046611C6B
:10398000CCB208A90A5406F051FF08A921440268E4
:103990000A604068486004F10800C4B2FEF722FDE6
:1039A0002146621CD4B208AA505406F01BFF82467E
:1039B0002146601CC4B208A800F801A0002633E02C
:1039C000F0B206F015FF05466A782046611CCCB2BD
:1039D00008A90A54AA782046611CCCB208A90A5446
:1039E000EA782046611CCCB208A90A5408A801193B
:1039F0006A680A60A868486004F10800C4B208A8B0
:103A00000119A87C0870601CC4B2A88A0212204662
:103A1000611CCCB208A90A542A7D2046611CCCB294
:103A200008A90A54701C86B2BAF10A0F01DA50468E
:103A300000E00A20B042C3DCE01EC0B28DF82200D4
:103A4000E01E81B20DF1230007F056FB2146621CF7
:103A5000D4B208AA50548DF80470CDF808808DF8BF
:103A60000C9008A80490ADF8144001200690642042
:103A7000079001A8FFF72AFC15B0BDE8F08F2DE9EB
:103A8000F04F97B00746884691461D4615B12098DD
:103A9000092803DA002017B0BDE8F08F032631466D
:103AA000761C15F801A03146761C15F801B0314698
:103AB000761C685C0290701C285CA95D40EA0120BD
:103AC0000190B61C59465046DDE90132FEF766FF0B
:103AD0000024A3222146641C0AA842546A78214685
:103AE000641C425400222146641C4254FEF712FF1B
:103AF00001462246641C0AA88154FEF705FF0146D0
:103B00002246641C0AA88154FEF7EEFE01462246B6
:103B1000641C0AA88154FEF7E1FE02122146641CCF
:103B20000AA84254FEF7DAFEC2B22046611CCCB2AB
:103B30000AA90A54FEF7F8FE2146621CD4B20AAA6A
:103B4000505406F073FE0AA9214402680A604068D6
:103B5000486004F10800C4B2E01EC0B28DF82A002B
:103B6000E01E81B20DF12B0007F0C6FA2146621C5F
:103B7000D4B20AAA50548DF80C70CDF810808DF88C
:103B800014900AA80690ADF81C400120089064200B
:103B9000099003A8FFF79AFB7DE72DE9F04F9DB050
:103BA0000746884691461E4616B12698192803DA1C
:103BB00000201DB0BDE8F08F032529466D1C16F8C6
:103BC00001A029466D1C16F801B029466D1C705CD9
:103BD0000890681C305C715D40EA01200490AD1CC7
:103BE00059465046049B089AFEF7D8FE70190068A3
:103BF00002902D1D681C305C715D40EA012003902D
:103C0000AD1C2846691CCDB2305C07902846691C63
:103C1000CDB2305C06907019016800914068019047
:103C200005F10800C5B200200590042102A800F0AB
:103C30001DFD012805D1042102A8FEF733FF012054
:103C40000590022103A800F011FD012805D1BDF85F
:103C50000C00FEF731FF01200590012107A800F0BC
:103C600005FD012805D19DF81C00FEF707FF012086
:103C70000590012106A800F0F9FC012805D19DF866
:103C80001800FEF72BFF012005900821684600F080
:103C9000EDFC012805D108216846FEF72BFF012025
:103CA00005900598012805D1FFF7DEFAFEF79EFE84
:103CB000FFF7DAFA0024A3222146641C10A842541C
:103CC00072782146641C425400222146641C4254EE
:103CD000FEF720FE01462246641C10A88154FEF720
:103CE00013FE01462246641C10A88154FEF7FCFD19
:103CF00001462246641C10A88154FEF7EFFD021213
:103D00002146641C10A84254FEF7E8FDC2B22046CA
:103D1000611CCCB210A90A54FEF7ECFD10A9214495
:103D200000680860201DC4B2FEF7E8FD02122046BC
:103D3000611CCCB210A90A54FEF7E0FDC2B22146C4
:103D4000601CC4B210A84254FEF7C2FD2146621C9A
:103D5000D4B210AA505406F06DFD2146621CD4B2B4
:103D600010AA505406F062FD10A9214402680A60AE
:103D70004068486004F10800C4B2E01EC0B28DF88B
:103D80004200E01E81B20DF1430007F0B5F9214673
:103D9000621CD4B210AA50548DF82470CDF828803B
:103DA0008DF82C9010A80C90ADF8344001200E90A6
:103DB00064200F9009A8FFF789FAFAE62DE9F04F81
:103DC00097B00746884691461D4615B120980928A8
:103DD00003DA002017B0BDE8F08F03263146761CC9
:103DE00015F801A03146761C15F801B03146761C55
:103DF000685C0290701C285CA95D40EA012001907B
:103E0000B61C59465046DDE90132FEF7C7FD0020D9
:103E100003F06CFFFFF728FA03F04CFFFFF724FADA
:103E20000024A3222146641C0AA842546A78214631
:103E3000641C425400222146641C4254FEF76AFD71
:103E400001462246641C0AA88154FEF75DFD014626
:103E50002246641C0AA88154FEF746FD014622460C
:103E6000641C0AA88154FEF739FD02122146641C25
:103E70000AA84254FEF732FDC2B22046611CCCB201
:103E80000AA90A54E01EC0B28DF82A00E01E81B2D1
:103E90000DF12B0007F030F901462046621CD4B228
:103EA0000AAA11548DF80C70CDF810808DF814907A
:103EB0000AA80690ADF81C400120089064200990E3
:103EC00003A8FFF703FA85E72DE9F04F9BB0804682
:103ED000894692461D460020009001900290039072
:103EE00015B12498152803DA00201BB0BDE8F08F27
:103EF00003263146761C15F801B03146761C685C05
:103F000006903146761C685C0590701C285CA95DA3
:103F100040EA01200490B61C5846DDE904320699B7
:103F2000FEF73CFD3146761C6F5C0FB10A2F01DDB8
:103F30000020DAE73046711CCEB2285C8DF8000014
:103F40003046711CCEB2285C8DF801003046711CE1
:103F5000CEB2285C8DF80200A8190168CDF80310D4
:103F60004068CDF8070006F10800C6B2781EC1B25D
:103F7000684603F0CDFEFFF777F903F09BFEFFF7ED
:103F800073F90024A3222146641C0EA842546A78C7
:103F90002146641C425400222146641C4254FEF710
:103FA000B9FC01462246641C0EA88154FEF7ACFC05
:103FB00001462246641C0EA88154FEF795FC01467A
:103FC0002246641C0EA88154FEF788FC021221468A
:103FD000641C0EA84254FEF781FCC2B22046611C4C
:103FE000CCB20EA90A542046611CCCB20EA90F54C3
:103FF0009DF802202046611CCCB20EA90A540EA8DE
:104000002044DDF803100160DDF80710416004F181
:104010000800C4B2E01EC0B28DF83A00E01E81B2C2
:104020000DF13B0007F068F82146621CD4B20EAADD
:1040300050548DF81C80CDF820908DF824A00EA847
:104040000A90ADF82C4001200C9064200D9007A838
:10405000FFF73CF949E72DE9FF5F81461C46DDF893
:1040600038B007F0A9F8804614B1BBF1090F03DAA4
:10407000002004B0BDE8F09F032529466D1C605C5C
:10408000039029466D1C605C029029466D1C605CA3
:104090000190681C205C615D40EA01200090AD1C2D
:1040A0000821404603F0ACFB064616B3307820F0FA
:1040B0000100401C3070FEF705FAB061681C205CFE
:1040C000B074B9F1010F14D16078070698F80500B3
:1040D00047EA004798F8060047EA002798F80700E3
:1040E000074307F0E5F882463946DAF8080002F09F
:1040F00096FE0120BDE72DE9F05F83461C460A9F2E
:1041000007F05AF882460CB1092F02DA0020BDE808
:10411000F09F082529466D1C14F8018029466D1C66
:1041200014F8019009350821504603F069FB064652
:1041300066B1FEF7C7F9B061605DB074681CC5B2C6
:10414000681C205C615D40EA0120B0820120DEE74E
:104150002DE9F04196B007460D46164631462846F1
:1041600003F04EFB8046B8F1000F03D1002016B0DB
:10417000BDE8F0810024A2222146641C09A8425413
:10418000A5222146641C425400222146641C42544C
:1041900098F801202146641C4254FF222146641CE9
:1041A00042542146641C42542146641C4254204619
:1041B000611CCCB209A90A5406F00EFB2146621C10
:1041C000D4B209AA505406F025FB089009A89DF81E
:1041D00020100155601CC4B2E01EC0B28DF826004C
:1041E000E01E81B20DF1270006F086FF2146621C19
:1041F000D4B209AA50548DF8047002958DF80C6061
:1042000009A80490ADF814404FF0FF30069041F239
:104210008830079001A8FFF759F8A8E72DE9F04189
:10422000A4B005460E4617461C46DDF8A88014B11A
:10423000B8F1640F03DD002024B0BDE8F0816E20EA
:10424000079007AB08AA4146204602F0A4F90128CE
:1042500013D18DF8005001968DF8087008A80390CE
:10426000BDF81C00ADF810000A2005904FF4FA705C
:1042700006906846FFF72AF8DEE70020DCE7F0B595
:1042800095B005460E4617460024A2222146641C1E
:1042900008A84254A7222146641C42540022214609
:1042A000641C4254FF222146641C42542146641C73
:1042B00042542146641C42542146641C4254204608
:1042C000611CCCB208A90A54E01EC0B28DF82200CD
:1042D000E01E81B20DF1230006F00EFF2146621CA4
:1042E000D4B208AA50548DF8045002968DF80C7080
:1042F00008A80490ADF814400120069064200790AF
:1043000001A8FEF7E3FF15B0F0BD00000A480078F1
:10431000C0F3800070B108484068401C06494860FE
:1043200008464068072805D30846007820F01000AA
:104330001030087000207047B061012010B511489E
:10434000007800F00100E0B10F48C07AC8B90D480C
:104350000078C0F3C000A0B90A48007820F002003D
:10436000084908700846007820F0080008300870F6
:10437000FDF728F8FDF740F8002004490860FDF734
:1043800033F810BDB0610120A06101202080FF1F23
:1043900010B53548007800F00100002863D033489C
:1043A000C07A00285FD130480078C0F3C000D0B197
:1043B0002D480078C0F34000A8B902F02EFA90B161
:1043C0002948007820F00200801C27490870084620
:1043D000007820F00400087000204860244908603C
:1043E000244908703FE020480078C0F34000D0B373
:1043F00002F007FA40B11E480178012088401D49AB
:10440000097808431B49087019480068401C18497E
:10441000086008460068082825D316480078124925
:1044200008750846017DB0F81621B0F81601401C49
:104430000D4BA3F8160103F11500815415380078CF
:1044400020F00800194608700846007820F00200A5
:1044500008700846007820F00400001D0870FCF782
:10446000B1FFFCF7C9FF10BDB0610120A0610120C0
:104470002080FF1F2480FF1F10B52648C07A012826
:1044800046D124480068401C22490860084600685C
:104490004968401A01283BD11E4800681D49486000
:1044A0000846407A082817DA0846007A00F001002A
:1044B00008730846007B012802D102F079FF01E071
:1044C00002F086FF1348007A40101249087208462D
:1044D000407A401C48721BE00E48407A082807D1F9
:1044E00002F066FF0B48407A401C0A4948720FE010
:1044F0000848407A08280BDD002006494872086009
:104500004860C872FDF7ECFFFEF704F804F0F4FF12
:1045100010BD0000A061012070B50024202916DB29
:10452000C51700EBD5656D1105EB4505202606EB9B
:1045300045058D420ADCC51700EBD5656D1105EB0D
:104540004505252606EB45058D4200DA70BD054A76
:10455000042303FB0124226860F30802226000BFE9
:10456000F4E700005C10054070B50024202916DB3C
:10457000C51700EBD5656D1105EB4505202606EB4B
:1045800045058D420ADCC51700EBD5656D1105EBBD
:104590004505252606EB45058D4200DA70BD054A26
:1045A000042303FB0124226860F30802226000BF99
:1045B000F4E700005C10054070B50024202916DBEC
:1045C000C51700EBD5656D1105EB4505202606EBFB
:1045D00045058D420ADCC51700EBD5656D1105EB6D
:1045E0004505252606EB45058D4200DA70BD054AD6
:1045F000042303FB0124226860F30802226000BF49
:10460000F4E700005C10054070B50024202916DB9B
:10461000C51700EBD5656D1105EB4505202606EBAA
:1046200045058D420ADCC51700EBD5656D1105EB1C
:104630004505252606EB45058D4200DA70BD054A85
:10464000042303FB0124226860F30802226000BFF8
:10465000F4E700005C1005400348C07A012800D14F
:1046600070470020FCE70000A0610120024602B173
:1046700009B90020704705E012F8013BFF2B01D07B
:104680000120F7E7081EA1F1010399B2F4D100BFA0
:10469000F0E710B54FF40041002001F0BBF901280C
:1046A00000D110BD0020FCE70048704710B0FF1F8C
:1046B00010B58AB0FFF7F8FF044624212046FBF727
:1046C000ADFF1C22114903A8FBF74CFF07A807C840
:1046D0008DE8070003A80FC800F05DF900F020F98D
:1046E000206064224FF4007104F10800FCF7A6FE7C
:1046F000616860F30001616000F071F90A221146FF
:10470000204600F0B0F90AB010BD0000B8EC01007E
:104710002DE9FC41FFF7C8FF064606F10804A08A10
:10472000E18A401A80B2019000200090FDF7CAFE95
:1047300007464FF00008307900F0010008B9BDE8E5
:10474000FC816068B84227D26068381A21688842C4
:1047500022D3676000F03DF9F0B9A06800F07BFB60
:104760008046B8F1000F09D0B8F810103068C26860
:1047700008F112009047A06800F07BFBA069381A8E
:104780004CF25031B0FBF1F201FB120020B90A22C9
:104790001146304600F067F9E38A2169C81831688C
:1047A0008A6801A99047012838D1E08ABDF8041031
:1047B0000844E08200252DE0E08A401B80B2019091
:1047C000216948196A4601A901F001FE01281AD1A0
:1047D000A761009801280AD1E38A5A1B2369591955
:1047E0001846FBF77AFEE08A401BE08215E021695B
:1047F00048193246BDF8041000F016F8BDF8040060
:10480000284485B201E0681C85B2E08AA84201D143
:104810000020E082E08AA842CEDC00BF00BF8EE725
:104820000048704718B0FF1F2DE9F0410446884644
:1048300015462F46A078A02804D10426A05D06F0D6
:1048400073F800E000BF00BFBDE8F08110B590B084
:10485000242107A8FBF7E2FE0C4C24220C4907A8F0
:10486000FBF780FE4FF49640089014220BA968468F
:104870000594FBF777FE07A80FC805F075F92046E9
:1048800005F07DF900F05EF810B010BD94C1FF1F77
:1048900070EC010070B506460D461A4C94F84008BD
:1048A00000F0010058B3B4F82C0838B994F8400867
:1048B00020F0010084F84008002070BD2888B4F87A
:1048C0002C1888420ADBB4F82C2804F22C4130461C
:1048D000FBF703FEB4F82C08288005E02A8804F2D0
:1048E0002C413046FBF7F9FD0020A4F82C0894F881
:1048F000400820F0010084F840080120DDE7002096
:10490000DBE7000094C1FF1F70B504460D462A4640
:104910002146024805F08CFD70BD000094C1FF1FC8
:10492000004870478061012010B54FF4804101209C
:1049300001F0F2F810BD10B54FF48041012001F0F4
:10494000F9F810BD1CB500231A464FF48041012030
:1049500001F0FEF800BF00200090019000BF012090
:104960008DF8000000208DF8060002208DF805006B
:1049700000208DF802008DF804006A464FF4804153
:10498000012001F057F81CBD10B50446206908B19C
:104990002069804710BD0FB410B5FFF7C1FF044672
:1049A00020212046FBF73AFE0298606005992161BC
:1049B000069961610399A1600499E160606808B19A
:1049C00060688047606908B16069804710BC5DF825
:1049D00014FB00B5FFF7A4FF0146002000BD10B591
:1049E000FFF79EFF0446207820F00100401C207055
:1049F0002046FFF7C9FF10BD70B505460E460024DE
:104A0000F821002009F0D2F9044604B970BD002055
:104A100020825A21228A501C208204F112008154E3
:104A20000021228A501C208204F112008154B121FD
:104A3000228A501C208204F112008154218A481CD1
:104A4000208204F112004654AA21228A501C20829E
:104A500004F112008154217CE1742146286900F0A0
:104A6000D3F900BFD2E72DE9F04105460E461746BF
:104A70000024F821002009F099F904460CB9BDE89A
:104A8000F081002020825A21228A501C208204F1C9
:104A9000120081540021228A501C208204F112004D
:104AA0008154A021228A501C208204F112008154DA
:104AB000218A481C208204F1120046540021228AD7
:104AC000501C208204F1120081540FB90A2100E029
:104AD0003946228A501C208204F112008154AA21F6
:104AE000228A501C208204F112008154217CE1743E
:104AF0002146286900F088F900BFC0E710B50446D8
:104B0000204600F097F8206B08B1206B8047A06B1F
:104B100008B1A06B80472146642000F008F810BD62
:104B20000146087800F0010080F001007047642819
:104B300001DD642200E002464A704A780A2392FBB3
:104B4000F3F24A707047000070B505460C4694F8C1
:104B50002D00A84200D170BD207820F00100207007
:104B600084F82D502721A01DFBF736FD94F82D0069
:104B700008283DD2DFE800F0352E272019120B045B
:104B80002522234904F10800FBF7A7FC37E0252282
:104B9000204904F10800FBF7A0FC30E025221E4963
:104BA00004F10800FBF799FC29E025221B4904F1D8
:104BB0000800FBF792FC22E02522194904F10800C5
:104BC000FBF78BFC1BE02522164904F10800FBF7DC
:104BD00084FC14E02522144904F10800FBF77DFC55
:104BE0000DE02522114904F10800FBF776FC06E0F0
:104BF00025220F4904F10800FBF76FFC00BF00BF3E
:104C0000207820F00100401C207000BFA3E70000C6
:104C10002FEF01002CEE010051EE010076EE0100B5
:104C20009BEE0100C0EE0100E5EE01000AEF01007D
:104C300054EF0100017821F001010170704710B5B7
:104C40000446204600F043F8A088401CA080A088BD
:104C5000632804DD0020A080204600F001F810BD8C
:104C600030B50346002200241846FFF759FF0128FB
:104C700000D130BD9A1D1078122190FBF1F501FB97
:104C80001501D01C00EB4104507840B96078012830
:104C900000D100E00020197860F3410119705078CC
:104CA000401C217888420DDB002050701078401C99
:104CB0009178884202DB0020107006E01078401CDA
:104CC000107002E05078401C507000BFD1E710B562
:104CD00004462078C0F34000C8B1A07861788842CB
:104CE00004DA606B50B1606B804707E0A0786178B0
:104CF000884203DDA06B08B1A06B8047A078401C00
:104D0000A070A078092806DD0020A07003E0A06B49
:104D100008B1A06B804710BD002100B97047014663
:104D200000224A600A6000BFF8E710B5002408219D
:104D3000002009F03BF804460020206060606060BD
:104D40002060204610BD70B502460B4600260021AB
:104D5000002500240AB1002B01DA002070BD1446A2
:104D60002146002601E00968761C9E4202DA0868A6
:104D70000028F8D10D68286808606068401E6060EF
:104D80002846EBE770B502460026002400230025E4
:104D90000AB1002902DA0026002070BD15462B4614
:104DA000002401E01B68641C8C4202DA18680028A9
:104DB000F8D11868F1E7F0B503461446002700263D
:104DC0000022002513B109B1002C02DA0027384671
:104DD000F0BD1D462A46002601E01268761CA64258
:104DE00002DA10680028F8D110680860116068685D
:104DF000401C68600020EBE70146002209B9501E04
:104E000070470A465068FBE72DE9F04107460D461A
:104E1000002600240821002008F0C8FF04461CB921
:104E2000761E3046BDE8F08100202060606065603D
:104E30003846FFF7E1FF8046424621463846FFF7F5
:104E4000BAFF06460EB13046ECE73046EAE710B549
:104E5000FFF76BFF10BD70B505460024002600214A
:104E60002846FFF78FFF04460CB9002070BD60682C
:104E7000FCE770B506460024002500213046FFF708
:104E800062FF04460CB9002070BD65681DB129465B
:104E9000002008F06FFF1CB12146002008F06AFFD7
:104EA0002846F1E710B54FF48071002000F034FE81
:104EB00010BD10B54FF48071002000F03BFE10BD16
:104EC0001CB500BF00200090019000BF01208DF8AC
:104ED000000000208DF8060002208DF8050000205B
:104EE0008DF802008DF804006A464FF4807100F0DE
:104EF000A1FD1CBD10B54FF48071012000F00CFE27
:104F000010BD1CB500231A464FF48071012000F03B
:104F10001FFE00BF00200090019000BF01208DF80F
:104F2000000000208DF8060002208DF8050000200A
:104F30008DF802008DF804006A464FF4807101205C
:104F400000F078FD1CBD10B5FFF7DBFFFFF7D2FFC7
:104F500000F04BF9FEF788F93220FCF757FEFEF718
:104F600083F93220FCF752FEFEF77EF980216B2098
:104F700000F0E4F8FEF778F93220FCF747FEFEF780
:104F800073F93220FCF742FEFEF76EF900216B2028
:104F900000F0D4F8032000F08FF8002000F084F82F
:104FA000322000F0AEF80021382000F0C7F80021D0
:104FB0006A2000F0C3F80021232000F0BFF8802110
:104FC000372000F0BBF8752000F017F80446682C75
:104FD0000BD101216B2000F0B1F800216C2000F012
:104FE000ADF8322000F08DF801E0012010BD002066
:104FF000FCE710B5FFF7A7FF10BD70B50446FDF73D
:10500000CAFED020FDF7A6FEFDF7E9FE2046FDF71B
:10501000A1FEFDF7E4FEFDF7BEFED120FDF79AFEEE
:10502000FDF7DDFE0020FDF770FE0546FDF7C7FE2B
:10503000284670BD2DE9F04106460F4614461D4630
:10504000FDF7A9FE002141EA4601C8B2FDF782FE44
:10505000FDF7C5FE20B1FDF7B2FE0120BDE8F081ED
:105060003846FDF777FEFDF7BAFEFDF794FE012105
:1050700001EB4601C8B2FDF76DFEFDF7B0FE0DE095
:10508000012C04D10020FDF740FE287003E0012030
:10509000FDF73BFE2870601EC4B26D1C002CEFD1E2
:1050A000FDF78DFE0020D9E710B50446E006010E9D
:1050B0001C2000F043F810BD10B50446E006010EB8
:1050C0001B2000F03BF810BD70B504460025BC2C39
:1050D00001DB012510E0622C01DB02250CE02A2C0B
:1050E00001DB032508E0142C01DB042504E00A2C75
:1050F00001DB052500E0062529461A2000F01EF8F0
:1051000070BD70B50446B4F57A7F01DD4FF47A7452
:10511000042C00DA04244FF47A7090FBF4F0401E63
:10512000C5B22946192000F009F80546264604EBC9
:10513000D671C1F34F00FFF7C7FF70BD70B50546CC
:105140000C46FDF728FED020FDF704FEFDF747FED4
:1051500018B1FDF734FE012070BD2846FDF7FAFDB9
:10516000FDF73DFE18B1FDF72AFE0120F4E72046C9
:10517000FDF7F0FDFDF733FE18B1FDF720FE01202D
:10518000EAE7FDF71CFE0020E6E72DE9F0410546C1
:105190000E4617469846FDF7FEFD002141EA4501FF
:1051A000C8B2FDF7D7FDFDF71AFE20B1FDF707FEE7
:1051B0000120BDE8F0813046FDF7CCFDFDF70FFE84
:1051C00000240CE018F80400FDF7C4FDFDF707FE0D
:1051D00018B1FDF7F4FD0120EBE7601CC4B2BC423E
:1051E000F0DBFDF7ECFD0020E3E71CB500BF00207D
:1051F0000090019000BF01208DF800008DF80200A2
:105200008DF804006A460421052000F013FC6A466C
:105210004FF40051022000F00DFC4FF40051022029
:1052200000F088FC0421052000F084FC1CBD4A88A5
:1052300002444A8070471CB500231A464FF480612F
:10524000012000F085FC00BF00200090019000BF0D
:1052500001208DF8000000208DF8060002208DF856
:10526000050000208DF802008DF804006A464FF416
:105270008061012000F0DEFB1CBD10B54FF48061A1
:10528000012000F049FC10BD10B54FF480610120F1
:1052900000F050FC10BD00003EB50446044A07CAA9
:1052A0008DE80700034B9DE8070000F00EF83EBDB7
:1052B00060EB0100B481FF1F0FB49DF8000000F007
:1052C000010080F0010004B070471FB51C46142196
:1052D0002046FBF7A3F90098A0600199E1600299CC
:1052E0002161204600F03AF8A06808B1A068804724
:1052F000206908B1206980471FBD70B504460D467E
:105300002069804715B1204600F028F870BDF8B537
:1053100004460D46164615B9E068804715E0206939
:10532000009094E80F00FFF7C7FF012806D121463F
:10533000304600F011F80020A08003E021463046FE
:10534000FFF775FF204600F001F8F8BD017821F065
:105350000101491C0170704748807047017821F0B5
:1053600001010170704738B504462069009094E847
:105370000F00FFF7A1FF012800D138BDA088618888
:10538000884205DCE0688047A088401CA08004E0DB
:105390002046FFF7E3FF2069804700BFEDE70000EC
:1053A00070B52DED068B82B004460D4616460021E1
:1053B000684607F0CDFD002868D1FCB1BDF90000BA
:1053C00000EE100AB8EEC00A10EE101A084609F0F6
:1053D000FBFA41EC1A0B9FED2F0B53EC102B08F04E
:1053E00097FE41EC190B9FED2D0B53EC102B09F0A0
:1053F0002BF841EC180B08F0B1FD2060FDB1BDF9B0
:10540000020000EE100AB8EEC00A10EE101A0846AC
:1054100009F0DAFA41EC1A0B9FED1E0B53EC102B3E
:1054200008F076FE41EC190B9FED1C0B53EC102B92
:1054300009F00AF841EC180B08F090FD2860FEB165
:10544000BDF9040000EE100AB8EEC00A10EE101A02
:10545000084609F0B9FA41EC1A0B9FED0E0B53EC1C
:10546000102B08F055FE41EC190B9FED0C0B53EC83
:10547000102B08F0E9FF41EC180B08F06FFD3060CD
:105480000CB905B916B101200649087102B0BDEC8E
:10549000068B70BD000000000000D04005A3923ACA
:1054A000019D2340FC62012070B5064600250020C6
:1054B00008490871002409E007F0C0FCC5B205B92D
:1054C00006E03220FCF7A2FB601CC4B2032CF3DB25
:1054D00000BF70BDFC62012010B50446FCF7F2FF6E
:1054E0004FF47A71B0FBF1F201FB120068B904F1DC
:1054F0001002111F081F07F095FB0449087004F102
:105500002002111F081FFFF74BFF10BD5D80FF1F1A
:1055100000487047AC5E01203EB5044605A207CAAC
:105520008DE807000A25206918B1294668462269D6
:1055300090473EBD5A0AFC00910F453C1DAA000051
:1055400010B50446E06908B1E069804710BDF0B5C8
:1055500095B0044600255A2229466D1C08A84254DD
:10556000002229466D1C4254FC2229466D1C4254DF
:105570000C2229466D1C4254912229466D1C42542E
:105580000E2229466D1C42541C2101A8FBF746F847
:10559000082202A904F14400FAF773FF18B1626C03
:1055A000A262A16CE16201220DF11A0104F1560020
:1055B000FAF767FF18B13A205621095D015501221B
:1055C0000DF11D0104F15900FAF75BFF38B1D4F871
:1055D0005920C4F83D20D4F85D10C4F841101C21B6
:1055E00004F14000FAF7F8FF08A948191C2204F159
:1055F0002401FAF772FF05F11C0085B2002702268C
:1056000005E008A8805D3844C7B2701C86B2222E1F
:10561000F7DB2846691C8DB208A90F54AA22284638
:10562000691C8DB208A90A54E8B28DF821002069DE
:1056300018B1294608A82269904715B0F0BD0000AE
:105640003EB5044605A207CA8DE807000A25206971
:1056500018B129466846226990473EBD5A0AFC00A7
:1056600091876A35B3AA00000FB410B5FFF750FF59
:1056700004465C212046FAF7D1FF0298A060059904
:1056800061610699A1610799E16108992162039915
:10569000E16004992161606908B160698047E0694F
:1056A00008B1E0698047A06808B1A068804710BCD5
:1056B0005DF814FB10B5FFF72BFF0446207800F0CF
:1056C0000100C0B1A0786178884205D1206A804786
:1056D000A078401CA0700CE0A1786078401C81424A
:1056E00003DAA078401CA07003E0207820F00100CD
:1056F0002070012010BD2078C0F3C00070B1217966
:10570000481C2071142091FBF0F200FB12100A28B3
:1057100002D12046FFF700FF0120EBE72078C0F31D
:10572000001070B16179481C6071142091FBF0F297
:1057300000FB12100A2802D12046FFF708FF0120C3
:10574000D8E72078C0F3400068B1E178481CE070E9
:10575000142091FBF0F200FB121010B92046FFF765
:105760006FFF0120C6E70020C4E72DE9F84F074688
:10577000884691461E46DDE90A5A4FF0000BFFF7B6
:10578000C7FE00905FB1B8F1080F08DCB9F1000F57
:1057900005D0642E03DC15B1BAF1000F02D1002050
:1057A000BDE8F88FBAF8001006F10E00814201DA68
:1057B0000020F5E7B8F1020F07D13878FF2804D1AF
:1057C0007878FF2801D14FF0010B00245A2221469E
:1057D000641C6A5400222146641C6A54FD2221463E
:1057E000641C6A54BBF1010F01D1012200E00022C8
:1057F0002046611C8CB22A542046611C8CB22E5467
:10580000281942463946FAF768FE04EB080084B2CC
:10581000281932464946FAF760FEA01984B2AA2236
:105820002046611C8CB22A546C70AAF800402046B5
:10583000B6E770B50546FFF76BFE044665700020BD
:10584000A070207820F00100401C20702046FFF757
:1058500077FE70BD2DE9F047C0B007460E46904672
:105860001D464FF0000AFFF753FE814637B1082E60
:1058700004DCB8F1000F01D0642D03DD002040B03E
:10588000BDE8F087022E06D138884FF6FF718842B6
:1058900001D14FF0010A00245A222146641C01A8BC
:1058A000425400222146641C4254FD222146641CBD
:1058B0004254BAF1010F01D1012200E0002220463A
:1058C000611C8CB201A90A542046611C8CB201A94A
:1058D0000D54081932463946FAF7FFFDA01984B273
:1058E00001A908192A464146FAF7F7FD601984B262
:1058F000AA222046611C8CB201A90A54E0B28DF89C
:105900000500D9F8100020B1214601A8D9F81020CF
:1059100090472846B3E770B504460D46FFF7F8FDFB
:1059200006460CB1082D00D070BD2A46214606F16E
:105930004400FAF7D2FD00F018F800BFF4E700B514
:105940000246FFF7E5FD03465920C25400F00DF86A
:1059500000BD00B5FFF7DCFD0146002008710878A6
:1059600020F008000830087000BD00B5FFF7D0FD3A
:10597000014600204871087820F0100010300870AF
:1059800000BD00B5FFF7C4FD01460020C8700878CF
:1059900020F00200801C087000BD00B5FFF7B8FDC4
:1059A000014600200871087820F00800087000BD4A
:1059B00000B5FFF7ADFD014600204871087820F0E2
:1059C0001000087000BD00B5FFF7A2FD01460020E1
:1059D000C870087820F00200087000BD00B50246CB
:1059E0000B4600F0EFF8012B07D10948008802F0C0
:1059F0001F0108430649088006E00548008802F0B8
:105A00001F0188430249088000F07EF8002000BD95
:105A1000F43B054010B502460548102404FB020380
:105A20001868084008B1012010BD0020FCE7000004
:105A300000380540F0B505460F461346002400F037
:105A4000C1F800BF57E00120A0403840002850D0E6
:105A50002C4800EB851000EB84022A48801C00EBE8
:105A6000851000EB84065978108861F38E30108021
:105A70009978108861F30C301080D978108861F320
:105A8000492010801979108861F386101080997967
:105A9000108861F3820010805979108861F3051035
:105AA0001080187820B101280BD002281AD112E0FA
:105AB000108820F400401080108820F00200108030
:105AC00011E0108820F400401080108820F00200BF
:105AD000801C108007E0108820F4004000F5004092
