:020000040001F9
:10000000B06A0120CD030100FD030100FF030100E0
:1000100001040100030401000504010000000000C8
:1000200000000000000000000000000007040100C4
:1000300009040100000000000B0401000D04010090
:10004000BD470100DD470100FD4701001D480100DB
:1000500035480100654801008948010099480100C0
:10006000A9480100B9480100C9480100D948010068
:10007000E9480100F9480100094901001949010056
:100080002949010039490100494901005949010044
:100090006949010079490100894901009949010034
:1000A000A9490100B9490100C9490100D949010024
:1000B000E9490100F94901000F0401000F040100A2
:1000C0000F0401000F0401000F0401000F040100E0
:1000D0000F0401000F0401000F0401000F040100D0
:1000E0000F0401000F0401000F0401000F040100C0
:1000F0000F0401000F0401000F0401000F040100B0
:100100000F0401000F0401000F0401000F0401009F
:100110000F0401000F0401000F0401000F0401008F
:100120000F0401000F0401000F0401000F0401007F
:100130000F0401000F0401000F0401000F0401006F
:100140000F0401000F0401000F0401000F0401005F
:100150000F0401000F0401000F0401000F0401004F
:100160000F0401000F0401000F0401000F0401003F
:100170000F0401000F0401000F0401000F0401002F
:100180000F0401000F0401000F0401000F0401001F
:100190000F0401000F0401000F0401000F0401000F
:1001A0000F0401000F0401000F0401000F040100FF
:1001B0000F0401000F0401000F0401000F040100EF
:1001C0000F0401000F0401000F0401000F040100DF
:1001D0000F0401000F0401000F0401000F040100CF
:1001E0000F0401000F0401000F0401000F040100BF
:1001F0000F0401000F0401000F0401000F040100AF
:100200000F0401000F0401000F0401000F0401009E
:100210000F0401000F0401000F0401000F0401008E
:100220000F0401000F0401000F0401000F0401007E
:100230000F0401000F0401000F0401000F0401006E
:100240000F0401000F0401000F0401000F0401005E
:100250000F0401000F0401000F0401000F0401004E
:100260000F0401000F0401000F0401000F0401003E
:100270000F0401000F0401000F0401000F0401002E
:1002800000F002F800F092F80AA090E8000C824416
:100290008344AAF10107DA4501D100F087F8AFF2F3
:1002A000090EBAE80F0013F0010F18BFFB1A43F054
:1002B0000103184728C9000048C90000103A24BFAC
:1002C00078C878C1FAD8520724BF30C830C144BFBB
:1002D00004680C60704700000023002400250026FD
:1002E000103A28BF78C1FBD8520728BF30C148BF99
:1002F0000B6070476E2900F08B84702900F0E38159
:1003000066290CF0748165290CF0718167290CF065
:100310006E8161290CF06D8103681B0A28BF41F0D2
:100320008001692900F05481642900F05181752908
:1003300000F04E816F2900F05A85782900F0AF81D6
:10034000E92900F0F584E42900F0F284F52900F0B1
:10035000EF84EF2900F05785F82900F0AE8103689B
:10036000DB0928BF41F08001632901F03B8173293B
:1003700001F04081E32901F04B81F32901F0508124
:10038000002070471FB50CF02DF900F04BFD040064
:10039000002000210BF0B8FF401C6060002000210D
:1003A0000BF0C8FFE0601FBD10B510BD01F05CF997
:1003B0001146FFF7E7FF0BF0E5FD01F02DFA03B45E
:1003C000FFF7F2FF03BC01F071FA000013484FF091
:1003D0007701016012484FF07701016011484FF436
:1003E000885101600D484FF0760101600C484FF0D4
:1003F000760101600C4880470C480047FEE7FEE7A5
:10040000FEE7FEE7FEE7FEE7FEE7FEE7FEE7FEE7C4
:1004100007480849084A094B70470000040805408E
:100420000C080540000805401D87010081020100FD
:10043000B0620120B06A0120B0660120B0660120E0
:1004400053EA020C00F069802DE9F04B4FF00006F2
:10045000002B1FBFB3FA83F503FA05F424FA05F65F
:100460005E4012BF1643B2FA82F502FA05F4C5F1F6
:1004700020051EBF22FA05FC44EA0C04203556EA8A
:10048000044C4FEA144418BF641C4FF000084FF0AE
:100490000009904271EB030C39D3002919BFB1FA5E
:1004A00081F701FA07F6B0FA80F700FA07F6C7F10C
:1004B00020071EBF20FA07FC46EA0C062037B6FBD1
:1004C000F4FCA7EB0507103F07F01F0BCBF120064C
:1004D0000CFA0BFB2CFA06F644BFB3460026202F7D
:1004E000A4BF5E464FF0000B5BEA060C08BF4FF05E
:1004F000010B19EB0B09ABFB027C48EB0608C01B98
:1005000006FB02CC0BFB03CC71EB0C01C1E70B46E5
:10051000024641464846BDE8F08B13B54FF0000057
:100520004FF00001AFF30080BDE81C4070470000B1
:100530001CB50C46064B7B4469460090204600F0F3
:1005400080FB04460020694600F08EFB20461CBD5F
:100550002F0700000FB41CB5084B06AA7B44694660
:100560000090059800F06DFB04460020694600F0FD
:100570007BFB20461CBC5DF814FB00000907000053
:1005800070B5044685690068C10601D5302600E0D3
:100590002026C00707D070BDD4E90121304690471E
:1005A000206A401C20626D1EF6D570BD70B50446F1
:1005B00085690078C00707D170BDD4E901212020EA
:1005C0009047206A401C20626D1EF6D570BD000069
:1005D0002DE9F0410646002410687529314616A51C
:1005E00010D000F081FA002802DA404213A507E09B
:1005F00031688A0701D512A502E0490704D511A583
:10060000012401E000F079FA00210A2206F1240712
:1006100009E0B0FBF2FCB0FBF2F302FB1C0030304F
:1006200078541846491C0028F3D123462A46304600
:10063000BDE8F04100F093BA000000002D0000007A
:100640002B00000020000000F0B40D4601880905D1
:1006500002D5214C7C4402E01F4C7C440E34002126
:1006600000F1240608E002F00F071209E75D42EAF4
:1006700003721B097754491C52EA0307F3D102782D
:100680000023120704D5702D06D009B102231134BE
:100690002246F0BC00F063BA01231034F8E770B5CD
:1006A00004460D462146106800F027FA0246294606
:1006B0002046BDE870400023C6E7D21D22F00703A4
:1006C000D3E90023C0E70368126843F02003036006
:1006D0000823C3610023B7E784C400002DE9F05F5D
:1006E000894604464FF0000ADFF874B1FB44C0F8B5
:1006F00020A02046E1688847002874D0252806D02D
:10070000D4E901219047206A401C2062F1E70026CD
:100710005F462046E16888472028054607DB312DE3
:1007200005D2781910F8200C08B10643F1E7B0079C
:1007300001D526F00406C4F81CA00027C4F818A0B0
:100740002A2D09D028460BF0FDFB38B304EB8708AF
:10075000303DC8F8185019E059F8041B204604EB46
:1007600087029161E1688847012F054618D1E06949
:10077000002820DA26F020061DE0D8F8180000EB4B
:10078000800005EB40003038C8F818002046E168CA
:10079000884705460BF0D6FB0028EED1012F0AD082
:1007A0002E2D08D12046E16888477F1C0546022F80
:1007B00046F02006C4DBA069002803DA404246F078
:1007C0000106A061F00701D026F010066C2D0BD0B9
:1007D000682D09D04C2D39D06A2D35D0742D35D0E7
:1007E0007A2D33D016E038E0E1682F46204688475E
:1007F000B842054609D16C2F26D04FF48060E168DD
:10080000064320468847054604E06C2F1AD04FF473
:10081000807006430DB3A5F14100192802D8203598
:1008200046F400664A462946204626604E46FFF7B3
:1008300061FD80B101280BD0F61D26F0070000F104
:10084000080956E74020E4E78020D8E70020D6E7F3
:1008500006F104094DE7284652E7206ABDE8F09FFB
:1008600014C4000040EA010310B59B070FD1042A0D
:100870000DD310C808C9121F9C42F8D020BA19BA6B
:10088000884201D9012010BD4FF0FF3010BD1AB1D0
:10089000D30703D0521C07E0002010BD10F8013B25
:1008A00011F8014B1B1B07D110F8013B11F8014B4C
:1008B0001B1B01D1921EF1D1184610BD40EA010365
:1008C000024630B59B0710D14FF0013400E008C25A
:1008D00008C91D1B9D4315EAC41FF8D013F0FF0182
:1008E00002F8011B0DD01B0AF8E711F8013B002BA1
:1008F00002F8013B05D011F8013B002B02F8013B47
:10090000F3D130BD10B5431C02E010F8011B71B1EA
:100910008107FAD14FF0013202C88C1A8C4314EAD5
:10092000C211F9D0C01A0A0603D0C01E10BDC01AE9
:1009300010BD0A0401D0801E10BD0902FCD0401E6B
:1009400010BD032A40F2308010F0030C00F0158037
:1009500011F8013BBCF1020F624498BF11F801CBC2
:1009600000F8013B38BF11F8013BA2F1040298BF27
:1009700000F801CB38BF00F8013B11F0030300F091
:100980002580083AC0F0088051F8043B083A51F835
:1009900004CBA0E80810F5E7121D5CBF51F8043B3A
:1009A00040F8043BAFF30080D20724BF11F8013BAD
:1009B00011F801CB48BF11F8012B24BF00F8013B0F
:1009C00000F801CB48BF00F8012B704710B5203A62
:1009D000C0F00B80B1E81850203AA0E81850B1E8F8
:1009E0001850A0E81850BFF4F5AF5FEA027C24BFAE
:1009F000B1E81850A0E8185044BF18C918C0BDE8A5
:100A000010405FEA827C24BF51F8043B40F8043B6D
:100A100008BF7047D20728BF31F8023B48BF11F822
:100A2000012B28BF20F8023B48BF00F8012B70477C
:100A300002F0FF0343EA032242EA024200F002B856
:100A40004FF000020429C0F0128010F0030C00F0F7
:100A50001B80CCF1040CBCF1020F18BF00F8012B75
:100A6000A8BF20F8022BA1EB0C0100F00DB85FEA43
:100A7000C17C24BF00F8012B00F8012B48BF00F80F
:100A8000012B70474FF0000200B51346944696467E
:100A9000203922BFA0E80C50A0E80C50B1F1200191
:100AA000BFF4F7AF090728BFA0E80C5048BF0CC03F
:100AB0005DF804EB890028BF40F8042B08BF70479D
:100AC00048BF20F8022B11F0804F18BF00F8012B0F
:100AD000704770477047704710B500F0A3F9001DCC
:100AE00010BD00BF25B8000009684A0501D540B215
:100AF0007047C905FCD500B2704709684A0501D5A1
:100B0000C0B27047C905FCD580B2704770B50C46BD
:100B10000546012A05D02878800600D5EA69002319
:100B200002E0012305E05B1C934202D2E05C002856
:100B3000F9D1A869E618C01AA861286A1844286281
:100B40002846FFF71DFD04E0D5E9012114F8010B4B
:100B50009047B442F8D32846FFF728FD70BD2DE931
:100B6000F0470D4699469246044600F12408016874
:100B7000880604D5E06921F01001216000E0012021
:100B8000A84201DD471B00E00027A1697A1902EBAA
:100B90000900081AA0612078C00602D42046FFF799
:100BA000EFFC002608E0D4E901211AF8060090477E
:100BB000206A401C761C20624E45F4DB2078C0067B
:100BC0000AD52046FFF7DCFC06E0D4E901213020FD
:100BD0009047206A401C2062381EA7F10107F4DC10
:100BE00007E0D4E9012118F805009047206A401C6D
:100BF0002062281EA5F10105F3DC2046FFF7D6FC94
:100C00002078000602D50220BDE8F0870120FBE72E
:100C100011680268006A530501D508700AE0D3051F
:100C200001D5088006E0130603D5C217C1E900020A
:100C300000E008600120704701694A1C02610878E1
:100C4000704700B58FB0CDE901310021059105490C
:100C50007944CDE9031011466846FFF73FFD0FB018
:100C600000BD0000E5FFFFFF0A6802F8010B0A6003
:100C7000704700002DE9FF5F15468A460446DFF8FD
:100C8000AC80F8440027D8E900103E46CDE90010BA
:100C900010E03AF816106A4602A800F0C5FC411CA4
:100CA00007D02178890603D5E269391891420DD819
:100CB0000744761C2078800602D5E069B84205DD3D
:100CC000AE42E6DB3AF816000028E2D1A069C01B6C
:100CD000A0612046FFF754FCD8E90010CDE90010D0
:100CE000002017E03AF818106A4602A800F09CFCB1
:100CF000B0F1FF3F81460BD000250DF1080B05E058
:100D0000D4E901211BF8050090476D1C4D45F7D330
:100D100008F10100B0428046E4DB206A38442062DA
:100D20002046FFF743FCBDE8FF9F000092BE000095
:100D30002DE9F0418046D21D22F007020025D2E9BC
:100D40000002F52915A614D0011E72F1000106DA81
:100D50000023D0EB030063EB020211A608E0D8F8F1
:100D600000108B0701D50FA602E0490701D50EA69A
:100D700001251146002408F1240704E000F056F88C
:100D800030323A55641C50EA0102F7D12B46324604
:100D900021464046BDE8F041FFF7E1BE00000000FB
:100DA0002D0000002B0000002000000030B40021C6
:100DB00000F1240408E002F00705D208303542EAC9
:100DC0004372DB086554491C52EA0305F3D10468F9
:100DD000002310A2250707D5A40600D421B1C469B9
:100DE00001230DA2641EC46130BCFFF7B8BE10B56C
:100DF000044621461068FFF780FE02462046BDE803
:100E000010400023D2E7D21D22F00701D1E90023D0
:100E1000CCE70000000000003000000000487047F0
:100E20004C620120004870476C62012030B5B0F17F
:100E30000A024FEA900E71F100034EEA817EB0EB98
:100E40000E0061EB91014FEA101E4EEA017E10EB9D
:100E50000E0041EB11114FEA102E4EEA016E10EB1D
:100E60000E0041EB11214FEA104E4EEA014E10EBFD
:100E70000E0041EB1141401841F100014FEAD00052
:100E800040EA41704FEAD10110EB80054FEA81043E
:100E900044EA907444EB01046D1944EB0404521BC2
:100EA000A3414FF0000348BF0A3200D530BD401CBB
:100EB00041F1000130BD70472DE9FF4F0C461E4641
:100EC0004FF0FF378BB0D2E90001DDF860800A9067
:100ED0008A46C1F30A5505B93D46002108464FF040
:100EE0000000BAF1000F00F4400005DA00EB8000CA
:100EF0004FF4400101EA50004FEA9059B9F1010F57
:100F000000DDB9460A9850EA4A000ED044F6105067
:100F1000A5F2FF3545432F14B8F1000F1ED07542DE
:100F2000291E1EDDC9F100021CE0B8F1010F4FF0CF
:100F3000000001D0302103E0F24305E02154401CC1
:100F4000B042FBDB30460022002121540B99C1F84E
:100F50000880C1E900200FB0BDE8F08FBD1B6D1CFB
:100F6000DEE74A4600DA694206A800F0E3FB06AB7A
:100F700093E8070003AB83E8070050460A9900F0A6
:100F80009CFC8DE80700A0F500501F3800900398E6
:100F9000002D0ADD42F21F014A460844002303A93E
:100FA0000390684600F005FF09E0A0F500504A46AE
:100FB0001F38002303A90390684600F00FFF8DE857
:100FC00007000004000C03D04FF0FF30410800E0A0
:100FD0001046B8F1000F03D00022009215461EE023
:100FE000751E05D4FFF722FF303262556D1EF9D50C
:100FF000B3460122084302D000227F1C04E020787F
:10100000302801D100227F1E002A099784D01DE0DC
:10101000112D07DAFFF70AFF303262556D1C50EAD6
:101020000102F5D1084302D00098C8B10EE00021BA
:10103000681E05E0235C625C63542254401E491C18
:101040008142F7DBAB46A81B401E0990002004F844
:101050000B000B98099AC0F80880C0E9002B7AE7CA
:1010600011264FF0000857E72DE9F04F8846044657
:10107000D21D22F0070191B0D1E90001CDE90A01AA
:101080000AF0EAFE02460B98C00F01D02D2007E0BF
:101090002068810701D52B2002E0202101EAC00051
:1010A000032A099001D0072A05DB03464146204662
:1010B00000F000FB0BE12078800601D5E06900E03C
:1010C0000620B8F1650F814606D0B8F1660F18D03A
:1010D000B8F1670F70D131E00020B9F1110F009025
:1010E00001DB112301E009F101030AAA01A90CA8FF
:1010F000FFF7E2FEDDE90C70002609F101058346E9
:1011000047E001204B4600904FF000470AAA01A992
:101110000CA8FFF7D1FEDDE90DB00C995D46002665
:1011200010B909F101000D18B9EB050003D4C0F1A5
:10113000FF3609F10105A5EB09002BE0B9F1010F1C
:1011400001DA4FF001090020B9F1110F0090484673
:1011500001DD112300E003460AAA01A90CA8FFF74C
:10116000ABFEDDE90C704D46002683462078000773
:101170000AD4AB4500DA5D4601A8012D04DD411912
:1011800011F8011C302907D04F4502DA17F1040F7E
:1011900004DA012082460FE06D1EEEE7002F02DC2C
:1011A000ED1B3E4403E0781CA84200DD7D1CB81B0B
:1011B00000F1010A4FF000472078000703D4AA4548
:1011C00001DB4FF0FF3A0021B7F1004F0DF143086A
:1011D0008DF8431024D002202B23002F01DA7F4208
:1011E0002D230A21021EA0F1010000DC5FB197FB54
:1011F000F1FC97FBF1F201FB1C7C17460CF1300C63
:1012000008F801CDEEE7A8F1010003702188090577
:1012100001D5452100E06521A0F1010800F8011C7D
:1012200009980FA9A1EB0807FF1D00B10120411982
:1012300001EBEA70A1693844081A401EA0612078C9
:10124000C00602D42046FFF79BF9099828B1D4E9DB
:1012500001219047206A401C20622078C00622D5D8
:101260002046FFF78DF91EE0002E04DBB34502DDBA
:1012700001A8805D00E03020D4E901219047206A78
:10128000401C2062761CAAF101005FEA000A0AD124
:10129000FFF7C8FDC0680168405CD4E901219047B0
:1012A000206A401C2062281EA5F10105DCDC07E055
:1012B000D4E9012118F8010B9047206A401C2062F4
:1012C000381EA7F10107F3DC2046FFF76FF9032072
:1012D00011B041E62DE9F04F04460D46D21D22F033
:1012E000070089B0D0E90097484639460AF0B4FDB6
:1012F0000246F80F01D02D2307E02068810701D5B1
:101300002B2302E0202101EAC0038DF820300BB12D
:10131000012000E00020032A824601D0072A04DBD6
:101320002946204600F0C6F93FE12078800601D426
:101330000D2500E0E569C7F30A560D2D49DA0021B5
:101340004FEA175B08464FF00000002F00F4400002
:1013500007DA00EB80004FF4400100EBD07001EAA7
:1013600060008115012901DD4FF0FF3100224FEAB5
:10137000850CBCF1180F06D31346ACF118004FF0E2
:101380008052C24003E04FF4801323FA0CF30CF1B7
:101390000C0CBCF1200F04D3ACF1200C09FA0CF0BA
:1013A00001E007FA0CF000294FF0004801DD18B900
:1013B0000FE00ED140450CD319EB02095F4121B972
:1013C000404502D19F4329EA0209BBEB175F00D0D9
:1013D000761C2088000502D57B48784402E07A48D4
:1013E0007844193808AA302302F80A30037C0AF13D
:1013F0000101002E0AF1020A53546A4602DC4FF042
:10140000300101E04FF031014FF001088DF800107C
:1014100002D0A6F2FF3603E059EA470100D06B4E36
:10142000002D02DC2178090704D54FF002082E2197
:101430008DF80110C44600210BE0C7F303433F01C0
:10144000C35C491C6D1E02F80830052908F101082B
:1014500001DA002DF1DC00210CE000EB1973491CCE
:101460001B786D1E082902F808304FEA091908F1A7
:10147000010801DA002DF0DC21688B0602D516E0A8
:10148000A8F10108E04505DD02EB080313F8013C73
:10149000302BF5D0B8F1000F09DD02EB080313F88B
:1014A000013C2E2B03D1090701D4A8F10108002D1E
:1014B00005DD3E2102F808106D1E08F10108407C90
:1014C000002E02F8080008F1010804DA2D20764207
:1014D00002F8080002E02B2002F808000A214FF46D
:1014E0007A70864208F101080BDB96FBF0F330338B
:1014F00002F8083096FBF0F308F1010800FB1366D0
:1015000001E0642E0CDB642096FBF0F3303302F82C
:10151000083096FBF0F308F1010800FB136601E0C8
:101520000A2E06DB96FBF1F0303002F8080008F1D5
:10153000010896FBF1F001FB1060303002F8080062
:10154000A16908F1010808EB050202EB0A00081A7C
:10155000A0612078C00602D42046FFF711F8216A66
:1015600008AE01EB0A00206204E0D4E9012116F87C
:10157000010B9047BAF1010AF7D22078C00602D5D4
:101580002046FEF7FDFF6E4609E016F8010B3E28E7
:101590000FD0D4E901219047206A401C2062B8F1A5
:1015A0000108F2D22046FFF701F809B00320BDE898
:1015B000F08F206A2844206203E0D4E90121302022
:1015C00090476D1EEBD3F8E755B7000002FCFFFF14
:1015D00010B5436913B1AFF3008001E0FFF796FA4D
:1015E000012010BD127800F124010A7000224A7017
:1015F0000122EDE711684FF0FF32E9E710B54369CA
:1016000013B1AFF3008001E0FFF734FB012010BD00
:10161000128800F1240182840022C2840122EDE7B5
:1016200011684FF0FF32E9E770B516460C460546E3
:10163000FFF752FA036893F80101012806D0FF2C46
:101640000FD8185D68B101202C7070BDD3F8070168
:101650003246214603F2071303442846BDE8704092
:1016600018474FF0FF3070BD7546FFF7D7FBAE4609
:1016700005006946534620F00700854618B020B59E
:10168000FEF7C6FEBDE820404FF000064FF0000711
:101690004FF000084FF0000B21F00701AC46ACE81A
:1016A000C009ACE8C009ACE8C009ACE8C0098D4687
:1016B000704700002DE9F0411F46044603260168EB
:1016C000072A01F4006004DB08B116A505E016A5A1
:1016D00003E008B115A500E015A521F01000206079
:1016E000A069C01EA0610FB1401EA0612046FEF798
:1016F00047FF4FB1D4E9012138469047206A401C8A
:101700002062C01C206206E0206AFAE7D4E90121C9
:1017100015F8010B9047761EF8D22046FEF746FFDB
:10172000BDE8F0814E414E006E616E00494E4600AC
:10173000696E66002DE9F047814616468AB0354845
:1017400078440DC88DE80D0032487844801C03AC05
:101750000DC884E80D0041F69B300844372190FB0A
:10176000F1F290FBF1F5A5F1800501FB12041B3CA1
:1017700002D56442012000E00020DFF898A08046F6
:101780000027FA44AAF1BE0A0EE0E0070AD032466A
:10179000684607EB470101230AEB810100F01EFBBD
:1017A0008DE8070064107F1C002CEED1194F7F4498
:1017B000AE3F19E0E80715D007EB04100DF1180A49
:1017C00090E80E008AE80E00C068F04201D1981936
:1017D00008903246012306A903A800F0FFFA03ABE4
:1017E00083E807006D10641C002DE3D14FF0010366
:1017F00032466946B8F1000F03A802D000F0D9FACA
:1018000001E000F0EBFAC9E90001C9F808200AB0CC
:10181000BDE8F08780B4000010B50446AFF3008047
:101820002046BDE81040FEF7CABD00004FF0013C65
:1018300050F8042B51F8043B9A4221D1A2EB0C033F
:10184000934313EACC1317D150F8042B51F8043BFF
:101850009A4215D1A2EB0C03934313EACC130BD19C
:1018600050F8042B51F8043B9A4209D1A2EB0C0327
:10187000934313EACC13DBD04FF00000704700BF56
:10188000D01A01BAB1FA81F101F0180122FA01F07F
:10189000CB40C1F12001DBB2C0B2C01A2CFA01F377
:1018A000D11A914311EAC311E6D1704701491820BA
:1018B000ABBEFEE72600020070475FEA400C08BF9F
:1018C00091F0000F4FEA8C234FEAC12243EA5151B5
:1018D0004FEA1C5018BF00F5F0404FEA300018BF27
:1018E00041F000415FEA6C5C00F02980BCF1FF3FF1
:1018F00008BF40F080407047130C06BF12044FF041
:10190000100C4FF0000C130E04BF12020CF1080C67
:10191000130F04BF12010CF1040C930F04BF9200CB
:101920000CF1020CD30F04BF52000CF1010C114654
:101930004FF00002A0F11F00A0EB0C00704711F067
:10194000004F08BF704731F000413FF4D5AF0B0C9A
:1019500006BF09044FF0100C4FF0000C0B0E04BF33
:1019600009020CF1080C0B0F04BF09010CF1040C67
:101970008B0F04BF89000CF1020CCB0F04BF490090
:101980000CF1010CCCF12003A0EB0C0022FA03F3C4
:1019900002FA0CF241EA030100F10100704720F065
:1019A0007F4C80EA030023F07F47ACEB070303F58D
:1019B0007C5300F0004003F1FF032DE980494FEA1A
:1019C000154B09B44FEA144325EA0B4E24EA0348A9
:1019D0000FF2042606EB132749083E785FEA32022D
:1019E00003FB0667C7F5000707FB06F64FEA543707
:1019F0004FEAD64606F1020607FB066CCCF1005C06
:101A00004FEA1C472CEA074C07FB06F40CFB06F5D3
:101A100004EB15464FEA961634BF00204FF0004005
:101A20004FEAD13706FB07FC4FEA1C4C0CFB0BF7C7
:101A3000D21B03FB0CF761EB07010CFB0EF7B0EBBD
:101A4000074072EB17420CFB08F734BFA2EB0742CA
:101A5000B2EB074261EB17414FEA0C444FEA9107A2
:101A600006FB07FC4FEA1C4C0CFB0BF7B0EBC74026
:101A700072EB573203FB0CF734BFA2EBC742B2EB59
:101A8000C74261EB57310CFB0EF7B0EBC70072EBAE
:101A900057720CFB08F734BFA2EBC702B2EBC702C8
:101AA00061EB5771039F4FEA816141EA921104EBA8
:101AB000CC044FEAD1374FEA826206FB07FC42EAC8
:101AC00090124FEA80604FEA1C4C0CFB0BF7D21BC4
:101AD00003FB0CF761EB07010CFB0EF7B0EB0740C3
:101AE00072EB17420CFB08F734BFA2EB0742B2EBD4
:101AF000074261EB17414FEA8C554FEA910704EB1F
:101B00009C2406FB07FC4FEA1C4C0CFB0BF7B0EBCC
:101B1000C74072EB573203FB0CF734BFA2EBC7424E
:101B2000B2EBC74261EB57310CFB0EF7B0EBC700CD
:101B300072EB57720CFB08F734BFA2EBC702B2EB93
:101B4000C70261EB577115EB4C254FEA816141EA01
:101B500092114FEA82624FEAD13742EA901206FBB5
:101B600007FC44F100044FEA80604FEA1C4C0CFB78
:101B70000BF7D21B03FB0CF761EB07010CFB0EF715
:101B8000B0EB074072EB17420CFB08F734BFA2EB37
:101B90000742B2EB074261EB174115EB1C154FEA08
:101BA000813141EA92414FEA823242EA90424FEA61
:101BB00080304FEA0C7644F1000448EA03434EEAD1
:101BC0000B484FF0000EB2EB080C71EB030724BF7B
:101BD000624639464EEB0E0E4FF0000B0018524194
:101BE00049414BEB0B0BB2EB080C71EB03077BF19C
:101BF000000B24BF624639464EEB0E0E4FF0000B31
:101C00000018524149414BEB0B0BB2EB080C71EB46
:101C100003077BF1000B24BF624639464EEB0E0EE4
:101C200051EA020718BF46F0010616EB0E7655F191
:101C3000000254F1000103D5BDE88901BDE8008828
:101C4000BDE88901BDE80048B619524141EB0101E8
:101C5000A3F10103704780807F7E7D7C7B7A797859
:101C6000777676757473727171706F6E6E6D6C6C61
:101C70006B6A6A6968686766666564646363626103
:101C80006160605F5F5E5E5D5D5C5C5B5B5A5A5984
:101C900059585857575656555555545453535252F0
:101CA0005251515050504F4F4F4E4E4D4D4D4C4C48
:101CB0004C4B4B4B4A4A4A49494948484847474791
:101CC00047464646454545444444444343434342CE
:101CD000424242414141002B9C4630D477002BD0F8
:101CE0001CB54FEA370703B44FF010004FF0100156
:101CF000BAF1000F06D0BCF1000FDCBF40F00800C5
:101D000040F008014FF000000FBCBDE810400BF19F
:101D1000010BBBF1010F08BF5FEA170722BF12F1E9
:101D2000010211F101014FF0004143F1000300F005
:101D3000004043EA00007047F9D35708D0E746EA6D
:101D4000064613F1400F4FEA16461FDD13F1200F30
:101D5000DFBF16430A46002120335B42BED0C3F1E9
:101D6000200746EA064602FA07F74FEA164646EA11
:101D70000706C3F1200722FA03F201FA07F721FA56
:101D800003F14FF0000342EA0702A7E746EA020622
:101D900046EA06464FEA164646EA0106BCBF46EA50
:101DA0000646360C4FF000034FF000024FF00001E2
:101DB00094E72DE9804C9A46934670B491E8380038
:101DC00007C831EA400C48BF34EA430C03D5FFF79B
:101DD000E6FDFFF780FFF0BCBDE8008C2DE9804CEC
:101DE0009A46934670B491E8380007C810F0804FC7
:101DF00008BF13F0804F03D100F005F8FFF76BFF29
:101E0000F0BCBDE8008C20F07F4780EA030023F09F
:101E10007F4C07EB0C03A3F57C5300F00040A3F1CB
:101E2000FE0392F0000F00F0B38095F0000F00F079
:101E300077802DE901494FEA11404FEA144621EA23
:101E4000004800FB06FC24EA064708FB06F607FBF1
:101E500008F800FB07F718EB06484CEB164C4FEA66
:101E6000124B18EB07484FEA15464CEB174022EA95
:101E70000B4E0BFB06FC25EA06470EFB06F607FB9E
:101E80000EFE0BFB07F71EEB064E4CEB164C4FF00D
:101E900000061EEB074E4CEB174B18EB0B0840F1FE
:101EA000000018EB0E0B58EB000840F100008F1AF1
:101EB0004FF000013CBFC943661B14BFB5EB040CD7
:101EC00000213CBFC943F61B4FEA17444EEA8E0E71
:101ED00027EA04454FEA1C4704FB07622CEA074C3B
:101EE00005FB07F70CFB05F604FB0CFC16EB07469D
:101EF00042EB174216EB0C4642EB1C421BEB06066C
:101F000058EB0202414146EA9E0601D5BDE801892F
:101F1000B619524141EB0101A3F10103BDE801896A
:101F20004FEA14454FEA114724EA054621EA074CD7
:101F300005FB07F406FB07F70CFB06F105FB0CFCA1
:101F400011EB074144EB17444FEA124711EB0C41E8
:101F500044EB1C4422EA074C05FB07F206FB07F79B
:101F60000CFB06F605FB0CFC16EB074642EB174292
:101F700016EB0C4642EB1C456A1854F1000148BFB1
:101F80007047B619524141EB0101A3F101037047BB
:101F900095F0000F37D04FEA11424FEA144721EA7B
:101FA000024624EA074C02FB07F106FB07F70CFB8D
:101FB00006F402FB0CFC14EB074441EB17414FEA1B
:101FC000154714EB0C4441EB1C4125EA074C02FB7E
:101FD00007F506FB07F70CFB06F602FB0CFC16EBFD
:101FE000074645EB174516EB0C4645EB1C4212190C
:101FF00051F1000148BF7047B619524141EB010150
:10200000A3F1010370474FEA14454FEA114724EA50
:10201000054621EA074C05FB07F106FB07F70CFB19
:1020200006F24FF0000605FB0CFC12EB074241EBF9
:10203000174112EB0C4251EB1C4148BF70479218FC
:1020400041EB0101A3F10103704700002DE9F041CC
:1020500002460B460420002A4CD0002B4AD01F79A0
:10206000012F47DC244FBA421AD11F68C7F3100171
:102070001F7957B997891FFA81FC47EA0C079781A6
:10208000D78947EA1147D7811CE0178A1FFA81FCDC
:1020900047EA0C071782578A47EA1147578211E02F
:1020A0001F88C7F308011F7937B997891FFA81FC88
:1020B00047EA0C07978105E0178A1FFA81FC47EA77
:1020C0000C0717820024002502F120060FE001F022
:1020D00001074FB12F4605F1010C0CF0FF05D3F8B5
:1020E000088018F8077037554908671CFCB20029AA
:1020F000EDD10020BDE8F0810000044030B502467B
:1021000004209AB10A4DAA4202D1C1F3100101E0A4
:10211000C1F308018BB20C0C958A1D439582044DC6
:10212000AA4202D1D58A2543D582002030BD0000C5
:10213000000004400246042022B1538861F30A23C0
:1021400053800020704700002DE9F04104460D4601
:10215000042004F1500C3CB332B32BB3DFF84C80B5
:10216000444502D1C5F3100101E0C5F30801002682
:10217000002715E001F00108B8F1000F0BD03CF882
:10218000168022F8178007F1010808F0FF07A3F175
:10219000010808F0FF03490806F1010808F0FF06EE
:1021A00009B1002BE6D10020BDE8F0810000044019
:1021B00010B502460420FAB1F1B1002313700C7877
:1021C000538864F3051353804C78538864F3C71322
:1021D00053808C78538864F386135380CC7853886B
:1021E00064F3010353800C79938864F38203938032
:1021F000002382F84730002010BD00002DE9F84F81
:1022000004460E46154698464FF0040A4FF0000962
:102210000027BB4600200090002C47D0002E45D060
:10222000002D43D02348844209D1112D02D34FF011
:1022300011090BE0E7893F04A089074306E0092D57
:1022400002D34FF0090901E01A4887890120207064
:10225000194800680A21B0FBF1F04FF47A71B0FB25
:10226000F1F000FB08FB002000904FF0090A19E094
:102270001248006898B1B9F1000F05D04A463146BE
:10228000204600F01DF805E02B4632463946204630
:10229000FFF75AFF002009490860824605E00098D0
:1022A000401C009000985845E2D300BF5046BDE85E
:1022B000F88F0000000004400480FF1FC008804227
:1022C00030B5034603F15004002005E034F8105007
:1022D00021F81050451CE8B29042F7DB30BD0000F9
:1022E00000B589B020A00068019000BF00200790D1
:1022F000089000BF00BF04900590069000BF00BF8B
:102300000290039000BF00F0DDFB0121084604F0BD
:10231000F9FA00208DF81C008DF81D008DF81E00C4
:102320008DF81F0007A91148FFF742FF01210F4850
:10233000FFF700FF02208DF8080002AAC02100204C
:1023400004F0D4F90A48049000208DF8140001A884
:10235000069004A90548FFF779FE05490348FFF7F1
:10236000CDFE09B000BD00000500000000000440E3
:10237000C000010010B50446A078C0F3800018B971
:10238000A07800F00100B8B1022009F03DF90B4936
:10239000886B804700221146094803F0CCFE4FF4B9
:1023A0007A7001F0ADF804F079FE00BF642001F00E
:1023B000A7F803F07EF8F9E710BD0000EC80FF1FDE
:1023C0007C81FF1F10B5044604F070FE04F046FE49
:1023D000A07820F00400A07000202080A07820F0D9
:1023E0000100A07010BD38B5044603F056FAC0B223
:1023F00000909DF80000012806D12088401C208014
:102400002088142806DC05E000202080A07820F039
:102410000400A07038BD00002DE9F04705460E46C7
:10242000144600270021284606F087FD804601213A
:10243000284606F082FD8146012C07D1B8F1010F34
:1024400002D0B9F1010F08D1012706E03146284634
:1024500006F073FD012800D10127012F0BD10020C8
:1024600001E000BF401C0549096842F21072B1FB4F
:10247000F2F18142F5D8BDE8F08700000480FF1F2B
:1024800010B5FFF72DFF10BD10B50C4800780F21D7
:1024900090FBF1F201FB120000EB4000084901EB58
:1024A00040040523032221460648FFF7A7FE034800
:1024B0000078401C0149087010BD00000380FF1F18
:1024C000B05D01200000044010B500F005F804469E
:1024D000012101F068FB10BD0149C8897047000067
:1024E00028AFFF1F10B5074CFFF7CAFF1421204685
:1024F000FEF7C8FA4FF4FA6000F046F847F23050A1
:10250000606010BD28AFFF1F70B51E4C01F01EFCAF
:1025100005466420B5FBF0F100FB115008B9FFF748
:10252000B3FF207800F0010090B9B5F5FA6F0ED92D
:1025300041F2883085420AD200F050F8E081FFF77E
:10254000C3FF2074206820F00100401C206070BD93
:10255000A068A84213D2A068281A616888420ED3E6
:10256000A56000F03BF80646E089C00000EB460697
:102570000A20B6FBF0F6E681FFF7A6FF207400BF45
:10258000E5E7000028AFFF1F014988817047000080
:1025900028AFFF1F70B588B005460026002409E06B
:1025A00004EB44000C4901EB400030F815002DF815
:1025B0001400641C0F2CF3D30F21684600F034F98B
:1025C0000B2101A804F075FC06460B20B6FBF0F0C9
:1025D00080B208B070BD0000B05D01202DE9F0416F
:1025E0002DED048B104F0020FFF7D4FF054601208E
:1025F000FFF7D0FF0646B98901FB06F009F0DDFEC2
:1026000041EC190B9FED090B53EC102B09F0ECFE7C
:1026100041EC180B09F0A4FE0446B4FBF5F4A0B29B
:10262000BDEC048BBDE8F08128AFFF1F0000000067
:10263000000004404A8802444A8070471CB50023C9
:102640001A464FF40041012004F0DEF800BF0020DC
:102650000090019000BF01208DF8000000208DF84F
:10266000060002208DF8050000208DF802008DF88C
:1026700004006A464FF40041012004F037F81CBD05
:1026800010B54FF40041012004F0A2F810BD10B5C0
:102690004FF40041012004F0A9F810BD10B54FF42B
:1026A0000041012004F0DCF810BD000010B586B038
:1026B0000446084B0FCBCDE90423CDE902010648BF
:1026C0000121CDE9001002A80FC800F010F806B0F3
:1026D00010BD000088C601006481FF1F0FB49DF883
:1026E000000000F0010080F0010004B070477FB5E9
:1026F000DDE9085418212046FEF7C4F90098A060CF
:102700000199E16002992161039961610DB1012094
:1027100000E00020217860F341012170204600F0A4
:102720003CF8A06808B1A0688047206908B120691A
:1027300080477FBD7CB504460D46164635B92078E6
:10274000C0F3400010B9E068804719E0012D17D1AF
:10275000D4E90401CDE9000194E80F00FFF7BEFFC2
:10276000012806D12146304600F015F80020A0804F
:1027700003E021463046FFF75DFF204600F001F8F8
:102780007CBD10B50446207820F00100401C20706C
:10279000E068804710BD4880704710B50446207837
:1027A00020F0010020702069804710BD1CB5044650
:1027B000D4E90401CDE9000194E80F00FFF78EFF92
:1027C000012800D11CBDA088618888420CDC2078DB
:1027D000C0F3400010B16069804701E0E0688047C5
:1027E000A088401CA08004E02046FFF7D6FF2069A7
:1027F000804700BFE6E7000010B5074804F08EFEF2
:10280000064805F007FD0648FFF750FF054803F0AE
:1028100057FC08F059FE10BDEC80FF1F2881FF1FF8
:102820006481FF1F7C81FF1F70B50246012319E000
:10283000012012E032F81060451C32F81550AE420B
:1028400009DA32F81040451C32F8155022F81050C1
:10285000451C22F81540451CA8B2CD1A8542E9DA7C
:102860005D1CABB24D1E9D42E2DA70BD014631B136
:1028700001290DD0022914D0032924D11AE0184AC5
:10288000127802F0010282F0010282F0010024E0DD
:10289000134A1278C2F3C00282F0010282F00100F2
:1028A0001BE00F4A1278C2F3401282F0010282F05C
:1028B000010012E00A4A1278C2F3801282F001028B
:1028C00082F0010009E0064A521D127802F001026E
:1028D00082F0010282F0010000BF00BF70470000DB
:1028E0003C40054038B504460020009000252A48A9
:1028F00000884AF2015108432849A1F8FE0344BB6D
:1029000026482630007800F0070008B9012536E097
:1029100023480068C0F3C01088B120482A300078EE
:1029200000F0010008B9012529E01C483630007884
:1029300020F00100401C194981F836001FE01748BB
:102940003630007820F00100401C144981F8360030
:1029500015E012483630007820F001000F4981F868
:10296000360000BF0020FFF781FF03460098401C9F
:1029700000900098B0F5805F01D2012BF2D106489B
:1029800000884FF6FE71084040F425400349A1F845
:10299000FE03284638BD0000FE43054000400540C8
:1029A0000041054038B504460020009000251F482E
:1029B00000884AF2015108431D49A1F8FE0394B969
:1029C0001B482630007800F00700052801D10125BA
:1029D0001FE017482A30007820F00100401C1449FD
:1029E00081F82A0015E012482A30007820F0010012
:1029F0000F4981F82A0000BF0220FFF737FF034686
:102A00000098401C00900098B0F5805F01D2012B27
:102A1000F2D1064800884FF6FE71084040F4254088
:102A20000349A1F8FE03284638BD0000FE430540D7
:102A30000040054000283ED01F4909884AF2015253
:102A400011431D4A11800178491E1C4AD2F8002109
:102A500061F31F721A490A600179491E174AD2F8B8
:102A6000002161F31B6216490A60017A491E134A6C
:102A7000D2F8002161F3175211490A608189491E79
:102A80000E4AD2F8002161F310220D490A60017C40
:102A9000491E0A4AD2F8002161F304020749C1F82D
:102AA0000021B1F8FE134FF6FE72114041F42541AA
:102AB000024AA2F8FE137047FE430540004005405D
:102AC000004105400B4909884AF2025211430A4A63
:102AD000A2F8FE131146098A60F303011182054929
:102AE00009884FF6FD72114041F42541024AA2F8CF
:102AF000FE137047FE430540004005400D4909881C
:102B00004AF2015211430C4AA2F8FE131146D1F8C1
:102B1000001160F3C711C2F800111146B1F8FE139D
:102B20004FF6FE72114041F42541034AA2F8FE130C
:102B300070470000FE4305400040054010B586B0D8
:102B40000446002005902E48006804902C484068F8
:102B500003902B48806802902948C068019029485A
:102B6000007800F00700052801D0052C0DD126487B
:102B700023490860C01248608860C86000BF05989B
:102B8000401C05900598B028F9D3204800884AF2E7
:102B9000015108431B492639A1F8FE03084690F865
:102BA000260064F3020081F826000846B0F8FE0310
:102BB0004FF6FE71084040F4254012492639A1F82D
:102BC000FE030020059000BF0598401C0590059865
:102BD000B028F9D30A49049808600398486002981D
:102BE00088600198C8600020059000BF0598401CCF
:102BF00005900598B028F9D305F02EFD06B010BD5C
:102C00000080044026400540EEFAFFFFFE430540E9
:102C100085B000210491344909680391324949681B
:102C200002913149896801912F49C96800910028B2
:102C300058D02E49097801F0070105290DD12C49FA
:102C4000294A1160C91251609160D16000BF049996
:102C5000491C04910499B029F9D3264909884AF2FC
:102C600001521143234A11808178C27841EA02114E
:102C7000027941EA0221427941EA0231827941EA4C
:102C80000241427841EA0251027841EA026141EA96
:102C90000271164A263A1162164909884FF6FE72E9
:102CA000114041F42541114A263AA2F8FE130021B1
:102CB000049100BF0499491C04910499B029F9D3E7
:102CC000094A039911600299516001999160009934
:102CD000D1600021049100BF0499491C049104991A
:102CE000B029F9D305B07047008004402640054064
:102CF000EEFAFFFFFE43054010B50821034806F039
:102D000007FD0021014806F077FD10BD0058014085
:102D100010B548F2E44006F095FF10BD10B5012152
:102D2000014806F069FD10BD0058014010B50021B2
:102D3000014806F05BFE10BD0058014010B50821A7
:102D4000034806F0E5FC0021014806F055FD10BDE2
:102D50000054014010B540F22A2006F039FF10BDA2
:102D600010B50121014806F047FD10BD0054014097
:102D70002DE9F04104460D4616460027A582A18A9A
:102D8000002009F075FA2061266003F012F9A060B6
:102D90001420A081206918B1A06808B1012000E0CA
:102DA000002007463846BDE8F08170B5044600F0C3
:102DB000CDFF0546A069A84207D2A069281A4EF6A1
:102DC0006021884201D9002070BD0120FCE72DE977
:102DD000F04106460F4614460025F821002009F070
:102DE00047FA05461FB115B1E62C00DC0CB9BDE869
:102DF000F0812246394605F11200FDF7A2FD2C8232
:102E00002946B06803F0B2F800BFF0E710B502F051
:102E10006DFB05F091FA002009F020FA00F060FB4C
:102E2000114801F0DAFA114800F064FD01F0C2F92E
:102E300005F0D8FA08F000F801F0A6F9044608F009
:102E400081F801F09BF9044608F074F801F086F966
:102E5000044608F067F801F07BF9C4B2204608F098
:102E600059F805F065F910BDA05D0120985F0120BB
:102E700010B500BF00F15C0303EB81131B6823F066
:102E800003031478234300F15C0404EB81142360F2
:102E900000BF00BF00F15C0303EB81131B6823F04C
:102EA0000C03547843EA840400F15C0303EB8113C0
:102EB0001C6000BF00BF00F15C0303EB81131B68C3
:102EC00023F01003947843EA041400F15C0303EB4D
:102ED00081131C6000BF00BF00F15C0303EB811392
:102EE0001B6823F02003D47843EA441400F15C0308
:102EF00003EB81131C6000BF00BF00F15C0303EB18
:102F000081131B6823F04003147943EA841400F111
:102F10005C0303EB81131C6000BF00BF00F15C0386
:102F200003EB81131B6823F08003547943EAC41434
:102F300000F15C0303EB81131C6000BF00BF00F1D4
:102F40005C0303EB81131B6823F44073947943EA19
:102F5000042400F15C0303EB81131C6000BF00BF7D
:102F600000F15C0303EB81131B6823F48063D479C5
:102F700043EA842400F15C0303EB81131C6000BF6F
:102F800000BF00F15C0303EB81131B6823F40063B3
:102F9000147A43EAC42400F15C0303EB81131C6040
:102FA00000BF00BF00F15C0303EB81131B6823F437
:102FB0008053547A43EA043400F15C0303EB811339
:102FC0001C6000BF10BD0000F0B50346154600228E
:102FD000002601205C4F3870D86901278F4020EA15
:102FE0000706002E7DD0D86900F00100D8B1D1B11C
:102FF000986C040C986E0A27B7EB104F13D3986E99
:10300000B4EB104F0FD909E0501C82B2B2F5A04FBB
:1030100004D900204C4F38700920F0BDD86900F069
:1030200001000028F0D1D86900F00200022820D168
:1030300001291ED0D3F88800040CD3F8A8000A2771
:10304000B7EB104F15D3D3F8A800B4EB104F10D93D
:10305000002209E0501C82B2B2F5A04F04D9002032
:10306000394F38700920D8E7D86900F002000028ED
:10307000F0D1D86900F00400042820D102291ED024
:103080000022D3F8C800040CD3F8E8000A27B7EBF5
:10309000104F14D3D3F8E800B4EB104F0FD909E068
:1030A000501C82B2B2F5A04F04D90020264F3870D0
:1030B0000920B2E7D86900F004000028F0D1D869EF
:1030C00000F00800082822D1032920D00022D3F8DC
:1030D0000801040CD3F828010A27B7EB104F16D3C8
:1030E00000E014E0D3F82801B4EB104F0FD909E049
:1030F000501C82B2B2F5A04F04D90020124F387094
:1031000009208AE7D86900F008000028F0D14DB105
:10311000012D12D1D86901278F4007F00F073843DE
:10312000D8610AE0D86901278F404FF00F0C2CEAD4
:10313000070C00EA0C00D86100BF00BF0020024F5E
:10314000387000BF69E700000880FF1F70B50346B4
:10315000002039B1012905D0022903D0032901D06B
:10316000042026E032B1012A0AD0022A10D0032A14
:103170001CD113E05C6901258D402C435C6117E094
:103180005C6901F110050126AE4034435C610FE03B
:103190009C6901258D402C439C6109E09C6901F1EB
:1031A00010050126AE4034439C6101E0042000BFBD
:1031B00000BF70BD026861F300020260704770B525
:1031C0000346002039B1012905D0022903D0032983
:1031D00001D0042026E032B1012A0AD0022A10D000
:1031E000032A1CD113E0DC6801258D40AC43DC6070
:1031F00017E0DC6801F110050126AE40B443DC6045
:103200000FE01C6901258D40AC431C6109E01C697D
:1032100001F110050126AE40B4431C6101E0042019
:1032200000BF00BF70BD000070B505460C461646D5
:1032300001212846FFF7BEFF05F15C0000EB84107A
:10324000006820F4805105F15C0000EB84100160FF
:1032500005F1400000EB84107168016005F1440045
:1032600000EB8410B168016000BF05F1480000EB7D
:10327000841000686FF309003188084305F14801A4
:1032800001EB8411086000BF00BF718805F14800A0
:1032900000EB8410006861F31F4005F1480101EB69
:1032A0008411086000BF00BF05F14C0000EB8410E2
:1032B00000686FF30900B189084305F14C0101EB87
:1032C0008411086000BF00BF05F14C0000EB8410C2
:1032D00000682B490840F18940EA014105F14C00A2
:1032E00000EB8410016000BF00BF05F1500000EB4F
:1032F000841000686FF313007169084305F15001F1
:1033000001EB8411086000BF00BF318B05F1500054
:1033100000EB8410006861F31F5005F1500101EBD0
:103320008411086000BF00BF05F1540000EB841059
:1033300000686FF31300F169084305F1540101EBD4
:103340008411086000BF00BF318C05F1540000EB10
:103350008410006861F31F5005F1540101EB8411E2
:10336000086000BF05F1580000EB8410316901606E
:1033700006F1240221462846FFF77AFD70BD0000C1
:10338000FFFF00FC30B503460024002003F1440594
:1033900005EB81152A600BE0651CACB2B4F5805FCB
:1033A00001D9092004E003F1440505EB81152A60E9
:1033B00003F1640505EB81152D689542ECD130BD14
:1033C00030B503460024002003F1400505EB8115CC
:1033D0002A600BE0651CACB2B4F5805F01D909200E
:1033E00004E003F1400505EB81152A6003F1600557
:1033F00005EB81152D689542ECD130BD70B50346C3
:103400000024002000BF03F1480505EB81152D685D
:1034100062F31F4503F1480606EB8116356000BFD5
:1034200014E0651CACB2B4F5805F01D909200DE051
:1034300000BF03F1480505EB81152D6862F31F45B8
:1034400003F1480606EB8116356000BF03F16805FD
:1034500005EB81152D68B2EB154FE2D170BD000070
:1034600010B5094B984205D1084C04EB8103C3F811
:10347000142807E0064B984204D1044C04EB810366
:10348000C3F8242810BD00000030054000000140B2
:103490000034054010B590B0242107A8FDF7F2FADA
:1034A0000D4C24220D4907A8FDF790FA4FF4E130A6
:1034B000089002208DF82D0014220BA9684605946F
:1034C000FDF784FA07A80FC806F02EFF204606F085
:1034D00036FF10B010BD0000A0B8FF1F1CC60100D1
:1034E000064800684FF47A71B0FBF1F04FF0E0212C
:1034F0004861002088610520086170470480FF1F33
:10350000F0B5034600224FF0E02675690F4E36688D
:103510004FF47A77B6FBF7F606FB03F44FF0E0269C
:10352000B16910E04FF0E026B06988420BD08842C4
:1035300002D20E1A324402E02E1A0E4432440146E0
:10354000A24200D300E0EDE700BFF0BD0480FF1F02
:1035500070B58AB00446202102A8FDF793FA2078BE
:10356000C0F3400008B90AB070BD2078C0F38010E5
:1035700010B12648808901E0254880890546606AA7
:10358000A8422BD3002610E004F128039A192378CF
:10359000C3F380102B46216900F09EFA206928446D
:1035A0002061606A401B60622E44606AA842EBD2D0
:1035B000606A28B104F128008119626AFDF7C1F937
:1035C0001E20019001AA02A9FF2003F05FFB012841
:1035D00004D1BDF8041002A8626890472078C0F3B7
:1035E000800080B12278C2F3801004F12802636A5F
:1035F000216900F071FA206928442061002060628E
:10360000204604F033FE00BFADE70000985F0120C4
:10361000A05D0120014908607047000014040140CA
:103620000349096860F30001014A11607047000016
:103630000C040140012801D0012200E000220349CE
:10364000096862F30001014A1160704704040140F7
:10365000014604480068084008B101207047002076
:10366000FCE700001004014004480068012804D170
:1036700043F21020014908600860704700040140CF
:1036800070B50346002400263F20FFF7C3FF18480B
:103690000068C0F300451648006820F480301449E3
:1036A00008600120FFF7BCFF042000F025F8114856
:1036B000186005E0601C84B2B4F5805F00D909266B
:1036C0000B4808300068C0F300200028F2D010201A
:1036D000FFF7A0FF002000F00FF80020FFF7A0FF89
:1036E0000348006865F3104001490860304670BD2A
:1036F00008040140785634120349096860F3061142
:10370000014A1160704700000C0401400349096838
:1037100060F30711014A116070470000080401407E
:10372000F0B503460C46002600253F20FFF772FF48
:1037300019480068C0F300471748006820F480303B
:10374000154908600120FFF76BFF0120FFF7D4FF48
:103750001C6005E0681C85B2B5F5805F00D90926BC
:103760000D4808300068C0F300200028F2D0186827
:10377000A04200D001261020FFF74CFF0020FFF7E9
:10378000BBFF0020FFF74CFF0348006867F31040C1
:10379000014908603046F0BD0804014040F22310A2
:1037A0000249086043F2102008607047000401409D
:1037B00010B5024610780A4B042414FB00315378EC
:1037C000086863F3C71008609378086863F305100E
:1037D0000860D378086863F301000860002010BD1A
:1037E0001010054001460448806D01228A401043B4
:1037F000014A906500207047001005400146064AC6
:10380000526D01238B401A400AB9012200E00022C8
:1038100082F00100704700000010054001460020C2
:10382000A1F50542153A5AB1A2F5D242FF3A22B1AA
:10383000022A08D0032A0CD108E04FF400600AE005
:103840004FF4805007E04FF4005004E04FF4804004
:1038500001E0002000BF00BF70470146A1F505420E
:10386000153A4AB1A2F5D242FF3A22B1022A04D057
:10387000032A06D102E000BF00BF00BF4FF48070F2
:1038800001E0002000BF00BF70472DE9F04705466A
:103890008846144600272868404504D808EB0400F1
:1038A0006968884202D30020BDE8F087A88908B97A
:1038B0000020F9E72146002008F0DAFC07460FB99E
:1038C0000020F1E74FF0000923463A4641462846DA
:1038D00000F034F8A04206D1002602E0B85D814431
:1038E000761CA642FAD33946002008F0A5FC4846CB
:1038F000DAE7000010B504460F4807F0FBFC002093
:1039000020606060A060E0600B48B0F81E01E081BC
:10391000E089FFF7A2FFA081E089FFF77FFFA060A9
:103920004FF07040206060604FF48062D4E9010184
:1039300002FB0100606010BD685E01202DE9FE43BE
:1039400004460D4617461E464FF000082068A84260
:1039500002D86068A84202D20020BDE8FE83A08998
:1039600008B90020F9E711E0A0892168691ACDE9BA
:10397000007102900E480FC807F0ECFCA089361ABF
:10398000A0890544A0890744A0898044A089B6FB8A
:10399000F0F00028E8D146B1B0B2CDE90075029050
:1039A00003480FC807F0D6FCB0444046D5E70000F6
:1039B000685E01202DE9FF4F85B005460E469B4607
:1039C000AC894FF00009DA46BAF1000F00D01CB9FB
:1039D000002009B0BDE8F08F2868B0425DD806EB42
:1039E0000A006968884258D22146002008F040FC4D
:1039F0008146B9F1000F01D10020EAE72868361AA4
:103A0000B6FBF4F808FB04F8B6FBF4F004FB106016
:103A100080B204900498201A80B2039035E02868A0
:103A200000EB080123464A462846FFF787FF002798
:103A300006E00798C15D0498384409F800107F1C1F
:103A40000398504501D2039800E05046B842F0D8A0
:103A5000AAEB070A0798384407901148CDF8008070
:103A60000FC807F01CFC0E48CDE9009802940FC85F
:103A700007F0D5FCA044BAF1000F00D106E0002009
:103A800004900498201A80B20390C8E700BF49460A
:103A9000002008F0D1FB58469BE7002099E7000082
:103AA000685E01202DE9F04105460E46174635B106
:103AB0003A4631460648FFF7E8FE044605E03A4636
:103AC0003146044800F074FC04462046BDE8F0810D
:103AD000985F0120A05D01202DE9F04104460D46CC
:103AE00016461F4634B13B46324629460548FFF785
:103AF00061FF05E03B4632462946034800F092FC50
:103B0000BDE8F081985F0120A05D01201CB5002375
:103B10001A464FF40041012002F076FE00BF00205B
:103B20000090019000BF8DF800008DF804006A46F7
:103B30004FF40041012002F0D9FD00231A464FF452
:103B40008041012002F060FE01208DF8000000207D
:103B50008DF8060002208DF8050000208DF8020087
:103B60008DF804006A464FF48041012002F0BEFD4A
:103B70001CBD10B54FF40041012002F0A7FD044622
:103B8000012C00D110BD0020FCE710B54FF480419E
:103B9000012002F01DFE10BD10B54FF48041012040
:103BA00002F024FE10BD0246642001EB81239B003D
:103BB000934200DC69E040F678734B43934201DCAA
:103BC0005A2062E040F614734B43934201DC5020CC
:103BD0005BE040F6C4634B43934201DC462054E073
:103BE00040F674634B43934201DC3C204DE040F6C9
:103BF00056634B43934201DC322046E040F6246397
:103C00004B43934201DC28203FE040F606634B43E0
:103C1000934201DC1E2038E040F6B6534B439342FA
:103C200001DC142031E040F698534B43934201DC11
:103C30000F202AE040F6E4434B43934201DC0A2084
:103C400023E040F6B2434B43934201DC05201CE0E5
:103C500040F64E434B43934201DC042015E040F60E
:103C60001C434B43934201DC03200EE040F68633B5
:103C70004B43934201DC022007E040F654334B43B0
:103C8000934201DC012000E000207047024601233E
:103C90001048104448B1B0F5806F0AD0B0F5804F9D
:103CA0000BD0B0F5884F10D10BE009B1002008709F
:103CB0000DE009B10120087009E009B10220087087
:103CC00005E009B10320087001E0002300BF00BF38
:103CD000012070470030FEBF0020704710B500245F
:103CE0000848FFF762F808B9022000E0002004430A
:103CF000054803F079FC08B9042000E000200443E3
:103D0000204610BD84AFFF1F00AFFF1F002070478B
:103D1000002070470020704710B50246002002E0E6
:103D200013781844521C0B1EA1F10101F8D110BDEB
:103D3000014642F229400844407842F229420A44AE
:103D4000927840EA02207047012070470548808839
:103D50000449896801EB4102C2EBC11100EBC100CB
:103D60007047000010B0FF1F0148806870470000D6
:103D700010B0FF1F10B50821034805F0C9FC002151
:103D8000014805F039FD10BD0050014010B548F262
:103D9000886005F0E3FE10BD10B50121014805F073
:103DA0002BFD10BD0050014010B50021014805F069
:103DB0001DFE10BD005001402DE9F04704460D46A0
:103DC000072D01DABDE8F08794F800806678D4F812
:103DD0000370032E17D1A078012802D0022810D139
:103DE0000AE06420B7FBF0F01FFA80F94A4601218F
:103DF000064802F0A0F905E00121044802F091F91B
:103E000000E000BF00BF00BFDCE700007C81FF1FB7
:103E100030B5032900DA30BD03784278032A09D18E
:103E20008478022C06D1044CA47824F00104641C8C
:103E3000014DAC7000BFEEE70080FF1F2DE9F0419F
:103E400004460D46052D01DABDE8F0812778667835
:103E5000052E03D12079024901F01BFF00BFF3E7D3
:103E6000EC80FF1F2DE9F04104460D46032D01DAD9
:103E7000BDE8F08127786678062E02D1A07807F099
:103E8000BDFB00BFF4E70000004870472C62012032
:103E90000FB410B5FFF7F8FF044620212046FCF7C9
:103EA000F1FD0298606005992161069961610399AD
:103EB000A1600499E160606808B16068804710BC47
:103EC0005DF814FB00B5FFF7DFFF0146002000BDE1
:103ED00010B58AB0164C28212046FCF7D3FD1C22D1
:103EE000144903A8FCF772FD07A807C88DE807006E
:103EF00003A80FC8FFF7CCFFFFF7C6FF20606422BE
:103F00004FF4007104F1080003F04FFB616860F3A7
:103F100000016160282104F1080003F0FCFB4FF46C
:103F20007A720121204600F0A7F80AB010BD000007
:103F3000A4AFFF1F9CC801002DE9F843194D05F1FE
:103F40000804A08AE18A401A80B200904FF000086D
:103F5000FFF7FCFE06460027287900F0010008B9AB
:103F6000BDE8F8836068B04213D26068301A2168F7
:103F700088420ED36660FFF7A5FF50B9204603F0D4
:103F8000CCFB07462FB1398A2868C26807F11200B6
:103F90009047E38A2169C81829688A68694690476A
:103FA00000BFDDE7A4AFFF1F10B590B0242107A824
:103FB000FCF768FD0B4C24220B4907A8FCF706FD13
:103FC0004FF4E130089014220BA968460594FCF7E1
:103FD000FDFC07A80FC806F0A7F9204606F0AFF9C8
:103FE00010B010BD50B0FF1F0CC8010070B50646E0
:103FF0000D461A4C94F8400800F0010058B3B4F88C
:104000002C0838B994F8400820F0010084F84008E2
:10401000002070BD2888B4F82C1888420ADBB4F858
:104020002C2804F22C413046FCF78BFCB4F82C0809
:10403000288005E02A8804F22C413046FCF781FCF8
:104040000020A4F82C0894F8400820F0010084F81F
:1040500040080120DDE70020DBE7000050B0FF1F33
:1040600070B504460D462A462146024806F0E4FD96
:1040700070BD000050B0FF1F2DE9F04106460F460D
:1040800090460024F821002008F0F2F804460CB90C
:10409000BDE8F081F8212046FCF7F4FC00202082E6
:1040A000AA21228A501C208204F112008154BE21D0
:1040B000228A501C208204F1120081540021228A9D
:1040C000501C208204F1120081540221401C03F094
:1040D00049FA85B2290A228A501C208204F1120072
:1040E0008154228A501C208204F112008554E4215C
:1040F000228A501C208204F1120081541B21228A42
:10410000501C208204F1120081541121228A501C7B
:10411000208204F112008154EE21228A501C208258
:1041200004F112008154217DE07C41EA00202060EE
:104130006760C4F80C802146306903F090FA00BF34
:10414000A6E700000148007B704700002880FF1FA1
:1041500001488088704700002880FF1F0148807850
:10416000704700002880FF1F004870472E80FF1F07
:1041700001484089704700002880FF1F01484078AF
:10418000704700002880FF1F01480078704700003A
:104190002880FF1F0148807B704700002880FF1F98
:1041A000004870473780FF1F0148407B7047000080
:1041B0002880FF1F00B589B01648006800F5004050
:1041C000144A92898118202301AA124800F01DF98F
:1041D0001C2101A8FFF7A0FD0899884213D001A86F
:1041E00000F05CF81C2101A8FFF796FD0890094833
:1041F000006800F50040074A92898118202301AA2F
:10420000044800F00FF91C2201A90348FCF7DEFB6B
:1042100009B000BDA05D01202880FF1F10B5044635
:10422000FF2C05D010480078A04201D0002010BD1E
:10423000FF2905D00C484078A04201D00020F6E7C5
:10424000FF2A05D008488078A04201D00020EEE780
:104250004FF6FF70834205D003488088A04201D00A
:104260000020E4E70120E2E72880FF1F10B51C21B1
:104270000848FFF751FD0749C8610748006800F585
:104280000040054A928981182023024A024800F022
:10429000C9F810BD2880FF1FA05D012010B504469D
:1042A00004B910BD20212046FCF7ECFBFF20A070D4
:1042B0003020207001206070FF20A0704FF6FF704A
:1042C000A080C020A071A821E171062121722A21BD
:1042D000617240F6A170608101202073022060733A
:1042E0000F20A073FF20E073FF2121746174A1747B
:1042F000E17421756175A17500BFD2E7022801DA6A
:1043000001490873704700002880FF1F0149888019
:10431000704700002880FF1F014988707047000027
:104320002880FF1F28B1042903DB024A0368C2F872
:10433000063070472880FF1F014948817047000000
:104340002880FF1F01494870704700002880FF1F28
:1043500001490870704700002880FF1F002803DD16
:10436000102801DA01498873704700002880FF1F78
:104370000CB509A30CCBCDE9002338B1082905DB26
:10438000074A036813604368536004E0044A009BD3
:104390001360019B53600CBDFFFFFFFFFFFFFFFF9A
:1043A0003780FF1F4FF4007070474FF40050704784
:1043B00030B503461868884203D888185D68A8425B
:1043C00001D3002030BD002403E008780444521ECD
:1043D000491C002AF9D12046F4E700B50246002026
:1043E000106050609060D060FFF7DFFF9081FFF7B2
:1043F000D9FF90600020106050604FF48063D2E9D4
:10440000010103FB0100506000BD30B505461446B4
:10441000002203E00878A054491C521C9A42F9D3A8
:10442000184630BD2DE9FF4F83B006460F469B4628
:10443000B5894FF00009DA46BAF1000F03D1002028
:1044400007B0BDE8F08F3068B84270D807EB0A00BB
:10445000716888426BD22946002007F009FF814627
:10446000B9F1000F01D10020EAE7FFF797F9012029
:10447000FFF7E0F800BF4FF48070FFF7E9F801287C
:10448000F9D130683F1AB7FBF5F808FB05F8B7FB20
:10449000F5F005FB107080B202900298281A80B2E5
:1044A000019039E0306800EB08012B464A4630465F
:1044B000FFF7ABFF002406E00598015D0298204459
:1044C00009F80010641C0198504501D2019800E0E1
:1044D0005046A042F0D8AAEB040A05982044059063
:1044E000316801EB0800FFF7CBF8002407E059F82A
:1044F0000410326842441019FFF712F9241DAC422F
:10450000F5D3A844BAF1000F00D106E000200290D4
:104510000298281A80B20190C4E700BF49460020E3
:1045200007F08AFEFFF7A0F8584689E7FFE700206A
:1045300086E7000010B50C4C40212046FCF7A2FA9B
:104540000A4860600A49A1600A49E16060688047E2
:1045500064224FF4007104F12400FEF709FC216A83
:1045600060F30001216210BD3CAFFF1F0547010051
:104570000D470100854701002DE9F843324E06F151
:104580002404A08AE18A401A80B20090FFF7DEFB83
:1045900007464FF0000896F8200000F0010008B927
:1045A000BDE8F8836068B84218D26068381A21689C
:1045B000884213D3676001F053F978B9A06801F01D
:1045C000FCFC8046B8F1000F08D0B8F8101008F1D4
:1045D0001200F2689047A06801F0FDFCE38A2169AF
:1045E000C8186946B268904701282AD17068804788
:1045F000E08ABDF800100844E08200251EE0E08A51
:10460000401B80B2009021694819694602F026FCDF
:1046100001280CD1A761216948193246BDF8001064
:1046200000F014F8BDF80000284485B201E0681CD1
:1046300085B2E08AA84201DC0020E082E08AA8423C
:10464000DDDC00BFACE700003CAFFF1F2DE9F0410F
:1046500004460E461546A84601221146284801F098
:104660006AFD6078217840EA01274AF2AD21781A84
:104670008F422BD00BDCA7F52040A0F5287068B145
:10468000012811D0032815D0042834D118E00128BE
:1046900022D0022821D052282DD124E02A463146AA
:1046A000204600F0BDFB27E02A463146204600F0B8
:1046B000DCF921E02A463146204600F07CFD1BE073
:1046C0002A463146204600F009FE15E02A463146CA
:1046D000204600F0BCFA0FE00EE02A4631462046A4
:1046E00000F03DFC08E02A463146204600F0AFFAD3
:1046F00005F0A0F900E000BF00BFBDE8F0810000B8
:104700007C81FF1F10B506F0FDFC10BD70B5C2B076
:1047100005460C464FF48070019001A902A806F0EE
:10472000F7FC06460EBBBDF8042011A1144805F0A5
:1047300089FEBDF8041002A807F032FD2088BDF8FC
:104740000410884209DBBDF8042002A92846FCF7C2
:10475000F8F8BDF80400208004E0228802A9284669
:10476000FCF7EFF8012042B070BD0020FBE700002D
:1047700049525F33384B282564293C2D0000000046
:10478000A0B8FF1F70B505460C46224606A10A4890
:1047900005F058FE2146284607F002FD214628462E
:1047A00006F0E8FC70BD000049525F33384B282505
:1047B00064292D3E00000000A0B8FF1F10B508219D
:1047C000054805F041F8012805D10821024804F008
:1047D0009FFF00F055FF10BD0050014010B50821AB
:1047E000054805F031F8012805D10821024804F0F8
:1047F0008FFF05F068FA10BD0054014010B5082184
:10480000054805F021F8012805D10821024804F0E7
:104810007FFF00F0C1FE10BD0058014010B50B2015
:10482000FEF7ECFF012804D10B20FEF7DBFF00F0C0
:1048300089FE10BD10B54FF40051084804F00CFE7D
:1048400050B14FF40051054804F0DAFD034804F07C
:10485000FFFE03484169884710BD00000048024040
:10486000A85F012010B54FF40051064804F0F4FD94
:1048700030B103F02FFE4FF40051024804F0C0FDA8
:1048800010BD00000070014010B5024806F04FF85E
:1048900010BD000050B0FF1F10B5024806F069F8C7
:1048A00010BD000050B0FF1F10B5024806F080F8A0
:1048B00010BD000050B0FF1F10B5024806F013F9FC
:1048C00010BD000050B0FF1F10B5024806F0EEF812
:1048D00010BD000050B0FF1F10B5024805F0E1FF09
:1048E00010BD000050B0FF1F10B5024806F01FF8C1
:1048F00010BD0000A0B8FF1F10B5024806F039F83F
:1049000010BD0000A0B8FF1F10B5024806F050F817
:1049100010BD0000A0B8FF1F10B5024806F0E3F874
:1049200010BD0000A0B8FF1F10B5024806F0BEF889
:1049300010BD0000A0B8FF1F10B5024805F0B1FF80
:1049400010BD0000A0B8FF1F10B5024805F0EFFF32
:1049500010BD0000F0C0FF1F10B5024806F009F8B6
:1049600010BD0000F0C0FF1F10B5024806F020F88F
:1049700010BD0000F0C0FF1F10B5024806F0B3F8EC
:1049800010BD0000F0C0FF1F10B5024806F08EF801
:1049900010BD0000F0C0FF1F10B5024805F081FFF8
:1049A00010BD0000F0C0FF1F10B5024805F0BFFFAA
:1049B00010BD000040C9FF1F10B5024805F0D9FF27
:1049C00010BD000040C9FF1F10B5024805F0F0FF00
:1049D00010BD000040C9FF1F10B5024806F083F863
:1049E00010BD000040C9FF1F10B5024806F05EF878
:1049F00010BD000040C9FF1F10B5024805F051FF6F
:104A000010BD000040C9FF1F0EB500BF002001907F
:104A1000029000BF00BF009000BF0B208DF8000087
:104A200001208DF8010000208DF803006846FEF794
:104A3000BFFE00208DF8040001208DF806008DF8DF
:104A4000080001AAC102002001F050FE03210B2042
:104A500000F0DEFE032007F025FA0321084607F0E8
:104A60005DFA032007F039FA0EBD2DE9F04786B054
:104A7000054688461746BA4600241DB1B8F10B0F0B
:104A800000DB17B906B0BDE8F08703263146761C77
:104A9000685C05903146761C685C04903146761C53
:104AA000685C0390701C285CA95D40EA01200090BE
:104AB000B61C3146761C685C02903146761C685CF8
:104AC00001904FF00009012105A800F0D3FE012854
:104AD00005D19DF81400FFF73BFC4FF001090121BF
:104AE00004A800F0C7FE012805D19DF81000FFF7CB
:104AF00029FC4FF00109012103A800F0BBFE0128A9
:104B000005D19DF80C00FFF707FC4FF001090221C9
:104B1000684600F0AFFE012805D1BDF80000FFF7A0
:104B2000F5FB4FF00109012102A800F0A3FE0128C6
:104B300005D19DF8080006F0C7FA4FF001090121E0
:104B400001A800F097FE012805D19DF8040006F0A9
:104B5000CBFA4FF00109B9F1010F09D100F0A9FC1E
:104B6000FFF784FB00F0A5FC06F08CFA00F0A1FC36
:104B7000F821002007F07CFB044604B982E70020FE
:104B80002082A321228A501C208204F11200815429
:104B90006978228A501C208204F11200815400217D
:104BA000228A501C208204F112008154FFF7ECFA93
:104BB000228A511C218204F112018854FFF7DEFA87
:104BC000228A511C218204F112018854FFF7C6FA8F
:104BD000228A511C218204F112018854FFF7B8FA8D
:104BE0000112228A501C208204F112008154FFF726
:104BF000AFFAC1B2228A501C208204F11200815403
:104C000006F0C2F9228A511C218204F11201885453
:104C100006F0C0F9228A511C218204F11201885445
:104C2000207CC01E2075208AC01E81B204F11500B0
:104C300006F0E8FD228A511C218204F112018854F9
:104C40002146DAF82C0001F091F900BF1AE72DE9AE
:104C5000F84F82468B469046C1460024F82100203A
:104C600007F006FB04460CB9BDE8F88F002020824F
:104C7000A321228A501C208204F112008154FF21BA
:104C8000228A501C208204F1120081540021228AC1
:104C9000501C208204F1120081540121228A501CF0
:104CA000208204F1120081540221228A501C2082A9
:104CB00004F112008154FFF711F8228A511C21825D
:104CC00004F112018854FFF721F8228A511C218235
:104CD00004F112018854FFF71BF8228A511C21822B
:104CE00004F112018854FFF715F8228A511C218221
:104CF00004F11201885400F0DBFD228A511C21824C
:104D000004F112018854FDF7E7FB0112228A501CBE
:104D1000208204F112008154FDF7DEFBC1B2228A29
:104D2000501C208204F112008154C8200090228A75
:104D300004F112015018694606F072FD208ABDF890
:104D4000001008442082FEF7C7FF228A511C2182EE
:104D500004F11201885406F023F90746228A501CF8
:104D6000208204F11200875400263BE0F0B206F0E6
:104D70001DF905466978228A501C208204F1120030
:104D80008154A978228A501C208204F11200815497
:104D9000E978228A501C208204F112008154218A71
:104DA00001446A680A60A8684860208A0830208246
:104DB000218A04F112000144287C0870208A401CDA
:104DC0002082688A0112228A501C208204F112007B
:104DD0008154A97C228A501C208204F11200815443
:104DE000701C86B20A2F01DA384600E00A20B04271
:104DF000BCDC207CC01E2075208AC01E81B204F15C
:104E0000150006F0FFFC228A511C218204F11201D8
:104E100088542146D9F82C0001F0A8F800BF23E7F8
:104E20002DE9FC5F054688461746019700241DB111
:104E3000B8F1090F00DB0FB9BDE8FC9F032631462E
:104E4000761C15F801903146761C15F801A0314604
:104E5000761C15F801B0701C285CA95D40EA0120A1
:104E60000090B61C5A4651464846009BFFF7D6F9BB
:104E7000012800D0E0E7F821002007F0F9F9044606
:104E800004B9D9E700202082A321228A501C208265
:104E900004F1120081546978228A501C208204F1A6
:104EA000120081540021228A501C208204F1120039
:104EB0008154FFF769F9228A511C218204F1120101
:104EC0008854FFF75BF9228A511C218204F11201F8
:104ED0008854FFF743F9228A511C218204F1120100
:104EE0008854FFF735F90112228A501C208204F100
:104EF00012008154FFF72CF9C1B2228A501C208283
:104F000004F112008154FFF74FF9228A511C2182CB
:104F100004F112018854FFF743F9228A04F11201C7
:104F2000114402680A6040684860208A0830208284
:104F3000207CC01E2075208AC01E81B204F115009D
:104F400006F060FC228A511C218204F1120188546F
:104F50000199C86A214601F009F800BF6CE72DE904
:104F6000F04F89B0064688461746089700241EB1C0
:104F7000B8F1190F00DB17B909B0BDE8F08F0325B0
:104F800029466D1C16F8019029466D1C16F801A0E3
:104F900029466D1C16F801B0681C305C715D40EA52
:104FA00001200490AD1C5A4651464846049BFFF729
:104FB00035F9012800D0DFE7701900680290281D3C
:104FC000C5B2681C305C715D40EA01200390A81CEA
:104FD000C5B22846691CCDB2305C07902846691CD2
:104FE000CDB2305C06907019016800914068019064
:104FF00005F10800C5B200200590042102A800F0C8
:1050000039FC012805D1042102A8FFF78BF9012002
:105010000590022103A800F02DFC012805D1BDF860
:105020000C00FFF789F901200590012107A800F085
:1050300021FC012805D19DF81C00FFF75FF9012034
:105040000590012106A800F015FC012805D19DF866
:105050001800FFF783F9012005900821684600F049
:1050600009FC012805D108216846FFF781F90120D4
:1050700005900598012805D100F01BFAFFF7F6F816
:1050800000F017FAF821002007F0F2F8044604B9FE
:1050900072E700202082A321228A501C208204F182
:1050A000120081547178228A501C208204F112006F
:1050B00081540021228A501C208204F11200815464
:1050C000FFF762F8228A511C218204F112018854F0
:1050D000FFF754F8228A511C218204F112018854EE
:1050E000FFF73CF8228A511C218204F112018854F6
:1050F000FFF72EF80112228A501C208204F11200C0
:105100008154FFF725F8C1B2228A501C208204F195
:1051100012008154FFF728F8228A04F11201114489
:1051200000680860208A001D2082FFF721F8011224
:10513000228A501C208204F112008154FFF718F8D3
:10514000C1B2228A501C208204F112008154FEF761
:10515000F9FF228A511C218204F112018854FFF7C1
:1051600019F8228A511C218204F112018854FFF798
:1051700017F8228A04F11201114402680A6040689B
:105180004860208A08302082207CC01E2075208A3A
:10519000C01E81B204F1150006F034FB228A511CB6
:1051A000218204F1120188540899C86A214600F04E
:1051B000DDFE00BFE0E62DE9FC5F054688461746A8
:1051C000019700241DB1B8F1090F00DB0FB9BDE84C
:1051D000FC9F03263146761C15F801903146761C5B
:1051E00015F801A03146761C15F801B0701C285C3A
:1051F000A95D40EA01200090B61C5A465146484637
:10520000009BFFF70BF8012800D0E0E7002003F037
:105210003FF900F04EF903F01FF900F04AF9F821C8
:10522000002007F025F8044604B9D0E700202082CA
:10523000A321228A501C208204F112008154697833
:10524000228A501C208204F1120081540021228AFB
:10525000501C208204F112008154FEF795FF228A2F
:10526000511C218204F112018854FEF787FF228A23
:10527000511C218204F112018854FEF76FFF228A2B
:10528000511C218204F112018854FEF761FF0112C2
:10529000228A501C208204F112008154FEF758FF2C
:1052A000C1B2228A501C208204F112008154207C59
:1052B000C01E2075208AC01E81B204F1150006F0C0
:1052C000A1FA228A511C218204F112018854019909
:1052D000C86A214600F04AFE00BF78E72DE9F04F8A
:1052E00087B0054689469046CDF8188000240020F6
:1052F00000900190029003902DB1B9F1150F02DBDF
:10530000B8F1000F02D107B0BDE8F08F0326314697
:10531000761C15F801A03146761C15F801B031460F
:10532000761C685C0590701C285CA95D40EA012031
:105330000490B61C59465046DDE90432FEF76EFF74
:10534000012800D0DFE73046711CCEB22F5C0FB1D0
:105350000A2F00DDD7E73046711CCEB2285C8DF8ED
:1053600000003046711CCEB2285C8DF8010030463A
:10537000711CCEB2285C8DF80200A8190168CDF826
:1053800003104068CDF8070006F10800C6B2781E89
:10539000C1B2684603F08EF800F08BF803F05CF8B9
:1053A00000F087F8F821002006F062FF044604B9F7
:1053B000A9E700202082A321228A501C208204F128
:1053C000120081546978228A501C208204F1120054
:1053D00081540021228A501C208204F11200815441
:1053E000FEF7D2FE228A511C218204F11201885458
:1053F000FEF7C4FE228A511C218204F11201885456
:10540000FEF7ACFE228A511C218204F1120188545D
:10541000FEF79EFE0112228A501C208204F1120027
:105420008154FEF795FEC1B2228A501C208204F1FD
:1054300012008154218A481C208204F11200475432
:105440009DF80210228A501C208204F1120081541F
:10545000218A0844DDF803100160DDF8071041607F
:10546000208A08302082207CC01E2075208AC01E21
:1054700081B204F1150006F0C5F9228A511C21827F
:1054800004F1120188540699C86A214600F06EFDA5
:1054900000BF38E71CB500BF00200090019000BF9E
:1054A00001208DF800006A460103002001F01EF97A
:1054B0001CBD10B505F0FCFF10BD1CB500BF0020E1
:1054C0000090019000BF0A208DF8010003208DF8A4
:1054D00000000F208DF8020000208DF8030001204D
:1054E0008DF80400684605F0C5FF1CBD00200BE0E8
:1054F000074A042303FB00210A686FF3080202F243
:10550000FF120A60421C90B27F28F1DD7047000054
:105510005C1005400A480078C0F3800070B108486C
:105520004068401C0649486008464068072805D383
:105530000846007820F010001030087000207047F6
:105540001061012010B51148007800F00100E0B1B1
:105550000F48C07AC8B90D480078C0F3C000A0B9A0
:105560000A48007820F002000849087008460078D0
:1055700020F0080008300870FDF7BEFBFDF7D6FBF1
:10558000002004490860FDF7C9FB10BD106101202F
:10559000006101202080FF1F10B53548007800F021
:1055A0000100002863D03348C07A00285FD130481A
:1055B0000078C0F3C000D0B12D480078C0F340009F
:1055C000A8B901F0D2FD90B12948007820F002007E
:1055D000801C274908700846007820F004000870F5
:1055E0000020486024490860244908703FE02048B2
:1055F0000078C0F34000D0B301F0ABFD40B11E48CD
:105600000178012088401D49097808431B4908702A
:1056100019480068401C18490860084600680828B6
:1056200025D316480078124908750846017DB0F860
:105630001621B0F81601401C0D4BA3F8160103F11A
:10564000150081541538007820F0080019460870BC
:105650000846007820F0020008700846007820F024
:105660000400001D0870FDF747FBFDF75FFB10BD50
:1056700010610120006101202080FF1F2480FF1F96
:1056800010B52648C07A012846D124480068401C3D
:1056900022490860084600684968401A01283BD141
:1056A0001E4800681D4948600846407A082817DAF5
:1056B0000846007A00F0010008730846007B0128C4
:1056C00002D102F09FFA01E002F0ACFA1348007A2E
:1056D0004010124908720846407A401C48721BE08C
:1056E0000E48407A082807D102F08CFA0B48407A1D
:1056F000401C0A4948720FE00848407A08280BDD30
:1057000000200649487208604860C872FEF732FB04
:10571000FEF74AFB04F0D0FA10BD00000061012042
:1057200070B50024202916DBC51700EBD5656D1177
:1057300005EB4505202606EB45058D420ADCC5171D
:1057400000EBD5656D1105EB4505252606EB4505F6
:105750008D4200DA70BD054A042303FB0124226850
:1057600060F30802226000BFF4E700005C1005400F
:1057700070B50024202916DBC51700EBD5656D1127
:1057800005EB4505202606EB45058D420ADCC517CD
:1057900000EBD5656D1105EB4505252606EB4505A6
:1057A0008D4200DA70BD054A042303FB0124226800
:1057B00060F30802226000BFF4E700005C100540BF
:1057C00070B50024202916DBC51700EBD5656D11D7
:1057D00005EB4505202606EB45058D420ADCC5177D
:1057E00000EBD5656D1105EB4505252606EB450556
:1057F0008D4200DA70BD054A042303FB01242268B0
:1058000060F30802226000BFF4E700005C1005406E
:1058100070B50024202916DBC51700EBD5656D1186
:1058200005EB4505202606EB45058D420ADCC5172C
:1058300000EBD5656D1105EB4505252606EB450505
:105840008D4200DA70BD054A042303FB012422685F
:1058500060F30802226000BFF4E700005C1005401E
:105860000348C07A012800D170470020FCE70000FF
:1058700000610120024602B109B90020704705E02D
:1058800012F8013BFF2B01D00120F7E7081EA1F120
:10589000010399B2F4D100BFF0E710B54FF4004115
:1058A000002000F013FF012800D110BD0020FCE70C
:1058B000014991F8240070477CAFFF1F10B58AB0F2
:1058C000144C28212046FBF7DDF81C22124903A8BE
:1058D000FBF77CF807A807C88DE8070003A80FC8E6
:1058E00000F00BF900F0CEF8206064224FF4007154
:1058F00004F10800FDF73CFA616860F300016160A3
:1059000000F01FF90A221146204600F05EF90AB0A5
:1059100010BD00007CAFFF1FF0C701002DE9F84368
:10592000224D05F10804A08AE18A401A80B2009055
:105930004FF00008FEF70AFA06460027287900F023
:10594000010008B9BDE8F8836068B04224D26068FD
:10595000301A216888421FD3666000F0ECF8D8B98D
:10596000A06800F02AFB074647B1398A2868C26858
:1059700007F112009047A06800F02DFBA069301AD3
:105980004CF25031B0FBF1F201FB120020B90A22B7
:105990001146284600F019F9E38A2169C8182968D8
:1059A0008A686946904700BFCCE700007CAFFF1FC4
:1059B00010B590B0242107A8FBF764F80C4C242202
:1059C0000C4907A8FBF702F84FF496400890142200
:1059D0000BA968460594FAF7F9FF07A80FC804F069
:1059E000A3FC204604F0ABFC00F05EF810B010BD44
:1059F000F0C0FF1FA8C7010070B506460D461A4C3F
:105A000094F8400800F0010058B3B4F82C0838B9F5
:105A100094F8400820F0010084F84008002070BD90
:105A20002888B4F82C1888420ADBB4F82C2804F231
:105A30002C413046FAF785FFB4F82C08288005E0A1
:105A40002A8804F22C413046FAF77BFF0020A4F8A4
:105A50002C0894F8400820F0010084F84008012048
:105A6000DDE70020DBE70000F0C0FF1F70B5044653
:105A70000D462A462146024805F0DEF870BD0000BA
:105A8000F0C0FF1F00487047E060012010B54FF4E0
:105A90008041012000F09CFE10BD10B54FF4804104
:105AA000012000F0A3FE10BD1CB500231A464FF4E0
:105AB0008041012000F0A8FE00BF0020009001906E
:105AC00000BF01208DF8000000208DF806000220A4
:105AD0008DF8050000208DF802008DF804006A465C
