:020000040001F9
:10000000F06A0120210301005103010053030100A4
:1000100055030100570301005903010000000000CF
:100020000000000000000000000000005B03010071
:100030005D030100000000005F0301006103010097
:1000400021300100413001006130010081300100A8
:1000500099300100C9300100ED300100FD30010090
:100060000D3101001D3101002D3101003D31010034
:100070004D3101005D3101006D3101007D31010024
:100080008D3101009D310100AD310100BD31010014
:10009000CD310100DD310100ED310100FD31010004
:1000A0000D3201001D3201002D3201003D320100F0
:1000B0004D3201005D320100630301006303010062
:1000C0006303010063030100630301006303010094
:1000D0006303010063030100630301006303010084
:1000E0006303010063030100630301006303010074
:1000F0006303010063030100630301006303010064
:100100006303010063030100630301006303010053
:100110006303010063030100630301006303010043
:100120006303010063030100630301006303010033
:100130006303010063030100630301006303010023
:100140006303010063030100630301006303010013
:100150006303010063030100630301006303010003
:1001600063030100630301006303010063030100F3
:1001700063030100630301006303010063030100E3
:1001800063030100630301006303010063030100D3
:1001900063030100630301006303010063030100C3
:1001A00063030100630301006303010063030100B3
:1001B00063030100630301006303010063030100A3
:1001C0006303010063030100630301006303010093
:1001D0006303010063030100630301006303010083
:1001E0006303010063030100630301006303010073
:1001F0006303010063030100630301006303010063
:100200006303010063030100630301006303010052
:100210006303010063030100630301006303010042
:100220006303010063030100630301006303010032
:100230006303010063030100630301006303010022
:100240006303010063030100630301006303010012
:100250006303010063030100630301006303010002
:1002600063030100630301006303010063030100F2
:1002700063030100630301006303010063030100E2
:1002800000F002F800F03CF80AA090E8000C82446C
:100290008344AAF10107DA4501D100F031F8AFF249
:1002A000090EBAE80F0013F0010F18BFFB1A43F054
:1002B00001031847BCB80000DCB80000103A24BFA6
:1002C00078C878C1FAD8520724BF30C830C144BFBB
:1002D00004680C60704700000023002400250026FD
:1002E000103A28BF78C1FBD8520728BF30C148BF99
:1002F0000B6070471FB50BF0C3F91FBD10B510BDE3
:1003000000F0BAF91146FFF7F5FF0AF001FF00F01F
:10031000D8F903B4FFF7F2FF03BC00F0DBF90000EB
:1003200013484FF07701016012484FF077010160E8
:1003300011484FF4885101600D484FF0760101607B
:100340000C484FF0760101600C4880470C4800478C
:10035000FEE7FEE7FEE7FEE7FEE7FEE7FEE7FEE775
:10036000FEE7FEE707480849084A094B70470000C6
:10037000040805400C0805400008054051790100BB
:1003800081020100F0620120F06A0120F066012084
:10039000F066012053EA020C00F069802DE9F04B71
:1003A0004FF00006002B1FBFB3FA83F503FA05F4E4
:1003B00024FA05F65E4012BF1643B2FA82F502FA3D
:1003C00005F4C5F120051EBF22FA05FC44EA0C0421
:1003D000203556EA044C4FEA144418BF641C4FF011
:1003E00000084FF00009904271EB030C39D300294B
:1003F00019BFB1FA81F701FA07F6B0FA80F700FAEF
:1004000007F6C7F120071EBF20FA07FC46EA0C06D4
:100410002037B6FBF4FCA7EB0507103F07F01F0BD6
:10042000CBF120060CFA0BFB2CFA06F644BFB346C0
:100430000026202FA4BF5E464FF0000B5BEA060C9F
:1004400008BF4FF0010B19EB0B09ABFB027C48EB2B
:100450000608C01B06FB02CC0BFB03CC71EB0C01A6
:10046000C1E70B46024641464846BDE8F08B13B54E
:100470004FF000004FF00001AFF30080BDE81C40DA
:10048000704740EA010310B59B070FD1042A0DD332
:1004900010C808C9121F9C42F8D020BA19BA884265
:1004A00001D9012010BD4FF0FF3010BD1AB1D307A4
:1004B00003D0521C07E0002010BD10F8013B11F8DA
:1004C000014B1B1B07D110F8013B11F8014B1B1B03
:1004D00001D1921EF1D1184610BD032A40F230809E
:1004E00010F0030C00F0158011F8013BBCF1020F75
:1004F000624498BF11F801CB00F8013B38BF11F8F6
:10050000013BA2F1040298BF00F801CB38BF00F80C
:10051000013B11F0030300F02580083AC0F0088089
:1005200051F8043B083A51F804CBA0E80810F5E76D
:10053000121D5CBF51F8043B40F8043BAFF3008050
:10054000D20724BF11F8013B11F801CB48BF11F8C5
:10055000012B24BF00F8013B00F801CB48BF00F895
:10056000012B704710B5203AC0F00B80B1E818504D
:10057000203AA0E81850B1E81850A0E81850BFF48D
:10058000F5AF5FEA027C24BFB1E81850A0E818502C
:1005900044BF18C918C0BDE810405FEA827C24BF80
:1005A00051F8043B40F8043B08BF7047D20728BF0E
:1005B00031F8023B48BF11F8012B28BF20F8023B5D
:1005C00048BF00F8012B704702F0FF0343EA032203
:1005D00042EA024200F002B84FF000020429C0F0E3
:1005E000128010F0030C00F01B80CCF1040CBCF165
:1005F000020F18BF00F8012BA8BF20F8022BA1EBB7
:100600000C0100F00DB85FEAC17C24BF00F8012B9B
:1006100000F8012B48BF00F8012B70474FF0000293
:1006200000B5134694469646203922BFA0E80C50E8
:10063000A0E80C50B1F12001BFF4F7AF090728BFC3
:10064000A0E80C5048BF0CC05DF804EB890028BF3F
:1006500040F8042B08BF704748BF20F8022B11F068
:10066000804F18BF00F8012B7047704770477047E4
:10067000004870478C6201207546FFF7F9FFAE46CF
:1006800005006946534620F00700854618B020B59E
:10069000FFF768FEBDE820404FF000064FF000076E
:1006A0004FF000084FF0000B21F00701AC46ACE81A
:1006B000C009ACE8C009ACE8C009ACE8C0098D4687
:1006C000704710B50446AFF300802046BDE81040E7
:1006D000FFF71FBE01491820ABBEFEE7260002004F
:1006E000704700002DE9F04102460B460420002A25
:1006F0004CD0002B4AD01F79012F47DC244FBA423F
:100700001AD11F68C7F310011F7957B997891FFACB
:1007100081FC47EA0C079781D78947EA1147D781BF
:100720001CE0178A1FFA81FC47EA0C071782578AD8
:1007300047EA1147578211E01F88C7F308011F7964
:1007400037B997891FFA81FC47EA0C07978105E0C2
:10075000178A1FFA81FC47EA0C071782002400253C
:1007600002F120060FE001F001074FB12F4605F11D
:10077000010C0CF0FF05D3F8088018F80770375506
:100780004908671CFCB20029EDD10020BDE8F081CA
:100790000000044030B5024604209AB10A4DAA4236
:1007A00002D1C1F3100101E0C1F308018BB20C0CBE
:1007B000958A1D439582044DAA4202D1D58A2543CC
:1007C000D582002030BD0000000004400246042015
:1007D00022B1538861F30A23538000207047000040
:1007E0002DE9F04104460D46042004F1500C3CB3C1
:1007F00032B32BB3DFF84C80444502D1C5F310016E
:1008000001E0C5F308010026002715E001F001080A
:10081000B8F1000F0BD03CF8168022F8178007F1D2
:10082000010808F0FF07A3F1010808F0FF034908D9
:1008300006F1010808F0FF0609B1002BE6D10020FF
:10084000BDE8F0810000044010B502460420FAB172
:10085000F1B1002313700C78538864F305135380AF
:100860004C78538864F3C71353808C78538864F3AF
:1008700086135380CC78538864F3010353800C793A
:10088000938864F382039380002382F8473000202A
:1008900010BD00002DE9F84F04460E461546984657
:1008A0004FF0040A4FF000090027BB4600200090DB
:1008B000002C47D0002E45D0002D43D02348844241
:1008C00009D1112D02D34FF011090BE0E7893F0444
:1008D000A089074306E0092D02D34FF0090901E082
:1008E0001A48878901202070194800680A21B0FB46
:1008F000F1F04FF47A71B0FBF1F000FB08FB00203F
:1009000000904FF0090A19E01248006898B1B9F157
:10091000000F05D04A463146204600F01DF805E09C
:100920002B46324639462046FFF75AFF0020094938
:100930000860824605E00098401C009000985845E9
:10094000E2D300BF5046BDE8F88F0000000004402D
:100950000480FF1FC008804230B5034603F15004F5
:10096000002005E034F8105021F81050451CE8B282
:100970009042F7DB30BD000000B589B020A00068D0
:10098000019000BF00200790089000BF00BF0490B6
:100990000590069000BF00BF0290039000BF00F0DA
:1009A000F9FB0121084604F063FF00208DF81C00CC
:1009B0008DF81D008DF81E008DF81F0007A9114845
:1009C000FFF742FF01210F48FFF700FF02208DF8DB
:1009D000080002AAC021002004F03EFE0A4804904C
:1009E00000208DF8140001A8069004A90548FFF71F
:1009F00079FE05490348FFF7CDFE09B000BD0000B0
:100A00000500000000000440C000010010B50446CD
:100A1000A078C0F3800018B9A07800F00100B0B150
:100A20000B49886B8047002211460A4804F039FBC5
:100A30004FF47A7001F0FEF805F022FB00BF64204D
:100A400001F0F8F805F01CFB02F050FCF7E710BDD0
:100A5000EC80FF1F7C81FF1F10B5044605F018FBDA
:100A600005F0EEFAA07820F00400A07000202080AD
:100A7000A07820F00100A07010BD38B5044603F046
:100A80004AFEC0B200909DF80000012814D12088D1
:100A9000401C2080208814280DDD2088052190FB33
:100AA000F1F201FB120068B9042302220121684619
:100AB00005F03CFC06E005E000202080A07820F056
:100AC0000400A07038BD00002DE9F04705460E4631
:100AD000144600270021284607F03DFB80460121EF
:100AE000284607F038FB8146012C07D1B8F1010FE9
:100AF00002D0B9F1010F08D1012706E0314628469E
:100B000007F029FB012800D10127012F0BD100207C
:100B100001E000BF401C0549096842F21072B1FBB8
:100B2000F2F18142F5D8BDE8F08700000480FF1F94
:100B300010B5FFF721FF10BD10B50C4800780F214C
:100B400090FBF1F201FB120000EB4000084901EBC1
:100B500040040523032221460648FFF79BFE034875
:100B60000078401C0149087010BD00000380FF1F81
:100B7000F05D01200000044010B500F005F80446C7
:100B8000012101F0AAFB10BD0149C889704700008E
:100B900084AFFF1F10B5074CFFF7CAFF1421204692
:100BA000FFF73CFD4FF4FA6000F054F847F2305084
:100BB000606010BD84AFFF1F70B5254C01F07CFC58
:100BC00005466420B5FBF0F100FB115008B9FFF7B2
:100BD000B3FF207800F00100C8B9B5F5FA6F15D958
:100BE00041F28830854211D200F05EF8E081FFF7D3
:100BF000C3FF207406231822012104F1100005F020
:100C000095FB206820F00100401C206070BDA068AA
:100C1000A8421AD2A068281A6168884215D3A56034
:100C200000F042F80646E089C00000EB46060A20C4
:100C3000B6FBF0F6E681FFF79FFF2074062318222B
:100C4000012104F1100005F071FB00BFDEE7000098
:100C500084AFFF1F014988817047000084AFFF1FE8
:100C600070B588B005460026002409E004EB440076
:100C70000C4901EB400030F815002DF81400641CFD
:100C80000F2CF3D30F21684600F036F90B2101A891
:100C900005F0F3F806460B20B6FBF0F080B208B082
:100CA00070BD0000F05D01202DE9F0412DED048BB9
:100CB000104F0020FFF7D4FF05460120FFF7D0FFBB
:100CC0000646B98901FB06F00AF0C5FB41EC190B99
:100CD0009FED090B53EC102B0AF0D4FB41EC180BE1
:100CE0000AF08CFB0446B4FBF5F4A0B2BDEC048B17
:100CF000BDE8F08184AFFF1F000000000000044049
:100D00004A8802444A8070471CB500231A464FF4B3
:100D10000041012004F02EFD00BF00200090019052
:100D200000BF01208DF8000000208DF80600022091
:100D30008DF8050000208DF802008DF804006A4649
:100D40004FF40041012004F087FC1CBD10B54FF4A6
:100D50000041012004F0F2FC10BD10B54FF4004139
:100D6000012004F0F9FC10BD10B54FF40041012042
:100D700004F02CFD10BD000010B586B00446084BF1
:100D80000FCBCDE90423CDE9020106480121CDE9CD
:100D9000001002A80FC800F010F806B010BD000047
:100DA0001CB701006481FF1F0FB49DF8000000F024
:100DB000010080F0010004B070477FB5DDE9085400
:100DC00018212046FFF72AFC0098A0600199E160F5
:100DD00002992161039961610DB1012000E00020B9
:100DE000217860F341012170204600F03CF8A068B2
:100DF00008B1A0688047206908B1206980477FBD9D
:100E00007CB504460D46164635B92078C0F340003F
:100E100010B9E068804719E0012D17D1D4E9040129
:100E2000CDE9000194E80F00FFF7BEFF012806D1CD
:100E30002146304600F015F80020A08003E021464E
:100E40003046FFF75DFF204600F001F87CBD10B58D
:100E50000446207820F00100401C2070E0688047A4
:100E600010BD4880704710B50446207820F001007E
:100E700020702069804710BD1CB50446D4E90401E8
:100E8000CDE9000194E80F00FFF78EFF012800D1A3
:100E90001CBDA088618888420CDC2078C0F340002B
:100EA00010B16069804701E0E0688047A088401C7D
:100EB000A08004E02046FFF7D6FF2069804700BFEE
:100EC000E6E7000010B504F0E3FC074805F088FBF6
:100ED000064806F0B9FA0648FFF74EFF054804F049
:100EE000A5F809F07BFC10BDEC80FF1F2881FF1FD7
:100EF0006481FF1F7C81FF1F70B50246012319E04A
:100F0000012012E032F81060451C32F81550AE4254
:100F100009DA32F81040451C32F8155022F810500A
:100F2000451C22F81540451CA8B2CD1A8542E9DAC5
:100F30005D1CABB24D1E9D42E2DA70BD014631B17F
:100F400001290DD0022914D0032924D11AE0184A0E
:100F5000127802F0010282F0010282F0010024E026
:100F6000134A1278C2F3C00282F0010282F001003B
:100F70001BE00F4A1278C2F3401282F0010282F0A5
:100F8000010012E00A4A1278C2F3801282F00102D4
:100F900082F0010009E0064A521D127802F00102B7
:100FA00082F0010282F0010000BF00BF7047000024
:100FB0003C40054038B504460020009000252A48F2
:100FC00000884AF2015108432849A1F8FE0344BBB6
:100FD00026482630007800F0070008B9012536E0E1
:100FE00023480068C0F3C01088B120482A30007838
:100FF00000F0010008B9012529E01C4836300078CE
:1010000020F00100401C194981F836001FE0174804
:101010003630007820F00100401C144981F8360079
:1010200015E012483630007820F001000F4981F8B1
:10103000360000BF0020FFF781FF03460098401CE8
:1010400000900098B0F5805F01D2012BF2D10648E4
:1010500000884FF6FE71084040F425400349A1F88E
:10106000FE03284638BD0000FE4305400040054011
:101070000041054038B504460020009000251F4877
:1010800000884AF2015108431D49A1F8FE0394B9B2
:101090001B482630007800F00700052801D1012503
:1010A0001FE017482A30007820F00100401C144946
:1010B00081F82A0015E012482A30007820F001005B
:1010C0000F4981F82A0000BF0220FFF737FF0346CF
:1010D0000098401C00900098B0F5805F01D2012B71
:1010E000F2D1064800884FF6FE71084040F42540D2
:1010F0000349A1F8FE03284638BD0000FE43054021
:101100000040054000283ED01F4909884AF201529C
:1011100011431D4A11800178491E1C4AD2F8002152
:1011200061F31F721A490A600179491E174AD2F801
:10113000002161F31B6216490A60017A491E134AB5
:10114000D2F8002161F3175211490A608189491EC2
:101150000E4AD2F8002161F310220D490A60017C89
:10116000491E0A4AD2F8002161F304020749C1F876
:101170000021B1F8FE134FF6FE72114041F42541F3
:10118000024AA2F8FE137047FE43054000400540A6
:10119000004105400B4909884AF2025211430A4AAC
:1011A000A2F8FE131146098A60F303011182054972
:1011B00009884FF6FD72114041F42541024AA2F818
:1011C000FE137047FE430540004005400D49098865
:1011D0004AF2015211430C4AA2F8FE131146D1F80B
:1011E000001160F3C711C2F800111146B1F8FE13E7
:1011F0004FF6FE72114041F42541034AA2F8FE1356
:1012000070470000FE4305400040054010B586B021
:101210000446002005902E48006804902C48406841
:1012200003902B48806802902948C06801902948A3
:10123000007800F00700052801D0052C0DD12648C4
:1012400023490860C01248608860C86000BF0598E4
:10125000401C05900598B028F9D3204800884AF230
:10126000015108431B492639A1F8FE03084690F8AE
:10127000260064F3020081F826000846B0F8FE0359
:101280004FF6FE71084040F4254012492639A1F876
:10129000FE030020059000BF0598401C05900598AE
:1012A000B028F9D30A490498086003984860029866
:1012B00088600198C8600020059000BF0598401C18
:1012C00005900598B028F9D306F0E0FA06B010BDF5
:1012D0000080044026400540EEFAFFFFFE43054033
:1012E00085B0002104913449096803913249496865
:1012F00002913149896801912F49C96800910028FC
:1013000058D02E49097801F0070105290DD12C4943
:10131000294A1160C91251609160D16000BF0499DF
:10132000491C04910499B029F9D3264909884AF245
:1013300001521143234A11808178C27841EA021197
:10134000027941EA0221427941EA0231827941EA95
:101350000241427841EA0251027841EA026141EADF
:101360000271164A263A1162164909884FF6FE7232
:10137000114041F42541114A263AA2F8FE130021FA
:10138000049100BF0499491C04910499B029F9D330
:10139000094A03991160029951600199916000997D
:1013A000D1600021049100BF0499491C0491049963
:1013B000B029F9D305B070470080044026400540AD
:1013C000EEFAFFFFFE43054010B50821034807F081
:1013D000ADFA0021014807F01DFB10BD0058014087
:1013E00010B548F2E44007F03BFD10BD10B50121F7
:1013F000014807F00FFB10BD0058014010B5002157
:10140000014807F001FC10BD0058014010B508214B
:10141000034807F08BFA0021014807F0FBFA10BDE2
:101420000054014010B540F22A2007F0DFFC10BD47
:1014300010B50121014807F0EDFA10BD005401403C
:101440002DE9F04104460D4616460027A582A18AE3
:10145000002009F087FF2061266003F060FDA06096
:101460001420A081206918B1A06808B1012000E013
:10147000002007463846BDE8F08170B5044601F00B
:101480001BF80546A069A84207D2A069281A4EF6A3
:101490006021884201D9002070BD0120FCE72DE9C0
:1014A000F04106460F4614460025F821002009F0B9
:1014B00059FF05461FB115B1E62C00DC0CB9BDE89B
:1014C000F0812246394605F11200FFF706F82C821A
:1014D0002946B06803F000FD00BFF0E710B501F049
:1014E00023FF06F043F8002009F032FF00F092FBE2
:1014F000114801F014FC114800F096FD01F0FAFAD1
:1015000006F08AF808F09CFD01F0E4FA044608F0C1
:101510001DFE01F0D9FA044608F010FE01F0C4FAED
:10152000044608F003FE01F0B9FAC4B2204608F000
:10153000F5FD05F017FF10BDE05D0120D85F01202B
:1015400073B586B00546BDF81C6000240022214614
:10155000641C01A84254A0222146641C4254032268
:101560002146641C42542146641C4554204407997A
:101570000160241D214601A801F001F908B070BDE9
:1015800070B586B005460E46002400222146641C34
:1015900001A8425405222146641C425402222146DD
:1015A000641C42545A222146641C4254062221469D
:1015B000641C425430222146641C42540EB1012264
:1015C00000E000222046611CCCB201A90A5420464A
:1015D000611CCCB201A90D54AA222046611CCCB2D8
:1015E00001A90A54214601A801F0C9F806B070BD4E
:1015F00010B500BF00F15C0303EB81131B6823F0FF
:1016000003031478234300F15C0404EB811423608A
:1016100000BF00BF00F15C0303EB81131B6823F0E4
:101620000C03547843EA840400F15C0303EB811358
:101630001C6000BF00BF00F15C0303EB81131B685B
:1016400023F01003947843EA041400F15C0303EBE5
:1016500081131C6000BF00BF00F15C0303EB81132A
:101660001B6823F02003D47843EA441400F15C03A0
:1016700003EB81131C6000BF00BF00F15C0303EBB0
:1016800081131B6823F04003147943EA841400F1AA
:101690005C0303EB81131C6000BF00BF00F15C031F
:1016A00003EB81131B6823F08003547943EAC414CD
:1016B00000F15C0303EB81131C6000BF00BF00F16D
:1016C0005C0303EB81131B6823F44073947943EAB2
:1016D000042400F15C0303EB81131C6000BF00BF16
:1016E00000F15C0303EB81131B6823F48063D4795E
:1016F00043EA842400F15C0303EB81131C6000BF08
:1017000000BF00F15C0303EB81131B6823F400634B
:10171000147A43EAC42400F15C0303EB81131C60D8
:1017200000BF00BF00F15C0303EB81131B6823F4CF
:101730008053547A43EA043400F15C0303EB8113D1
:101740001C6000BF10BD0000F0B503461546002226
:10175000002601205C4F3870D86901278F4020EAAD
:101760000706002E7DD0D86900F00100D8B1D1B1B4
:10177000986C040C986E0A27B7EB104F13D3986E31
:10178000B4EB104F0FD909E0501C82B2B2F5A04F54
:1017900004D900204C4F38700920F0BDD86900F002
:1017A00001000028F0D1D86900F00200022820D101
:1017B00001291ED0D3F88800040CD3F8A8000A270A
:1017C000B7EB104F15D3D3F8A800B4EB104F10D9D6
:1017D000002209E0501C82B2B2F5A04F04D90020CB
:1017E000394F38700920D8E7D86900F00200002886
:1017F000F0D1D86900F00400042820D102291ED0BD
:101800000022D3F8C800040CD3F8E8000A27B7EB8D
:10181000104F14D3D3F8E800B4EB104F0FD909E000
:10182000501C82B2B2F5A04F04D90020264F387068
:101830000920B2E7D86900F004000028F0D1D86987
:1018400000F00800082822D1032920D00022D3F874
:101850000801040CD3F828010A27B7EB104F16D360
:1018600000E014E0D3F82801B4EB104F0FD909E0E1
:10187000501C82B2B2F5A04F04D90020124F38702C
:1018800009208AE7D86900F008000028F0D14DB19E
:10189000012D12D1D86901278F4007F00F07384377
:1018A000D8610AE0D86901278F404FF00F0C2CEA6D
:1018B000070C00EA0C00D86100BF00BF0020024FF7
:1018C000387000BF69E700000880FF1F70B503464D
:1018D000002039B1012905D0022903D0032901D004
:1018E000042026E032B1012A0AD0022A10D0032AAD
:1018F0001CD113E05C6901258D402C435C6117E02D
:101900005C6901F110050126AE4034435C610FE0D3
:101910009C6901258D402C439C6109E09C6901F183
:1019200010050126AE4034439C6101E0042000BF55
:1019300000BF70BD026861F300020260704770B5BD
:101940000346002039B1012905D0022903D003291B
:1019500001D0042026E032B1012A0AD0022A10D098
:10196000032A1CD113E0DC6801258D40AC43DC6008
:1019700017E0DC6801F110050126AE40B443DC60DD
:101980000FE01C6901258D40AC431C6109E01C6916
:1019900001F110050126AE40B4431C6101E00420B2
:1019A00000BF00BF70BD000070B505460C4616466E
:1019B00001212846FFF7BEFF05F15C0000EB841013
:1019C000006820F4805105F15C0000EB8410016098
:1019D00005F1400000EB84107168016005F14400DE
:1019E00000EB8410B168016000BF05F1480000EB16
:1019F000841000686FF309003188084305F148013D
:101A000001EB8411086000BF00BF718805F1480038
:101A100000EB8410006861F31F4005F1480101EB01
:101A20008411086000BF00BF05F14C0000EB84107A
:101A300000686FF30900B189084305F14C0101EB1F
:101A40008411086000BF00BF05F14C0000EB84105A
:101A500000682B490840F18940EA014105F14C003A
:101A600000EB8410016000BF00BF05F1500000EBE7
:101A7000841000686FF313007169084305F1500189
:101A800001EB8411086000BF00BF318B05F15000ED
:101A900000EB8410006861F31F5005F1500101EB69
:101AA0008411086000BF00BF05F1540000EB8410F2
:101AB00000686FF31300F169084305F1540101EB6D
:101AC0008411086000BF00BF318C05F1540000EBA9
:101AD0008410006861F31F5005F1540101EB84117B
:101AE000086000BF05F1580000EB84103169016007
:101AF00006F1240221462846FFF77AFD70BD00005A
:101B0000FFFF00FC30B503460024002003F144052C
:101B100005EB81152A600BE0651CACB2B4F5805F63
:101B200001D9092004E003F1440505EB81152A6081
:101B300003F1640505EB81152D689542ECD130BDAC
:101B400030B503460024002003F1400505EB811564
:101B50002A600BE0651CACB2B4F5805F01D90920A6
:101B600004E003F1400505EB81152A6003F16005EF
:101B700005EB81152D689542ECD130BD70B503465B
:101B80000024002000BF03F1480505EB81152D68F6
:101B900062F31F4503F1480606EB8116356000BF6E
:101BA00014E0651CACB2B4F5805F01D909200DE0EA
:101BB00000BF03F1480505EB81152D6862F31F4551
:101BC00003F1480606EB8116356000BF03F1680596
:101BD00005EB81152D68B2EB154FE2D170BD000009
:101BE00010B5094B984205D1084C04EB8103C3F8AA
:101BF000142807E0064B984204D1044C04EB8103FF
:101C0000C3F8242810BD000000300540000001404A
:101C100000340540064800684FF47A71B0FBF1F0DB
:101C20004FF0E0214861002088610520086170477D
:101C30000480FF1FF0B5034600224FF0E0267569CF
:101C40000F4E36684FF47A77B6FBF7F606FB03F4CF
:101C50004FF0E026B16910E04FF0E026B06988420D
:101C60000BD0884202D20E1A324402E02E1A0E44E1
:101C700032440146A24200D300E0EDE700BFF0BDD0
:101C80000480FF1F70B58AB00446202102A8FEF729
:101C9000C5FC2078C0F3400008B90AB070BD2078B8
:101CA000C0F3801010B12648808901E02548808962
:101CB0000546606AA8422BD3002610E004F12803F1
:101CC0009A192378C3F380102B46216900F09EFAFD
:101CD000206928442061606A401B60622E44606A6B
:101CE000A842EBD2606A28B104F128008119626A27
:101CF000FEF7F3FB1E20019001AA02A9FF2003F0CA
:101D000081FF012804D1BDF8041002A86268904741
:101D10002078C0F3800080B12278C2F3801004F1F3
:101D20002802636A216900F071FA20692844206161
:101D300000206062204605F0B3FB00BFADE7000065
:101D4000D85F0120E05D0120014908607047000074
:101D5000140401400349096860F30001014A11605D
:101D6000704700000C040140012801D0012200E06E
:101D700000220349096862F30001014A11607047BB
:101D800004040140014604480068084008B10120ED
:101D900070470020FCE70000100401400448006880
:101DA000012804D143F210200149086008607047FF
:101DB0000004014070B50346002400263F20FFF7D1
:101DC000C3FF18480068C0F300451648006820F4B7
:101DD0008030144908600120FFF7BCFF042000F0A8
:101DE00025F81148186005E0601C84B2B4F5805FE6
:101DF00000D909260B4808300068C0F300200028ED
:101E0000F2D01020FFF7A0FF002000F00FF8002014
:101E1000FFF7A0FF0348006865F310400149086020
:101E2000304670BD080401407856341203490968F1
:101E300060F30611014A1160704700000C04014074
:101E40000349096860F30711014A116070470000F7
:101E500008040140F0B503460C46002600253F204B
:101E6000FFF772FF19480068C0F300471748006881
:101E700020F48030154908600120FFF76BFF012036
:101E8000FFF7D4FF1C6005E0681C85B2B5F5805FE4
:101E900000D909260D4808300068C0F3002000284A
:101EA000F2D01868A04200D001261020FFF74CFFA6
:101EB0000020FFF7BBFF0020FFF74CFF034800683E
:101EC00067F31040014908603046F0BD0804014046
:101ED00040F223100249086043F210200860704766
:101EE0000004014010B5024610780A4B042414FB8C
:101EF00000315378086863F3C71008609378086866
:101F000063F305100860D378086863F30100086084
:101F1000002010BD1010054001460448806D0122CC
:101F20008A401043014A9065002070470010054028
:101F30000146064A526D01238B401A400AB901221C
:101F400000E0002282F00100704700000010054010
:101F500001460020A1F50542153A5AB1A2F5D24238
:101F6000FF3A22B1022A08D0032A0CD108E04FF42C
:101F700000600AE04FF4805007E04FF4005004E0A6
:101F80004FF4804001E0002000BF00BF70470146D1
:101F9000A1F50542153A4AB1A2F5D242FF3A22B163
:101FA000022A04D0032A06D102E000BF00BF00BF0E
:101FB0004FF4807001E0002000BF00BF70472DE9A2
:101FC000F04705468846144600272868404504D84F
:101FD00008EB04006968884202D30020BDE8F0875E
:101FE000A88908B90020F9E72146002009F0BAF9CC
:101FF00007460FB90020F1E74FF0000923463A46A3
:102000004146284600F034F8A04206D1002602E0FE
:10201000B85D8144761CA642FAD33946002009F007
:1020200085F94846DAE7000010B504460F4808F085
:10203000EBFA002020606060A060E0600B48B0F820
:102040001E01E081E089FFF7A2FFA081E089FFF790
:102050007FFFA0604FF07040206060604FF48062AE
:10206000D4E9010102FB0100606010BDA85E0120FF
:102070002DE9FE4304460D4617461E464FF0000864
:102080002068A84202D86068A84202D20020BDE8B9
:10209000FE83A08908B90020F9E711E0A089216832
:1020A000691ACDE9007102900E480FC808F0DCFAF9
:1020B000A089361AA0890544A0890744A0898044D4
:1020C000A089B6FBF0F00028E8D146B1B0B2CDE966
:1020D0000075029003480FC808F0C6FAB0444046A5
:1020E000D5E70000A85E01202DE9FF4F85B0054629
:1020F0000E469B46AC894FF00009DA46BAF1000F54
:1021000000D01CB9002009B0BDE8F08F2868B042AB
:102110005DD806EB0A006968884258D22146002043
:1021200009F020F98146B9F1000F01D10020EAE75A
:102130002868361AB6FBF4F808FB04F8B6FBF4F08E
:1021400004FB106080B204900498201A80B20390BF
:1021500035E0286800EB080123464A462846FFF789
:1021600087FF002706E00798C15D0498384409F806
:1021700000107F1C0398504501D2039800E05046A0
:10218000B842F0D8AAEB070A0798384407901148DC
:10219000CDF800800FC808F00CFA0E48CDE9009881
:1021A00002940FC808F0C5FAA044BAF1000F00D19C
:1021B00006E0002004900498201A80B20390C8E73B
:1021C00000BF4946002009F0B1F858469BE70020BF
:1021D00099E70000A85E01202DE9F04105460E4672
:1021E000174635B13A4631460648FFF7E8FE044641
:1021F00005E03A463146044800F07CFD044620469E
:10220000BDE8F081D85F0120E05D01202DE9F041BB
:1022100004460D4616461F4634B13B463246294613
:102220000548FFF761FF05E03B4632462946034873
:1022300000F09AFDBDE8F081D85F0120E05D01204B
:102240001CB500231A464FF40041012003F092FA16
:1022500000BF00200090019000BF8DF800008DF8B5
:1022600004006A464FF40041012003F0F5F9002311
:102270001A464FF48041012003F07CFA01208DF8CA
:10228000000000208DF8060002208DF805000020D7
:102290008DF802008DF804006A464FF48041012059
:1022A00003F0DAF91CBD10B54FF40041012003F032
:1022B000C3F90446012C00D110BD0020FCE710B585
:1022C0004FF48041012003F039FA10BD10B54FF4EE
:1022D0008041012003F040FA10BD0246642001EB6A
:1022E00081239B00934200DC69E040F678734B4306
:1022F000934201DC5A2062E040F614734B43934250
:1023000001DC50205BE040F6C4634B43934201DCA8
:10231000462054E040F674634B43934201DC3C207A
:102320004DE040F656634B43934201DC322046E0D9
:1023300040F624634B43934201DC28203FE040F603
:1023400006634B43934201DC1E2038E040F6B6534F
:102350004B43934201DC142031E040F698534B4349
:10236000934201DC0F202AE040F6E4434B439342C2
:1023700001DC0A2023E040F6B2434B43934201DCE8
:1023800005201CE040F64E434B43934201DC042001
:1023900015E040F61C434B43934201DC03200EE062
:1023A00040F686334B43934201DC022007E040F6BF
:1023B00054334B43934201DC012000E0002070477E
:1023C000024601231048104448B1B0F5806F0AD08E
:1023D000B0F5804F0BD0B0F5884F10D10BE009B1AC
:1023E000002008700DE009B10120087009E009B172
:1023F0000220087005E009B10320087001E0002305
:1024000000BF00BF012070470030FEBF00207047B2
:1024100070B5002402F06CFA0546FFF72EF808B9F3
:10242000022000E00020044308F048FC054604F0C8
:102430003DF908B9042000E000200443204670BDA7
:1024400000207047002070470020704710B50246FA
:10245000002002E013781844521C0B1EA1F1010168
:10246000F8D110BD014642F229400844407842F2BA
:1024700029420A44927840EA0220704701207047BE
:1024800070B506460C4604B970BDA078617840EA84
:102490000125A5F57E40083828B90822211D3046BF
:1024A00001F0DFF805E00822211D304601F029FF88
:1024B00000BF00BF00BFE7E705488088044989687E
:1024C00001EB4102C2EBC11100EBC10070470000FB
:1024D00068B0FF1F014880687047000068B0FF1FA8
:1024E00010B50821034806F021FA0021014806F042
:1024F00091FA10BD0050014010B548F2886006F016
:102500003BFC10BD10B50121014806F083FA10BD57
:102510000050014010B50021014806F075FB10BDC8
:10252000005001402DE9F05F04460E464FF0000ACE
:10253000032E01DABDE8F09F02F0DAF98346324655
:102540002146FEF7ACFF94F8008094F80190F01E4D
:1025500087B20325062F1BDBA81C205C302817D16F
:10256000281D205C802813DB281D205CFF2806D155
:10257000EA1CA15C2A1DA05CFFF702F812E0EA1C2D
:10258000A15C2A1DA25C803AD0B2FEF7F9FF09E0F7
:10259000052F07DBA81C205CB12803D1314620465B
:1025A00000F0EDF800BFC5E72DE9F84304460D46FD
:1025B00000200090022D01DABDE8F88394F8008035
:1025C0006678032E0BD1072D00DAF5E7D4F80370F7
:1025D00000BFB9B2A078FEF7B3FF00BF0AE0042E37
:1025E00008D107F0E7FD00900423A02201216846EE
:1025F00003F09CFE00BFDFE730B589B0002408215E
:10260000FE2004F014FE0546287800F00102214661
:10261000641C01A8425407F0C1FD01462246641C17
:1026200001A88154A88A0121FFF757FEC2B22146B2
:10263000641C01A842540623E022214603F076FEE2
:1026400009B030BD10B588B0002407F0BFFD0DEB18
:10265000040102680A6042684A60806888600C343D
:1026600007F0DCFD0DEB040102680A6080888880B9
:10267000A41D07F0AFFD2246641C0DF8020007F010
:10268000AFFD2246641C0DF802000623F12221460C
:10269000684603F04BFE08B010BD00002DE9F0477E
:1026A00004460D46072D01DABDE8F08794F8008056
:1026B0006678D4F80370032E17D1A078012802D0D1
:1026C000022810D10AE06420B7FBF0F01FFA80F96D
:1026D0004A460121064802F0E4FC05E001210448D5
:1026E00002F0D5FC00E000BF00BF00BFDCE7000047
:1026F0007C81FF1F08B501200090042319220121CD
:10270000684603F013FE08BD30B5032900DA30BD7A
:1027100003784278032A09D18478022C06D1044C2C
:10272000A47824F00104641C014DAC7000BFEEE7F6
:102730000080FF1F2DE9F04104460D46052D01DA0A
:10274000BDE8F08127786678052E03D1207902490B
:1027500002F055FA00BFF3E7EC80FF1F2DE9F041CE
:1027600004460D46032D01DABDE8F081277866782E
:10277000062E02D1A07808F0CBF800BFF4E7F8B538
:1027800005460E460821FE2004F051FD044654B1D2
:10279000207800F0010030B12B460822211D0120D5
:1027A000009601F07DFDF8BD004870476C62012085
:1027B0000FB410B5FFF7F8FF044620212046FDF7BF
:1027C0002DFF029860600599216106996161039966
:1027D000A1600499E160606808B16068804710BC3E
:1027E0005DF814FB00B5FFF7DFFF0146002000BDD8
:1027F00000487047FCAFFF1F10B58AB0FFF7F8FF25
:10280000044628212046FDF709FF1C22134903A88E
:10281000FDF7A8FE07A807C88DE8070003A80FC8A2
:10282000FFF7C6FFFFF7C0FF206064224FF400717E
:1028300004F1080003F01BFF616860F300016160B0
:10284000282104F1080004F028F84FF47A720121DD
:10285000204600F0B7F80AB010BD000030B9010002
:102860002DE9F843FFF7C4FF054605F10804A08AE7
:10287000E18A401A80B200904FF00008FFF71CFE7A
:1028800006460027287900F0010008B9BDE8F88362
:102890006068B04213D26068301A216888420ED353
:1028A0006660FFF79FFF50B9204603F0F8FF074628
:1028B0002FB1398A2868C26807F112009047E38A6D
:1028C0002169C81829688A686946904701280AD191
:1028D000E28A2169881801231322BDF8001003F051
:1028E00025FD0020E08200BFD0E7000000487047CF
:1028F00004B0FF1F10B590B0242107A8FDF78EFE8D
:102900000B4C24220B4907A8FDF72CFE4FF4E130B5
:10291000089014220BA968460594FDF723FE07A82A
:102920000FC806F00FFE204606F017FE10B010BDCF
:10293000A8B0FF1FA0B8010070B506460D461A4C9E
:1029400094F8400800F0010058B3B4F82C0838B9E6
:1029500094F8400820F0010084F84008002070BD81
:102960002888B4F82C1888420ADBB4F82C2804F222
:102970002C413046FDF7B1FDB4F82C08288005E065
:102980002A8804F22C413046FDF7A7FD0020A4F868
:102990002C0894F8400820F0010084F84008012039
:1029A000DDE70020DBE70000A8B0FF1F70B504469C
:1029B0000D462A462146024807F028FA70BD00005D
:1029C000A8B0FF1F2DE9F04106460F4690460024AF
:1029D000F821002008F0C6FC04460CB9BDE8F081DF
:1029E000F8212046FDF71AFE00202082AA21228A23
:1029F000501C208204F112008154BE21228A501CF6
:102A0000208204F1120081540021228A501C20826D
:102A100004F1120081540221401C03F005FE85B22E
:102A2000290A228A501C208204F112008154228A31
:102A3000501C208204F112008554E421228A501C8B
:102A4000208204F1120081541B21228A501C208212
:102A500004F1120081541121228A501C208204F1B9
:102A600012008154EE21228A501C208204F11200AF
:102A70008154217DE07C41EA002020606760C4F839
:102A80000C802146306903F04CFE00BFA6E7000031
:102A90000148007B704700002880FF1F01488088A4
:102AA000704700002880FF1F0148807870470000B1
:102AB0002880FF1F004870472E80FF1F0148408973
:102AC000704700002880FF1F0148407870470000D1
:102AD0002880FF1F01480078704700002880FF1FF2
:102AE000004870473780FF1F0148407B7047000057
:102AF0002880FF1F00B589B01648006800F5004027
:102B0000144A92898118202301AA124800F01FF963
:102B10001C2101A8FFF79AFC0899884213D001A84C
:102B200000F05CF81C2101A8FFF790FC0890094810
:102B3000006800F50040074A92898118202301AA05
:102B4000044800F011F91C2201A90348FDF70AFD11
:102B500009B000BDE05D01202880FF1F10B50446CC
:102B6000FF2C05D010480078A04201D0002010BDF5
:102B7000FF2905D00C484078A04201D00020F6E79C
:102B8000FF2A05D008488078A04201D00020EEE757
:102B90004FF6FF70834205D003488088A04201D0E1
:102BA0000020E4E70120E2E72880FF1F10B51C2188
:102BB0000848FFF74BFC0749C8610748006800F563
:102BC0000040054A928981182023024A024800F0F9
:102BD000CBF810BD2880FF1FE05D012010B5044632
:102BE00004B910BD20212046FDF718FDFF20A0707C
:102BF0003020207001206070FF20A0704FF6FF7021
:102C0000A080C020A071A821E171062121722A2193
:102C1000617240F6A1706081012020730220607310
:102C20000F20A073FF20E073FF2121746174A17451
:102C3000E17421756175A17500BFD2E7022801DA40
:102C400001490873704700002880FF1F01498880F0
:102C5000704700002880FF1F0149887070470000FE
:102C60002880FF1F28B1042903DB024A0368C2F849
:102C7000063070472880FF1F0149488170470000D7
:102C80002880FF1F01494870704700002880FF1FFF
:102C900001490870704700002880FF1F002801DDEF
:102CA000102801DBFF2801D101498873704700001B
:102CB0002880FF1F0CB509A30CCBCDE9002338B148
:102CC000082905DB074A036813604368536004E082
:102CD000044A009B1360019B53600CBDFFFFFFFF84
:102CE000FFFFFFFF3780FF1F4FF4007070474FF466
:102CF0000050704730B503461868884203D88818DA
:102D00005D68A84201D3002030BD002403E00878AC
:102D10000444521E491C002AF9D12046F4E700B5AC
:102D200002460020106050609060D060FFF7DFFF27
:102D30009081FFF7D9FF90600020106050604FF441
:102D40008063D2E9010103FB0100506000BD30B592
:102D500005461446002203E00878A054491C521C82
:102D60009A42F9D3184630BD2DE9FF4F83B006468D
:102D70000F469B46B5894FF00009DA46BAF1000FBD
:102D800003D1002007B0BDE8F08F3068B84270D89A
:102D900007EB0A00716888426BD22946002008F0D0
:102DA000E1FA8146B9F1000F01D10020EAE7FFF70F
:102DB0008FF80120FEF7D8FF00BF4FF48070FEF7B8
:102DC000E1FF0128F9D130683F1AB7FBF5F808FB9D
:102DD00005F8B7FBF5F005FB107080B20290029881
:102DE000281A80B2019039E0306800EB08012B46C8
:102DF0004A463046FFF7ABFF002406E00598015D28
:102E00000298204409F80010641C0198504501D232
:102E1000019800E05046A042F0D8AAEB040A0598B9
:102E200020440590316801EB0800FEF7C3FF002441
:102E300007E059F80410326842441019FFF70AF805
:102E4000241DAC42F5D3A844BAF1000F00D106E02E
:102E5000002002900298281A80B20190C4E700BFB7
:102E60004946002008F062FAFEF798FF584689E7C5
:102E7000FFE7002086E700000048704798AFFF1F7B
:102E800010B5FFF7F9FF044640212046FDF7C6FBC9
:102E9000094860600949A1600949E16060688047AC
:102EA00064224FF4007104F12400FEF7C9FA216A8C
:102EB00060F30001216210BDBD2F0100C52F01008C
:102EC000113001002DE9F843FFF7D6FF064606F161
:102ED0002404A08AE18A401A80B20090FFF7ECFA3D
:102EE00007464FF0000896F8200000F0010008B9EE
:102EF000BDE8F8836068B84218D26068381A216863
:102F0000884213D3676001F0E9FB78B9A06802F04A
:102F10000AF88046B8F1000F08D0B8F8101008F190
:102F20001200F2689047A06802F00BF8E38A21696A
:102F3000C8186946B2689047012839D1706880473F
:102F4000BDF80000042808DDE28A21698818012301
:102F50000822BDF8001003F0E9F90020E082E08AC1
:102F6000BDF800100844E08200251EE0E08A401B06
:102F700080B2009021694819694602F02BFF0128B0
:102F80000CD1A76120694119BDF80020002000F094
:102F900068FABDF80000284485B201E0681C85B2DB
:102FA000E08AA84201DC0020E082E08AA842DDDC61
:102FB00000BF9DE700487047BCAFFF1F10B507F08A
:102FC00029FA10BD70B5C2B005460C464FF48070AA
:102FD000019001A902A807F023FA0646B6B9208895
:102FE000BDF80410884209DBBDF8042002A9284678
:102FF000FDF773FABDF80400208004E0228802A9DE
:103000002846FDF76AFA012042B070BD0020FBE7B8
:1030100070B504460D462946204607F033FA70BDC8
:1030200010B50821054805F01DFD012805D108212E
:10303000024805F07BFC01F061FA10BD0050014030
:1030400010B50821054805F00DFD012805D108211E
:10305000024805F06BFC05F044FF10BD0054014030
:1030600010B50821054805F0FDFC012805D108210F
:10307000024805F05BFC01F0CDF910BD005801409D
:1030800010B50B20FEF754FF012804D10B20FEF7EA
:1030900043FF01F095F910BD10B54FF400510848F9
:1030A00005F0E8FA50B14FF40051054805F0B6FAC2
:1030B000034805F0DBFB03484169884710BD000069
:1030C00000480240E85F012010B54FF40051064867
:1030D00005F0D0FA30B104F017FB4FF4005102486C
:1030E00005F09CFA10BD00000070014010B50248C8
:1030F00006F007FD10BD0000A8B0FF1F10B5024884
:1031000006F021FD10BD0000A8B0FF1F10B5024859
:1031100006F038FD10BD0000A8B0FF1F10B5024832
:1031200006F0CBFD10BD0000A8B0FF1F10B502488F
:1031300006F0A6FD10BD0000A8B0FF1F10B50248A4
:1031400006F099FC10BD0000A8B0FF1F10B50248A2
:1031500006F0D7FC10BD0000F0B8FF1F10B5024804
:1031600006F0F1FC10BD0000F0B8FF1F10B50248DA
:1031700006F008FD10BD0000F0B8FF1F10B50248B2
:1031800006F09BFD10BD0000F0B8FF1F10B502480F
:1031900006F076FD10BD0000F0B8FF1F10B5024824
:1031A00006F069FC10BD0000F0B8FF1F10B5024822
:1031B00006F0A7FC10BD000038C1FF1F10B5024883
:1031C00006F0C1FC10BD000038C1FF1F10B5024859
:1031D00006F0D8FC10BD000038C1FF1F10B5024832
:1031E00006F06BFD10BD000038C1FF1F10B502488E
:1031F00006F046FD10BD000038C1FF1F10B50248A3
:1032000006F039FC10BD000038C1FF1F10B50248A0
:1032100006F077FC10BD000080C9FF1F10B5024802
:1032200006F091FC10BD000080C9FF1F10B50248D8
:1032300006F0A8FC10BD000080C9FF1F10B50248B1
:1032400006F03BFD10BD000080C9FF1F10B502480D
:1032500006F016FD10BD000080C9FF1F10B5024822
:1032600006F009FC10BD000080C9FF1F0EB500BFAD
:1032700000200190029000BF00BF009000BF0B2013
:103280008DF8000001208DF8010000208DF803006A
:103290006846FEF727FE00208DF8040001208DF817
:1032A00006008DF8080001AAC102002002F0D4F93E
:1032B00003210B2001F0EAF9032007F0C1FE0321EE
:1032C000084607F0F9FE032007F0D5FE0EBD1CB539
:1032D00000BF00200090019000BF01208DF8000089
:1032E0006A460103002002F0B7F91CBD10B507F0D3
:1032F00069FA10BD1CB500BF00200090019000BF0E
:103300000A208DF8010003208DF800000F208DF8B1
:10331000020000208DF8030001208DF804006846AB
:1033200007F032FA1CBD000000200BE0074A04231E
:1033300003FB00210A686FF3080202F2FF120A6021
:10334000421C90B27F28F1DD704700005C10054000
:103350002DE9FC470446FFF78FFD804607F0E0FBB0
:10336000814600250CB1E06810B90020BDE8FC875B
:10337000F821002007F0F6FF05460DB90020F5E71B
:10338000F8212846FDF74AF92078B8B9E068407876
:1033900006062E60208AE62801DA208A00E0E62070
:1033A00028822A8A05F11200E168FDF796F829467D
:1033B000D8F82C0001F090FD01274AE0606810B1B8
:1033C000207A022801DC002743E0E620288205F16C
:1033D0001000811CCDE90010238A217AE268606820
:1033E00001F0D5FF90B30026E068007855280AD197
:1033F000218AE06802F04EFD0646217A606802F0FC
:1034000049FD064414E0E068407846EA0066207A08
:10341000C01E6168085C46EA0046207A801E61682A
:10342000085C46EA0026207A401E6168085C064374
:103430002E6060696860A069E8602946D9F81000CC
:1034400003F097F9012101EBE07701E0FFE70027A6
:1034500000BF00BF1FB92946002007F067FF3846AC
:1034600084E72DE9F84306460D4614466878297826
:1034700040EA01274AF2AE21781A8F425DD013DC70
:103480004AF2A321A7EB01008F4231D007DCA7F558
:103490002040A0F52870A8B1012872D11DE00128B4
:1034A00033D00A28F9D13DE0F7285FD004DC0128A9
:1034B00044D051287CD14CE0F92863D0B0F5897F05
:1034C00076D16AE007F07EFB80462B460822414613
:1034D0003046009400F015FB6BE007F073FB80466C
:1034E0002B46082241463046009400F059F960E02E
:1034F00007F068FB80462B46082241463046009480
:1035000000F09EFC03F0B2FE53E007F05BFB804648
:103510002B46082241463046009400F017FD03F088
:10352000A5FE46E007F04EFB80462B4608224146AA
:103530003046009400F018FA3BE03AE007F042FB16
:1035400080462B46082241463046009400F067FB37
:103550002FE007F037FB80462B46082241463046D5
:10356000009400F001FA05F073FB22E007F02AFB5B
:1035700080462B46082241463046009400F0ADFDBF
:1035800017E015E007F01EFB80462B460822414657
:103590003046009400F0F1FD0BE007F013FB80468D
:1035A0002B46082241463046009400F0A0F800E087
:1035B00000BF00BFBDE8F8832DE9F84F80460C46F8
:1035C00015460CB9BDE8F88FA678022E00DAF9E7A7
:1035D00094F804906779B9F1060F25D1012F11D124
:1035E000207A10280ED1062E0CDD607A40F0800083
:1035F0006072A5F1080081B201230622A01D02F02D
:1036000095FE10E0012F0ED1207AAF280BD1607A01
:1036100040F080006072A5F1080081B2012306220B
:10362000A01D02F083FE19E0B8F1010F15D14FF093
:10363000000A2946204602F02DFC824607F0C2FA15
:103640000821009002F026FC824407F037FB8346F5
:103650005146DBF8080003F0EEF800BF00BF00BFE2
:10366000B0E7F0B595B005460E4617460024A222F5
:103670002146641C08A84254C0222146641C4254BE
:1036800000222146641C4254FF222146641C4254FD
:103690002146641C42542146641C42542146641C49
:1036A00042542046611CCCB208A90A54E01EC0B2A4
:1036B0008DF82200E01E81B20DF1230007F022FAFE
:1036C0002146621CD4B208AA50548DF804500296C8
:1036D0008DF80C7008A80490ADF8144001200690F5
:1036E0006420079001A8FFF733FE15B0F0BD2DE967
:1036F000F04F87B082468B461D46DDF8408007F0CC
:1037000061FA814615B1B8F1220F03DA002007B043
:10371000BDE8F08F08242246641CA85C06F02CFE4D
:1037200028190168049141680591806806900C345D
:1037300004A806F02DFE2819016802918088ADF8D2
:103740000C00A41D02A806F043FE2246641CA85CDF
:1037500006F02AFE2146621CD4B2685C06F02AFEFE
:10376000285D0190601CC4B2601C285C295D40EAA1
:103770000127A01CC4B22146621CD4B2685C06F0CA
:10378000E1FD0821484603F027FD064636B1FEF765
:1037900093FEB0619DF80400B074B7820120B6E7D3
:1037A0002DE9F04F9BB00746884691461D46DDF84F
:1037B00090B015B1BBF10B0F03DA00201BB0BDE8D0
:1037C000F08F03263146761C685C06903146761CE5
:1037D000685C05903146761C685C0490701C285C1F
:1037E000A95D40EA01200190B61C3146761C685C58
:1037F00003903146761C685C02904FF0000A01216C
:1038000006A800F075FF012805D19DF81800FFF704
:103810003FFA4FF0010A012105A800F069FF0128D5
:1038200005D19DF81400FFF72DFA4FF0010A012190
:1038300004A800F05DFF012805D19DF81000FFF7F6
:103840000BFA4FF0010A022101A800F051FF0128F4
:1038500005D1BDF80400FFF7F9F94FF0010A012185
:1038600003A800F045FF012805D19DF80C0006F0E3
:103870006FFD4FF0010A012102A800F039FF012875
:1038800005D19DF8080006F07DFD4FF0010ABAF160
:10389000010F09D1FFF72AFDFFF788F9FFF726FD91
:1038A00006F028FDFFF722FD0024A3222146641C18
:1038B0000EA842546A782146641C425400222146D4
:1038C000641C4254FFF706F901462246641C0EA808
:1038D0008154FFF7F9F801462246641C0EA8815472
:1038E000FFF7E2F801462246641C0EA88154FFF758
:1038F000D5F802122146641C0EA84254FFF7CEF8F8
:10390000C2B22046611CCCB20EA90A5406F04CFC8F
:103910002146621CD4B20EAA505406F051FC214636
:10392000621CD4B20EAA5054E01EC0B28DF83A0008
:10393000E01E81B2D01C07F0E5F82146621CD4B22B
:103940000EAA50548DF81C70CDF820808DF824906C
:103950000EA80A90ADF82C4001200C9064200D9028
:1039600007A8FFF7F5FC29E72DE9F04F95B00746CA
:1039700088469146DDF878B00024A3222146641CD5
:1039800008A84254FF222146641C425400222146CA
:10399000641C425401222146641C425402222146E6
:1039A000641C4254FEF734FD01462246641C08A8FC
:1039B0008154FEF745FD01462246641C08A8815447
:1039C000FEF740FD2146621CD4B208AA5054FEF70F
:1039D0003BFD2146621CD4B208AA505406F0D8FB25
:1039E0002146621CD4B208AA5054FDF7CDF8021249
:1039F0002046611CCCB208A90A54FDF7C5F8C2B232
:103A00002046611CCCB208A90A5406F017FC08A98C
:103A1000214402680A604068486004F10800C4B2AA
:103A2000FEF7F4FC2146621CD4B208AA505406F0FA
:103A3000DDFB82462146601CC4B208A800F801A044
:103A4000002633E0F0B206F0D7FB05466A78204640
:103A5000611CCCB208A90A54AA782046611CCCB2D9
:103A600008A90A54EA782046611CCCB208A90A5475
:103A700008A801196A680A60A868486004F108008B
:103A8000C4B208A80119A87C0870601CC4B2A88A36
:103A900002122046611CCCB208A90A542A7D204695
:103AA000611CCCB208A90A54701C86B2BAF10A0F84
:103AB00001DA504600E00A20B042C3DCE01EC0B28A
:103AC0008DF82200E01E81B20DF1230007F01AF8F4
:103AD0002146621CD4B208AA50548DF80470CDF867
:103AE00008808DF80C9008A80490ADF814400120CF
:103AF00006906420079001A8FFF72AFC15B0BDE8E6
:103B0000F08F2DE9F04F97B00746884691461D4645
:103B100015B12098092803DA002017B0BDE8F08F0E
:103B200003263146761C15F801A03146761C15F89F
:103B300001B03146761C685C0290701C285CA95D5F
:103B400040EA01200190B61C59465046DDE9013299
:103B5000FFF704F80024A3222146641C0AA842545B
:103B60006A782146641C425400222146641C425457
:103B7000FEF7B0FF01462246641C0AA88154FEF7F6
:103B8000A3FF01462246641C0AA88154FEF78CFF5D
:103B900001462246641C0AA88154FEF77FFF0212E8
:103BA0002146641C0AA84254FEF778FFC2B22046A0
:103BB000611CCCB20AA90A54FEF796FF2146621C8A
:103BC000D4B20AAA505406F039FB0AA9214402686B
:103BD0000A604068486004F10800C4B2E01EC0B248
:103BE0008DF82A00E01E81B20DF12B0006F08AFF4D
:103BF0002146621CD4B20AAA50548DF80C70CDF83C
:103C000010808DF814900AA80690ADF81C40012091
:103C100008906420099003A8FFF79AFB7DE72DE93F
:103C2000F04F9DB00746884691461E4616B126982D
:103C3000192803DA00201DB0BDE8F08F03252946BE
:103C40006D1C16F801A029466D1C16F801B0294616
:103C50006D1C705C0890681C305C715D40EA01204E
:103C60000490AD1C59465046049B089AFEF776FF17
:103C70007019006802902D1D681C305C715D40EA6F
:103C800001200390AD1C2846691CCDB2305C079022
:103C90002846691CCDB2305C06907019016800910D
:103CA0004068019005F10800C5B20020059004218C
:103CB00002A800F01DFD012805D1042102A8FEF78D
:103CC000D1FF01200590022103A800F011FD012879
:103CD00005D1BDF80C00FEF7CFFF012005900121B2
:103CE00007A800F005FD012805D19DF81C00FEF78E
:103CF000A5FF01200590012106A800F0F9FC01288C
:103D000005D19DF81800FEF7C9FF01200590082194
:103D1000684600F0EDFC012805D108216846FEF751
:103D2000C9FF012005900598012805D1FFF7DEFAAB
:103D3000FEF73CFFFFF7DAFA0024A3222146641CB9
:103D400010A8425472782146641C42540022214635
:103D5000641C4254FEF7BEFE01462246641C10A8B5
:103D60008154FEF7B1FE01462246641C10A881541E
:103D7000FEF79AFE01462246641C10A88154FEF705
:103D80008DFE02122146641C10A84254FEF786FEE6
:103D9000C2B22046611CCCB210A90A54FEF78AFEBA
:103DA00010A9214400680860201DC4B2FEF786FEF9
:103DB00002122046611CCCB210A90A54FEF77EFE06
:103DC000C2B22146601CC4B210A84254FEF760FE85
:103DD0002146621CD4B210AA505406F033FA214690
:103DE000621CD4B210AA505406F028FA10A921443B
:103DF00002680A604068486004F10800C4B2E01E2E
:103E0000C0B28DF84200E01E81B20DF1430006F011
:103E100079FE2146621CD4B210AA50548DF8247049
:103E2000CDF828808DF82C9010A80C90ADF8344077
:103E300001200E9064200F9009A8FFF789FAFAE696
:103E40002DE9F04F97B00746884691461D4615B1BB
:103E50002098092803DA002017B0BDE8F08F032668
:103E60003146761C15F801A03146761C15F801B0D4
:103E70003146761C685C0290701C285CA95D40EAA3
:103E800001200190B61C59465046DDE90132FEF78B
:103E900065FE002003F016FCFFF728FA03F0F6FB9E
:103EA000FFF724FA0024A3222146641C0AA84254E6
:103EB0006A782146641C425400222146641C425404
:103EC000FEF708FE01462246641C0AA88154FEF74C
:103ED000FBFD01462246641C0AA88154FEF7E4FD5E
:103EE00001462246641C0AA88154FEF7D7FD02123F
:103EF0002146641C0AA84254FEF7D0FDC2B22046F7
:103F0000611CCCB20AA90A54E01EC0B28DF82A0086
:103F1000E01E81B20DF12B0006F0F4FD01462046B3
:103F2000621CD4B20AAA11548DF80C70CDF810801E
:103F30008DF814900AA80690ADF81C400120089056
:103F40006420099003A8FFF703FA85E72DE9F04FF5
:103F50009BB08046894692461D4600200090019005
:103F60000290039015B12498152803DA00201BB0A5
:103F7000BDE8F08F03263146761C15F801B03146B6
:103F8000761C685C06903146761C685C0590701C57
:103F9000285CA95D40EA01200490B61C5846DDE982
:103FA00004320699FEF7DAFD3146761C6F5C0FB1DC
:103FB0000A2F01DD0020DAE73046711CCEB2285C02
:103FC0008DF800003046711CCEB2285C8DF80100DF
:103FD0003046711CCEB2285C8DF80200A819016829
:103FE000CDF803104068CDF8070006F10800C6B20E
:103FF000781EC1B2684603F077FBFFF777F903F04C
:1040000045FBFFF773F90024A3222146641C0EA888
:1040100042546A782146641C425400222146641CA2
:104020004254FEF757FD01462246641C0EA88154F7
:10403000FEF74AFD01462246641C0EA88154FEF795
:1040400033FD01462246641C0EA88154FEF726FD6E
:1040500002122146641C0EA84254FEF71FFDC2B294
:104060002046611CCCB20EA90A542046611CCCB279
:104070000EA90F549DF802202046611CCCB20EA957
:104080000A540EA82044DDF803100160DDF8071083
:10409000416004F10800C4B2E01EC0B28DF83A00DD
:1040A000E01E81B20DF13B0006F02CFD2146621CA2
:1040B000D4B20EAA50548DF81C80CDF820908DF803
:1040C00024A00EA80A90ADF82C4001200C9064208A
:1040D0000D9007A8FFF73CF949E72DE9FF5F8146FE
:1040E0001C46DDF838B006F06DFD804614B1BBF11A
:1040F000090F03DA002004B0BDE8F09F032529462C
:104100006D1C605C039029466D1C605C0290294622
:104110006D1C605C0190681C205C615D40EA0120C0
:104120000090AD1C0821404603F056F8064616B331
:10413000307820F00100401C3070FEF7BDF9B0610E
:10414000681C205CB074B9F1010F14D160780706C7
:1041500098F8050047EA004798F8060047EA002764
:1041600098F80700074306F0A9FD82463946DAF8B9
:10417000080002F060FB0120BDE72DE9F05F8346F7
:104180001C460A9F06F01EFD82460CB1092F02DA7A
:104190000020BDE8F09F082529466D1C14F8018019
:1041A00029466D1C14F8019009350821504603F08A
:1041B00013F8064666B1FEF77FF9B061605DB07432
:1041C000681CC5B2681C205C615D40EA0120B082B9
:1041D0000120DEE72DE9F04196B007460D46164670
:1041E0003146284602F0F8FF8046B8F1000F03D1AF
:1041F000002016B0BDE8F0810024A2222146641CF4
:1042000009A84254A5222146641C4254002221469A
:10421000641C425498F801202146641C4254FF2239
:104220002146641C42542146641C42542146641CAD
:1042300042542046611CCCB209A90A5405F0C0FFC3
:104240002146621CD4B209AA505405F0EBFF089035
:1042500009A89DF820100155601CC4B2E01EC0B230
:104260008DF82600E01E81B20DF1270006F04AFC11
:104270002146621CD4B209AA50548DF804700295EC
:104280008DF80C6009A80490ADF814404FF0FF3091
:10429000069041F28830079001A8FFF759F8A8E787
:1042A0002DE9F041A4B005460E4617461C46DDF840
:1042B000A88014B1B8F1640F03DD002024B0BDE87C
:1042C000F0816E20079007AB08AA4146204601F016
:1042D000FCFD012813D18DF8005001968DF808706F
:1042E00008A80390BDF81C00ADF810000A20059046
:1042F0004FF4FA7006906846FFF72AF8DEE70020D0
:10430000DCE7F0B595B005460E4617460024A2221C
:104310002146641C08A84254A7222146641C42542A
:1043200000222146641C4254FF222146641C425450
:104330002146641C42542146641C42542146641C9C
:1043400042542046611CCCB208A90A54E01EC0B2F7
:104350008DF82200E01E81B20DF1230006F0D2FBA1
:104360002146621CD4B208AA50548DF8045002961B
:104370008DF80C7008A80490ADF814400120069048
:104380006420079001A8FEF7E3FF15B0F0BD000020
:104390000A480078C0F3800070B108484068401CAB
:1043A0000649486008464068112805D30846007849
:1043B00020F010001030087000207047506101207C
:1043C00010B51148007800F00100E0B10F48C07A44
:1043D000C8B90D480078C0F3C000A0B90A480078F9
:1043E00020F00200084908700846007820F0080014
:1043F00008300870FCF7E8FFFDF700F800200449DA
:104400000860FCF7F3FF10BD5061012040610120FE
:104410002080FF1F10B53548007800F0010000280B
:1044200063D03348C07A00285FD130480078C0F3A9
:10443000C000D0B12D480078C0F34000A8B901F009
:1044400086FE90B12948007820F00200801C2749A0
:1044500008700846007820F00400087000204860CA
:1044600024490860244908703FE020480078C0F3E0
:104470004000D0B301F05FFE40B11E48017801203A
:1044800088401D49097808431B490870194800688D
:10449000401C1849086008460068082825D31648BB
:1044A0000078124908750846017DB0F81621B0F869
:1044B0001601401C0D4BA3F8160103F115008154A1
:1044C0001538007820F00800194608700846007872
:1044D00020F0020008700846007820F00400001D5B
:1044E0000870FCF771FFFCF789FF10BD50610120D7
:1044F000406101202080FF1F2480FF1F10B5264847
:10450000C07A012846D124480068401C224908602E
:10451000084600684968401A01283BD11E480068D7
:104520001D4948600846407A082817DA0846007A8C
:1045300000F0010008730846007B012802D102F058
:1045400023FC01E002F030FC1348007A40101249CD
:1045500008720846407A401C48721BE00E48407AB8
:10456000082807D102F010FC0B48407A401C0A4989
:1045700048720FE00848407A08280BDD0020064901
:10458000487208604860C872FDF7AAFFFDF7C2FFD5
:1045900004F0A0FC10BD00004061012070B50024B3
:1045A000202916DBC51700EBD5656D1105EB450518
:1045B000202606EB45058D420ADCC51700EBD565C4
:1045C0006D1105EB4505252606EB45058D4200DA04
:1045D00070BD054A042303FB0124226860F308022E
:1045E000226000BFF4E700005C10054070B50024B5
:1045F000202916DBC51700EBD5656D1105EB4505C8
:10460000202606EB45058D420ADCC51700EBD56573
:104610006D1105EB4505252606EB45058D4200DAB3
:1046200070BD054A042303FB0124226860F30802DD
:10463000226000BFF4E700005C10054070B5002464
:10464000202916DBC51700EBD5656D1105EB450577
:10465000202606EB45058D420ADCC51700EBD56523
:104660006D1105EB4505252606EB45058D4200DA63
:1046700070BD054A042303FB0124226860F308028D
:10468000226000BFF4E700005C10054070B5002414
:10469000202916DBC51700EBD5656D1105EB450527
:1046A000202606EB45058D420ADCC51700EBD565D3
:1046B0006D1105EB4505252606EB45058D4200DA13
:1046C00070BD054A042303FB0124226860F308023D
:1046D000226000BFF4E700005C1005400348C07A88
:1046E000012800D170470020FCE700004061012054
:1046F000024602B109B90020704705E012F8013BFB
:10470000FF2B01D00120F7E7081EA1F1010399B2A8
:10471000F4D100BFF0E71CB500BF0020009001906D
:1047200000BF00210C2000F06BFF00231A464FF45D
:104730000041184601F01EF800208DF800008DF8A9
:1047400004006A464FF4004100F086FF4FF4004138
:10475000002000F071FF012800D11CBD0020FCE703
:1047600000487047D8AFFF1F10B58AB0FFF7F8FFB9
:10477000044624212046FBF751FF1C22114903A8BF
:10478000FBF7F0FE07A807C88DE8070003A80FC8CD
:1047900000F069F900F02CF9206064224FF40071F8
:1047A00004F10800FCF74CFE616860F300016160F1
:1047B00000F07DF90A221146204600F0BCF90AB04B
:1047C00010BD000084B801002DE9FC41FFF7C8FFCF
:1047D000064606F10804A08AE18A401A80B20190D8
:1047E00000200090FDF768FE07464FF00008307982
:1047F00000F0010008B9BDE8FC816068B84227D22A
:104800006068381A2168884222D3676000F049F94D
:10481000F0B9A06800F087FB8046B8F1000F09D01E
:10482000B8F810103068C26808F112009047A0680C
:1048300000F087FBA069381A4CF25031B0FBF1F25E
:1048400001FB120020B90A221146304600F073F92C
:10485000E38A2169C81831688A6801A9904701284C
:1048600043D1E28A2169881801230622BDF8041089
:1048700001F05CFD0020E082E08ABDF804100844ED
:10488000E08200252DE0E08A401B80B20190216982
:1048900048196A4601A901F076FA01281AD1A761E0
:1048A000009801280AD1E38A5A1B2369591918462E
:1048B000FBF713FEE08A401BE08215E021694819EE
:1048C0003246BDF8041000F017F8BDF80400284483
:1048D00085B201E0681C85B2E08AA84201D10020BF
:1048E000E082E08AA842CEDC00BF00BF83E7000080
:1048F00000487047E0AFFF1F2DE9F04104468846AD
:1049000015462F46A078A02804D10426A05D05F006
:1049100013FD00E000BF00BFBDE8F08110B590B00E
:10492000242107A8FBF77AFE0C4C24220C4907A887
:10493000FBF718FE4FF49640089014220BA9684626
:104940000594FBF70FFE07A80FC804F0FBFD2046F7
:1049500004F003FE00F05EF810B010BD38C1FF1F78
:104960003CB8010070B506460D461A4C94F8400854
:1049700000F0010058B3B4F82C0838B994F8400896
:1049800020F0010084F84008002070BD2888B4F8A9
:104990002C1888420ADBB4F82C2804F22C4130464B
:1049A000FBF79BFDB4F82C08288005E02A8804F268
:1049B0002C413046FBF791FD0020A4F82C0894F818
:1049C000400820F0010084F840080120DDE70020C5
:1049D000DBE7000038C1FF1F70B504460D462A46CC
:1049E0002146024805F012FA70BD000038C1FF1FD1
:1049F000004870472061012010B54FF4804101202C
:104A000000F09CFE10BD10B54FF48041012000F075
:104A1000A3FE10BD1CB500231A464FF480410120AF
:104A200000F0A8FE00BF00200090019000BF012010
:104A30008DF8000000208DF8060002208DF805009A
:104A400000208DF802008DF804006A464FF4804182
:104A5000012000F001FE1CBD10B50446206908B11C
:104A60002069804710BD0FB410B5FFF7C1FF0446A1
:104A700020212046FBF7D2FD029860600599216154
:104A8000069961610399A1600499E160606808B1C9
:104A900060688047606908B16069804710BC5DF854
:104AA00014FB00B5FFF7A4FF0146002000BD10B5C0
:104AB000FFF79EFF0446207820F00100401C207084
:104AC0002046FFF7C9FF10BD70B505460E4600240D
:104AD000F821002006F046FC044604B970BD002011
:104AE00020825A21228A501C208204F11200815413
:104AF0000021228A501C208204F112008154B1212D
:104B0000228A501C208204F112008154218A481C00
:104B1000208204F112004654AA21228A501C2082CD
:104B200004F112008154217CE1742146286900F0CF
:104B3000D3F900BFD2E72DE9F04105460E461746EE
:104B40000024F821002006F00DFC04460CB9BDE855
:104B5000F081002020825A21228A501C208204F1F8
:104B6000120081540021228A501C208204F112007C
:104B70008154A021228A501C208204F11200815409
:104B8000218A481C208204F1120046540021228A06
:104B9000501C208204F1120081540FB90A2100E058
:104BA0003946228A501C208204F112008154AA2125
:104BB000228A501C208204F112008154217CE1746D
:104BC0002146286900F088F900BFC0E710B5044607
:104BD000204600F097F8206B08B1206B8047A06B4F
:104BE00008B1A06B80472146642000F008F810BD92
:104BF0000146087800F0010080F001007047642849
:104C000001DD642200E002464A704A780A2392FBE2
:104C1000F3F24A707047000070B505460C4694F8F0
:104C20002D00A84200D170BD207820F00100207036
:104C300084F82D502721A01DFBF7CEFC94F82D0001
:104C400008283DD2DFE800F0352E272019120B048A
:104C50002522234904F10800FBF73FFC37E0252219
:104C6000204904F10800FBF738FC30E025221E49FA
:104C700004F10800FBF731FC29E025221B4904F16F
:104C80000800FBF72AFC22E02522194904F108005C
:104C9000FBF723FC1BE02522164904F10800FBF773
:104CA0001CFC14E02522144904F10800FBF715FC54
:104CB0000DE02522114904F10800FBF70EFC06E087
:104CC00025220F4904F10800FBF707FC00BF00BFD5
:104CD000207820F00100401C207000BFA3E70000F6
:104CE000FBBA0100F8B901001DBA010042BA010087
:104CF00067BA01008CBA0100B1BA0100D6BA01004E
:104D000020BB0100017821F001010170704710B54E
:104D10000446204600F043F8A088401CA080A088EC
:104D2000632804DD0020A080204600F001F810BDBB
:104D300030B50346002200241846FFF759FF01282A
:104D400000D130BD9A1D1078122190FBF1F501FBC6
:104D50001501D01C00EB4104507840B9607801285F
:104D600000D100E00020197860F3410119705078FB
:104D7000401C217888420DDB002050701078401CC8
:104D80009178884202DB0020107006E01078401C09
:104D9000107002E05078401C507000BFD1E710B591
:104DA00004462078C0F34000C8B1A07861788842FA
:104DB00004DA606B50B1606B804707E0A0786178DF
:104DC000884203DDA06B08B1A06B8047A078401C2F
:104DD000A070A078092806DD0020A07003E0A06B79
:104DE00008B1A06B804710BD002100B97047014693
:104DF00000224A600A6000BFF8E710B500240821CD
:104E0000002006F0AFFA0446002020606060606079
:104E10002060204610BD70B502460B4600260021DA
:104E2000002500240AB1002B01DA002070BD1446D1
:104E30002146002601E00968761C9E4202DA0868D5
:104E40000028F8D10D68286808606068401E60601E
:104E50002846EBE770B50246002600240023002513
:104E60000AB1002902DA0026002070BD15462B4643
:104E7000002401E01B68641C8C4202DA18680028D8
:104E8000F8D11868F1E7F0B503461446002700266C
:104E90000022002513B109B1002C02DA00273846A0
:104EA000F0BD1D462A46002601E01268761CA64287
:104EB00002DA10680028F8D110680860116068688C
:104EC000401C68600020EBE70146002209B9501E33
:104ED00070470A465068FBE72DE9F04107460D464A
:104EE000002600240821002006F03CFA04461CB9E4
:104EF000761E3046BDE8F08100202060606065606D
:104F00003846FFF7E1FF8046424621463846FFF724
:104F1000BAFF06460EB13046ECE73046EAE710B578
:104F2000FFF76BFF10BD70B5054600240026002179
:104F30002846FFF78FFF04460CB9002070BD60685B
:104F4000FCE770B506460024002500213046FFF737
:104F500062FF04460CB9002070BD65681DB129468A
:104F6000002006F0E3F91CB12146002006F0DEF92E
:104F70002846F1E710B54FF48071002000F0DEFB09
:104F800010BD10B54FF48071002000F0E5FB10BD9E
:104F90001CB500BF00200090019000BF01208DF8DB
:104FA000000000208DF8060002208DF8050000208A
:104FB0008DF802008DF804006A464FF4807100F00D
:104FC0004BFB1CBD4A8802444A8070471CB5002335
:104FD0001A464FF48061012000F0CCFB00BF002096
:104FE0000090019000BF01208DF8000000208DF896
:104FF000060002208DF8050000208DF802008DF8D3
:1050000004006A464FF48061012000F025FB1CBDBE
:1050100010B54FF48061012000F090FB10BD10B579
:105020004FF48061012000F097FB10BD3EB50446AF
:10503000044A07CA8DE80700034B9DE8070000F00B
:105040000EF83EBD2CB701007C81FF1F0FB49DF808
:10505000000000F0010080F0010004B070471FB5AF
:105060001C4614212046FBF7D9FA0098A06001994C
:10507000E16002992161204600F03AF8A06808B189
:10508000A0688047206908B1206980471FBD70B5BE
:1050900004460D462069804715B1204600F028F8E7
:1050A00070BDF8B504460D46164615B9E068804750
:1050B00015E02069009094E80F00FFF7C7FF012872
:1050C00006D12146304600F011F80020A08003E010
:1050D00021463046FFF776FF204600F001F8F8BD84
:1050E000017821F00101491C017070474880704728
:1050F000017821F001010170704738B5044620693C
:10510000009094E80F00FFF7A1FF012800D138BDFF
:10511000A0886188884205DCE0688047A088401C40
:10512000A08004E02046FFF7E3FF2069804700BF2E
:10513000EDE70000004870474C5E01203EB5044694
:1051400005A207CA8DE807000A25206918B129467B
:105150006846226990473EBD5A0AFC00910F453CC3
:105160001DAA000010B50446E06908B1E069804757
:1051700010BDF0B595B0044600255A2229466D1C95
:1051800008A84254002229466D1C4254FC2229469C
:105190006D1C42540C2229466D1C42549122294612
:1051A0006D1C42540E2229466D1C42541C2101A83C
:1051B000FBF734FA082202A904F14400FBF761F975
:1051C00018B1626CA262A16CE16201220DF11A01B8
:1051D00004F15600FBF755F918B13A205621095D44
:1051E000015501220DF11D0104F15900FBF749F9A8
:1051F00038B1D4F85920C4F83D20D4F85D10C4F873
:1052000041101C2104F14000FBF7E6F908A94819F8
:105210001C2204F12401FBF760F905F11C0085B2A2
:105220000027022605E008A8805D3844C7B2701C3C
:1052300086B2222EF7DB2846691C8DB208A90F54CE
:10524000AA222846691C8DB208A90A54E8B28DF832
:105250002100206918B1294608A82269904715B095
:10526000F0BD00003EB5044605A207CA8DE8070060
:105270000A25206918B129466846226990473EBD33
:105280005A0AFC0091876A35B3AA00000FB410B522
:10529000FFF750FF04465C212046FBF7BFF9029858
:1052A000A060059961610699A1610799E16108997A
:1052B00021620399E16004992161606908B1606924
:1052C0008047E06908B1E0698047A06808B1A0683C
:1052D000804710BC5DF814FB10B5FFF72BFF0446A8
:1052E000207800F00100C0B1A0786178884205D133
:1052F000206A8047A078401CA0700CE0A1786078FC
:10530000401C814203DAA078401CA07003E02078A2
:1053100020F001002070012010BD2078C0F3C000F3
:1053200070B12179481C2071142091FBF0F200FB30
:1053300012100A2802D12046FFF700FF0120EBE7F8
:105340002078C0F3001070B16179481C607114209E
:1053500091FBF0F200FB12100A2802D12046FFF761
:1053600008FF0120D8E72078C0F3400068B1E17859
:10537000481CE070142091FBF0F200FB121010B9F1
:105380002046FFF76FFF0120C6E70020C4E72DE9A4
:10539000F84F0746884691461E46DDE90A5A4FF007
:1053A000000BFFF7C7FE00905FB1B8F1080F08DCF3
:1053B000B9F1000F05D0642E03DC15B1BAF1000F6E
:1053C00002D10020BDE8F88FBAF8001006F10E00F7
:1053D000814201DA0020F5E7B8F1020F07D13878F1
:1053E000FF2804D17878FF2801D14FF0010B002469
:1053F0005A222146641C6A5400222146641C6A54C5
:10540000FD222146641C6A54BBF1010F01D1012227
:1054100000E000222046611C8CB22A542046611C08
:105420008CB22E54281942463946FBF756F804EB45
:10543000080084B2281932464946FBF74EF8A019F5
:1054400084B2AA222046611C8CB22A546C70AAF83D
:1054500000402046B6E770B50546FFF76BFE0446F0
:1054600065700020A070207820F00100401C2070A2
:105470002046FFF777FE70BD2DE9F047C0B0074624
:105480000E4690461D464FF0000AFFF753FE814638
:1054900037B1082E04DCB8F1000F01D0642D03DD14
:1054A000002040B0BDE8F087022E06D138884FF6C4
:1054B000FF71884201D14FF0010A00245A2221468F
:1054C000641C01A8425400222146641C4254FD225F
:1054D0002146641C4254BAF1010F01D1012200E0BF
:1054E00000222046611C8CB201A90A542046611C8E
:1054F0008CB201A90D54081932463946FAF7EDFF6E
:10550000A01984B201A908192A464146FAF7E5FF15
:10551000601984B2AA222046611C8CB201A90A54E7
:10552000E0B28DF80500D9F8100020B1214601A89D
:10553000D9F8102090472846B3E770B504460D46C9
:10554000FFF7F8FD06460CB1082D00D070BD2A46C5
:10555000214606F14400FAF7C0FF00F018F800BF3A
:10556000F4E700B50246FFF7E5FD03465920C254B3
:1055700000F00DF800BD00B5FFF7DCFD014600208E
:105580000871087820F008000830087000BD00B5E8
:10559000FFF7D0FD014600204871087820F0100088
:1055A0001030087000BD00B5FFF7C4FD01460020B3
:1055B000C870087820F00200801C087000BD00B59B
:1055C000FFF7B8FD014600200871087820F00800B8
:1055D000087000BD00B5FFF7ADFD01460020487121
:1055E000087820F01000087000BD00B5FFF7A2FD9C
:1055F00001460020C870087820F00200087000BD45
:1056000000B502460B4600F0EFF8012B07D1094820
:10561000008802F01F0108430649088006E005489B
:10562000008802F01F0188430249088000F07EF8DC
:10563000002000BDF43B054010B50246054810248B
:1056400004FB02031868084008B1012010BD0020C7
:10565000FCE7000000380540F0B505460F4613464C
:10566000002400F0C1F800BF57E00120A0403840FE
:10567000002850D02C4800EB851000EB84022A480B
:10568000801C00EB851000EB84065978108861F3CC
:105690008E3010809978108861F30C301080D978A2
:1056A000108861F3492010801979108861F3861001
:1056B00010809979108861F38200108059791088E0
:1056C00061F305101080187820B101280BD0022852
:1056D0001AD112E0108820F400401080108820F0C9
:1056E0000200108011E0108820F400401080108823
:1056F00020F00200801C108007E0108820F4004099
:1057000000F50040108000E000BF00BFD97930886C
:1057100061F308203080601CC4B2102CA5D300F0C7
:1057200005F80020F0BD0000003C05404FF4254086
:105730000149088070470000FC3B054010B5024657
:105740000448102404FB0203188808431880002032
:1057500010BD00000A38054010B502460448102468
:1057600004FB0203188808431880002010BD0000C5
:1057700008380540F0B504460D4616461F4600237E
:1057800000F032F8002319E001209840284098B139
:105790000D48402101FB0400042101FB0302108895
:1057A00066F305001080012F01D1012000E00020E8
:1057B000118860F308211180581CC3B2102BE3D369
:1057C000FFF7B4FF0020F0BD023C054010B50246D3
:1057D0000448102404FB02031888084318800020A2
:1057E00010BD00000C3805404AF201500149088004
:1057F00070470000FC3B05400B4A12690B4B1A43F3
:10580000094B1A61012904D11A46126882431A60B1
:1058100004E0054A12680243034B1A60034A521E11
:10582000014B1A6170470000008004400100A5A5EB
:10583000012905D1054A52688243044B5A6004E0AD
:10584000024A52680243014B5A607047008004408C
:10585000012905D1054A92688243044B9A6004E00D
:10586000024A92680243014B9A60704700800440EC
:10587000012905D1054AD2688243044BDA6004E06D
:10588000024AD2680243014BDA607047008004404C
:1058900010B500F0FDFB00F0D3FB10BD2DE9F04F7B
:1058A0009BB005460E4690469946224C032D03DADE
:1058B00000201BB0BDE8F08F7078B17840EA012B72
:1058C00042F62A40005B00280BDD2046FCF7CAFDAB
:1058D0000746BB4505D0204601F02EFA08B9002046
:1058E000E7E72A46314642F229402044FAF7F5FD1F
:1058F00042F62A4005534FF0000AFF2002A901F8A2
:105900000A000AF1010A2078C0F3801010B10A4899
:10591000808901E0094880890190616A019881428B
:1059200005D24A464146FF2000F06CF9C1E700204D
:10593000BFE700001883FF1FD85F0120E05D012052
:105940002DE9F0479AB006460D4691469A46092E33
:1059500003DA00201AB0BDE8F08714480078C0F3DD
:10596000400090B1114801F0E7F9D5F80170D5F881
:1059700005800E484761C0F81880006820F00400D8
:10598000001D0A4908600020E4E70024287801A9E6
:105990000855641C01200855641C53464A4621469C
:1059A00001A800F092FAC0B2D4E700001883FF1FEC
:1059B0002DE9F04786B006460D4691469A46092ED7
:1059C00003DA002006B0BDE8F087D5F80170D5F8FD
:1059D00005800B484761C0F8188001F04BFD00249A
:1059E000FA2001A90855641C00200855641C534680
:1059F0004A46214601A800F068FAC0B2E2E700007A
:105A00001883FF1F2DE9F04186B0074688461546EA
:105A10001E460024F12001A90855641C00200855E9
:105A2000641C02200855641C82200855641C012057
:105A30000855641C33462A46214601A800F045FA61
:105A4000C0B206B0BDE8F0812DE9F04385B08046D4
:105A5000894616461F46174D0024F2200DF8040013
:105A6000641C42F63440405D0DF80400641C42F6AC
:105A70003540405D0DF80400641C42F63640405D40
:105A80000DF80400641C42F63840405B00120DF82B
:105A90000400641C42F63840405D0DF80400641CAC
:105AA0003B4632462146684600F00FFAC0B205B0C8
:105AB000BDE8F0831883FF1F2DE9F04385B08046D1
:105AC000894615461E460C4F0024F0200DF80400B0
:105AD000641C0DEB040107F53050C26A0A60006BCC
