:020000040001F9
:10000000F83D0020210301005103010053030100CA
:1000100055030100570301005903010000000000CF
:100020000000000000000000000000005B03010071
:100030005D030100000000005F0301006103010097
:10004000212101004921010095210100E121010048
:100050002D220100792201009D220100AD22010024
:10006000BD220100CD220100DD220100ED220100B0
:10007000FD2201000D2301001D2301002D2301009D
:100080003D2301004D2301006303010063030100D0
:1000900063030100630301006303010063030100C4
:1000A00063030100630301006303010063030100B4
:1000B00063030100630301006303010063030100A4
:1000C0006303010063030100630301006303010094
:1000D0006303010063030100630301006303010084
:1000E0006303010063030100630301006303010074
:1000F0006303010063030100630301006303010064
:100100006303010063030100630301006303010053
:100110006303010063030100630301006303010043
:100120006303010063030100630301006303010033
:100130006303010063030100630301006303010023
:100140006303010063030100630301006303010013
:100150006303010063030100630301006303010003
:1001600063030100630301006303010063030100F3
:1001700063030100630301006303010063030100E3
:1001800063030100630301006303010063030100D3
:1001900063030100630301006303010063030100C3
:1001A00063030100630301006303010063030100B3
:1001B00063030100630301006303010063030100A3
:1001C0006303010063030100630301006303010093
:1001D0006303010063030100630301006303010083
:1001E0006303010063030100630301006303010073
:1001F0006303010063030100630301006303010063
:100200006303010063030100630301006303010052
:100210006303010063030100630301006303010042
:100220006303010063030100630301006303010032
:100230006303010063030100630301006303010022
:100240006303010063030100630301006303010012
:100250006303010063030100630301006303010002
:1002600063030100630301006303010063030100F2
:1002700063030100630301006303010063030100E2
:1002800000F002F800F03CF80AA090E8000C82446C
:100290008344AAF10107DA4501D100F031F8AFF249
:1002A000090EBAE80F0013F0010F18BFFB1A43F054
:1002B000010318473489000054890000103A24BF14
:1002C00078C878C1FAD8520724BF30C830C144BFBB
:1002D00004680C60704700000023002400250026FD
:1002E000103A28BF78C1FBD8520728BF30C148BF99
:1002F0000B6070471FB506F0ADFE1FBD10B510BDF9
:1003000000F082F91146FFF7F5FF06F085FD00F0D9
:10031000A0F903B4FFF7F2FF03BC00F0A7F9000057
:1003200013484FF07701016012484FF077010160E8
:1003300011484FF4885101600D484FF0760101607B
:100340000C484FF0760101600C4880470C4800478C
:10035000FEE7FEE7FEE7FEE7FEE7FEE7FEE7FEE775
:10036000FEE7FEE707480849084A094B70470000C6
:10037000040805400C0805400008054089450100B7
:1003800081020100F8350020F83D0020F8390020F6
:10039000F839002053EA020C00F069802DE9F04B97
:1003A0004FF00006002B1FBFB3FA83F503FA05F4E4
:1003B00024FA05F65E4012BF1643B2FA82F502FA3D
:1003C00005F4C5F120051EBF22FA05FC44EA0C0421
:1003D000203556EA044C4FEA144418BF641C4FF011
:1003E00000084FF00009904271EB030C39D300294B
:1003F00019BFB1FA81F701FA07F6B0FA80F700FAEF
:1004000007F6C7F120071EBF20FA07FC46EA0C06D4
:100410002037B6FBF4FCA7EB0507103F07F01F0BD6
:10042000CBF120060CFA0BFB2CFA06F644BFB346C0
:100430000026202FA4BF5E464FF0000B5BEA060C9F
:1004400008BF4FF0010B19EB0B09ABFB027C48EB2B
:100450000608C01B06FB02CC0BFB03CC71EB0C01A6
:10046000C1E70B46024641464846BDE8F08B13B54E
:100470004FF000004FF00001AFF30080BDE81C40DA
:100480007047032A40F2308010F0030C00F0158012
:1004900011F8013BBCF1020F624498BF11F801CB87
:1004A00000F8013B38BF11F8013BA2F1040298BFEC
:1004B00000F801CB38BF00F8013B11F0030300F056
:1004C0002580083AC0F0088051F8043B083A51F8FA
:1004D00004CBA0E80810F5E7121D5CBF51F8043BFF
:1004E00040F8043BAFF30080D20724BF11F8013B72
:1004F00011F801CB48BF11F8012B24BF00F8013BD4
:1005000000F801CB48BF00F8012B704710B5203A26
:10051000C0F00B80B1E81850203AA0E81850B1E8BC
:100520001850A0E81850BFF4F5AF5FEA027C24BF72
:10053000B1E81850A0E8185044BF18C918C0BDE869
:1005400010405FEA827C24BF51F8043B40F8043B32
:1005500008BF7047D20728BF31F8023B48BF11F8E7
:10056000012B28BF20F8023B48BF00F8012B704741
:100570004FF000020429C0F0128010F0030C00F0CC
:100580001B80CCF1040CBCF1020F18BF00F8012B4A
:10059000A8BF20F8022BA1EB0C0100F00DB85FEA18
:1005A000C17C24BF00F8012B00F8012B48BF00F8E4
:1005B000012B70474FF0000200B513469446964653
:1005C000203922BFA0E80C50A0E80C50B1F1200166
:1005D000BFF4F7AF090728BFA0E80C5048BF0CC014
:1005E0005DF804EB890028BF40F8042B08BF704772
:1005F00048BF20F8022B11F0804F18BF00F8012BE4
:100600007047704770477047754600F02BF8AE464C
:1006100005006946534620F00700854618B020B50E
:10062000FFF7A0FEBDE820404FF000064FF00007A6
:100630004FF000084FF0000B21F00701AC46ACE88A
:10064000C009ACE8C009ACE8C009ACE8C0098D46F7
:10065000704710B50446AFF300802046BDE8104057
:10066000FFF757BE00487047983500200149182011
:10067000ABBEFEE72600020070471CB500231A46F9
:100680004021184602F014FE00BF002000900190A7
:1006900000BF01208DF8000000208DF80600022028
:1006A0008DF8050000208DF802008DF804006A46E0
:1006B000402102F06FFD1CBD10B54021002002F06A
:1006C000DBFD10BD10B54021002002F0E3FD10BDA0
:1006D00010B500F057F800F003F8FFF7CEFF10BD9B
:1006E0001CB500231A460121084602F0E1FD00BFB7
:1006F00000200090019000BF01208DF80000002034
:100700008DF8060002208DF8050000208DF802000B
:100710008DF804006A460121084602F03BFD1CBD2D
:1007200010B50121084602F0A7FD10BD10B501214A
:10073000084602F0AFFD10BD10B504464421204626
:10074000FFF738FF06482063064961630649A16345
:100750000649E16306492164204602F019FB10BDF9
:10076000D1060100CF0701002D070100C5060100D9
:100770007507010010B500F024F8FFF7D1FFFFF76F
:100780009BFF10BD1CB500231A468021184602F0BD
:100790008FFD00BF00200090019000BF01208DF868
:1007A000000000208DF8060002208DF805000020D2
:1007B0008DF802008DF804006A46802102F0EAFC00
:1007C0001CBD10B58021002002F056FD10BD10B5F3
:1007D0008021002002F05EFD10BD00002DE9F047F1
:1007E00005460E46144600270021284604F0C1FAAB
:1007F00080460121284604F0BCFA8146012C07D12D
:10080000B8F1010F02D0B9F1010F08D1012706E0BC
:100810003146284604F0ADFA012800D10127012F06
:100820000BD1002001E000BF401C0549096842F2DD
:100830001072B1FBF2F18142F5D8BDE8F0870000FB
:100840000080FF1F4A8802444A8070471CB500237D
:100850001A464FF40071012002F02AFD00BF00206B
:100860000090019000BF01208DF8000000208DF85D
:10087000060002208DF8050000208DF802008DF89A
:1008800004006A464FF40071012002F083FC1CBD95
:1008900010B54FF40071012002F0EEFC10BD10B550
:1008A0004FF40071012002F0F5FC10BD10B54FF4BB
:1008B0000071012002F028FD10BD7FB5DDE908546C
:1008C00018212046FFF776FE0098A0600199E160AC
:1008D00002992161039961610DB1012000E00020BE
:1008E000217860F341012170204600F045F8A068AE
:1008F00008B1A0688047206908B1206980477FBDA2
:100900000FB49DF8000000F0010080F0010004B079
:1009100070477CB504460D46164635B92078C0F3BD
:10092000400010B9E068804719E0012D17D1D4E9E3
:100930000401CDE9000194E80F00FFF7E1FF012871
:1009400006D12146304600F015F80020A08003E0D3
:1009500021463046FFF776FF204600F001F87CBDC7
:1009600010B50446207820F00100401C2070E0689B
:10097000804710BD4880704710B50446207820F0AD
:10098000010020702069804710BD1CB50446D4E9E1
:100990000401CDE9000194E80F00FFF7B1FF012841
:1009A00000D11CBDA088618888420CDC2078C0F38F
:1009B000400010B16069804701E0E0688047A0888E
:1009C000401CA08004E02046FFF7D6FF2069804746
:1009D00000BFE6E700B597B0324B0FCBCDE915234A
:1009E000CDE913012F4A1032D2E900109268CDE907
:1009F000110210912C4B10A807C806F057F82B488D
:100A000002F0E8FF29490A2002F0C0FA274906202F
:100A100002F0C8FA264803F099FB25490A2002F0A3
:100A2000B5FA2349052002F0BDFA22480121CDE99B
:100A3000001013A80FC8FFF740FF142219491C31FA
:100A40000BA8FFF763FDDDE90E01CDE900011A48AF
:100A50000BA90EC902F012F81248303090E80E00CF
:100A6000C068CDE9082307910A901448009007A8B0
:100A70000FC801F02DF90B4B4033D3E90020D3E927
:100A80000213CDE90513CDE903200D48009003A81A
:100A90000FC801F01DF90B48FFF74EFE01F01AFEDA
:100AA00017B000BD58780100AC80FF1F1C80FF1FED
:100AB0005880FF1F9480FF1F58350020C488FF1FF7
:100AC000DC88FF1FF488FF1F014631B101290DD0DA
:100AD000022914D0032924D11AE0184A127802F00E
:100AE000010282F0010282F0010024E0134A127830
:100AF000C2F3C00282F0010282F001001BE00F4A43
:100B00001278C2F3401282F0010282F0010012E07A
:100B10000A4A1278C2F3801282F0010282F00100C8
:100B200009E0064A521D127802F0010282F0010229
:100B300082F0010000BF00BF704700003C4005404C
:100B400038B504460020009000252A4800884AF263
:100B5000015108432849A1F8FE0344BB264826302A
:100B6000007800F0070008B9012536E02348006846
:100B7000C0F3C01088B120482A30007800F001008E
:100B800008B9012529E01C483630007820F0010022
:100B9000401C194981F836001FE0174836300078AC
:100BA00020F00100401C144981F8360015E012487D
:100BB0003630007820F001000F4981F8360000BF80
:100BC0000020FFF781FF03460098401C009000982A
:100BD000B0F5805F01D2012BF2D1064800884FF6B4
:100BE000FE71084040F425400349A1F8FE03284661
:100BF00038BD0000FE43054000400540004105406F
:100C000038B504460020009000251F4800884AF2AD
:100C1000015108431D49A1F8FE0394B91B48263031
:100C2000007800F00700052801D101251FE01748D2
:100C30002A30007820F00100401C144981F82A0075
:100C400015E012482A30007820F001000F4981F8A1
:100C50002A0000BF0220FFF737FF03460098401C20
:100C600000900098B0F5805F01D2012BF2D10648C8
:100C700000884FF6FE71084040F425400349A1F872
:100C8000FE03284638BD0000FE43054000400540F5
:100C900000283ED01F4909884AF2015211431D4ADB
:100CA00011800178491E1C4AD2F8002161F31F729D
:100CB0001A490A600179491E174AD2F8002161F3E6
:100CC0001B6216490A60017A491E134AD2F80021B4
:100CD00061F3175211490A608189491E0E4AD2F800
:100CE000002161F310220D490A60017C491E0A4A65
:100CF000D2F8002161F304020749C1F80021B1F8DC
:100D0000FE134FF6FE72114041F42541024AA2F84B
:100D1000FE137047FE43054000400540004105407A
:100D20000D4909884AF2015211430C4AA2F8FE13F8
:100D30001146D1F8001160F3C711C2F80011114635
:100D4000B1F8FE134FF6FE72114041F42541034AFB
:100D5000A2F8FE1370470000FE4305400040054026
:100D600010B586B00446002005902E480068049017
:100D70002C48406803902B48806802902948C0683E
:100D800001902948007800F00700052801D0052CC3
:100D90000DD1264823490860C01248608860C860A9
:100DA00000BF0598401C05900598B028F9D320484D
:100DB00000884AF2015108431B492639A1F8FE0375
:100DC000084690F8260064F3020081F826000846E1
:100DD000B0F8FE034FF6FE71084040F4254012497A
:100DE0002639A1F8FE030020059000BF0598401C9D
:100DF00005900598B028F9D30A490498086003982B
:100E00004860029888600198C8600020059000BF83
:100E10000598401C05900598B028F9D303F052FBC3
:100E200006B010BD0080044026400540EEFAFFFFEA
:100E3000FE43054085B000210491344909680391BF
:100E40003249496802913149896801912F49C9683D
:100E50000091002858D02E49097801F00701052992
:100E60000DD12C49294A1160C91251609160D1609D
:100E700000BF0499491C04910499B029F9D326496B
:100E800009884AF201521143234A11808178C278BD
:100E900041EA0211027941EA0221427941EA023132
:100EA000827941EA0241427841EA0251027841EAFC
:100EB000026141EA0271164A263A1162164909880E
:100EC0004FF6FE72114041F42541114A263AA2F82C
:100ED000FE130021049100BF0499491C0491049958
:100EE000B029F9D3094A0399116002995160019917
:100EF00091600099D1600021049100BF0499491CC0
:100F000004910499B029F9D305B0704700800440DA
:100F100026400540EEFAFFFFFE43054008B50146B6
:100F200002A0006800901DF8010008BD0001020346
:100F300010B503F091F900F0DDFC044801F02DF844
:100F400005F066FE03F090F810BD0000802300203D
:100F500070B50346002011E011F8015B68400024E1
:100F60000AE000F080051DB183EA4005E8B201E027
:100F70004506280E651CECB2082CF2DB151EA2F10A
:100F80000106F2B2E8D170BD10B500BF00F15C03FC
:100F900003EB81131B6823F003031478234300F150
:100FA0005C0404EB8114236000BF00BF00F15C030C
:100FB00003EB81131B6823F00C03547843EA840489
:100FC00000F15C0303EB81131C6000BF00BF00F164
:100FD0005C0303EB81131B6823F01003947843EA4E
:100FE000041400F15C0303EB81131C6000BF00BF1D
:100FF00000F15C0303EB81131B6823F02003D4781A
:1010000043EA441400F15C0303EB81131C6000BF4E
:1010100000BF00F15C0303EB81131B6823F0400366
:10102000147943EA841400F15C0303EB81131C6020
:1010300000BF00BF00F15C0303EB81131B6823F0CA
:101040008003547943EAC41400F15C0303EB811379
:101050001C6000BF00BF00F15C0303EB81131B6841
:1010600023F44073947943EA042400F15C0303EB16
:1010700081131C6000BF00BF00F15C0303EB811310
:101080001B6823F48063D47943EA842400F15C0371
:1010900003EB81131C6000BF00BF00F15C0303EB96
:1010A00081131B6823F40063147A43EAC42400F11B
:1010B0005C0303EB81131C6000BF00BF00F15C0305
:1010C00003EB81131B6823F48053547A43EA0434FE
:1010D00000F15C0303EB81131C6000BF10BD000036
:1010E000F0B503461546002200265F480078002828
:1010F0006FD101205C4F3870DF69884027EA000615
:10110000002E67D0D86900F00100D8B1D1B1986C39
:10111000040C986E0A27B7EB104F13D3986EB4EBFC
:10112000104F0FD909E0501C82B2B2F5A04F04D97C
:1011300000204D4F38700920F0BDD86900F0010043
:101140000028F0D1D86900F00200022820D101293E
:101150001ED0D3F88800040CD3F8A8000A27B7EBF8
:10116000104F15D3D3F8A800B4EB104F10D90022BC
:1011700009E0501C82B2B2F5A04F04D900203A4FCA
:1011800038700920D8E7D86900F002000028F0D1B3
:10119000D86900F00400042822D1022920D00022BE
:1011A000D3F8C800040CD3F8E8000A27B7EB104FB7
:1011B00016D3D3F8E800B4EB104F11D90BE0501C54
:1011C00082B2B2F5A04F06D90020274F387009200F
:1011D000B2E746E02AE0D86900F004000028EED12A
:1011E000D86900F00800082820D103291ED0002269
:1011F000D3F80801040CD3F828010A27B7EB104FE5
:1012000014D3D3F82801B4EB104F0FD909E0501CC8
:1012100082B2B2F5A04F04D90020134F38700920D4
:101220008AE7D86900F008000028F0D14DB1012DFF
:1012300012D1D86901278F4007F00F073843D861D2
:101240000AE0D86901278F404FF00F0C2CEA070CF9
:1012500000EA0C00D86100BF00BF0020024F3870C8
:101260006AE7012068E700000480FF1F70B50346AD
:10127000002039B1012905D0022903D0032901D06A
:10128000042026E032B1012A0AD0022A10D0032A13
:101290001CD113E05C6901258D402C435C6117E093
:1012A0005C6901F110050126AE4034435C610FE03A
:1012B0009C6901258D402C439C6109E09C6901F1EA
:1012C00010050126AE4034439C6101E0042000BFBC
:1012D00000BF70BD026861F300020260704770B524
:1012E0000346002039B1012905D0022903D0032982
:1012F00001D0042026E032B1012A0AD0022A10D0FF
:10130000032A1CD113E0DC6801258D40AC43DC606E
:1013100017E0DC6801F110050126AE40B443DC6043
:101320000FE01C6901258D40AC431C6109E01C697C
:1013300001F110050126AE40B4431C6101E0042018
:1013400000BF00BF70BD000070B505460C461646D4
:1013500001212846FFF7BEFF05F15C0000EB841079
:10136000006820F4805105F15C0000EB84100160FE
:1013700005F1400000EB84107168016005F1440044
:1013800000EB8410B168016000BF05F1480000EB7C
:10139000841000686FF309003188084305F14801A3
:1013A00001EB8411086000BF00BF718805F148009F
:1013B00000EB8410006861F31F4005F1480101EB68
:1013C0008411086000BF00BF05F14C0000EB8410E1
:1013D00000686FF30900B189084305F14C0101EB86
:1013E0008411086000BF00BF05F14C0000EB8410C1
:1013F00000682B490840F18940EA014105F14C00A1
:1014000000EB8410016000BF00BF05F1500000EB4D
:10141000841000686FF313007169084305F15001EF
:1014200001EB8411086000BF00BF318B05F1500053
:1014300000EB8410006861F31F5005F1500101EBCF
:101440008411086000BF00BF05F1540000EB841058
:1014500000686FF31300F169084305F1540101EBD3
:101460008411086000BF00BF318C05F1540000EB0F
:101470008410006861F31F5005F1540101EB8411E1
:10148000086000BF05F1580000EB8410316901606D
:1014900006F1240221462846FFF776FD70BD0000C4
:1014A000FFFF00FC30B503460024002003F1440593
:1014B00005EB81152A600BE0651CACB2B4F5805FCA
:1014C00001D9092004E003F1440505EB81152A60E8
:1014D00003F1640505EB81152D689542ECD130BD13
:1014E00030B503460024002003F1400505EB8115CB
:1014F0002A600BE0651CACB2B4F5805F01D909200D
:1015000004E003F1400505EB81152A6003F1600555
:1015100005EB81152D689542ECD130BD70B50346C1
:101520000024002000BF03F1480505EB81152D685C
:1015300062F31F4503F1480606EB8116356000BFD4
:1015400014E0651CACB2B4F5805F01D909200DE050
:1015500000BF03F1480505EB81152D6862F31F45B7
:1015600003F1480606EB8116356000BF03F16805FC
:1015700005EB81152D68B2EB154FE2D170BD00006F
:1015800010B5094B984205D1084C04EB8103C3F810
:10159000142807E0064B984204D1044C04EB810365
:1015A000C3F8242810BD00000030054000000140B1
:1015B000003405402DE9F04104460025A8461EE010
:1015C00004F2BA30425D691C405C824215D104F2DB
:1015D000BA30425D4046411C1FFA81F804F2BA312C
:1015E0000A540846691C425CA91C405C824201D135
:1015F000022000E00120284485B2681C85B2B4F8BE
:10160000B803A842DCDCA4F8B883002637460025DE
:101610000DE004F2BA30405D202800D1EEB204F2B1
:10162000BA30405D212800D1EFB2681C85B2B4F811
:10163000B803A842EDDCBE4278D00020A4F87004C4
:10164000751C41E004F2BA30405D0F2824DC04F23E
:10165000BA30691C405C10281EDB04F2BA30405DD1
:101660000007010EB4F8702404F257408154B4F816
:101670007014405C04F2BA316A1C895C103908436A
:10168000C1B2B4F8702404F257408154B4F8700425
:10169000401CA4F8700415E004F2BA30405D0F2835
:1016A00005DD04F2BA30691C405C10280ADBFF211A
:1016B000B4F8702404F257408154B4F87004401C0C
:1016C000A4F87004A81C85B2BD42BBDBB4F870045A
:1016D00020B9207820F00400207027E094F87004EE
:1016E000401EC2B204F257410720FFF731FC014609
:1016F000B4F87004401E04F25742105C81420DD1D0
:10170000207820F00400001D2070032084F8560487
:10171000B4F87004401EA4F8700407E0207820F0AC
:101720000400001D2070012084F856040020A4F855
:10173000B803BDE8F0812DE9FE41014600230026F3
:1017400000240027002200BF31E001F2BA30805CA3
:1017500020280CD1D0B203EB430C0DF80C00002074
:1017600003EB430CE846C4448CF802001DE001F290
:10177000BA30805C212808D103EB430CE846C4440E
:101780008CF80120581CC3B20FE003EB4300EC4679
:10179000604490F802C001F2BA30805C604403EB10
:1017A000430CE846C4448CF80200501C82B2B1F8E5
:1017B000B803904201DD032BC7DB022B22DB01269D
:1017C000002400221CE00127501C85B214E002EB2B
:1017D0004200EC466044807805EB450CE846C44482
:1017E0009CF802C0604505D1781CC7B2B74201DD44
:1017F0003E46D4B2681C85B29D42E8DB501C82B2E2
:101800009A42E0DB022E70DB04EB4400EC466044BD
:10181000407804EB440C1DF80CC0A0EB0C00401EFB
:1018200082B24AB1104602EBD07C4FEA6C0CA2EBBC
:101830004C0CBCF1010F03D14FF0FF30BDE8FE812D
:101840000020A1F8700404EB44001DF80000421CC5
:101850003DE001F2BA30805C0F282FDC01F2BA3093
:1018600002F1010C10F80C00102827DB01F2BA304D
:10187000805C00074FEA106CB1F8708401F25740A9
:1018800000F808C0B1F870C410F80C0001F2BA3CBE
:1018900002F101081CF808C0ACF1100C40EA0C0081
:1018A00000F0FF0CB1F8708401F2574000F808C056
:1018B000B1F87004401CA1F8700406E0087820F02C
:1018C000040008704FF0FF30B8E7901C82B204EBC0
:1018D0004400EC46604440789042BADC087820F03E
:1018E0000400001D087081F856640020A1F8B803B8
:1018F00000BFA3E7064800684FF47A71B0FBF1F02F
:101900004FF0E021486100208861052008617047A0
:101910000080FF1F30B589B00446202101A8FEF7E2
:1019200049FE2078C0F3400008B909B030BD314904
:101930008989D4F85001884241D32E48E16800F0EB
:1019400044FB2C488389D4F85421E16800F061FB02
:1019500028498989E0680844E06026498989D4F8E3
:101960005001B0FBF1F201FB120080B121498989DD
:10197000D4F85001B0FBF1F201FB12051D4B9B891D
:10198000D4F85421D11810462A46FEF77AFD194999
:101990008989D4F85001B0FBF1F201FB1200C4F8C0
:1019A00050011E2000906A4601A9FF2001F074FE3C
:1019B000012804D1BDF8001001A862689047207882
:1019C000C0F3800098B10B48E16800F0FEFA0948C6
:1019D000D4F85031D4F85421E16800F01AFBD4F85F
:1019E0005011E0680844E060204602F0E1FB00BFCF
:1019F0009BE7000080230020014908607047000039
:101A0000140401400349096860F30001014A1160B0
:101A1000704700000C040140012801D0012200E0C1
:101A200000220349096862F30001014A116070470E
:101A300004040140014604480068084008B1012040
:101A400070470020FCE700001004014004480068D3
:101A5000012804D143F21020014908600860704752
:101A60000004014070B50346002400263F20FFF724
:101A7000C3FF18480068C0F300451648006820F40A
:101A80008030144908600120FFF7BCFF042000F0FB
:101A900025F81148186005E0601C84B2B4F5805F39
:101AA00000D909260B4808300068C0F30020002840
:101AB000F2D01020FFF7A0FF002000F00FF8002068
:101AC000FFF7A0FF0348006865F310400149086074
:101AD000304670BD08040140785634120349096845
:101AE00060F30611014A1160704700000C040140C8
:101AF0000349096860F30711014A1160704700004B
:101B000008040140F0B503460C46002600253F209E
:101B1000FFF772FF19480068C0F3004717480068D4
:101B200020F48030154908600120FFF76BFF012089
:101B3000FFF7D4FF1C6005E0681C85B2B5F5805F37
:101B400000D909260D4808300068C0F3002000289D
:101B5000F2D01868A04200D001261020FFF74CFFF9
:101B60000020FFF7BBFF0020FFF74CFF0348006891
:101B700067F31040014908603046F0BD0804014099
:101B800040F223100249086043F2102008607047B9
:101B9000000401401CB500231A464FF40041012007
:101BA00001F086FB00BF00200090019000BF8DF87F
:101BB00000008DF804006A464FF40041012001F056
:101BC000E9FA00231A464FF48041012001F070FB2E
:101BD00001208DF8000000208DF8060002208DF80D
:101BE000050000208DF802008DF804006A464FF4CD
:101BF0008041012001F0CEFA1CBD10B54FF4004128
:101C0000012001F0B7FA0446012C00D110BD0020DC
:101C1000FCE710B54FF48041012001F02DFB10BD11
:101C200010B54FF48041012001F034FB10BD1CB50C
:101C300000231A464FF40051012001F039FB00BF88
:101C400000200090019000BF8DF800008DF8040086
:101C50006A464FF40051012001F09CFA00231A4615
:101C60004FF48051012001F023FB01208DF800008A
:101C700000208DF8060002208DF8050000208DF868
:101C800002008DF804006A464FF48051012001F0F3
:101C900081FA1CBD10B54FF40051012001F06AFA21
:101CA0000446012C00D110BD0020FCE710B54FF414
:101CB0008051012001F0E0FA10BD10B54FF48051C1
:101CC000012001F0E7FA10BD4A8802444A807047BB
:101CD0001FB5069C18212046FEF76CFC0098A060FA
:101CE0000199E1600299216103996161204600F048
:101CF00046F8A06808B1A0688047206908B120694B
:101D000080471FBD0FB410B50798804710BC5DF821
:101D100014FB0FB49DF8000000F0010080F00100FA
:101D200004B070477CB504460D46D4E90401CDE902
:101D3000000194E80F00FFF7E5FFB8B1D4E9040112
:101D4000CDE9000194E80F00FFF7E3FF012806D179
:101D50002146284600F011F80020A08003E021462B
:101D60002846FFF7B1FF204600F001F87CBD01785E
:101D700021F00101491C01707047488070470178CB
:101D800021F00101017070471CB50446D4E904013B
:101D9000CDE9000194E80F00FFF7BBFF012800D157
:101DA0001CBDA0886188884205DCE0688047A08867
:101DB000401CA08004E02046FFF7E1FF2069804737
:101DC00000BFEDE7024601231048104448B1B0F5CA
:101DD000806F0AD0B0F5804F0BD0B0F5884F10D18E
:101DE0000BE009B1002008700DE009B10120087076
:101DF00009E009B10220087005E009B1032008706C
:101E000001E0002300BF00BF012070470030FEBF8B
:101E10003CB5038940F2AD3493FBF4F504FB153473
:101E200000F10A031B5D8DF8003003895B1C40F252
:101E3000AD3493FBF4F504FB153400F10A031B5D8C
:101E40008DF8013003899B1C40F2AD3493FBF4F50F
:101E500004FB153400F10A031B5D8DF80230038981
:101E6000DB1C40F2AD3493FBF4F504FB153400F1B8
:101E70000A031B5D8DF8033003891B1D40F2AD344E
:101E800093FBF4F504FB153400F10A031B5D8DF898
:101E9000043003895B1D40F2AD3493FBF4F504FB81
:101EA000153400F10A031B5D8DF805300022002176
:101EB00020E09DF8003002EB4204234D15F8144059
:101EC000A34212D101210DE01DF8013002EB4204C2
:101ED0001D4D05EB4404645CA34202D14B1CD9B2F6
:101EE00000E001E00629EFDB00BF062900DB03E08C
:101EF000531CDAB2222ADCDB00BF06291AD103897F
:101F00009B1D40F2AD3493FBF4F504FB15330381C4
:101F10000E4B9C5CB0F8B85300F2BA335C55B0F885
:101F2000B8335B1C9C2493FBF4F504FB1533A0F839
:101F3000B83308E003895B1C40F2AD3493FBF4F541
:101F400004FB153303813CBD7682010054820100FD
:101F500001462220425C2320405C42EA0020704778
:101F6000012070474FF4007070474FF400507047E5
:101F700030B503461868884203D888185D68A842BF
:101F800001D3002030BD002403E008780444521E31
:101F9000491C002AF9D12046F4E700B5024600208A
:101FA000106050609060D060FFF7DFFF9081FFF716
:101FB000D9FF90600020106050604FF48063D2E938
:101FC000010103FB0100506000BD70B506460C46E0
:101FD000FFF7D6FD0120FFF71FFD00BF4FF4807013
:101FE000FFF728FD0128F9D12046FFF73BFD054604
:101FF000FFF72CFD284670BD30B50546144600227B
:1020000003E00878A054491C521C9A42F9D31846A0
:1020100030BD2DE9FF4F83B006460F469B46B5897C
:102020004FF00009DA46BAF1000F03D1002007B0E3
:10203000BDE8F08F3068B84270D807EB0A007168CD
:1020400088426BD22946002004F0E4FF8146B9F1B2
:10205000000F01D10020EAE7FFF792FD0120FFF712
:10206000DBFC00BF4FF48070FFF7E4FC0128F9D1DE
:1020700030683F1AB7FBF5F808FB05F8B7FBF5F039
:1020800005FB107080B202900298281A80B201906D
:1020900039E0306800EB08012B464A463046FFF72E
:1020A000ABFF002406E00598015D0298204409F882
:1020B0000010641C0198504501D2019800E0504680
:1020C000A042F0D8AAEB040A059820440590316894
:1020D00001EB0800FFF7C6FC002407E059F80410E4
:1020E000326842441019FFF70DFD241DAC42F5D3B0
:1020F000A844BAF1000F00D106E000200290029837
:10210000281A80B20190C4E700BF4946002004F0BD
:102110006FFFFFF79BFC584689E7FFE7002086E743
:1021200010B54FF40051064803F0B2F838B1054835
:1021300000F018FD4FF40051014803F07DF810BD88
:10214000004802405835002038B5104D104C697BCE
:10215000A86803F0F5FA012816D1697BA86803F096
:1021600053FAA868006880B20090207820F001003F
:10217000401C207000206070BDF800006080207856
:1021800020F008000830207038BD000044830100B2
:102190009023002038B5104D104C697BA86803F0DF
:1021A000CFFA012816D1697BA86803F02DFAA86838
:1021B000006880B20090207820F00100401C207060
:1021C00000206070BDF800006080207820F00800DA
:1021D0000830207038BD00005C8301000228002018
:1021E00038B5104D104C697BA86803F0A9FA012896
:1021F00016D1697BA86803F007FAA868006880B266
:102200000090207820F00100401C207000206070B9
:10221000BDF800006080207820F0080008302070B1
:1022200038BD000074830100742C002038B5104DB7
:10223000104C697BA86803F083FA012816D1697BEA
:10224000A86803F0E1F9A868006880B200902078DF
:1022500020F00100401C207000206070BDF80000DC
:102260006080207820F008000830207038BD000021
:102270008C830100E630002010B54FF40051064871
:1022800003F006F830B102F031F84FF40051024883
:1022900002F0D2FF10BD00000070014010B50248EE
:1022A00004F01EF910BD0000CC8AFF1F10B50248D3
:1022B00004F038F910BD0000CC8AFF1F10B50248A9
:1022C00004F04EF910BD0000CC8AFF1F10B5024883
:1022D00004F0E1F910BD0000CC8AFF1F10B50248E0
:1022E00004F0BCF910BD0000CC8AFF1F10B50248F5
:1022F00004F0B0F810BD0000CC8AFF1F10B50248F2
:1023000004F0EEF810BD00001C93FF1F10B502484A
:1023100004F008F910BD00001C93FF1F10B502481F
:1023200004F01EF910BD00001C93FF1F10B50248F9
:1023300004F0B1F910BD00001C93FF1F10B5024856
:1023400004F08CF910BD00001C93FF1F10B502486B
:1023500004F080F810BD00001C93FF1F30B587B05B
:1023600000BF00200590069000BF00BF02900390C0
:10237000049000BF00BF0090019000BF0121042025
:1023800001F004F80121082001F000F801211020DB
:1023900000F0FCFF0121202000F0F8FF012148049B
:1023A00000F0C8FF00208DF800008DF802008DF8C5
:1023B0000400002420E004EB4402484B03EBC2027B
:1023C000518804EB440213F832006A4600F0E2FE42
:1023D00004EB4403414D05EBC3031A7904EB4403BA
:1023E00005EBC303598804EB440315F833000023BD
:1023F00000F05EFF601CC4B2042CDCDB05208DF80D
:10240000140000208DF8150001208DF81600002022
:102410008DF817004FF6FF70ADF8180000240AE0A1
:1024200004EB44012D4A02EBC101886805A903F0C1
:1024300045F8601CC4B2042CF2DB00208DF80800C3
:1024400001208DF8090000208DF80A00002431E0F9
:1024500004EB4402214B03EBC202117B04EB440268
:1024600003EBC202906802AA03F06EF804EB440288
:102470001A4B03EBC202917B04EB440203EBC20252
:102480009068012203F0BAF904EB4403134D05EB05
:10249000C30393F9142004EB440305EBC303B3F91E
:1024A000121004EB440305EBC303188A00F018F87C
:1024B000601CC4B2042CCBDB00240AE004EB440112
:1024C000064A02EBC1018868012103F011F9601C82
:1024D000C4B2042CF2DB07B030BD0000448301001D
:1024E0002DE9F04106460C4615462146304600F0DF
:1024F000A1F820462946002804DB0A07130E134AD8
:10250000135406E00A07170E114A00F00F031B1FB1
:10251000D75400BF2046002807DB00F01F0201212E
:1025200091400C4A430942F8231000BF204600287E
:1025300009DB00F01F02012191404209920002F1E3
:10254000E022C2F8001100BFBDE8F08100E400E025
:1025500018ED00E080E200E010B504F0F3FB10BDE0
:102560001CB500BF00200090019000BF0A208DF82C
:10257000010003208DF800000F208DF802000020DC
:102580008DF8030001208DF80400684604F0BCFBC0
:102590001CBD000070B50024202916DBC51700EB18
:1025A000D5656D1105EB4505202606EB45058D42E9
:1025B0000ADCC51700EBD5656D1105EB4505252631
:1025C00006EB45058D4200DA70BD054A042303FB86
:1025D0000124226860F30802226000BFF4E70000D3
:1025E0005C10054070B50024202916DBC51700EBF0
:1025F000D5656D1105EB4505202606EB45058D4299
:102600000ADCC51700EBD5656D1105EB45052526E0
:1026100006EB45058D4200DA70BD054A042303FB35
:102620000124226860F30802226000BFF4E7000082
:102630005C10054070B50024202916DBC51700EB9F
:10264000D5656D1105EB4505202606EB45058D4248
:102650000ADCC51700EBD5656D1105EB4505252690
:1026600006EB45058D4200DA70BD054A042303FBE5
:102670000124226860F30802226000BFF4E7000032
:102680005C10054070B50024202916DBC51700EB4F
:10269000D5656D1105EB4505202606EB45058D42F8
:1026A0000ADCC51700EBD5656D1105EB4505252640
:1026B00006EB45058D4200DA70BD054A042303FB95
:1026C0000124226860F30802226000BFF4E70000E2
:1026D0005C10054010B5FFF741FE10BD70B5054612
:1026E0002C462078C0F3400098B30121E28804F121
:1026F0000A008154E088401C40F2AD3190FBF1F2B9
:1027000001FB1200E08002E02046FFF781FBE08839
:1027100000F2AD302189401A40F2AD3190FBF1F268
:1027200001FB12000628EFDA2078C0F3001018B180
:102730002046FFF700F802E02046FEF73BFF207836
:1027400020F001002070207820F00200207000208E
:10275000607070BD70B50024002529E040F239207A
:102760006843154901EB4004204600F029F8204653
:10277000FFF7B4FF2078C0F38000B8B12846FEF719
:10278000CDFB06460D482146C268304600F09AF857
:10279000207820F0040020700020A4F8700484F851
:1027A0005604207820F0200020302070681CC5B22C
:1027B000042DD3DB70BD000090230020AC80FF1FF0
:1027C00030B5024610460378C3F3C003002B53D044
:1027D000037823F00803037043888488A34204DA53
:1027E000438884881B1B99B203E0438884881B1BA1
:1027F00099B2232907DD4B2905DA0124C58800F1A8
:102800000A035C552DE0592907DD812905DA0224E8
:10281000C58800F10A035C5523E0902907DDB8293B
:1028200005DA0324C58800F10A035C5519E0C729BD
:1028300007DDEF2905DA0424C58800F10A035C5599
:102840000FE0FD2908DDB1F5927F05DC0524C58880
:1028500000F10A035C5504E0FF24C58800F10A0377
:102860005C55C3885B1C40F2AD3493FBF4F504FB6C
:102870001533C3804388838030BD01460846027803
:1028800002F0010252B14278521C42704278022A90
:1028900004DD027822F00202921C027070470000F0
:1028A00010B5002409E040F239216143044A02EBEB
:1028B0004100FFF7E2FF601CC4B2042CF3DB10BD43
:1028C00090230020F0B589B006460D461746002437
:1028D0005A222146641C01A8425400222146641C4D
:1028E0004254CB222146641C42542146641C465467
:1028F00095F856242146641C4254B5F8702401A969
:10290000081905F25741FDF7BCFDB5F870042044E5
:1029100084B2AA222046611C8CB201A90A54E0B2FA
:102920008DF80500214601A8B84709B0F0BD0000A8
:102930000348008820F0400040300149088070477B
:10294000484802400A49098821F040014031084ABC
:1029500011801146098821F0100110311180911F5A
:102960000880891D098821F040011180704700000E
:10297000484802401CB500BF00200090019000BFF5
:1029800001208DF800006A460221002000F002FCC0
:102990000221002000F070FC6A460821002000F0AF
:1029A000F9FB0821002000F067FC6A464FF48051D3
:1029B000002000F0EFFB4FF48051002000F05CFCA1
:1029C0006A464021012000F0E5FB4021012000F093
:1029D00053FC1CBD10B51348007DC0F3400018B176
:1029E0004021012000F048FC0E48007DC0F380002B
:1029F00018B10221002000F03FFC0A48007DC0F31E
:102A0000C00020B14FF48051002000F035FC054893
:102A1000007DC0F3001018B10821002000F02CFC4C
:102A200010BD00005835002010B51348007DC0F3DC
:102A3000400018B14021012000F02CFC0E48007D20
:102A4000C0F3800018B10221002000F023FC0A48E6
:102A5000007DC0F3C00020B14FF48051002000F091
:102A600019FC0548007DC0F3001018B108210020B2
:102A700000F010FC10BD0000583500200FB410B558
:102A8000044640212046FDF795FD039820600498F8
:102A900060600598A0600698E06007982061206853
:102AA00008B120688047A06808B1A0688047206905
:102AB00008B1206980476420A087207D20F00200B3
:102AC000801C2075207D20F00400001D2075207DD5
:102AD00020F0080008302075207D20F01000103014
:102AE000207510BC5DF814FB0EB5FFF743FF00BF67
:102AF000002000900190029000BF0121480200F0E8
:102B000045FC00208DF805008DF8030001208DF8AC
:102B100004000020ADF800008DF802008DF80600DA
:102B200001208DF8070000208DF808008DF80900BD
:102B300069460B4802F0C4FB00214FF4AB70FFF76D
:102B4000A1FD0021084604F053F9002004F014F917
:102B5000002004F02CF9024802F096FC0EBD0000A3
:102B60000048024038B5044604F11805287969790F
:102B7000884272DA2979286810F8210010B160685B
:102B8000804701E0A06880472B792A6802EB830226
:102B90005088E16888472879401CC0B2287169795B
:102BA00088425ADB0020287194F83B00401CC0B2D8
:102BB00084F83B00032850DB00202034E076607866
:102BC00014F82019884233DA94F8210000EBD07110
:102BD0004910A0EB410191B994F8210000EBD071AC
:102BE0004A1004F12201895C091100919DF800004E
:102BF00000EB40001A4901EB0010286028E094F82F
:102C0000210000EBD0714A1004F12201895C01F02F
:102C10000F0100919DF800001030C0B200909DF8A7
:102C2000000000EB40000E4901EB001028600FE0AF
:102C300094F8210094F82010884202D109482860B5
:102C400006E0207D20F0010020752069804738BD16
:102C500094F82100401C84F8210000BFF7E7000031
:102C6000F4840100248B010070B504460E4615461D
:102C7000207D00F0010050BB192D28DA207D20F0C6
:102C80000100401C2075002084F83B0084F82100DE
:102C9000022000EB450084F82000EAB2314607200C
:102CA000FEF756F904F12201485505E0681E325C32
:102CB00004F122010A5485B2002DF7D100212177B9
:102CC0000348A0610C2161772820E168884770BD26
:102CD000F48A010010B50446204600F0D9F9206BB3
:102CE00008B1206B8047A06B08B1A06B80472146DC
:102CF000642000F04BF910BD0146087800F0010097
:102D000080F00100704770B505460C46072D3CD297
:102D1000DFE805F004090E2029321300A06B08B18A
:102D2000A06B804732E0606B08B1606B80472DE09C
:102D3000E06B08B1E06B804728E0606B08B1606B26
:102D40008047A06B08B1A06B8047E06B08B1E06BD7
:102D500080471BE0606B08B1606B8047A06B08B1D7
:102D6000A06B804712E0606B08B1606B8047E06B3E
:102D700008B1E06B804709E0A06B08B1A06B804709
:102D8000E06B08B1E06B804700E000BF00BF70BDA2
:102D900010B50446204600F075F8206B08B1206B92
:102DA0008047206C08B1206C80472146642000F0E9
:102DB00008F810BD0146087800F0010080F001001D
:102DC0007047642801DD642200E002464A704A78B8
:102DD0000A2392FBF3F24A70704781F82E00704785
:102DE00070B505460E46144694F82D00A84200D151
:102DF00070BD207820F00100207084F82D5027212C
:102E0000A01DFDF7B5FB94F82D0001281AD002286B
:102E10000AD003280FD004281CD12522154904F11B
:102E20000800FDF72EFB1CE02522134904F10800E1
:102E3000FDF727FB15E02522104904F10800FDF7F6
:102E400020FB0EE025220C4904F10800FDF719FBD8
:102E5000E67006E025220A4904F10800FDF711FB9F
:102E600000BF00BF207820F00100401C207000BF90
:102E7000BEE700009E8B0100548B0100798B01009E
:102E8000C38B0100017821F001010170704710B57A
:102E900004462046FFF78EFF012800D110BD2046D2
:102EA00000F04EF8A088401CA080A088632804DDB4
:102EB0000020A080204600F002F800BFEEE730B509
:102EC0000346002200249A1D1078122190FBF1F590
:102ED00001FB1501D01C00EB41045078C8B96078A3
:102EE000012800D100E00020197860F34101197039
:102EF00093F82D0001280CD11878C0F3400040B1A0
:102F0000D87818B91846FFF7BDFF02E0D878401E00
:102F1000D8705078401C217888420DDB002050701A
:102F20001078401C9178884202DB0020107006E087
:102F30001078401C107002E05078401C507030BD7A
:102F400010B504462078C0F34000D0B1A078617875
:102F5000884205DA94F82E002146FFF7D4FE07E0F8
:102F6000A0786178884203DD206C08B1206C80472E
:102F7000A078401CA070A078092806DD0020A07071
:102F800003E0206C08B1206C804710BD642801DD8F
:102F9000642200E002464A704A780A2392FBF3F268
:102FA0004A70704770B505460C4694F82D00A8424B
:102FB00000D170BD207820F00100207084F82D50E1
:102FC0002721A01DFDF7D4FA94F82D0008283DD242
:102FD000DFE800F0352E272019120B0425222349A3
:102FE00004F10800FDF74DFA37E02522204904F1ED
:102FF0000800FDF746FA30E025221E4904F10800DA
:10300000FDF73FFA29E025221B4904F10800FDF7EE
:1030100038FA22E02522194904F10800FDF731FAB7
:103020001BE02522164904F10800FDF72AFA14E0F6
:103030002522144904F10800FDF723FA0DE02522AA
:10304000114904F10800FDF71CFA06E025220F499A
:1030500004F10800FDF715FA00BF00BF207820F04A
:103060000100401C207000BFA3E7000007820100A0
:1030700004810100298101004E810100738101005A
:1030800098810100BD810100E28101002C820100D4
:10309000017821F001010170704710B50446204607
:1030A00000F043F8A088401CA080A088632804DDBD
:1030B0000020A080204600F001F810BD30B5034686
:1030C000002200241846FFF717FE012800D130BD6A
:1030D0009A1D1078122190FBF1F501FB1501D01C0F
:1030E00000EB4104507840B96078012800D100E03D
:1030F0000020197860F3410119705078401C217844
:1031000088420DDB002050701078401C9178884276
:1031100002DB0020107006E01078401C107002E006
:103120005078401C507000BFD1E710B5044620789D
:10313000C0F34000C8B1A0786178884204DA606BBF
:1031400050B1606B804707E0A0786178884203DD6A
:10315000A06B08B1A06B8047A078401CA070A0783D
:10316000092806DD0020A07003E0A06B08B1A06B69
:10317000804710BD10B502460548102404FB020329
:103180001868084008B1012010BD0020FCE70000CD
:1031900000380540F0B505460F461346002400F000
:1031A000C1F800BF57E00120A0403840002850D0AF
:1031B0002C4800EB851000EB84022A48801C00EBB1
:1031C000851000EB84065978108861F38E301080EA
:1031D0009978108861F30C301080D978108861F3E9
:1031E000492010801979108861F386101080997930
:1031F000108861F3820010805979108861F30510FE
:103200001080187820B101280BD002281AD112E0C2
:10321000108820F400401080108820F002001080F8
:1032200011E0108820F400401080108820F0020087
:10323000801C108007E0108820F4004000F500405A
:10324000108000E000BF00BFD979308861F308200A
:103250003080601CC4B2102CA5D300F005F800200B
:10326000F0BD0000003C05404FF4254001490880B6
:1032700070470000FC3B054010B50246044810248E
:1032800004FB0203188808431880002010BD0000CA
:103290000A38054010B502460448102404FB020316
:1032A000188808431880002010BD00000838054029
:1032B000F0B504460D4616461F46002300F032F8CE
:1032C000002319E001209840284098B10D48402182
:1032D00001FB0400042101FB0302108866F30500D2
:1032E0001080012F01D1012000E00020118860F33F
:1032F00008211180581CC3B2102BE3D3FFF7B4FF91
:103300000020F0BD023C054010B5024604481024E0
:1033100004FB0203188808431880002010BD000039
:103320000C3805404AF201500149088070470000FE
:10333000FC3B05400B4A12690B4B1A43094B1A61BF
:10334000012904D11A46126882431A6004E0054A32
:1033500012680243034B1A60034A521E014B1A6162
:1033600070470000008004400100A5A5012905D197
:10337000054A52688243044B5A6004E0024A52688C
:103380000243014B5A60704700800440012905D177
:10339000054A92688243044B9A6004E0024A9268AC
:1033A0000243014B9A607047008004402DE9F04FC2
:1033B00085B004460E46904699461D4D032C03DA0F
:1033C000002005B0BDE8F08FB4F5967F01D900204C
:1033D000F7E77078B17840EA012B95F84D010028A5
:1033E00008DD2846FEF7B4FD0746BB4502D0284657
:1033F00000F012FB2246314605F12100FDF741F8AD
:1034000085F84D414FF0000AFF200DF80A000AF13F
:10341000010A08498989D5F85001884205D24A46EF
:103420004146FF2000F038F9CBE70020C9E7000053
:103430003889FF1F802300202DE9F04705460C4600
:1034400090469946092D02DA0020BDE8F087094828
:1034500000F0E2FAD4F80170D4F80560054807617D
:103460004661006820F00400001D02490860002049
:10347000EBE700003889FF1F2DE9F04786B00646CC
:103480000D4691469A46092E03DA002006B0BDE8A3
:10349000F087D5F80170D5F805800B480761C0F8B2
:1034A000148000F069FE0024FA2001A90855641C6C
:1034B00000200855641C53464A46214601A800F0E6
:1034C000BAF9C0B2E2E700003889FF1F2DE9F047E2
:1034D00090B004460E4691469A46242107A8FDF76F
:1034E00069F84FF00008062E03DA002010B0BDE89E
:1034F000F0876578A0780006E17840EA01402179FC
:1035000040EA0120617940EA0107002D25DD022D06
:1035100023DC05EB850000EBC510114901EB001819
:1035200005EBC5000F4A02EB8001242207A8FCF737
:10353000EDFF089714220BA96846CDF81480FCF71C
:10354000E5FF07A80FC802F0F7FC53464A4631468C
:10355000204600F070F9C0B2C8E70020C6E70000BE
:10356000CC8AFF1FA08001002DE9F04705460E46DA
:10357000904699460027032E02DA0020BDE8F08726
:103580006C78002C19DD022C17DC04EB840000EBB6
:10359000C4100B4901EB0017A87818B9384602F09F
:1035A000D6FC02E0384602F0D8FC4B464246314693
:1035B000284600F040F9C0B2E0E70020DEE7000056
:1035C000CC8AFF1F70B586B005460E460024012048
:1035D00001A90855641C0855641C05200855641C85
:1035E00033462A46214601A800F025F9C0B206B0AC
:1035F00070BD00002DE9F0479AB082460E4617468E
:1036000098464FF000090025D6F80150681CF8B123
:103610001F48006800F500401D498989042202FB0B
:103620000100A84214D81A48006800F50040184963
:10363000898902FB0101164880895203C2EB4020B0
:10364000134A9289042303FB12000844A8420BD8B2
:103650000F48006800F500400D498989042202FBEB
:1036600001000C49886001E00A4885600024307838
:1036700001A90855641C01A800F80490641C434685
:103680003A46214600F0D7F8C0B21AB0BDE8F0873C
:10369000802300203889FF1FF0B585B005460F460E
:1036A000164614216846FCF785FF00240DF80450E7
:1036B000641C33463A462146684600F0BCF8C0B266
:1036C00005B0F0BD10B50346F3B1E9B118785A283A
:1036D0001AD10888042804DA0AB1012010600120F8
:1036E00010BD5C780888A04204DA0AB1012010609D
:1036F0000120F5E7601E185CAA2805D10C800AB1EC
:10370000002010600120EBE70AB1002010600020CB
:10371000E6E730B5024600200B4603E01478044487
:10372000E0B2521C1C1EA3F10103F7D130BD2DE9FC
:10373000F04304460F4615469846DDF81C90002CD1
:1037400074D0002F72D0207855286FD13888032884
:1037500005DA0DB1012028600120BDE8F083A078D2
:1037600000283FD13888072804DA0DB101202860ED
:103770000120F2E7E07861790844FF2856D12079EA
:10378000A1790844FF2851D1E078217940EA012647
:103790004E4501DD0020E0E7398806F1090080B2DE
:1037A000814204DA0DB1012028600120D5E73146BD
:1037B000E01DFFF7AEFFF11D615C884236D106F1D6
:1037C0000800205CAA2831D106F1090038800DB12B
:1037D00000202860B8F1000F02D00120C8F80000D6
:1037E0000120BAE7A6783988701D814204DA0DB14C
:1037F000012028600120B0E73146E01CFFF789FF77
:10380000F11C615C884211D1301D205CAA280DD1C9
:10381000701D38800DB100202860B8F1000F02D073
:103820000020C8F80000012097E7FFE70DB1002055
:103830002860002091E72DE9F04107460C46154627
:103840001E4614B90020BDE8F0813188A01D8142D8
:1038500001DA0020F7E722463946E81CFCF711FEA2
:1038600055202870FEF77CFB6870AC702146E81C80
:10387000FFF74FFFE11C6854AA21201D2954601D49
:1038800030800120DFE72DE9F04104460D46164661
:103890001F464FF000082078F92830D008DC0128B6
:1038A0000DD0022811D0112831D012283DD135E099
:1038B000FA280CD0FB2812D0FF2836D117E0394661
:1038C0003046FFF77FFE804630E000BFFEE73B4614
:1038D000324621462846FFF7CFFD804626E03B468C
:1038E000324621462846FFF7A7FD80461EE03B46AC
:1038F000324621462846FFF759FD804616E03B46F2
:10390000324621462846FFF775FE80460EE03B46CC
:10391000324629462046FFF7D9FD07E03B463246AE
:1039200029462046FFF720FE00E000BF00BF4046CA
:10393000BDE8F0811CB500231A464FF480710120C8
:10394000FFF7B6FC00BF00200090019000BF0120EF
:103950008DF8000000208DF8060002208DF805008B
:1039600000208DF802008DF804006A464FF4807143
:103970000120FFF70FFC1CBD10B54FF48071012032
:10398000FFF77AFC10BD10B54FF480710120FFF7EE
:1039900081FC10BD1CB500231A4680210120FFF7D1
:1039A00087FC00BF00200090019000BF01208DF82F
:1039B000000000208DF8060002208DF80500002090
:1039C0008DF802008DF804006A4680210120FFF77F
:1039D000E1FB1CBD10B504463C212046FCF7EAFD86
:1039E00004482063044961630449A1632046FFF74A
:1039F00071F910BD953901000D3A0100013A01003D
:103A000010B580210120FFF737FC10BD10B58021D3
:103A10000120FFF73FFC10BD38B5044694F84D0176
:103A2000C01E0090D4F850010099014410488089CC
:103A300000F58070814201D9002038BDD4F85021B2
:103A4000D4F85411881804F12401009AFCF719FDE8
:103A5000D4F8500100990844C4F85001A0690099B5
:103A60000844A061002084F84D010120E5E7000032
:103A7000802300202DE9F04F2DED028B83B004460A
:103A80008A460026B14600BF9FED410AB0EE408A4B
:103A900000254FF0FF3B042002903E48844208D0AE
:103AA0003D48844205D03D48844202D03C4884428F
:103AB00067D1204603F00EF90646002E61D0D146AC
:103AC00000EE109AB8EE400AF1EE000A60EE200A0D
:103AD00000EE106AB8EE400A80EE201AB7EE000A37
:103AE00031EE400AB0EE408ABCEEC80A10EE105A21
:103AF000B5EEC08AF1EE10FA43D3FF2D41D8002075
:103B0000029000EE105AB8EE400A38EE400ADFED9F
:103B1000250AB4EEE00AF1EE10FA1EDD6A1C4041FF
:103B20000021A2FB097300FB093002FB01084FF4DE
:103B300080610022A7FB010308FB013107FB021192
:103B400032460023CDE90001FCF724FCB0F1800BE4
:103B5000BBF17F0F01D904200290029888B9BBF114
:103B60007F0F01D8012100E00021E06861F35D7062
:103B7000E060A0686BF30600A060A06865F30F200A
:103B8000A060029803B0BDEC028BBDE8F08F00008E
:103B90000000000000D0014000D4014000100240AD
:103BA00000140240ACC527372DE9F04F2DED028BF4
:103BB00089B004468B460026B146B2469FED4F0AB7
:103BC000B0EE408A00BF0025681E07904C4B0FCB1B
:103BD00003AF0FC7042002904A48844208D04A48E5
:103BE000844205D04948844202D0494884427FD16A
:103BF000204603F06FF88146B9F1000F78D05E4699
:103C00006069C0F3425003A931F810A000EE106AB9
:103C1000F8EE400A00EE10AAB8EE400A20EE800A44
:103C2000F0EE000A60EE200A00EE109AB8EE401A9C
:103C300081EE200AF7EE000A30EE600AB0EE408A0C
:103C4000BCEEC80A10EE105AB5EEC08AF1EE10FABA
:103C50004ED3FF2D4CD80020029000EE105AB8EE43
:103C6000400A38EE400ADFED2B0AB4EEE00AF1EE2E
:103C700010FA27DD6A1C40410023A2FB061C00FB52
:103C800006C002FB03021846A1FB0A7302FB0A32BC
:103C900001FB00284FF400710020A7FB012308FB63
:103CA000013107FB0010CDE900204A460023DDE981
:103CB0000001FCF76FFB8038079007987F2801D937
:103CC00004200290029820B907987F2802D8012189
:103CD00001E00DE00021E06861F35D70E0600798AD
:103CE000A16860F30601A160A06865F30F20A060E1
:103CF000029809B0BDEC028BBDE8F08F0000000017
:103D0000E880010000D0014000D4014000100240D2
:103D100000140240ACC527372DE9F04F2DED028B82
:103D200085B004468B460026B146B2469FED510A47
:103D3000B0EE408A00BF0025681E03900420029068
:103D40004D48844208D04D48844205D04C488442B6
:103D500002D04C48844277D1204602F0BBFF814616
:103D6000B9F1000F7FD05E46E068C0F3C03A00EEC4
:103D7000106AB8EE400AF2EE000A60EE200A00EE89
:103D800010AAB8EE400AB0EE001A31EE400A60EE1A
:103D9000800A00EE109AB8EE401A81EE200AF7EE83
:103DA000000A30EE600AB0EE408ABCEEC80A10EE9F
:103DB000105AB5EEC08AF1EE10FA54D3FF2D52D846
:103DC0000020029000EE105AB8EE400A38EE400A89
:103DD000DFED2D0AB4EEE00AF1EE10FA2DDD002140
:103DE000DAF1020261EB01004FF0010C15EB0C0C53
:103DF00041EB0103A2FB0C1E00FB0CE002FB0302E3
:103E00000020A1FB067302FB063201FB00284FF4E1
:103E100000610022A7FB010308FB013107FB02112F
:103E20004A460023CDE90001FCF7B4FA803803903C
:103E300003987F2801D904200290029820B90398A2
:103E40007F2802D8012101E00DE00021E06861F344
:103E50005D70E0600398A16860F30601A160A0684E
:103E600065F30F20A060029805B0BDEC028BBDE8A1
:103E7000F08F00000000000000D0014000D401409D
:103E80000010024000140240ACC5273770B504464C
:103E90000D46A078CE2804D12946204600F004F82B
:103EA00000E000BF00BF70BD2DE9F0470546894620
:103EB000A9F10400C6B20EB9BDE8F087EF78012F72
:103EC0000ED1032E0CDB0424601C285C295D40EA23
:103ED0000128424601215E48FCF71BFDA41CB0E00E
:103EE000022F0AD1022E08DB042415F80480414673
:103EF0005848FDF717FF641CA3E0032F0AD1022ED8
:103F000008DB042415F8048041465348FDF70AFFF6
:103F1000641C96E0042F2AD1052E28DB0424285D9A
:103F2000072800DBC8E7601C285C642802DD6421E8
:103F3000601C2954A01C285C052800DBBCE7474A0C
:103F400000210846FEF74CFF285D4449FEF745FF77
:103F5000611C685C4149FEF734FFE21CA95CA21CAD
:103F6000A85C3E4AFEF73CFF201DC4B269E0052F65
:103F700067D1022E65DB04243948007D20F0020061
:103F8000374908750846007D20F00400087508468A
:103F9000007D20F0080008750846007D20F0100024
:103FA0000875285D30B90846007D20F00200801CAD
:103FB00008753EE0285D012807D12948007D20F0E2
:103FC0000400001D2649087533E0285D022807D14A
:103FD0002348007D20F0080008302149087528E0BA
:103FE000285D032807D11E48007D20F01000103006
:103FF0001B4908751DE0285D042819D11848007D6B
:1040000020F00200801C164908750846007D20F04B
:104010000400001D08750846007D20F008000830E7
:1040200008750846007D20F010001030087500E08B
:1040300042E7A9F1060082B2601C29180848FEF781
:1040400013FE08484946C2682846904700BF33E738
:104050009480FF1FC488FF1FDC88FF1FF488FF1FA8
:1040600058350020AC80FF1F10B5002403E0204627
:1040700000F04AF8641C022CF9D310BD70B500257D
:10408000002600243BE004EB44001E4951F83000B8
:10409000012833D104EB440001EBC0008068401CD0
:1040A00004EB4401174A02EBC101886004EB4400B1
:1040B000114601EBC000806804EB440102EBC10132
:1040C000496888421AD904EB4400114601EBC0004C
:1040D000007B012812D1002004EB440142F831009A
:1040E00004EB4400114601EBC000056904EB4400F9
:1040F00001EBC00046690DB13046A847641C022C94
:10410000C1D370BD9C8AFF1F022800D370470021D5
:1041100000EB40020C4B03EBC202916000EB40024B
:1041200003EBC202516000EB400203EBC2021161DB
:1041300000EB400203EBC202516100EB400243F886
:10414000321000BFE2E700009C8AFF1F10B5044652
:104150003C212046FCF72EFA0448206304496163A1
:104160000449A1632046FEF7B5FD10BD35390100B5
:104170008739010079390100016821F00201891CA9
:104180000160016821F00401016000218161C0F833
:10419000501180F8201005490A68896802EB412116
:1041A000C1600021816180F84D117047802300209B
:1041B00070B58EB00446206820F0020020602068B0
:1041C00020F004002060002084F8200021480368CB
:1041D000806803EB40211F482269FDF7C9FE0646AF
:1041E0000025FB2009A948556D1C6069B04201D02B
:1041F000012000E0002009A94855681CC5B21E2016
:1042000000906B4601AA294609A8FFF714FB012874
:1042100004D1BDF8001001A862689047FEF79CF930
:104220006069B04213D1002509A9206948512D1DAC
:10423000606948512D1DA06848512D1D0548006832
:1042400000F500412B4609AA0248FDF7E2FE0EB038
:1042500070BD00008023002000B587B000BF0020A3
:104260000590069000BF00BF14216846FCF7A2F934
:1042700000BF00208DF8140001208DF815000020EB
:104280008DF8160001208DF8170002208DF8180017
:104290008DF8190001208DF81A0005A8FCF7CAFD59
:1042A0000120FCF74DFC012004902A2003900220FD
:1042B0000090019002900020FCF732FD6846FCF768
:1042C000E7FCFDF75DFC0520FDF712FCFDF7BEFBEA
:1042D0000120FCF795FC00BF0220FCF7F5FB01284C
:1042E000FAD10520FCF73CFD07B000BD40484088EE
:1042F000401C3F4948800846007820F00100401CDF
:1043000008704888C11700EB91718910A0EB8101FA
:1043100000296CD13648007820F00200801C344916
:10432000087008468088401C8880084680880A21DA
:1043300090FBF1F201FB120030B92D48007820F01B
:104340000400001D2A49087029488088642190FBD8
:10435000F1F201FB120030B92548007820F0080086
:10436000083023490870224880884FF47A7190FB06
:10437000F1F201FB1200D0BB00201D4988800846E5
:104380008068401C88600846007820F010001030DB
:104390000870084680680A21B0FBF1F201FB1200A8
:1043A00030B91348007820F0200020301049087000
:1043B0000F4880683C21B0FBF1F201FB120030B9DC
:1043C0000B48007820F04000403009490870084848
:1043D00080684FF46161B0FBF1F201FB120030B96B
:1043E0000348007820F08000803001490870704751
:1043F000908AFF1F3EB500BF002000900190029000
:1044000000BF01210802FEF7C1FF01208DF8050061
:1044100000208DF8030002208DF8040041F2814055
:10442000ADF8000000208DF802008DF80600012094
:104430008DF8070000208DF808008DF80900694606
:104440001C4800F03DFF05214FF4A370FEF7A2F8D1
:1044500005200146002804DB0A07130E164A1354F0
:1044600006E00A07140E154A00F00F031B1FD45470
:1044700000BF0520002807DB00F01F02012191404A
:104480000F4A430942F8231000BF0520002809DB2A
:1044900000F01F02012191404209920002F1E02246
:1044A000C2F8001100BF034800F0ACFE014800F064
:1044B000D1FF3EBD0070014000E400E018ED00E0D7
:1044C00080E200E070B500241320012100220023C7
:1044D000294D2D7805F00704062C4AD2DFE804F0B8
:1044E00003070B101419254D254E356041E0254D6D
:1044F000234E35603DE04FF40045214E356038E0F5
:10450000204D1F4E356034E04FF400451C4E3560A1
:104510002FE0194DDA352D68C5F3C013164D263D31
:10452000D5F80051C5F30820134DDA352D68290F51
:10453000114D263DD5F8005105F01F025BB9551C01
:10454000104EB6FBF5F5461C75434E1CB5FBF6F553
:104550000B4E35600CE0012B0AD1551C074EB6FB03
:10456000F5F5461C75434E1CB5FBF6F5044E35605B
:1045700000BF00BF70BD0000264005400024F400CD
:104580000080FF1F00127A0000B50748006840F461
:10459000700005490860FFF795FF4FF4803002492D
:1045A0008039086000BD000088ED00E010B52E489D
:1045B000007800F0010050B1FEF772F92B48FCF7CB
:1045C000E4F92948007820F00100274908702648BE
:1045D0000078C0F3400070B12348007820F002005A
:1045E000214908702248FEF758FD2248FEF755FD84
:1045F0002148FEF74CFC1C480078C0F3800028B12D
:104600001948007820F0040017490870164800780F
:10461000C0F3C00080B11448007820F008001249AF
:104620000870FFF72BFD154802F0E5FA1448FDF776
:10463000ABFB1448FDF7A8FB0B480078C0F3001053
:1046400028B10948007820F0100007490870064892
:104650000078C0F3801028B10348007820F04000B3
:104660000149087010BD0000908AFF1F9480FF1F51
:104670005880FF1F1C80FF1FF488FF1FAC80FF1FA6
:10468000C488FF1FDC88FF1F2DE9F84304460E464F
:1046900015464FF000080027002D7DD0FE488442CB
:1046A00001D106B900BF2069009960F300010091B3
:1046B00020694108009861F3410000902069810859
:1046C000009861F382000090207C8DF80000206942
:1046D0000109009861F3071000902069010A009811
:1046E00061F3082000902069410A009861F3492095
:1046F00000902069810A009861F38A200090607C14
:104700008DF801002069010B009861F30C300090D6
:104710002069410B009861F34D3000902069810BB6
:10472000009861F38E3000902069C10B009861F30E
:10473000CF3000902069010C009861F31040009088
:104740002069410C009861F3514000902069810C70
:10475000009861F392400090A07C8DF802002069DF
:10476000010D009861F3175000902069010E009828
:1047700061F3186000902069410E009861F3596060
:1047800000902069810E009861F39A600090E07CAF
:104790008DF80300206900E06BE2010F009861F3DF
:1047A0001C7000902069410F009861F35D700090CB
:1047B0002069810F009861F39E7000902069C10FFD
:1047C000009861F3DF70009026B900986FF30F0036
:1047D000009002E0009880B200900098216960F398
:1047E0000001216100984108206961F341002061C6
:1047F00000988108206961F3820020619DF8000023
:10480000207400980109206961F307102061009865
:10481000010A206961F3082020610098410A20699B
:1048200061F3492020610098810A206961F38A20A0
:1048300020619DF8011061740098010B206961F3FB
:104840000C3020610098410B206961F34D302061EC
:104850000098810B206961F38E3020610098C10BB4
:10486000206961F3CF3020610098010C206961F369
:10487000104020610098410C206961F35140206193
:104880000098810C206961F3924020619DF802102C
:10489000A1740098010D206961F317502061009800
:1048A000010E206961F3186020610098410E2069B3
:1048B00061F3596020610098810E206961F39A606C
:1048C00020619DF80310E1740098010F206961F3E5
:1048D0001C7020610098410F206961F35D702061B8
:1048E0000098810F206961F39E7020610098C10FCC
:1048F000206961F3DF702061012231462046FBF719
:104900006DFF07E038467F1CB0F5A04F02D94FF08D
:10491000090803E0009821698842F3D100BF16B16D
:10492000012E7DD1D4E0E87810B101280CD105E04A
:104930006978009861F34920009006E0A978009812
:1049400061F38A20009000E000BF00BF2978009842
:1049500061F3071000900098216960F30001216164
:1049600000984108206961F34100206100988108A6
:10497000206961F3820020619DF800002074009896
:104980000109206961F3071020610098010A20697C
:1049900061F3082020610098410A206961F34920F1
:1049A00020610098810A206961F38A2020619DF8C6
:1049B000011061740098010B206961F30C302061D3
:1049C0000098410B206961F34D3020610098810B04
:1049D000206961F38E3020610098C10B206961F37A
:1049E000CF3020610098010C206961F310402061F4
:1049F0000098410C206961F3514020610098810CBE
:104A0000206961F3924020619DF80210A174009822
:104A1000010D206961F3175020610098010E00E03C
:104A200025E1206961F3186020610098410E20693A
:104A300061F3596020610098810E206961F39A60EA
:104A400020619DF80310E1740098010F206961F363
:104A50001C7020610098410F206961F35D70206136
:104A60000098810F206961F39E7020610098C10F4A
:104A7000206961F3DF702061012231462046FBF797
:104A8000ADFEA888A060012231462046FBF7A6FEB5
:104A9000E978206902E000000040024061F308204C
:104AA0002061012231462046FBF798FE002707E0EF
:104AB00038467F1CB0F5A04F02D94FF0090805E039
:104AC000E8782169C1F300218842F1D100BFCFE02D
:104AD000E87810B101280CD105E06978009861F3FD
:104AE0005960009006E0A978009861F39A60009000
:104AF00000E000BF00BF2978009861F317500090D4
:104B00000098216960F30001216100984108206943
:104B100061F34100206100988108206961F38200FF
:104B200020619DF80000207400980109206961F35C
:104B3000071020610098010A206961F308202061B4
:104B40000098410A206961F3492020610098810A98
:104B5000206961F38A2020619DF80110617400983A
:104B6000010B206961F30C3020610098410B206932
:104B700061F34D3020610098810B206961F38E3024
:104B800020610098C10B206961F3CF30206100984B
:104B9000010C206961F3104020610098410C2069EC
:104BA00061F3514020610098810C206961F39240CB
:104BB00020619DF80210A1740098010D206961F335
:104BC000175020610098010E206961F31860206180
:104BD0000098410E206961F3596020610098810EB0
:104BE000206961F39A6020619DF80310E1740098D8
:104BF000010F206961F31C7020610098410F20694A
:104C000061F35D7020610098810F206961F39E70EF
:104C100020610098C10F206961F3DF7020610122DB
:104C200031462046FBF7DAFDA888E06001223146D4
:104C30002046FBF7D3FDE978206961F31860206115
:104C4000012231462046FBF7C9FD002707E0384620
:104C50007F1CB0F5A04F02D94FF0090805E0E878B5
:104C60002169C1F300618842F1D100BF00E000BFBB
:104C700001E04FF004084046BDE8F8832DE9F0411B
:104C800004460D4600270026B5B9606920F00100F2
:104C90006061012229462046FBF7A0FD06E0304670
:104CA000761CB0F5A04F01D9092704E0606900F037
:104CB00001000028F3D116E0606920F480306061C3
:104CC000012229462046FBF789FD06E03046761C86
:104CD000B0F5A04F01D9092704E06069C0F3004096
:104CE0000028F3D100BF3846BDE8F0812DE9F0413E
:104CF00004460E4615464FF00008002716B1012E57
:104D000032D118E0206965F30000206101223146AC
:104D10002046FBF763FD07E038467F1CB0F5A04F47
:104D200002D94FF0090804E0206900F00100A84210
:104D3000F2D100BF19E0206965F310402061012223
:104D400031462046FBF74AFD07E038467F1CB0F5A8
:104D5000A04F02D94FF0090804E02069C0F30040D9
:104D6000A842F2D100BF00E000BF00BF4046BDE84E
:104D7000F0810246002011B1012908D103E0136936
:104D8000C3F3002004E01369C3F3006000E000BF38
:104D900000BF7047F8B504460E4615460027002DA3
:104DA0007ED02069009960F30001009120694108DC
:104DB000009861F34100009020698108009861F338
:104DC00082000090207C8DF8000020690109009885
:104DD00061F3071000902069010A009861F3082030
:104DE00000902069410A009861F3492000902069F1
:104DF000810A009861F38A200090607C8DF80100A0
:104E00002069010B009861F30C3000902069410B80
:104E1000009861F34D3000902069810B009861F398
:104E20008E3000902069C10B009861F3CF30009064
:104E30002069010C009861F3104000902069410C3A
:104E4000009861F3514000902069810C009861F353
:104E500092400090A07C8DF802002069010D00981E
:104E600061F3175000902069010E009861F31860FB
:104E700000902069410E009861F35960009020690C
:104E8000810E009861F39A600090E07C8DF8030039
:104E90002069010F009861F31C700090206900E008
:104EA00077E1410F009861F35D7000902069810FF8
:104EB000009861F39E7000902069C10F009861F323
:104EC000DF70009016B1012E7ED1AAE029780098FB
:104ED00061F3410000902979009861F3CF30009090
:104EE0006979009861F38E300090E979009861F358
:104EF0000C300090A979009861F34D300090009833
:104F0000216960F30001216100984108206961F383
:104F10004100206100988108206961F382002061CE
:104F20009DF80000207400980109206961F30710C2
:104F300020610098010A206961F30820206100982F
:104F4000410A206961F3492020610098810A2069A3
:104F500061F38A2020619DF8011061740098010BB3
:104F6000206961F30C3020610098410B206961F3E6
:104F70004D3020610098810B206961F38E302061F3
:104F80000098C10B206961F3CF3020610098010CBB
:104F9000206961F3104020610098410C206961F3A1
:104FA000514020610098810C206961F3924020619A
:104FB0009DF80210A1740098010D206961F317504B
:104FC00020610098010E00E0D4E0206961F31860D0
:104FD00020610098410E206961F3596020610098BA
:104FE000810E206961F39A6020619DF80310E174DD
:104FF0000098010F206961F31C7020610098410F37
:10500000206961F35D7020610098810F206961F370
:105010009E7020610098C10F206961F3DF702061EC
:10502000A9E02978009861F351400090297900980F
:1050300061F3DF7000906979009861F39E700090D1
:10504000E979009861F31C700090A979009861F3E8
:105050005D7000900098216960F300012161009863
:105060004108206961F341002061009881082069AE
:1050700061F3820020619DF800002074009801090E
:10508000206961F3071020610098010A206961F32B
:10509000082020610098410A206961F349202061BD
:1050A0000098810A206961F38A2020619DF801102F
:1050B00061740098010B206961F30C302061009845
:1050C000410B206961F34D3020610098810B20690C
:1050D00061F38E3020610098C10B206961F3CF30FD
:1050E00020610098010C206961F310402061009854
:1050F000410C206961F3514020610098810C2069C6
:1051000061F3924020619DF80210A1740098010D96
:10511000206961F3175020610098010E206961F346
:10512000186020610098410E206961F35960206188
:105130000098810E206961F39A6020619DF8031048
:10514000E1740098010F206961F31C7020610098E0
:10515000410F206961F35D7020610098810F206923
:1051600061F39E7020610098C10F206961F3DF70C8
:10517000206100E000BF00BF012231462046FBF75E
:105180002DFB69880448006861F308000249086043
:1051900000E004273846F8BD400801402DE9F04101
:1051A00004460E4615464FF0000800279EB92560BC
:1051B000002231462046FBF711FB07E038467F1CF2
:1051C000B0F5A04F02D94FF0090803E0206880B283
:1051D000A842F3D113E06560002231462046FBF778
:1051E000FDFA07E038467F1CB0F5A04F02D94FF01A
:1051F000090803E0606880B2A842F3D100BF4046CE
:10520000BDE8F08101460420084A914205D0084AD1
:10521000914202D0074A914207D1B1F8482022F0CA
:1052200010021032A1F848200020704700700140A1
:1052300000480240004C024002460420114B9A42B2
:1052400005D0114B9A4202D0104B9A4218D100203F
:10525000B1F5807F03D0B1F5005F0ED106E0B2F862
:10526000483023F48043A2F8483008E0B2F84830D0
:1052700023F40073A2F8483001E0042000BF00BF0F
:10528000704700000070014000480240004C02409E
:1052900002460023B1F5807F03D0B1F5005F0AD14B
:1052A00004E0B2F84800C0F3803305E0B2F84800EB
:1052B000C0F3402300E000BF00BFD8B27047000039
:1052C0001CB5024604200023019300935E4B9A42D2
:1052D00005D05E4B9A4202D05D4B9A427ED10029A6
:1052E0007CD050234232D380002393804FF6FF734B
:1052F000138000231381423ABDF8043023F04003A9
:10530000403301930C79BDF8043064F30303019337
:105310008C78BDF8043064F3451301934C79BDF8E3
:10532000043064F3C7130193CB78012B00D100E064
:105330000023BDF8044063F3CF3401948C79BDF8A9
:10534000043064F34D330193CC79BDF8043064F339
:10535000082301930C7ABDF8003064F30303009333
:105360004C7ABDF8003064F307130093BDF80030A9
:105370004832548863F303045480BDF800301C099C
:10538000538864F307135380BDF800301C0A538818
:1053900064F30B235380BDF800301C0B538864F377
:1053A0000F335380BDF80430148863F30304148072
:1053B000BDF804301C09138864F304131380BDF88E
:1053C00004305C09138864F345131380BDF804307E
:1053D0009C09138864F38613138000E033E0BDF862
:1053E0000430DC09138864F3C7131380BDF804305C
:1053F0001C0A138864F308231380BDF804305C0A88
:10540000138864F3492322F8483949239DF805405D
:105410009C54BDF804305C0B4232D38864F34D33A6
:10542000D380BDF804309C0BD38864F38E33D380D3
:10543000BDF80430DC0BD38864F3CF33D3800B8802
:1054400022F8423900201CBD007001400048024093
:10545000004C024001460420084A914205D0084A07
:10546000914202D0074A914206D1B1F8482022F079
:105470004002A1F848200020704700000070014061
:1054800000480240004C024001460420084A914274
:1054900005D0084A914202D0074A914207D1B1F89B
:1054A000482022F040024032A1F8482000207047F6
:1054B0000070014000480240004C024010B5024616
:1054C00004201B4B9A420ED01A4B9A420BD01A4B17
:1054D0009A4208D0194B9A4205D0194B9A4202D0F1
:1054E000184B9A4223D111B30C7852F8803F64F3E1
:1054F000071313604C78136864F3820313608C788D
:10550000136864F3410342F88039094B9A4204D18D
:10551000CB78012B01D1062007E0CC78D2F880307F
:1055200064F3C303C2F8803000208B88536010BD41
:10553000005001400054014000580140005C01400F
:10554000006001400064014070B503460C46042031
:10555000274DAB420ED0274DAB420BD0264DAB4270
:1055600008D0264DAB4205D0254DAB4202D0254D8B
:10557000AB423BD1D2B303F5807505EB84011678BD
:105580000D6866F304150D6056780D6866F34515D1
:105590000D6096780D6866F386150D60D6780D68F7
:1055A00066F34E350D6016790D6866F30C350D60A7
:1055B000032C15D156790D6866F308250D60967990
:1055C0000D6866F349250D60D67953F8985F66F348
:1055D00042051D60167A1D6866F3000543F8985968
:1055E0000D6825F001056D1C0D60002070BD0000E8
:1055F000005001400054014000580140005C01404F
:10560000006001400064014002460420324B9A428F
:105610000ED0324B9A420BD0314B9A4208D0314BCC
:105620009A4205D0304B9A4202D0304B9A4251D127
:105630000A294CD2DFE801F0050C131A21282F3675
:105640003D44D2F89C3023F00103C2F89C303FE087
:10565000D2F89C3023F00203C2F89C3038E0D2F834
:105660009C3023F00403C2F89C3031E0D2F89C3027
:1056700023F00803C2F89C302AE0D2F89C3023F0D3
:105680001003C2F89C3023E0D2F89C3023F02003B2
:10569000C2F89C301CE0D2F89C3023F04003C2F8E2
:1056A0009C3015E0D2F89C3023F08003C2F89C3087
:1056B0000EE0D2F8803023F48043C2F8803007E057
:1056C000D2F8803023F40043C2F8803000E000BFFD
:1056D00000BF00207047000000500140005401400E
:1056E00000580140005C014000600140006401403E
:1056F000024604200C4B9A420ED00C4B9A420BD01F
:105700000B4B9A4208D00B4B9A4205D00A4B9A4257
:1057100002D00A4B9A4206D1D2F8803061F30003DE
:10572000C2F8803000207047005001400054014012
:1057300000580140005C01400060014000640140ED
:1057400002460020274B9A420ED0274B9A420BD09C
:10575000264B9A4208D0264B9A4205D0254B9A42B6
:1057600002D0254B9A423CD10A2938D2DFE801F019
:10577000050A0F14191E23282D32D2F89C3003F08D
:1057800001002DE0D2F89C30C3F3400028E0D2F8AD
:105790009C30C3F3800023E0D2F89C30C3F3C000F8
:1057A0001EE0D2F89C30C3F3001019E0D2F89C3010
:1057B000C3F3401014E0D2F89C30C3F380100FE024
:1057C000D2F89C30C3F3C0100AE0D2F88030C3F3A3
:1057D000803005E0D2F88030C3F3C03000E000BF75
:1057E00000BF704700500140005401400058014084
:1057F000005C0140006001400064014010B50346B8
:105800000420324CA3420ED0314CA3420BD0314C79
:10581000A34208D0304CA34205D0304CA34202D062
:105820002F4CA34251D10A294CD2DFE801F0050CDC
:10583000131A21282F363D44D3F8904062F3000418
:10584000C3F890403FE0D3F8904062F34104C3F8BE
:10585000904038E0D3F8904062F38204C3F890405F
:1058600031E0D3F8904062F3C304C3F890402AE0DB
:10587000D3F8904062F30414C3F8904023E0D3F8C7
:10588000904062F34514C3F890401CE0D3F8904078
:1058900062F38614C3F8904015E0D3F8904062F3A9
:1058A000C714C3F890400EE0D3F8804062F30C3484
:1058B000C3F8804007E0D3F8804062F34D34C3F86A
:1058C000804000E000BF00BF002010BD005001403C
:1058D0000054014000580140005C0140006001405C
:1058E00000640140024604201B4B9A4208D01B4B27
:1058F0009A4205D01A4B9A4202D01A4B9A4229D1A9
:105900000020012907D002290CD0082911D0B1F5B7
:10591000807F1CD114E0D36823F4803303F58033F7
:10592000D36016E0D36823F4003303F50033D3606B
:105930000FE0D36823F4002303F50023D36008E0CD
:10594000D36823F4801303F58013D36001E00420AF
:1059500000BF00BF7047000000D0014000D40140EC
:105960000010024000140240014604200D4A9142FA
:1059700008D00D4A914205D00C4A914202D00C4AFF
:1059800091420DD16FF00C02CA60D207CA600022AA
:105990000A614A614FF6FF728A6000228A61002024
:1059A0007047000000D0014000D4014000100240C8
:1059B0000014024078B5034604208B4DAB4208D05A
:1059C0008A4DAB4205D08A4DAB4202D0894DAB42E5
:1059D0007DD100200F297BD2DFE801F0080D1217DE
:1059E0001C2126353A2B30EAF2F7FC00DD6862F321
:1059F0008205DD60F5E0DD6862F34515DD60F0E00D
:105A0000DD6862F3C305DD60EBE0DD6862F3C715B6
:105A1000DD60E6E0DD6862F30005DD60E1E0DD68A1
:105A200062F34105DD60DCE0DD6862F30415DD60F2
:105A3000D7E0DD6862F38A25DD60D2E0DD6862F3DD
:105A40009E75DD60CDE0DD6862F38615DD60C8E03F
:105A5000DD68009E65F300060096DD686E08009D17
:105A600066F341050095DD68AE08009D66F382058A
:105A70000095DD68EE08009D66F3C3050095DD68BE
:105A80002E09009D66F304150095DD686E09009DE2
:105A900066F345150095DD68AE09009D66F3861531
:105AA0000095DD68EE09009D66F3C71500959D8998
:105AB0002E0A009D66F308250095DD686E0A009D9C
:105AC00066F349250095DD68AE0A009D01E089E096
:105AD00085E066F38A2500959D89EE0A009D66F3B0
