:020000040800F2
:1000000070EE00201D0200082502000827020008EB
:10001000290200082B0200082D0200080000000041
:100020000000000000000000000000002F02000897
:100030003102000800000000330200083502000809
:1000400037020008370200083702000837020008AC
:10005000370200083702000837020008370200089C
:10006000370200083702000837020008370200088C
:100070006D070008370200087D07000837020008F6
:10008000370200088D070008370200083702000811
:10009000370200083702000837020008370200085C
:1000A000370200083702000837020008370200084C
:1000B00037020008212D0008412D000837020008F2
:1000C000370200083702000837020008370200082C
:1000D00037020008512E0008612E0008712E00081A
:1000E000370200083702000837020008370200080C
:1000F00037020008370200083702000837020008FC
:1001000037020008370200083702000837020008EB
:10011000312E0008412E000837020008370200087F
:100120003702000837020008370200089D07000860
:1001300037020008370200083702000837020008BB
:1001400000000000000000000000000000000000AF
:10015000370200083702000837020008370200089B
:10016000370200083702000837020008370200088B
:1001700037020008370200083702000800F002F8D2
:1001800000F03CF80AA090E8000C82448344AAF1F5
:100190000107DA4501D100F031F8AFF2090EBAE8F3
:1001A0000F0013F0010F18BFFB1A43F001031847AB
:1001B00084450000A4450000103A24BF78C878C1E7
:1001C000FAD8520724BF30C830C144BF04680C605D
:1001D000704700000023002400250026103A28BFA5
:1001E00078C1FBD8520728BF30C148BF0B607047A9
:1001F0001FB504F0A7F91FBD10B510BD00F098F9A8
:100200001146FFF7F5FF04F040F800F0B6F903B42B
:10021000FFF7F2FF03BC00F0B9F90000094880477E
:1002200009480047FEE7FEE7FEE7FEE7FEE7FEE7D8
:10023000FEE7FEE7FEE7FEE704480549054A064BF0
:1002400070470000D12B00087D01000870E80020F5
:1002500070EE002070EA002070EA002053EA020CE1
:1002600000F069802DE9F04B4FF00006002B1FBF16
:10027000B3FA83F503FA05F424FA05F65E4012BFDB
:100280001643B2FA82F502FA05F4C5F120051EBF45
:1002900022FA05FC44EA0C04203556EA044C4FEAE5
:1002A000144418BF641C4FF000084FF0000990423E
:1002B00071EB030C39D3002919BFB1FA81F701FAA8
:1002C00007F6B0FA80F700FA07F6C7F120071EBF5D
:1002D00020FA07FC46EA0C062037B6FBF4FCA7EB35
:1002E0000507103F07F01F0BCBF120060CFA0BFBA4
:1002F0002CFA06F644BFB3460026202FA4BF5E4664
:100300004FF0000B5BEA060C08BF4FF0010B19EB36
:100310000B09ABFB027C48EB0608C01B06FB02CCBA
:100320000BFB03CC71EB0C01C1E70B4602464146C7
:100330004846BDE8F08B13B54FF000004FF00001C8
:10034000AFF30080BDE81C40704740EA010310B5E0
:100350009B070FD1042A0DD310C808C9121F9C4255
:10036000F8D020BA19BA884201D9012010BD4FF047
:10037000FF3010BD1AB1D30703D0521C07E0002094
:1003800010BD10F8013B11F8014B1B1B07D110F8F1
:10039000013B11F8014B1B1B01D1921EF1D11846F4
:1003A00010BD032A40F2308010F0030C00F01580DD
:1003B00011F8013BBCF1020F624498BF11F801CB68
:1003C00000F8013B38BF11F8013BA2F1040298BFCD
:1003D00000F801CB38BF00F8013B11F0030300F037
:1003E0002580083AC0F0088051F8043B083A51F8DB
:1003F00004CBA0E80810F5E7121D5CBF51F8043BE0
:1004000040F8043BAFF30080D20724BF11F8013B52
:1004100011F801CB48BF11F8012B24BF00F8013BB4
:1004200000F801CB48BF00F8012B704710B5203A07
:10043000C0F00B80B1E81850203AA0E81850B1E89D
:100440001850A0E81850BFF4F5AF5FEA027C24BF53
:10045000B1E81850A0E8185044BF18C918C0BDE84A
:1004600010405FEA827C24BF51F8043B40F8043B13
:1004700008BF7047D20728BF31F8023B48BF11F8C8
:10048000012B28BF20F8023B48BF00F8012B704722
:100490004FF000020429C0F0128010F0030C00F0AD
:1004A0001B80CCF1040CBCF1020F18BF00F8012B2B
:1004B000A8BF20F8022BA1EB0C0100F00DB85FEAF9
:1004C000C17C24BF00F8012B00F8012B48BF00F8C5
:1004D000012B70474FF0000200B513469446964634
:1004E000203922BFA0E80C50A0E80C50B1F1200147
:1004F000BFF4F7AF090728BFA0E80C5048BF0CC0F5
:100500005DF804EB890028BF40F8042B08BF704752
:1005100048BF20F8022B11F0804F18BF00F8012BC4
:100520007047704770477047004870470CE80020DC
:100530007546FFF7F9FFAE4605006946534620F0C1
:100540000700854618B020B5FFF776FEBDE82040CD
:100550004FF000064FF000074FF000084FF0000B7F
:1005600021F00701AC46ACE8C009ACE8C009ACE832
:10057000C009ACE8C0098D46704710B50446AFF31A
:1005800000802046BDE81040FFF741BE0149182019
:10059000ABBEFEE7260002007047000008B501214F
:1005A000082001F081FE10208DF8030002208DF854
:1005B00002002020ADF800006946024800F0D6FD98
:1005C00008BD0000000C014010B5002220210248A7
:1005D00000F062FE10BD0000000C014010B501F0FB
:1005E00088FA01F0F3FF02F007F801F039FF01F09B
:1005F0004DFFFFF7D3FFFFF7E7FF00F0FFFF01F02C
:1006000013F810BD10B500F0BBFFB0B10D48016884
:100610000068401C0B4A1060192911D301F00EF834
:1006200000BF642000F002FA00F07CFF00F0A8FF99
:100630000028F6D101F050FA02E0002001490860DC
:1006400010BD0000000000202DE9F04100F056FE32
:10065000054635B1681C20B126488068B5EB802F6F
:1006600002D90020BDE8F08100F028FE06462148AE
:10067000006800F58030B04203D81E484068B042A0
:1006800007D81C480168806801EB40201A49C860FF
:1006900001E01948C66000F021FE80461649C8688E
:1006A000294601F0BCFC0746B84501D00020D9E737
:1006B00000F032FE0446601C48B10E48006800F5A8
:1006C0008030A04203D80B484068A04206D80948B1
:1006D000006800F580300849886001E006488460C1
:1006E000284600F05FF9012801D00020BAE7012078
:1006F000B8E7000060E60020300000202DE9F0415E
:1007000004460D4616464FF0000800272582218A30
:10071000002003F0F7FEE060266000F06BFFA060B1
:10072000E06818B1A06808B1012000E00020074689
:100730003846BDE8F081000010B54FF4A06000F02D
:10074000BFFF002003F0D4FE00F04EF9054800F092
:100750002AFE054800F06AFA03F0CAF902F0C0F870
:1007600010BD000060E60020A0E7002010B50248A0
:1007700002F063FE10BD00007C39002010B5024875
:1007800002F05BFE10BD0000F420002010B502480E
:1007900002F053FE10BD0000382D002010B50248B5
:1007A00002F04BFE10BD0000C045002021B10268E0
:1007B00042F00102026004E002684FF6FE731A4044
:1007C0000260704700F0805111B10349086001E0F8
:1007D00002494860704700000404024000000240E3
:1007E00000F0805111B10349086001E002494860FE
:1007F00070470000040402400000024001464868BF
:1008000080B270471AB103680B43036002E00368CB
:100810008B430360704710B50022026847F6F073FF
:100820009A430C6A8B6823430C6923434C69234326
:100830008C692343CC6923434C6A23438C6A23434A
:100840001A430260CB6843600B6883604B68C360E7
:1008500010BD000001684FF6FE72114001600021DA
:10086000016041608160C1604B49884208D14A49BA
:100870000839496841F00F01474A083A51608AE057
:1008800045491431884208D143490839496841F043
:10089000F001414A083A51607DE03F4928318842E1
:1008A00008D13D490839496841F470613A4A083A2B
:1008B000516070E038493C31884208D136490839E6
:1008C000496841F47041344A083A516063E0324962
:1008D0005031884208D130490839496841F47021C3
:1008E0002D4A083A516056E02B496431884208D1BC
:1008F00029490839496841F47001274A083A51608A
:1009000049E025497831884208D1234908394968A6
:1009100041F07061204A083A51603CE01F4988422A
:1009200006D1011F096841F00F01021F116032E07A
:100930001A491431884208D11849091F096841F041
:10094000F001164A121F116025E01449283188422F
:1009500008D11249091F096841F470610F4A121F3A
:10096000116018E00D493C31884208D10B49091F3C
:10097000096841F47041094A121F11600BE00749F0
:100980005031884207D10549091F096841F4702197
:10099000024A121F1160704708000240080402401A
:1009A0004160704770B50546C5B10D48806846196D
:1009B00000240FE00B4883890948C06802190848E1
:1009C00080680119074800F029FD00F0ABFD0548DB
:1009D00080890444AC42EDD3012070BD0020FCE7C7
:1009E0003000002060E6002010B56FF0040002F037
:1009F000DBF80A4800680A49B0FBF1F009490870C1
:100A00000846007800EB4001C1EBC0104FF6FF71C3
:100A100001EAC0000449088010BD00000400002065
:100A200000127A00180000201A0000200146114A26
:100A300012884A434FF0E0235A6100229A611A4615
:100A4000126942F001021A6100BF4FF0E022106902
:100A500000F001021AB100F48032002AF5D04FF004
:100A6000E022126922F001024FF0E0231A61002215
:100A70009A6170471A00002070B58AB004462021A0
:100A800002A8FFF727FD2078C0F3400008B90AB09C
:100A900070BD2078C0F3801010B12648808901E035
:100AA000254880890546606AA8422BD3002610E0BD
:100AB00004F128039A192378C3F380102B46216987
:100AC00000F03AFB206928442061606A401B6062A4
:100AD0002E44606AA842EBD2606A28B104F1280073
:100AE0008119626AFFF75DFC1E20019001AA02A92C
:100AF000FF2001F0ADF9012804D1BDF8041002A8CF
:100B0000626890472078C0F3800080B12278C2F3F9
:100B1000801004F12802636A216900F00DFB20694E
:100B20002844206100206062204601F061FF00BF80
:100B3000ADE70000A0E7002060E6002001460020AD
:100B4000A1F50542153A5AB1A2F5D242FF3A22B1B7
:100B5000022A08D0032A0CD108E04FF400600AE012
:100B60004FF4805007E04FF4005004E04FF4804011
:100B700001E0002000BF00BF70470146A1F505421B
:100B8000153A4AB1A2F5D242FF3A22B1022A04D064
:100B9000032A06D102E000BF00BF00BF4FF48070FF
:100BA00001E0002000BF00BF7047000010B50448FE
:100BB000006800F50041024800F00EFC10BD000086
:100BC00060E600202DE9F0470546884614460027D8
:100BD0002868404504D808EB04006968884202D3BD
:100BE0000020BDE8F087A88908B90020F9E7214670
:100BF000002003F087FC07460FB90020F1E74FF013
:100C0000000923463A464146284600F033F8A04200
:100C100006D1002602E0B85D8144761CA642FAD3D4
:100C20003946002003F052FC4846DAE710B5044686
:100C30000F4803F01FF8002020606060A060E060B3
:100C40000B48B0F81E01E081E089FFF796FFA08114
:100C5000E089FFF773FFA0604FF070402060606094
:100C60004FF48062D4E9010102FB0100606010BD15
:100C700070E600202DE9FE4304460D4617461E4649
:100C80004FF000082068A84202D86068A84202D24B
:100C90000020BDE8FE83A08908B90020F9E711E033
:100CA000A0892168691ACDE9007102900E480FC829
:100CB00003F010F8A089361AA0890544A0890744DA
:100CC000A0898044A089B6FBF0F00028E8D146B1A5
:100CD000B0B2CDE90075029003480FC802F0FAFFE8
:100CE000B0444046D5E7000070E600202DE9FF4FF4
:100CF00085B005460E469B46AC894FF00009DA46A2
:100D0000BAF1000F00D01CB9002009B0BDE8F08F87
:100D10002868B0425DD806EB0A006968884258D25C
:100D20002146002003F0EEFB8146B9F1000F01D10E
:100D30000020EAE72868361AB6FBF4F808FB04F846
:100D4000B6FBF4F004FB106080B204900498201A03
:100D500080B2039035E0286800EB080123464A463C
:100D60002846FFF787FF002706E00798C15D049833
:100D7000384409F800107F1C0398504501D20398AD
:100D800000E05046B842F0D8AAEB070A079838446A
:100D900007901148CDF800800FC802F041FF0E48BF
:100DA000CDE9009802940FC802F0F9FFA044BAF10F
:100DB000000F00D106E0002004900498201A80B2B1
:100DC0000390C8E700BF4946002003F07FFB584668
:100DD0009BE7002099E7000070E6002030B504464C
:100DE0000425B4F1046F24D3681F00F077F9054699
:100DF000042D1CD13648006840F002003449903977
:100E0000C1F890000846C0F89440D0F8900040F037
:100E100040002F490860681F00F060F905462C4823
:100E20009038D0F8900020F0020029490860284648
:100E300030BD2848844221D84FF0805000F028F976
:100E40000546042D41D122489038006940F0020047
:100E50001F499039086108464461006940F040002C
:100E60000861C80300F014F9054619489038006974
:100E700020F0020016499039086126E015488442A6
:100E800023D9B4F1016F20D24FF0805000F013F954
:100E90000546042D19D10E489038006D40F002002F
:100EA0000B499039086508464465006D40F04000E4
:100EB0000865C80300F0FFF8054605489038006D46
:100EC00020F002000249903908652846B0E700008A
:100ED00090200240FFFF070804200B49C96801F079
:100EE000010109B101200EE00749C96801F00401C0
:100EF00009B1022007E00449C96801F0100109B1F5
:100F0000032000E0042070470020024004200B4929
:100F1000C96C01F0010109B101200EE00749C96C5B
:100F200001F0040109B1022007E00449C96C01F095
:100F3000100109B1032000E00420704700200240A6
:100F400004200B49096801F0010109B101200EE0FC
:100F50000749096801F0040109B1022007E00449CA
:100F6000096801F0100109B1032000E00420704776
:100F70008C2002400548006940F080000349086168
:100F80000846006D40F08000086570470020024070
:100F900070B504460D460426B4F1046F1ED34FF419
:100FA000704000F09BF80646042E15D12E480068CC
:100FB00040F001002C49086025804FF4704000F09B
:100FC0008DF8064628489038D0F8900020F00100AF
:100FD00025499039C1F89000304670BD23488442BD
:100FE0001DD84FF4704000F053F80646042E39D156
:100FF0001D489038006940F001001B499039086194
:1010000025804FF4704000F043F8064616489038AB
:10101000006920F0010014499039086122E013486A
:1010200084421FD9B4F1016F1CD24FF4704000F01C
:1010300042F80646042E15D10B489038006D40F05A
:10104000010009499039086525804FF4704000F08F
:1010500032F8064604489038006D20F0010002493D
:10106000903908653046B8E790200240FFFF070836
:1010700004480549486005484860024848640348F8
:10108000486470472301674500200240AB89EFCDDB
:1010900000B502460423FFF71FFF034603E0FFF7F6
:1010A0001BFF0346521E012B01D1002AF7D102B9C2
:1010B0000523184600BD00B502460423FFF726FFAE
:1010C000034603E0FFF722FF0346521E012B01D126
:1010D000002AF7D102B90523184600BD00B5024623
:1010E0000423FFF72DFF034603E0FFF729FF034624
:1010F000521E012B01D1002AF7D102B9052318464F
:1011000000BD00002DE9F04105460E46174635B1F9
:101110003A4631460648FFF755FD044605E03A4693
:101120003146044800F02AF904462046BDE8F08123
:10113000A0E7002060E600202DE9F04104460D46BE
:1011400016461F4634B13B46324629460548FFF74E
:10115000CDFD05E03B4632462946034800F05EF9E6
:10116000BDE8F081A0E7002060E600202DE9F04115
:10117000024600250026002000230024002791F8C5
:1011800003C00CF00F0591F803C00CF0100CBCF17B
:10119000000F03D091F802C04CEA050591F800C099
:1011A000BCF1000F31D0146800202BE04FF0010C8F
:1011B0000CFA00F3B1F800C00CEA03069E4220D1FD
:1011C00083004FF00F0C0CFA03F7BC4305FA03FC45
:1011D0004CEA040491F803C0BCF1280F06D14FF08B
:1011E000010C0CFA00FCC2F814C00AE091F803C02C
:1011F000BCF1480F05D14FF0010C0CFA00FCC2F80D
:1012000010C0401C0828D1D31460B1F800C0BCF154
:10121000FF0F34DD546800202EE000F1080C4FF081
:10122000010808FA0CF3B1F800C00CEA03069E426C
:1012300021D183004FF00F0C0CFA03F7BC4305FAE1
:1012400003FC4CEA040491F803C0BCF1280F05D15B
:1012500000F1080C08FA0CF8C2F8148091F803C0E9
:10126000BCF1480F07D100F1080C4FF0010808FA53
:101270000CF8C2F81080401C0828CED35460BDE89A
:10128000F0810246002093680B400BB1012000E082
:1012900000207047016170470AB1016100E04161BF
:1012A0007047014641F22A000844407841F22A0280
:1012B0000A44927840EA02207047000008B50648C8
:1012C000006800F5004000F10C0104236A46024862
:1012D00000F097F8009808BD60E6002008B50648C1
:1012E000006800F50040011D04236A46024800F032
:1012F00088F8009808BD000060E6002008B50548A1
:10130000006800F5004104236A46024800F079F8BD
:10131000009808BD60E6002008B50648006800F5A2
:10132000004000F1080104236A46024800F069F811
:10133000009808BD60E600200120704705488088BD
:101340000449896801EB4102C2EBC11100EBC10005
:1013500070470000B4200020014908887047000051
:10136000E0F7FF1F04480188FF2902DC4FF480608A
:1013700070474FF40060FBE7E0F7FF1F30B503460E
:101380001868884203D888185D68A84201D30020F5
:1013900030BD002403E008780444521E491C002A92
:1013A000F9D12046F4E700B50246002010605060F5
:1013B0009060D060FFF7D6FF9081FFF7CDFF90607F
:1013C0004FF00060106050604FF48063D2E901017B
:1013D00003FB0100506000BD2DE9F04105460C46BD
:1013E000FFF746FEA889B4FBF0F100FB1140271A75
:1013F0003846FFF7F3FC0646FFF7BCFD3046BDE874
:10140000F08130B505461446002203E00878A05468
:10141000491C521C9A42F9D3184630BD2DE9FF4FA2
:1014200083B006460F469B46B5894FF00009DA4661
:10143000BAF1000F03D1002007B0BDE8F08F30688B
:10144000B84265D807EB0A007168884260D2294625
:10145000002003F057F88146B9F1000F01D10020B8
:10146000EAE7FFF705FE30683F1AB7FBF5F808FB1F
:1014700005F8B7FBF5F005FB107080B202900298FA
:10148000281A80B2019039E0306800EB08012B4641
:101490004A463046FFF7B5FF002406E00598015D97
:1014A0000298204409F80010641C0198504501D2AC
:1014B000019800E05046A042F0D8AAEB040A059833
:1014C00020440590316801EB0800FFF787FC0024F9
:1014D00007E039F80410326842441019FFF758FD4C
:1014E000A41CAC42F5D3A844BAF1000F00D106E029
:1014F000002002900298281A80B20190C4E700BF31
:101500004946002002F0E2FFFFF734FD584693E71A
:10151000002091E74CF6CC4001490860704700007C
:101520000030004010B500F017F810BD10B545F2BE
:10153000555000F00BF8062000F016F8A02000F03F
:1015400019F800F009F8FFF7E5FF10BD0149086040
:1015500070470000003000404AF6AA2001490860A8
:1015600070470000003000400149486070470000AB
:1015700000300040014988607047000000300040A2
:1015800010B54FF400710248FFF77BFE10BD00005C
:10159000000C014070B50E48006800F5803000680E
:1015A0000C490840B0F1005F10D10948006800F50F
:1015B000803045682C460649096801F58031086885
:1015C00080F3088800BFFFF7ADFFA04770BD0000A3
:1015D00060E600200000FE2F10B500240821002046
:1015E00002F090FF04460020206060606060206090
:1015F000204610BD10B5FFF7EFFF10BD08B5012163
:10160000042000F051FE10208DF8030002208DF818
:1016100002002020ADF8000069460248FFF7A6FD51
:1016200008BD00000008014010B50022202102483A
:10163000FFF732FE10BD00000008014010B5012286
:1016400020210248FFF728FE10BD000000080140DD
:1016500070B5002100230F22C47804B3154C246810
:1016600004F4E064C4F5E064210AC1F10403CA4053
:10167000447804FA03F184781440214309010E4CA4
:101680000678A155047804F01F050124AC400578C4
:101690006D11AD0005F1E025C5F8004109E00478C1
:1016A00004F01F050124AC40044D0678761145F87E
:1016B000264070BD0CED00E000E400E080E100E0B9
:1016C00002490143024A1160704700000000FA0518
:1016D0000CED00E000487047B0E700203EB504463E
:1016E00005A207CA8DE807000A25206918B1294616
:1016F0006846226990473EBD5A0AFC00910F453C5E
:101700001DAA000010B50446E06908B1E0698047F1
:1017100010BDF0B595B0044600255A2229466D1C2F
:1017200008A84254002229466D1C4254FC22294636
:101730006D1C42540C2229466D1C425491222946AC
:101740006D1C42540E2229466D1C42541C2101A8D6
:10175000FEF7C0FE082202A904F14400FEF7F5FDE1
:1017600018B1626CA262A16CE16201220DF11A0152
:1017700004F15600FEF7E9FD18B13A205621095D43
:10178000015501220DF11D0104F15900FEF7DDFDA7
:1017900038B1D4F85920C4F83D20D4F85D10C4F80D
:1017A00041101C2104F14000FEF772FE08A94819FF
:1017B0001C2204F12401FEF7F4FD05F11C0085B2A2
:1017C0000027022605E008A8805D3844C7B2701CD7
:1017D00086B2222EF7DB2846691C8DB208A90F5469
:1017E000AA222846691C8DB208A90A54E8B28DF8CD
:1017F0002100206918B1294608A82269904715B030
:10180000F0BD00003EB5044605A207CA8DE80700FA
:101810000A25206918B129466846226990473EBDCD
:101820005A0AFC0091876A35B3AA00000FB410B5BC
:10183000FFF750FF04465C212046FEF74BFE02985E
:10184000A060059961610699A1610799E161089914
:1018500021620399E16004992161606908B16069BE
:101860008047E06908B1E0698047A06808B1A068D6
:10187000804710BC5DF814FB10B5FFF72BFF044642
:10188000207800F00100C0B1A0786178884205D1CD
:10189000206A8047A078401CA0700CE0A178607896
:1018A000401C814203DAA078401CA07003E020783D
:1018B00020F001002070012010BD2078C0F3C0008E
:1018C00070B12179481C2071142091FBF0F200FBCB
:1018D00012100A2802D12046FFF700FF0120EBE793
:1018E0002078C0F3001070B16179481C6071142039
:1018F00091FBF0F200FB12100A2802D12046FFF7FC
:1019000008FF0120D8E72078C0F3400068B1E178F3
:10191000481CE070142091FBF0F200FB121010B98B
:101920002046FFF76FFF0120C6E70020C4E770B52F
:101930000546FFF7CFFE044665700020A0702078B2
:1019400020F00100401C20702046FFF7DBFE70BD38
:101950002DE9F047C0B007460E4690461D464FF0B1
:10196000000AFFF7B7FE814637B1082E04DCB8F154
:10197000000F01D0642D03DD002040B0BDE8F087EA
:10198000022E06D138884FF6FF71884201D14FF000
:10199000010A00245A222146641C01A84254002254
:1019A0002146641C4254FD222146641C4254BAF173
:1019B000010F01D1012200E000222046611C8CB2FF
:1019C00001A90A542046611C8CB201A90D540819C2
:1019D00032463946FEF7E5FCA01984B201A9081980
:1019E0002A464146FEF7DDFC601984B2AA22204651
:1019F000611C8CB201A90A54E0B28DF80500D9F837
:101A0000100020B1214601A8D9F81020904728469F
:101A1000B3E770B504460D46FFF75CFE06460CB111
:101A2000082D00D070BD2A46214606F14400FEF77D
:101A3000B8FC00F018F800BFF4E700B50246FFF765
:101A400049FE03465920C25400F00DF800BD00B510
:101A5000FFF740FE014600200871087820F00800DA
:101A60000830087000BD00B5FFF734FE01460020C5
:101A70004871087820F010001030087000BD00B5E3
:101A8000FFF728FE01460020C870087820F0020009
:101A9000801C087000BD00B5FFF71CFE0146002049
:101AA0000871087820F00800087000BD00B5FFF745
:101AB00011FE014600204871087820F010000870DF
:101AC00000BD00B5FFF706FE01460020C87008788B
:101AD00020F00200087000BD00F08CFB04E06420E0
:101AE000FEF7A4FFFFF71EFDF9E710B500F08CFB31
:101AF00010BD10B500F092FB00F066FB10BD0000B9
:101B00002DE9F04F9BB005460E4690469946204C75
:101B1000032D03DA00201BB0BDE8F08F7078B17898
:101B200040EA012B42F22A00005B002808DD204633
:101B3000FFF7B7FB0746BB4502D0204600F035FE55
:101B40002A46314641F22A002044FEF72AFC42F29E
:101B50002A0005534FF0000AFF2002A901F80A00ED
:101B60000AF1010A2078C0F3801010B10948808979
:101B700001E0094880890190616A0198814205D29B
:101B80004A464146FF2000F063F9C4E70020C2E75F
:101B900030000020A0E7002060E600202DE9F0479B
:101BA0009AB006460D4691469A46092E03DA002061
:101BB0001AB0BDE8F08714480078C0F3400090B137
:101BC000114800F0F2FDD5F80170D5F805800E48F7
:101BD0004761C0F81880006820F00400001D0A4921
:101BE00008600020E4E70024287801A90855641C57
:101BF00001200855641C53464A46214601A800F0BE
:101C000029FAC0B2D4E70000300000202DE9F047E7
:101C100086B006460D4691469A46092E03DA002004
:101C200006B0BDE8F087D5F80170D5F805800B48FF
:101C30004761C0F8188000F0C5FE0024FA2001A911
:101C40000855641C00200855641C53464A4621462A
:101C500001A800F0FFF9C0B2E2E700003000002068
:101C60002DE9F04186B00746884615461E460024F9
:101C7000F12001A90855641C00200855641C0120AE
:101C80000855641C06200855641C01200855641C76
:101C900033462A46214601A800F0DCF9C0B206B05E
:101CA000BDE8F081F0B585B004460D461646144AED
:101CB0000021F2200DF80100491C42F23400805C42
:101CC0000DF80100491C42F23500805C0DF801005E
:101CD000491C42F23600805C0DF80100491C42F2BA
:101CE0003800805A00120DF80100491C42F23800F9
:101CF000805C0DF80100481C014605B0F0BD0000F5
:101D0000300000202DE9F04385B080468946154615
:101D10001E460C4F0024F0200DF80400641C0DEB4F
:101D2000040107F50050C26A0A60006B486008347D
:101D300033462A462146684600F08CF9C0B205B009
:101D4000BDE8F083300000202DE9F0479AB08246CC
:101D50000E46174698464FF000090024D6F8014079
:101D600017480068A0420AD81648006820F04000D2
:101D70004030144908600846C46004610EE012480F
:101D8000006800F50040A04203D80F484068A04218
:101D900002D24FF0010901E00A48C4600025307802
:101DA00001A948556D1C01A800F805906D1C43461B
:101DB0003A46294600F04EF9C0B21AB0BDE8F087A5
:101DC000A0E700203000002060E600202DE9F04769
:101DD0009AB082460E46174698464FF000090024F6
:101DE000D6F8014017480068A0420AD81648006893
:101DF00020F040004030144908600846C460046187
:101E00000EE01248006800F50040A04203D80F48D9
:101E10004068A04202D24FF0010901E00A48846004
:101E20000025307801A948556D1C01A800F80590DF
:101E30006D1C43463A46294600F00CF9C0B21AB070
:101E4000BDE8F087A0E700203000002060E6002019
:101E5000F0B585B005460F46164614216846FEF7D4
:101E600039FB00240DF80450641C33463A462146E1
:101E7000684600F0EFF8C0B205B0F0BD2DE9F043C0
:101E800085B005460E4617469846DFF83890092D6E
:101E900003DA002005B0BDE8F0830024F3200DF83C
:101EA0000400641C00200DF80400641C0821701C50
:101EB000FFF7AFFD43463A462146684600F0CAF8B0
:101EC000C0B2E7E7300000202DE9F04304460F469A
:101ED00015469846DDF81C90002C74D0002F72D067
:101EE000207855286FD13888032805DA0DB10120F4
:101EF00028600120BDE8F083A07800283FD1388811
:101F0000072804DA0DB1012028600120F2E7E0780B
:101F100061790844FF2856D12079A1790844FF2827
:101F200051D1E078217940EA01264E4501DD0020BB
:101F3000E0E7398806F1090080B2814204DA0DB188
:101F4000012028600120D5E73146E01D00F074F83B
:101F5000F11D615C884236D106F10800205CAA2898
:101F600031D106F1090038800DB100202860B8F1A8
:101F7000000F02D00120C8F800000120BAE7A678BF
:101F80003988701D814204DA0DB1012028600120DA
:101F9000B0E73146E01C00F04FF8F11C615C88426C
:101FA00011D1301D205CAA280DD1701D38800DB1D3
:101FB00000202860B8F1000F02D00020C8F800000F
:101FC000012097E7FFE70DB100202860002091E78E
:101FD00010B50346F3B1E9B118785A281AD1088828
:101FE000042804DA0AB101201060012010BD5C78D9
:101FF0000888A04204DA0AB1012010600120F5E748
:10200000601E185CAA2805D10C800AB1002010605F
:102010000120EBE70AB1002010600020E6E730B5B0
:10202000024600200B4602E014782044521C1C1E7D
:10203000A3F10103F8D130BD30B5024600200B46B4
:1020400003E014780444E0B2521C1C1EA3F1010307
:10205000F7D130BD2DE9F04107460C4615461E4626
:1020600014B90020BDE8F0813188A01D814201DA59
:102070000020F7E722463946E81CFEF792F9552082
:102080002870FFF759F96870AC702146E81CFFF71B
:10209000D3FFE11C6854AA21201D2954601D308003
:1020A0000120DFE72DE9F04104460D4616461F46A4
:1020B0004FF000082078F82856D00CDCF1281BD00F
:1020C00004DC022858D0F02875D10DE0F2281BD08E
:1020D000F32870D120E0F9283ED0FA2824D0FB283C
:1020E0002AD0FF2867D12FE03B46324621462846BA
:1020F000FFF708FE80465FE03B4632462146284611
:10210000FFF7AEFD804657E03B4632462146284663
:10211000FFF7C8FD80464FE03B4632462146284641
:10212000FFF7ACFE804647E03B4632462146284654
:10213000FFF76CFD80463FE03B463246214628468D
:10214000FFF72CFD804637E03B46324621462846C5
:10215000FFF7D6FC80462FE0E8B23B4632462146E8
:10216000FFF734FE804627E03B46324621462846AC
:10217000FFF7EAFD80461FE000BF00BF00BF00BFC1
:1021800000BFBFF34F8F00BF00BF00BF0C48006807
:1021900000F4E0600B490843001D0949086000BFD6
:1021A00000BF00BFBFF34F8F00BF00BF00BF00BF25
:1021B00000BFFDE7FFE700BF00BF4046BDE8F0817C
:1021C0000CED00E00000FA0508B50121042000F044
:1021D0006BF810208DF8030002208DF802004020DB
:1021E000ADF8000069460248FEF7C0FF08BD0000D8
:1021F0000008014010B5002240210248FFF74CF8CA
:1022000010BD00000008014010B501224021024825
:10221000FFF742F810BD00000008014008B5012199
:10222000082000F041F828208DF8030002208DF8E6
:1022300002000002ADF8000069460248FEF796FF72
:1022400008BD0000000C014029B1064A5269024352
:10225000044B5A6104E0034A52698243014B5A61BC
:10226000704700000010024029B1064AD2690243BB
:10227000044BDA6104E0034AD2698243014BDA611C
:10228000704700000010024029B1064A126902435B
:10229000044B1A6104E0034A12698243014B1A613C
:1022A000704700000010024029B1064A92690243BB
:1022B000044B9A6104E0034A92698243014B9A619C
:1022C000704700000010024029B1064AD26802435C
:1022D000044BDA6004E0034AD2688243014BDA60BF
:1022E0007047000000100240F0B5002400220021D9
:1022F00000250023524E766806F00C0222B1042A13
:1023000012D0082A53D112E04D4E366B06F00076FB
:102310003EB14B4E766D06F4007616B1494E06601E
:1023200001E0494E066045E0474E066042E0444EFB
:10233000766806F48035424E7668444F06EA070117
:1023400001F0C04636B901F47016B6F5701F01D021
:10235000022600E0012601F0C047C1F3834C4CEA9D
:102360005767F1191DB93A4E4E43066013E0344EDB
:10237000766806F400365EB1314E766D06F4405450
:10238000240BA61C304FB7FBF6F64E43066002E066
:102390002D4E4E4306602A4E766806F000462EB952
:1023A0002C4F0668BE4201D93E46066002E0264E2A
:1023B000066000BF00BF224E7668C6F30212204EB0
:1023C000766806F0800616B1234EB65C00E0002663
:1023D00033460668DE404660194E7668C6F3012231
:1023E000174E766806F4806616B11B4EB65C00E0A8
:1023F000002633464668DE408660114E7668C6F396
:10240000C1220F4E766806F4005616B1124EB65C25
:1024100000E0002633464668DE40C660084E766817
:10242000C6F38132064E766806F080560EB142F051
:1024300004020A4EB35CC668B6FBF3F60661F0BD53
:1024400000100240006CDC0200127A0000003C60C8
:1024500000093D0000A24A04084700081047000890
:1024600008B501210820FFF71FFF10208DF8030099
:1024700002208DF802008020ADF800006946024875
:10248000FEF774FE08BD0000000C014010B50122EB
:1024900080210248FEF700FF10BD0000000C014043
:1024A00010B5002280210248FEF7F6FE10BD0000A4
:1024B000000C01400348006880F08000014908607A
:1024C000704700000C0C01400EB5094A07CA8DE8A0
:1024D00007001C210748FDF7FDFF4FF40061054888
:1024E00001F0F6FA034B9DE8070001F067FA0EBD14
:1024F000184600086C20002010B5024801F079FA57
:1025000010BD00006C20002010B592B0282108A852
:10251000FDF7E0FF0B4C28220B4908A8FDF786FFCA
:102520004FF4E130099018220CA968460694FDF793
:102530007DFF08A80FC800F03BFE204600F00DFF0D
:1025400012B010BD04520020F045000870B50646D8
:102550000D46174C94F8400C00F0010028B3B4F875
:10256000300C08B9002070BD2888B4F8301C8842AF
:102570000ADBB4F8302C04F586613046FDF711FF14
:10258000B4F8300C288005E02A8804F586613046CE
:10259000FDF707FF0020A4F8300C94F8400C20F061
:1025A000010084F8400C0120DDE70020DBE700009B
:1025B0000452002070B504460D462A4621460248C2
:1025C00001F040F970BD00000452002008B501215F
:1025D0000820FFF769FE10208DF8030002208DF817
:1025E00002004020ADF8000069460248FEF7BEFD3B
:1025F00008BD0000000C014010B501224021024836
:10260000FEF74AFE10BD0000000C014000B587B087
:1026100001210820FFF748FE01218803FFF724FE6F
:102620004FF46040ADF8180018208DF81B00022010
:102630008DF81A0006A91848FEF798FD4FF460417E
:102640001548FEF727FE0020ADF804004FF4827015
:10265000ADF806000020ADF808000220ADF80A0031
:102660000120ADF80C004002ADF80E003820ADF8A6
:1026700010000020ADF812000720ADF8140001A9E9
:10268000064800F065F80121044800F047F8FF20F3
:1026900000F006F807B000BD000C01400038004013
:1026A00070B50546002405E0601CC4B2C82C01DDED
:1026B000002070BD02210E4800F03CF80028F3D045
:1026C00029460B4800F042F8002405E0601CC4B223
:1026D000C82C01DD0020ECE70121054800F02AF8B4
:1026E0000028F3D0024800F02EF8C0B2E1E7000065
:1026F0000038004010B50446074800884FF6C771FF
:1027000008400549088008460088204308800121C8
:10271000014800F003F810BD0038004021B10288E4
:1027200042F04002028004E002884FF6BF731A4074
:10273000028070470246002013890B400BB1012034
:1027400000E000207047014688897047818170470A
:1027500010B50022028802F441528B8903F4004331
:1027600023B1838843F48073838003E0838823F458
:10277000807383800B884C8823438C882343CC88C8
:1027800023430C8923434C8923438C89C4F30E04CF
:102790002343CC8923431A430280838B4FF2FF7477
:1027A000234083830B8A038210BD38B5044642F26E
:1027B0002A00005BC01E0090606A00990844B0F5D2
:1027C000805F01D9002038BD04F12801626A5018E9
:1027D00041F22A012144C91C009AFDF7E2FD606A1A
:1027E000009908446062E06900990844E0610021B2
:1027F00042F22A0001530120E5E710B500F002F88B
:1028000010BD00000CB50020019000903148006818
:1028100040F001002F49086000BF2E48006800F01A
:10282000020000900198401C0190009820B94FF6DA
:10283000FF7101988842F0D12648006800F002003C
:1028400010B10120009001E00020009000980128C4
:102850003FD1204840681F4948600846406820F43E
:10286000605048600846406848600846406820F468
:10287000E06048600846406840F480604860084670
:1028800040681549084013494860084640681349A4
:102890000843104948600846006840F080700860AE
:1028A00000BF0C48006800F000700028F9D009480B
:1028B000406820F00300074948600846406840F03F
:1028C0000200486000BF0348406800F00C00082880
:1028D000F9D10CBD00100240FFFFC01F0000042012
:1028E00010B5002403E0204600F04AF8641C022CD6
:1028F000F9D310BD70B50025002600243BE004EBA1
:1029000044001E4951F83000012833D104EB440043
:1029100001EBC0008068401C04EB4401174A02EB45
:10292000C101886004EB4400114601EBC0008068DF
:1029300004EB440102EBC101496888421AD904EB57
:102940004400114601EBC000007B012812D1002099
:1029500004EB440142F8310004EB4400114601EB62
:10296000C000056904EB440001EBC00046690DB1ED
:102970003046A847641C022CC1D370BDC42000207F
:10298000022800D37047002100EB40020C4B03EB00
:10299000C202916000EB400203EBC202516000EB07
:1029A000400203EBC202116100EB400203EBC202E2
:1029B000516100EB400243F8321000BFE2E7000033
:1029C000C4200020016821F00201891C0160016817
:1029D00021F0040101600021C1614162C16801610F
:1029E0000021C161002242F22A010A527047000010
:1029F00070B58EB004462378C3F380106269E16835
:102A0000FEF780FB0646206820F002002060206868
:102A100020F004002060002141F22800015500252B
:102A2000FB2009A948556D1CA069B04201D00120C6
:102A300000E0002009A94855681CC5B21E2000907E
:102A40006B4601AA294609A8FFF704FB012804D117
:102A5000BDF8001001A862689047FEF763FD1548B5
:102A6000E168006800F58030814204D01249E068D6
:102A70000968884201D30EB070BDA069B04216D17A
:102A8000002509A9606948512D1DA06948512D1DD7
:102A9000A06848512D1DE06848512D1D054800686B
:102AA00000F500412B4609AA0248FEF7B7FC00BF1B
:102AB000E1E7000060E60020A0E700202B48408806
:102AC000401C2A4948800846007820F00100401C3C
:102AD00008700846C068401CC8604888C11700EBF1
:102AE00091718910A0EB810100293ED11F48007827
:102AF00020F00200801C1D49087008468088401C98
:102B00008880084680880A2190FBF1F201FB1200C0
:102B100030B91648007820F00400001D13490870F1
:102B200012488088642190FBF1F201FB120030B959
:102B30000E48007820F0080008300C4908700B4857
:102B400080884FF47A7190FBF1F201FB120060B9BA
:102B500000200649888008468068401C8860084636
:102B6000007820F01000103008707047B42000206A
:102B700070B50B480021016041608160C1600A248A
:102B8000084800684FF47A61B0FBF1F0B0FBF4F54F
:102B90006A1E91B2621E90B200F092F870BD000001
:102BA000B420002004000020042808D14FF0E021C8
:102BB000096941F004014FF0E022116107E04FF094
:102BC000E021096921F004014FF0E0221161704712
:102BD00010B51A48006840F4700018490860184899
:102BE000006840F001001649086008464068154931
:102BF00008401349486008460068134908401049D6
:102C000008600846006820F4802008600846406894
:102C10000E4908400A4948600846006B0C490840C4
:102C2000074908634FF41F008860FFF7E6FD4FF087
:102C3000006002498039086010BD000088ED00E0A6
:102C4000001002400C00FFE8FFFFF6FEFFFF001738
:102C500000FFFEFE10B519480078C0F3400028B10F
:102C60001648007820F002001449087013480078D4
:102C7000C0F3800028B11148007820F004000F490B
:102C800008700E480078C0F3C00058B10B480078B7
:102C900020F0080009490870FFF72CFEFFF70AFC36
:102CA000FDF7B0FC05480078C0F3001028B10348D8
:102CB000007820F010000149087010BDB4200020F9
:102CC00030B585B005460C4601210420FFF7CCFA4B
:102CD0000395ADF804400020ADF81000029001A962
:102CE0000E4800F067F8012211460C4800F058F831
:102CF0001E208DF8000001208DF8010005208DF8C0
:102D0000020001208DF803006846FEF7A1FC0121B6
:102D1000024800F028F805B030BD0000000800406F
:102D200010B50121054800F02AF828B1FFF7C6FECA
:102D30000121024800F014F810BD0000000400401A
:102D400010B50121054800F01AF828B1FFF7B6FECA
:102D50000121024800F004F810BD00000008004006
:102D6000CA430282704721B1028842F00102028008
:102D700004E002884FF6FE731A400280704730B5B7
:102D80000246002000230024158A05EA01039589E4
:102D900005EA010413B10CB1012000E0002030BDB0
:102DA0001AB183890B43838102E083898B4383813A
:102DB0007047000000220288164B98420ED0B0F1F6
:102DC000804F0BD0144B984208D0144B984205D03A
:102DD000134B984202D0134B984205D14FF68F7394
:102DE0001A408B8813439AB20F4B984207D00F4B6F
:102DF000984204D04FF6FF431A408B891A43028051
:102E00008B68C3620B8803858B7B038601238382D7
:102E100070470000002C014000080040000C0040FA
:102E20000034014000040040001000400014004045
:102E300010B5024800F0CDF910BD0000C0450020DB
:102E400010B5024800F0C5F910BD00000452002082
:102E500010B5024800F0BDF910BD0000F4200020BC
:102E600010B5024800F0B5F910BD0000382D002063
:102E700010B5024800F0ADF910BD00007C3900200B
:102E800001F40072B2F5007F00D100BFCA43028096
:102E9000704710B50022002340F66A14A14200D109
:102EA00000BF0A1201249440A3B2DC43048010BD89
:102EB00021B1828942F40052828104E082894DF678
:102EC000FF731A40828170471AB1838A0B43838251
:102ED00002E0838A8B438382704702460020B1F56B
:102EE000007F00D100BF13880B400BB1012000E030
:102EF0000020704770B50246002400230025002002
:102F000040F66A16B14200D100BFC1F3421501F08C
:102F10001F03012606FA03F3012D02D196893340DF
:102F200006E0022D02D1168A334001E0968A334032
:102F30000C12012606FA04F41688344013B10CB1C1
:102F4000012000E0002070BDF0B5034600240026FB
:102F50000025002040F66A17B94200D100BF18468C
:102F6000C1F3421401F01F06012707FA06F5012CF0
:102F700001D10C3004E0022C01D1103000E01430FB
:102F80001AB107682F43076002E00768AF43076084
:102F9000F0BD00002DE9F04F89B0054689460024B8
:102FA00000200790834682460026B9F80C0000B145
:102FB00000BF2E462C8A4CF6FF700440B9F806007C
:102FC00004432C82AC894EF6F3100440B9F8040097
:102FD000B9F808100843B9F80A1008430443AC8153
:102FE000AC8A4FF6FF400440B9F80C000443AC82B1
:102FF00002A8FFF779F92848864208D02748864278
:1030000005D02748864202D02648864202D105983C
:10301000079001E0049807904FF47A710798A0FB9D
:1030200001700146102200233846FDF717F9CDE95B
:103030000001D9F800703A460023FDF70FF9044665
:103040004FF47A70B4FBF0FBB4FBF0F100FB1140DD
:103050004FEA001A4FF47A70BAFBF0F100FB11A0AE
:10306000B0F5FA7F04D24FF47A70BAFBF0FA0CE0B4
:103070004FF47A70BAFBF0F000F1010ABAF1100FC8
:1030800003D34FF0000A0BF1010B4AEA0B10288121
:1030900009B0BDE8F08F0000003801400060014039
:1030A000006401400068014001468888C0F30800C0
:1030B0007047000010B504463348844209D101210D
:1030C0008803FFF701F900214FF48040FFF7FCF877
:1030D00059E02E48844209D101214804FFF7D4F871
:1030E00000214FF40030FFF7CFF84CE0284884422D
:1030F00009D101218804FFF7C7F800214FF480208F
:10310000FFF7C2F83FE02348844209D10121C804F7
:10311000FFF7BAF800214FF40020FFF7B5F832E0CE
:103120001D48844209D101210805FFF7ADF80021AF
:103130004FF48010FFF7A8F825E01848844209D121
:1031400001210806FFF7C0F800214FF08070FFF75B
:10315000BBF818E01248844209D101214806FFF764
:10316000B3F800214FF00070FFF7AEF80BE00D4808
:10317000844208D101218806FFF7A6F800214FF00C
:103180008060FFF7A1F810BD003801400044004006
:1031900000480040004C00400050004000600140EA
:1031A0000064014000680140C1F30802828070475A
:1031B0000FB410B50C9C282202A92046FDF736F961
:1031C00010BC5DF814FB10B504462068FFF772FFD1
:1031D00010BDF8B50446002526684FF458713046F6
:1031E000FFF788FE20B14FF458713046FFF751FECB
:1031F00040F225513046FFF77DFE08B33046FFF719
:1032000053FFC0B2009040F225513046FFF741FE17
:103210000098C1B2B4F8302C04F586608154B4F83B
:10322000300C401CA4F8300CB4F8300CB0F5806FB2
:1032300006DB94F8400C20F00100401C84F8400CA0
:1032400040F224413046FFF755FEC0B3308800906D
:10325000B088009040F224413046FFF71AFE607AB1
:1032600003281CD104F11C0500216868FDF79EFAB3
:103270006868FDF7C3FAC0F50060A4F8300C4FF49D
:1032800000616868FDF78CFB01216868FDF78EFA24
:1032900094F8400C20F00100401C84F8400C607A47
:1032A000022806D194F8400C20F00100401C84F85C
:1032B000400C94F8400C20F0020084F8400C40F2DE
:1032C00027713046FFF716FE60B3B4F8340CB4F83B
:1032D000321C884212DB002240F227712068FFF77F
:1032E00033FE94F8400C20F0020084F8400C0122D8
:1032F00040F226613046FFF727FE13E094F8400CB9
:1033000020F00200801C84F8400CB4F8342C04F146
:103310003000815C3046FFF747FFB4F8340C401CA6
:10332000A4F8340C40F226613046FFF7E3FD98B173
:1033300094F8400C20F0020084F8400C0020A4F81F
:10334000320C40F226613046FFF7A3FD002240F226
:1033500026613046FFF7F8FDF8BD7FB505462C46DF
:103360002846FFF730FF206800F07AF82068FFF762
:10337000A1FE0020ADF80400ADF80600ADF808008D
:10338000ADF80C0068680090607A28B1207A18B116
:103390000C20ADF80A000EE0607A18B10420ADF8F8
:1033A0000A0008E0207A18B10820ADF80A0002E00F
:1033B0000020ADF80A0069462068FFF7EBFD607A4F
:1033C00002280CD1012240F225512068FFF7BCFDF4
:1033D000012240F224412068FFF7B6FD10E0607A38
:1033E00003280DD1284600F08DF8012240212068E5
:1033F000FFF76AFD012240F224412068FFF7A4FD97
:10340000207A02280AD0207A032807D1284600F023
:10341000B7F8012280212068FFF756FD01212068BE
:10342000FFF746FD40212068FFF72AFD206800F0E5
:10343000E9F8204600F0E8F97FBD70B504460025A4
:1034400004F1100594F8400C20F0020084F8400CC0
:10345000A868FDF7B7F9A868FDF7C2F970BD0000CC
:1034600010B504461F48844204D101218803FEF7A9
:103470001BFF36E01C48844204D101214804FEF7BA
:10348000F3FE2EE01948844204D101218804FEF79E
:10349000EBFE26E01648844204D10121C804FEF761
:1034A000E3FE1EE01348844204D101210805FEF723
:1034B000DBFE16E01048844204D101210806FEF725
:1034C000F3FE0EE00D48844204D101214806FEF7C8
:1034D000EBFE06E00A48844203D101218806FEF78C
:1034E000E3FE10BD003801400044004000480040A9
:1034F000004C00400050004000600140006401406A
:103500000068014070B58CB00446264606F11C05E3
:103510002C2101A8FCF7DEFF18492868884204D155
:1035200001210846FEF790FE03E001210220FEF78C
:103530008BFE6868FDF78EF93068001D019004F578
:1035400086600290002003904FF4006004900020F9
:1035500009900590802006900020079008904FF475
:1035600040500A9000200B9001A96868FDF753F9BC
:1035700001216868FDF71AF90CB070BD0000024027
:1035800070B58CB005462E4606F110041C49206823
:10359000884204D101210846FEF756FE03E00121CE
:1035A0000220FEF751FE6068FDF754F93068001DF7
:1035B000019005F1300002901020039080010490EA
:1035C0000020099005908020069000200790089028
:1035D0004FF480500A9000200B9001A96068FDF71D
:1035E0001AF900216068FDF7E1F801220221606804
:1035F000FDF708F90220FDF7F3F80CB070BD0000EC
:103600000000024038B5044602208DF802007148DF
:10361000844218D101210420FEF746FE6015ADF862
:10362000000018208DF8030069466B48FDF79EFDE9
:103630002015ADF8000004208DF8030069466648A7
:10364000FDF794FDC5E06548844218D101210420AE
:10365000FEF72AFE0420ADF8000018208DF80300C4
:1036600069465D48FDF782FD0820ADF800000420A2
:103670008DF8030069465848FDF778FDA9E05848E1
:10368000844218D101210820FEF70EFE2015ADF866
:10369000000018208DF8030069465248FDF766FDCA
:1036A000E014ADF8000004208DF8030069464D4891
:1036B000FDF75CFD8DE04C48844218D101211020BB
:1036C000FEF7F2FD2015ADF8000018208DF803007C
:1036D00069464648FDF74AFDE014ADF800000420B5
:1036E0008DF8030069464148FDF740FD71E0404810
:1036F00084421BD101211020FEF7D6FD012120209C
:10370000FEF7D2FDA014ADF8000018208DF80300DC
:1037100069463648FDF72AFD0420ADF800008DF813
:10372000030069463348FDF721FD52E032488442E8
:1037300018D101211020FEF7B7FD4020ADF80000A0
:1037400018208DF8030069462848FDF70FFD8020FA
:10375000ADF8000004208DF8030069462348FDF70A
:1037600005FD36E02548844218D101214020FEF7AE
:103770009BFDA015ADF8000018208DF803006946E8
:103780001F48FDF7F3FC8020ADF8000004208DF801
:10379000030069461A48FDF7E9FC1AE0194884421B
:1037A00017D101214020FEF77FFD0220ADF8000077
:1037B00018208DF8030069461148FDF7D7FC012059
:1037C000ADF8000004208DF8030069460C48FDF7B1
:1037D000CDFC38BD003801400008014000440040E5
:1037E00000480040000C0140004C00400010014027
:1037F000005000400014014000600140006401409E
:10380000001801400068014038B50446207A0228BB
:1038100008D0207A032805D0607A022802D0607A86
:1038200003280ED1A07A8DF80000E07A8DF801000F
:10383000207B8DF8020001208DF803006846FDF71B
:1038400007FF38BD70B504460D461646207A01289C
:1038500005D132462946204600F090F81AE0207A39
:10386000022805D132462946204600F055F811E0DD
:10387000207A032805D132462946204600F00CF86C
:1038800008E00020A4F8320C94F8400C20F002006C
:1038900084F8400C002070BD2DE9F84304468846AA
:1038A000164604F11005002700216868FCF77EFF2A
:1038B00094F8400CC0F3400080B16868FCF79EFFAC
:1038C0000746B3B20097B4F8322C414604F13000F9
:1038D00000F0C4FCF019A4F8320C11E094F8400C8C
:1038E00020F00200801C84F8400C3246414604F16E
:1038F0003000FCF756FDA4F8326CA868FCF762FFB4
:10390000B4F8321C6868FDF74BF801216868FCF7D1
:103910004DFF0020BDE8F88370B504460E461546FD
:103920000DB9002070BD94F8400CC0F3400058B9A8
:103930002A46314604F13000FCF733FDA4F8325C2E
:103940000020A4F8340C11E094F8400CC0F34000BF
:1039500060B1ABB2B4F8322C314604F1300000F063
:10396000E5FDB4F8320C2844A4F8320C012240F2F0
:1039700027712068FFF7E8FA0020D3E770B5044606
:103980000D4616460020A4F8340C11E0B4F8342C8F
:10399000A95C2068FFF708FC00BF80212068FFF7C2
:1039A0009CFA0128F9D1B4F8340C401CA4F8340C6A
:1039B000B4F8340CB042E9D3002070BD1FB51C46EA
:1039C00000982060019860600298A060206808B1AB
:1039D00020688047218B002000F094FD60616069C1
:1039E00008B1012100E00021E06861F30000E0601F
:1039F0001FBDFEB50446208B618B401A80B2029039
:103A0000002001900090207B00F0010000B9FEBD75
:103A1000638B6169C81802A962689047012855D173
:103A2000608BBDF8081008446083002020610025E9
:103A300048E0608B401B80B20290616948196B4678
:103A400001AA02A900F080F8012834D101980128C8
:103A500011D1608B218B884202D10020608334E039
:103A6000638B5A1B636959191846FCF79AFC608BE3
:103A7000401B608329E0A06800F034F8009870B122
:103A8000E81C6169095C281D6269105C41EA002636
:103A9000E91D62695018314600F066F806E0AA1C7C
:103AA0006369995CEA1C981800F05EF8BDF808009C
:103AB000284485B201E0681C85B2608BA84201D120
:103AC00000206083608BA842B3DC00BF00BF9EE78C
:103AD000B1F5005F01D20A4601E04FF400520283C3
:103AE0007047000001494860704700003000002026
:103AF00010B5134C42F23C012046FCF7EBFC206869
:103B000020F001002060206820F00800206020687C
:103B100020F010002060206820F002002060206863
:103B200020F0040020600748006800F58030A060A5
:103B300004480168806801EB4020E06010BD00008F
:103B40003000002060E60020F8B504460D46164619
:103B50001F464FF400603B463246294600902046FF
:103B6000FEF7B2F9F8BD000030B58FB004460D463F
:103B7000342102A8FCF7AEFC3220019001AB02AA6E
:103B800029462046FEF78EFA012805D10548BDF8E2
:103B90000410426802A890470248FCF76DFF0FB07E
:103BA00030BD00003000002070B504460D46064EC2
:103BB00044B1082D06D82A46214642F22C00304452
:103BC000FCF7EFFB70BD00003000002008B50121BC
:103BD0000820FEF769FB10208DF8030002208DF805
:103BE0000200C002ADF8000069460248FDF7BEFAC7
:103BF00008BD0000000C014010B500224FF48051B8
:103C00000148FDF749FB10BD000C014010B5012231
:103C100011030248FDF740FB10BD0000000C0140FD
:103C20001FB5069C9DE80F0000F0B0F89DE80F005E
:103C300000F0A1F802988047812003998847C4F3D7
:103C4000074003998847C4F3072003998847E0B2E7
:103C500003998847019880479DE80F0000F08BF892
:103C60001FBD10B5FFF7B2FFFEF7D0FC0020FEF736
:103C700041FD10BD10B586B00446094B0FCBCDE910
:103C80000423CDE90201009402A80FC800F00AF84D
:103C900094E80F0000F041F8A4F81E0106B010BD32
:103CA000244700081FB5069C4FF490712046FCF78E
:103CB00011FC00982060019860600298A060039851
:103CC000E060206808B120688047606808B16068DB
:103CD00080471FBD2DE9FF41DDE90B470A9E029891
:103CE0008047032003998847C4F307400399884716
:103CF000C4F3072003998847E0B203998847002559
:103D000005E0FF20039988477055681C85B2BD42C5
:103D1000F7DB01988047BDE8FF811FB500240298BA
:103D20008047902003998847002003998847002006
:103D300003998847002003998847FF200399884703
:103D400044EA0024FF2003998847044301988047F0
:103D5000204604B010BD1FB50024029880470520FE
:103D600003998847FF2003998847044601988047B4
:103D7000204604B010BD1FB500BF9DE80F00FFF73F
:103D8000EAFF00F001000028F7D11FBD1FB502981F
:103D90008047062003998847019880471FBD2DE979
:103DA000FF41DDE90B470A9E9DE80F00FFF7EEFF9C
:103DB00002988047022003998847C4F3074003997B
:103DC0008847C4F3072003998847E0B203998847DE
:103DD000002504E0705D03998847681C85B2BD42E8
:103DE000F8DB019880479DE80F00FFF7C4FFBDE8AE
:103DF000FF81000010B58AB0184C2C212046FCF73A
:103E000069FB1C22164903A8FCF710FB07A807C88A
:103E10008DE8070003A80FC8FDF708FDFDF75AFC61
:103E2000206064224FF4807104F10800FCF766FC06
:103E3000606918B1206908B1012100E000216068C3
:103E400061F3000060600520FDF771FDFDF7FFFDE7
:103E50000F20FDF7F2FD0AB010BD00008820002001
:103E6000EC4600082DE9FC41314E06F10804208A99
:103E7000618A401A80B2019000200090FDF75EFA3E
:103E80000746307900F0010008B9BDE8FC816068A0
:103E9000B84209D26068381A2168884204D3676042
:103EA000FDF7EAFC00B900BF638AE168C818316811
:103EB000CA6801A99047012838D1608ABDF804106A
:103EC0000844608200252DE0608A401B80B201908A
:103ED000E16848196A4601A9FEF77AF801281AD163
:103EE0006761009801280AD1638A5A1BE36859194F
:103EF0001846FCF756FA608A401B608215E0E168BC
:103F000048193246BDF8041000F014F8BDF804005A
:103F1000284485B201E0681C85B2608AA84201D1BC
:103F200000206082608AA842CEDC00BF00BFACE700
:103F3000882000202DE9FF5F0646884693465D46AF
:103F400005F10807002001900090B078FC2802D00D
:103F5000FD2876D12CE070790F2813D1B8F1260F07
:103F600010DBFDF798FD296801F124001C2206F101
:103F70000901FCF716FA296801F128000821FFF76A
:103F800013FE14E070790E2807D1B8F11C0F04DB82
:103F9000FDF78CFDFDF773FD09E07079872806D1E8
:103FA000B8F10A0F03DBFDF78CFDFDF750FDB0E023
:103FB0000324305D012800DDABE02046611C8CB29B
:103FC000305C85F8280095F8280008B9172000E033
:103FD000112003909DF80C00804527DD2046611CD0
:103FE0008CB216F800A09DF80C00A8EB000050451C
:103FF00000D08EE095F8280008B9082000E00220E3
:10400000204484B2A146686820F00200801C6860E9
:1040100004EB0A0084B230190168296240686862C2
:1040200004F1080084B2305D85F829002879C0F3D6
:10403000400000286BD0686820F0020068604C46A1
:1040400061E065E00AEB0900001BC0B20390301983
:104050006B4601AA03A9FFF777FD012850D101980B
:10406000012802D1601C84B24DE02B48FFF73AFDD5
:10407000009820B3E01CF968095C201DFA68105C08
:1040800041EA0020029095F8280088B195F82800B0
:10409000012804D1E01DF968085CF02808D095F8E3
:1040A0002800012827D1E01DF968085CF22822D1F8
:1040B000E11DFA6850180299FFF756FD1BE095F8CC
:1040C000280088B195F82800012804D1E01CF9687F
:1040D000085CF02808D095F8280001280BD1E01CD6
:1040E000F968085CF22806D1A21CFB68995CE21C06
:1040F0009818FFF739FD9DF80C00204484B201E0C8
:10410000601C84B200BF0AEB0900A0429ADC00E008
:1041100000BF00BFBDE8FF9FE541000810B592B0A9
:10412000282108A8FCF7D6F90C4C28220C4908A82D
:10413000FCF77CF94FF4E130099018220CA968468D
:104140000694FCF773F908A80FC8FFF731F820466A
:10415000FFF703F900F054F812B010BDF42000206E
:104160002446000870B506460D46174C94F8400CDE
:1041700000F0010028B3B4F8300C08B9002070BD7D
:104180002888B4F8301C88420ADBB4F8302C04F5D7
:1041900086613046FCF705F9B4F8300C288005E05C
:1041A0002A8804F586613046FCF7FBF80020A4F865
:1041B000300C94F8400C20F0010084F8400C0120F1
:1041C000DDE70020DBE70000F420002070B50446A6
:1041D0000D462A4621460248FFF734FB70BD000019
:1041E000F420002070B504460D46044E2B462246AE
:1041F000082106F12000FDF7ABFB70BD88200020F0
:1042000008B501210420FEF74FF810208DF80300B7
:1042100002208DF80200C001ADF800006946024896
:10422000FCF7A4FF08BD00000008014010B5FFF72F
:10423000E7FF012211020248FDF72EF810BD000031
:104240000008014010B5FFF7DBFF00224FF480713A
:104250000148FDF721F810BD00080140F0B5044603
:10426000059D002005E08618761BA65D2654461C99
:10427000B0B2A842F7DB002004E00E5C2F18E65530
:10428000461CB0B29842F8DBF0BDFCF755FAFCF7DB
:10429000A5F94FF47A70FCF7C9FBFEF701F9FDF7B9
:1042A00024FCFDF7CBF94FF47A70FCF7BFFBFDF768
:1042B000BBF9FCF7C9F9012801D1FCF777FC002410
:1042C0000AE00A20FCF7B2FBFDF75AF918B9FDF72E
:1042D00061F900BFFEE7641CB4F5167FF1D3FDF76A
:1042E000ADF904E0FDF71EF96420FCF79FFBFDF734
:1042F00047F90028F6D1FDF797F9FEF7E5F8FFF743
:1043000079FDFEF735FCFDF711F907E0FDF70AF935
:10431000FEF7A0FCFEF7F0F8FFF7A4FDF6E70000BB
:104320002DE9F04104460E461548005D38B91448A1
:1043300010380168204688470120BDE8F081114807
:1043400050F82400B04219D90F4850F82400B6FBA9
:10435000F0F10B48001F50F8240030F81120002520
:1043600008E000230648001F50F824004F1920F8E9
:1043700017306D1C9542F4DB0020DEE70220DCE7FD
:104380002C000020204700081C47000810B50446F8
:104390000C4951F824104A000B4951F8240000211F
:1043A00000F08AF8094951F824200749091F51F8FB
:1043B0002400002100F080F801210348001D015570
:1043C00010BD000018470008280000202047000802
:1043D0002DE9F04704460F460025A9462348005D15
:1043E00020B9224810380168204688471FB94FF08D
:1043F000FF30BDE8F0871E4850F82400B7FBF0F608
:104400001B4850F82400B7FBF0F100FB117000B11D
:10441000761C184850F82400451E22E01348001F5F
:1044200050F8240030F8150010B909F1010901E035
:104430004FF00009B14513D14FF0000809E00B48D7
:10444000001F50F8240005EB080220F8126008F164
:104450000108B045F3D3064850F824006843C8E784
:104460006D1E002DDADA4FF0FF30C2E72C0000207D
:104470001C4700081847000810B501460023002219
:1044800007E00B4850F8210030F8120000B15B1C27
:10449000521C084850F821009042F2D8642058433A
:1044A000044C54F82140B0FBF4F0C0B210BD000041
:1044B000280000201847000830B5034601E003F843
:1044C000011B141EA2F10102F9D130BD70B50546E1
:1044D0000C4604B970BD054850F82500261A31462F
:1044E0002846FFF71DFF00BFF4E70000240000206E
:1044F00010B50446024801682046884710BD0000F8
:104500001C00002070B504460E4631462046FFF7D9
:104510005FFF0546681C08B9002070BD024850F8CE
:1045200024002844F9E700002400002070B5044668
:10453000002004E00D5C1618A555451CA8B2984251
:10454000F8DB70BD4FF04070E1EE100A70470000DC
:104550000038014000C201000303250305000000EC
:104560000000024044000240002000000000024021
:1045700058000240000000000044004000C201005A
:1045800003032603040000000000024080000240F4
:1045900000000002000002406C0002400000000029
:1045A0000048004000C2010003032703030000008D
:1045B000000002401C0002402000000000000240F9
:1045C0003000024000000000004C004000C201002A
:1045D00003033403020000000004024058040240B8
:1045E00000000210000402403004024000000000FD
:1045F0000050004000C2010002023503010000002B
:1046000000000000000000000000000000000000AA
:104610000000000000000000092500084D250008EA
:10462000B52500080038014000C20100030325033E
:10463000050000000000024044000240002000008D
:10464000000002405800024000000000004400400A
:1046500000C2010003032603040000000000024022
:104660008000024000000002000002406C00024096
:10467000000000000048004000C2010003032703BF
:1046800003000000000002401C0002402000000067
:10469000000002403000024000000000004C0040DA
:1046A00000C20100030334030200000000040240C2
:1046B000580402400000021000040240300402408E
:1046C000000000000050004000C20100020235035B
:1046D00001000000000000000000000000000000D9
:1046E0000000000000000000000000001D41000864
:1046F00065410008CD4100080000000000000000F6
:10470000454200082D42000801020304060708097B
:1047100002040608020C081000040000200000003B
:1047200000800000633C00080D3C0008F93B0008D5
:10473000A1260008544700080000002030000000B7
:10474000B8010008844700083000002040EE000057
:10475000D40100080000000000A24A04000000008C
:104760000000000001020304060708090000000021
:104770008D43000879440008605E002060DE002060
:044780000000000035
:040000050800017D71
:00000001FF
